{
  "address": "0x846C48E6493012023BA79D51a8CD0D61E4D4d973",
  "abi": [
    {
      "inputs": [
        {
          "internalType": "uint64",
          "name": "_id",
          "type": "uint64"
        },
        {
          "internalType": "bytes32",
          "name": "_hash",
          "type": "bytes32"
        }
      ],
      "name": "CarAlreadyExists",
      "type": "error"
    },
    {
      "inputs": [
        {
          "internalType": "uint64",
          "name": "_id",
          "type": "uint64"
        }
      ],
      "name": "CarNotExist",
      "type": "error"
    },
    {
      "inputs": [
        {
          "internalType": "uint64",
          "name": "_id",
          "type": "uint64"
        },
        {
          "internalType": "uint64",
          "name": "_filecoinId",
          "type": "uint64"
        }
      ],
      "name": "InvalidReplicaFilecoinDealState",
      "type": "error"
    },
    {
      "inputs": [
        {
          "internalType": "uint64",
          "name": "_id",
          "type": "uint64"
        },
        {
          "internalType": "uint64",
          "name": "_matchingId",
          "type": "uint64"
        }
      ],
      "name": "InvalidReplicaState",
      "type": "error"
    },
    {
      "inputs": [
        {
          "internalType": "uint64",
          "name": "_id",
          "type": "uint64"
        },
        {
          "internalType": "uint64",
          "name": "_matchingId",
          "type": "uint64"
        }
      ],
      "name": "ReplicaAlreadyExists",
      "type": "error"
    },
    {
      "inputs": [
        {
          "internalType": "uint64",
          "name": "_id",
          "type": "uint64"
        },
        {
          "internalType": "uint64",
          "name": "_matchingId",
          "type": "uint64"
        }
      ],
      "name": "ReplicaFilecoinClaimIdExists",
      "type": "error"
    },
    {
      "inputs": [
        {
          "internalType": "uint64",
          "name": "_id",
          "type": "uint64"
        },
        {
          "internalType": "uint64",
          "name": "_matchingId",
          "type": "uint64"
        }
      ],
      "name": "ReplicaNotExist",
      "type": "error"
    },
    {
      "inputs": [
        {
          "internalType": "string",
          "name": "log",
          "type": "string"
        },
        {
          "internalType": "address",
          "name": "sendr",
          "type": "address"
        },
        {
          "internalType": "address",
          "name": "allowd",
          "type": "address"
        }
      ],
      "name": "errorAddress",
      "type": "error"
    },
    {
      "anonymous": false,
      "inputs": [
        {
          "indexed": false,
          "internalType": "address",
          "name": "previousAdmin",
          "type": "address"
        },
        {
          "indexed": false,
          "internalType": "address",
          "name": "newAdmin",
          "type": "address"
        }
      ],
      "name": "AdminChanged",
      "type": "event"
    },
    {
      "anonymous": false,
      "inputs": [
        {
          "indexed": true,
          "internalType": "address",
          "name": "beacon",
          "type": "address"
        }
      ],
      "name": "BeaconUpgraded",
      "type": "event"
    },
    {
      "anonymous": false,
      "inputs": [
        {
          "indexed": true,
          "internalType": "uint64",
          "name": "_id",
          "type": "uint64"
        },
        {
          "indexed": false,
          "internalType": "uint64",
          "name": "_matchingId",
          "type": "uint64"
        }
      ],
      "name": "CarReplicaExpired",
      "type": "event"
    },
    {
      "anonymous": false,
      "inputs": [
        {
          "indexed": true,
          "internalType": "uint64",
          "name": "_id",
          "type": "uint64"
        },
        {
          "indexed": false,
          "internalType": "uint64",
          "name": "_matchingId",
          "type": "uint64"
        },
        {
          "indexed": false,
          "internalType": "uint64",
          "name": "_claimId",
          "type": "uint64"
        }
      ],
      "name": "CarReplicaFilecoinClaimIdSet",
      "type": "event"
    },
    {
      "anonymous": false,
      "inputs": [
        {
          "indexed": true,
          "internalType": "uint64",
          "name": "_id",
          "type": "uint64"
        },
        {
          "indexed": false,
          "internalType": "uint64",
          "name": "_matchingId",
          "type": "uint64"
        },
        {
          "indexed": false,
          "internalType": "string",
          "name": "_matchingState",
          "type": "string"
        }
      ],
      "name": "CarReplicaMatchingState",
      "type": "event"
    },
    {
      "anonymous": false,
      "inputs": [
        {
          "indexed": true,
          "internalType": "uint64",
          "name": "_id",
          "type": "uint64"
        },
        {
          "indexed": false,
          "internalType": "uint64",
          "name": "_matchingId",
          "type": "uint64"
        },
        {
          "indexed": false,
          "internalType": "uint16",
          "name": "_replicaIndex",
          "type": "uint16"
        }
      ],
      "name": "CarReplicaRegisted",
      "type": "event"
    },
    {
      "anonymous": false,
      "inputs": [
        {
          "indexed": true,
          "internalType": "uint64",
          "name": "_id",
          "type": "uint64"
        },
        {
          "indexed": false,
          "internalType": "uint64",
          "name": "_matchingId",
          "type": "uint64"
        }
      ],
      "name": "CarReplicaSlashed",
      "type": "event"
    },
    {
      "anonymous": false,
      "inputs": [
        {
          "indexed": false,
          "internalType": "bytes32[]",
          "name": "_cids",
          "type": "bytes32[]"
        }
      ],
      "name": "CarsAdded",
      "type": "event"
    },
    {
      "anonymous": false,
      "inputs": [
        {
          "indexed": false,
          "internalType": "uint8",
          "name": "version",
          "type": "uint8"
        }
      ],
      "name": "Initialized",
      "type": "event"
    },
    {
      "anonymous": false,
      "inputs": [
        {
          "indexed": true,
          "internalType": "address",
          "name": "implementation",
          "type": "address"
        }
      ],
      "name": "Upgraded",
      "type": "event"
    },
    {
      "inputs": [
        {
          "internalType": "bytes32",
          "name": "_cid",
          "type": "bytes32"
        },
        {
          "internalType": "uint64",
          "name": "_datasetId",
          "type": "uint64"
        },
        {
          "internalType": "uint64",
          "name": "_size",
          "type": "uint64"
        },
        {
          "internalType": "uint16",
          "name": "_replicaCount",
          "type": "uint16"
        }
      ],
      "name": "addCar",
      "outputs": [
        {
          "internalType": "uint64",
          "name": "",
          "type": "uint64"
        }
      ],
      "stateMutability": "nonpayable",
      "type": "function"
    },
    {
      "inputs": [
        {
          "internalType": "bytes32[]",
          "name": "_cids",
          "type": "bytes32[]"
        },
        {
          "internalType": "uint64",
          "name": "_datasetId",
          "type": "uint64"
        },
        {
          "internalType": "uint64[]",
          "name": "_sizes",
          "type": "uint64[]"
        },
        {
          "internalType": "uint16",
          "name": "_replicaCount",
          "type": "uint16"
        }
      ],
      "name": "addCars",
      "outputs": [
        {
          "internalType": "uint64[]",
          "name": "",
          "type": "uint64[]"
        },
        {
          "internalType": "uint64",
          "name": "",
          "type": "uint64"
        }
      ],
      "stateMutability": "nonpayable",
      "type": "function"
    },
    {
      "inputs": [],
      "name": "carsCount",
      "outputs": [
        {
          "internalType": "uint64",
          "name": "",
          "type": "uint64"
        }
      ],
      "stateMutability": "view",
      "type": "function"
    },
    {
      "inputs": [
        {
          "internalType": "address",
          "name": "_roles",
          "type": "address"
        },
        {
          "internalType": "address",
          "name": "_filplus",
          "type": "address"
        },
        {
          "internalType": "address",
          "name": "_filecoin",
          "type": "address"
        }
      ],
      "name": "carstoreBaseInitialize",
      "outputs": [],
      "stateMutability": "nonpayable",
      "type": "function"
    },
    {
      "inputs": [],
      "name": "filecoin",
      "outputs": [
        {
          "internalType": "contract IFilecoin",
          "name": "",
          "type": "address"
        }
      ],
      "stateMutability": "view",
      "type": "function"
    },
    {
      "inputs": [],
      "name": "filplus",
      "outputs": [
        {
          "internalType": "contract IFilplus",
          "name": "",
          "type": "address"
        }
      ],
      "stateMutability": "view",
      "type": "function"
    },
    {
      "inputs": [
        {
          "internalType": "uint64",
          "name": "_id",
          "type": "uint64"
        }
      ],
      "name": "getCarDatasetId",
      "outputs": [
        {
          "internalType": "uint64",
          "name": "",
          "type": "uint64"
        }
      ],
      "stateMutability": "view",
      "type": "function"
    },
    {
      "inputs": [
        {
          "internalType": "uint64",
          "name": "_id",
          "type": "uint64"
        }
      ],
      "name": "getCarHash",
      "outputs": [
        {
          "internalType": "bytes32",
          "name": "",
          "type": "bytes32"
        }
      ],
      "stateMutability": "view",
      "type": "function"
    },
    {
      "inputs": [
        {
          "internalType": "bytes32",
          "name": "_hash",
          "type": "bytes32"
        }
      ],
      "name": "getCarId",
      "outputs": [
        {
          "internalType": "uint64",
          "name": "",
          "type": "uint64"
        }
      ],
      "stateMutability": "view",
      "type": "function"
    },
    {
      "inputs": [
        {
          "internalType": "uint64",
          "name": "_id",
          "type": "uint64"
        }
      ],
      "name": "getCarMatchingIds",
      "outputs": [
        {
          "internalType": "uint64[]",
          "name": "",
          "type": "uint64[]"
        }
      ],
      "stateMutability": "view",
      "type": "function"
    },
    {
      "inputs": [
        {
          "internalType": "uint64",
          "name": "_id",
          "type": "uint64"
        },
        {
          "internalType": "uint64",
          "name": "_matchingId",
          "type": "uint64"
        }
      ],
      "name": "getCarReplica",
      "outputs": [
        {
          "internalType": "enum CarReplicaType.State",
          "name": "",
          "type": "uint8"
        },
        {
          "internalType": "uint64",
          "name": "",
          "type": "uint64"
        }
      ],
      "stateMutability": "view",
      "type": "function"
    },
    {
      "inputs": [
        {
          "internalType": "uint64",
          "name": "_id",
          "type": "uint64"
        },
        {
          "internalType": "uint64",
          "name": "_matchingId",
          "type": "uint64"
        }
      ],
      "name": "getCarReplicaFilecoinClaimId",
      "outputs": [
        {
          "internalType": "uint64",
          "name": "",
          "type": "uint64"
        }
      ],
      "stateMutability": "view",
      "type": "function"
    },
    {
      "inputs": [
        {
          "internalType": "uint64",
          "name": "_id",
          "type": "uint64"
        },
        {
          "internalType": "uint64",
          "name": "_matchingId",
          "type": "uint64"
        }
      ],
      "name": "getCarReplicaState",
      "outputs": [
        {
          "internalType": "enum CarReplicaType.State",
          "name": "",
          "type": "uint8"
        }
      ],
      "stateMutability": "view",
      "type": "function"
    },
    {
      "inputs": [
        {
          "internalType": "uint64",
          "name": "_id",
          "type": "uint64"
        }
      ],
      "name": "getCarReplicasCount",
      "outputs": [
        {
          "internalType": "uint16",
          "name": "",
          "type": "uint16"
        }
      ],
      "stateMutability": "view",
      "type": "function"
    },
    {
      "inputs": [
        {
          "internalType": "uint64",
          "name": "_id",
          "type": "uint64"
        }
      ],
      "name": "getCarSize",
      "outputs": [
        {
          "internalType": "uint64",
          "name": "",
          "type": "uint64"
        }
      ],
      "stateMutability": "view",
      "type": "function"
    },
    {
      "inputs": [
        {
          "internalType": "uint64[]",
          "name": "_ids",
          "type": "uint64[]"
        }
      ],
      "name": "getCarsHashs",
      "outputs": [
        {
          "internalType": "bytes32[]",
          "name": "",
          "type": "bytes32[]"
        }
      ],
      "stateMutability": "view",
      "type": "function"
    },
    {
      "inputs": [
        {
          "internalType": "bytes32[]",
          "name": "_hashs",
          "type": "bytes32[]"
        }
      ],
      "name": "getCarsIds",
      "outputs": [
        {
          "internalType": "uint64[]",
          "name": "",
          "type": "uint64[]"
        }
      ],
      "stateMutability": "view",
      "type": "function"
    },
    {
      "inputs": [
        {
          "internalType": "uint64[]",
          "name": "_ids",
          "type": "uint64[]"
        }
      ],
      "name": "getCarsSize",
      "outputs": [
        {
          "internalType": "uint64",
          "name": "",
          "type": "uint64"
        }
      ],
      "stateMutability": "view",
      "type": "function"
    },
    {
      "inputs": [],
      "name": "getImplementation",
      "outputs": [
        {
          "internalType": "address",
          "name": "",
          "type": "address"
        }
      ],
      "stateMutability": "view",
      "type": "function"
    },
    {
      "inputs": [
        {
          "internalType": "uint64",
          "name": "_id",
          "type": "uint64"
        }
      ],
      "name": "hasCar",
      "outputs": [
        {
          "internalType": "bool",
          "name": "",
          "type": "bool"
        }
      ],
      "stateMutability": "view",
      "type": "function"
    },
    {
      "inputs": [
        {
          "internalType": "bytes32",
          "name": "_hash",
          "type": "bytes32"
        }
      ],
      "name": "hasCarHash",
      "outputs": [
        {
          "internalType": "bool",
          "name": "",
          "type": "bool"
        }
      ],
      "stateMutability": "view",
      "type": "function"
    },
    {
      "inputs": [
        {
          "internalType": "uint64",
          "name": "_id",
          "type": "uint64"
        },
        {
          "internalType": "uint64",
          "name": "_matchingId",
          "type": "uint64"
        }
      ],
      "name": "hasCarReplica",
      "outputs": [
        {
          "internalType": "bool",
          "name": "",
          "type": "bool"
        }
      ],
      "stateMutability": "view",
      "type": "function"
    },
    {
      "inputs": [
        {
          "internalType": "uint64[]",
          "name": "_ids",
          "type": "uint64[]"
        }
      ],
      "name": "hasCars",
      "outputs": [
        {
          "internalType": "bool",
          "name": "",
          "type": "bool"
        }
      ],
      "stateMutability": "view",
      "type": "function"
    },
    {
      "inputs": [
        {
          "internalType": "bytes32[]",
          "name": "_hashs",
          "type": "bytes32[]"
        }
      ],
      "name": "hasCarsHashs",
      "outputs": [
        {
          "internalType": "bool",
          "name": "",
          "type": "bool"
        }
      ],
      "stateMutability": "view",
      "type": "function"
    },
    {
      "inputs": [
        {
          "internalType": "address",
          "name": "_roles",
          "type": "address"
        },
        {
          "internalType": "address",
          "name": "_filplus",
          "type": "address"
        },
        {
          "internalType": "address",
          "name": "_filecoin",
          "type": "address"
        }
      ],
      "name": "initialize",
      "outputs": [],
      "stateMutability": "nonpayable",
      "type": "function"
    },
    {
      "inputs": [],
      "name": "proxiableUUID",
      "outputs": [
        {
          "internalType": "bytes32",
          "name": "",
          "type": "bytes32"
        }
      ],
      "stateMutability": "view",
      "type": "function"
    },
    {
      "inputs": [
        {
          "internalType": "uint64",
          "name": "_id",
          "type": "uint64"
        },
        {
          "internalType": "uint64",
          "name": "_matchingId",
          "type": "uint64"
        },
        {
          "internalType": "uint16",
          "name": "_replicaIndex",
          "type": "uint16"
        }
      ],
      "name": "registCarReplica",
      "outputs": [],
      "stateMutability": "nonpayable",
      "type": "function"
    },
    {
      "inputs": [
        {
          "internalType": "uint64",
          "name": "_id",
          "type": "uint64"
        },
        {
          "internalType": "uint64",
          "name": "_matchingId",
          "type": "uint64"
        },
        {
          "internalType": "uint64",
          "name": "_claimId",
          "type": "uint64"
        }
      ],
      "name": "reportCarReplicaExpired",
      "outputs": [],
      "stateMutability": "nonpayable",
      "type": "function"
    },
    {
      "inputs": [
        {
          "internalType": "uint64",
          "name": "_id",
          "type": "uint64"
        },
        {
          "internalType": "uint64",
          "name": "_matchingId",
          "type": "uint64"
        },
        {
          "internalType": "bool",
          "name": "_matchingState",
          "type": "bool"
        }
      ],
      "name": "reportCarReplicaMatchingState",
      "outputs": [],
      "stateMutability": "nonpayable",
      "type": "function"
    },
    {
      "inputs": [
        {
          "internalType": "uint64",
          "name": "_id",
          "type": "uint64"
        },
        {
          "internalType": "uint64",
          "name": "_matchingId",
          "type": "uint64"
        },
        {
          "internalType": "uint64",
          "name": "_claimId",
          "type": "uint64"
        }
      ],
      "name": "reportCarReplicaSlashed",
      "outputs": [],
      "stateMutability": "nonpayable",
      "type": "function"
    },
    {
      "inputs": [
        {
          "internalType": "uint64",
          "name": "_id",
          "type": "uint64"
        },
        {
          "internalType": "uint64",
          "name": "_matchingId",
          "type": "uint64"
        },
        {
          "internalType": "uint64",
          "name": "_claimId",
          "type": "uint64"
        }
      ],
      "name": "setCarReplicaFilecoinClaimId",
      "outputs": [],
      "stateMutability": "nonpayable",
      "type": "function"
    },
    {
      "inputs": [
        {
          "internalType": "address",
          "name": "newImplementation",
          "type": "address"
        }
      ],
      "name": "upgradeTo",
      "outputs": [],
      "stateMutability": "nonpayable",
      "type": "function"
    },
    {
      "inputs": [
        {
          "internalType": "address",
          "name": "newImplementation",
          "type": "address"
        },
        {
          "internalType": "bytes",
          "name": "data",
          "type": "bytes"
        }
      ],
      "name": "upgradeToAndCall",
      "outputs": [],
      "stateMutability": "payable",
      "type": "function"
    }
  ],
  "numDeployments": 1,
  "solcInputHash": "41e379183134fdd1b89fe7b3f8116a55",
  "bytecode": "0x60a06040523060805234801561001457600080fd5b506080516144b361004c60003960008181610eaa01528181610eea01528181610f7201528181610fb2015261102e01526144b36000f3fe60806040526004361061017e5760003560e01c80630f2ca1dc146101835780630fb3ae6a146101b957806313083f86146101e757806326ca5a711461020957806327f51bc3146102365780632bb36e6e14610256578063310805421461028357806334336795146102b05780633659cfe6146102de5780634f1ef286146102fe57806352d1902d1461031157806357e926df146103265780635ca64ded146103465780638314ce091461037357806391e3ce74146103935780639528f062146103b35780639a18ccdc146103d3578063aaf10f4214610400578063b5d5e5cf14610422578063be337ac51461044f578063c084cf031461046f578063c0c53b8b1461048f578063c27638fc146104af578063c3d97a27146104cf578063c66e39bb146104ef578063c73f437e1461051c578063cd17a4a41461053c578063cf24e53b1461055c578063d4c0de381461057c578063e757681a1461059c578063e7628519146105bc578063eb058c64146105dc578063eeec85dc146105fc575b600080fd5b34801561018f57600080fd5b506101a361019e3660046133ab565b61061c565b6040516101b091906133ef565b60405180910390f35b3480156101c557600080fd5b506101d96101d4366004613498565b610685565b6040516101b0929190613595565b3480156101f357600080fd5b506102076102023660046135b5565b61083c565b005b34801561021557600080fd5b50610229610224366004613605565b610a13565b6040516101b0919061362c565b34801561024257600080fd5b506101a3610251366004613605565b610a24565b34801561026257600080fd5b5061027661027136600461363a565b610a72565b6040516101b09190613681565b34801561028f57600080fd5b506102a361029e366004613605565b610c7c565b6040516101b0919061368f565b3480156102bc57600080fd5b506102d06102cb3660046136a0565b610d25565b6040516101b0929190613721565b3480156102ea57600080fd5b506102076102f9366004613767565b610ea0565b61020761030c36600461381f565b610f68565b34801561031d57600080fd5b50610229611021565b34801561033257600080fd5b506102766103413660046136a0565b61107e565b34801561035257600080fd5b506103666103613660046136a0565b6111e4565b6040516101b0919061386c565b34801561037f57600080fd5b5061020761038e36600461387a565b6112ba565b34801561039f57600080fd5b506102076103ae3660046138c0565b611320565b3480156103bf57600080fd5b506102076103ce366004613919565b6115c7565b3480156103df57600080fd5b506103f36103ee3660046133ab565b611792565b6040516101b091906139a9565b34801561040c57600080fd5b5061041561185a565b6040516101b091906139c3565b34801561042e57600080fd5b5061044261043d366004613605565b611869565b6040516101b091906139db565b34801561045b57600080fd5b506102a361046a3660046139e9565b61190b565b34801561047b57600080fd5b5061027661048a366004613a23565b6119d9565b34801561049b57600080fd5b506102076104aa36600461387a565b6119e4565b3480156104bb57600080fd5b506102766104ca3660046133ab565b611ac8565b3480156104db57600080fd5b50606554610276906001600160401b031681565b3480156104fb57600080fd5b50606a5461050f906001600160a01b031681565b6040516101b09190613a7c565b34801561052857600080fd5b506102076105373660046138c0565b611b28565b34801561054857600080fd5b5060695461050f906001600160a01b031681565b34801561056857600080fd5b50610276610577366004613605565b611d87565b34801561058857600080fd5b506101a36105973660046139e9565b611e36565b3480156105a857600080fd5b506102766105b7366004613605565b611e96565b3480156105c857600080fd5b506101a36105d7366004613a23565b611ebf565b3480156105e857600080fd5b506101a36105f73660046136a0565b611ee3565b34801561060857600080fd5b506102076106173660046138c0565b611f8e565b6000805b8251816001600160401b0316101561067c5761065d83826001600160401b03168151811061065057610650613a8a565b6020026020010151610a24565b61066a5750600092915050565b8061067481613ab6565b915050610620565b50600192915050565b6060600084806001600160401b03166000036106bc5760405162461bcd60e51b81526004016106b390613b10565b60405180910390fd5b84518751146106dd5760405162461bcd60e51b81526004016106b390613b45565b60008088516001600160401b038111156106f9576106f961327a565b604051908082528060200260200182016040528015610722578160200160208202803683370190505b50905060005b8951816001600160401b031610156107f75761078a8a826001600160401b03168151811061075857610758613a8a565b60200260200101518a8a846001600160401b03168151811061077c5761077c613a8a565b60200260200101518a610a72565b82826001600160401b0316815181106107a5576107a5613a8a565b6001600160401b0392831660209182029290920101528851899183169081106107d0576107d0613a8a565b6020026020010151836107e39190613b55565b9250806107ef81613ab6565b915050610728565b507fe35ae3ed46deeca961a6cae778eae44a84d8d021bb077e78ccd8f11affa392ed8960405161082791906139a9565b60405180910390a19890975095505050505050565b6040516327f51bc360e01b81523090849082906327f51bc390610863908490600401613681565b602060405180830381865afa158015610880573d6000803e3d6000fd5b505050506040513d601f19601f820116820180604052508101906108a49190613b93565b6108c35780604051637ccc4b2f60e11b81526004016106b39190613681565b83806001600160401b03166000036108ed5760405162461bcd60e51b81526004016106b390613b10565b604051633ac1631960e21b8152309087908790839063eb058c64906109189085908590600401613bb4565b602060405180830381865afa158015610935573d6000803e3d6000fd5b505050506040513d601f19601f820116820180604052508101906109599190613b93565b1561097b57818160405163f6bd4eb360e01b81526004016106b3929190613bb4565b60006109868a6121d6565b9050610993816002015490565b61ffff168861ffff16106109b95760405162461bcd60e51b81526004016106b390613bee565b6109c4818a8a6121fd565b896001600160401b03167f41213a28d0a99603b2c14b7f5587f96651326baacb58b9ea1339749170a4f4428a8a6040516109ff929190613bfe565b60405180910390a250505050505050505050565b6000610a1e82612332565b92915050565b6000816001600160401b0316600003610a4f5760405162461bcd60e51b81526004016106b390613c3e565b6000610a5a836121d6565b546001600160401b0390811693169290921492915050565b60405163e762851960e01b815260009030908690829063e762851990610a9c90849060040161362c565b602060405180830381865afa158015610ab9573d6000803e3d6000fd5b505050506040513d601f19601f82011682018060405250810190610add9190613b93565b15610b6b5760405163c084cf0360e01b81526001600160a01b0383169063c084cf0390610b0e90849060040161362c565b602060405180830381865afa158015610b2b573d6000803e3d6000fd5b505050506040513d601f19601f82011682018060405250810190610b4f9190613c59565b8160405163243b1ed560e11b81526004016106b3929190613c7a565b85806001600160401b0316600003610b955760405162461bcd60e51b81526004016106b390613b10565b85806001600160401b0316600003610bbf5760405162461bcd60e51b81526004016106b390613b10565b606580546001600160401b0316906000610bd883613ab6565b82546001600160401b039182166101009390930a9283029190920219909116179055506000898152606660205260409020610c13818a61234d565b610c1d81886123bc565b6065805482546001600160401b038b8116600160801b026001600160401b03600160801b03600160c01b0319909216928116929092171783559054811660009081526067602052604090208b9055905416945050505050949350505050565b6040516327f51bc360e01b81526060903090839082906327f51bc390610ca6908490600401613681565b602060405180830381865afa158015610cc3573d6000803e3d6000fd5b505050506040513d601f19601f82011682018060405250810190610ce79190613b93565b610d065780604051637ccc4b2f60e11b81526004016106b39190613681565b6000610d11856121d6565b9050610d1c816124a5565b95945050505050565b6000803084816001600160a01b03166327f51bc3826040518263ffffffff1660e01b8152600401610d569190613681565b602060405180830381865afa158015610d73573d6000803e3d6000fd5b505050506040513d601f19601f82011682018060405250810190610d979190613b93565b610db65780604051637ccc4b2f60e11b81526004016106b39190613681565b84806001600160401b0316600003610de05760405162461bcd60e51b81526004016106b390613b10565b604051633ac1631960e21b8152309088908890839063eb058c6490610e0b9085908590600401613bb4565b602060405180830381865afa158015610e28573d6000803e3d6000fd5b505050506040513d601f19601f82011682018060405250810190610e4c9190613b93565b610e6d5781816040516333fcc5d360e11b81526004016106b3929190613bb4565b6000610e788b6121d6565b9050610e84818b6125bf565b610e8e828c612691565b98509850505050505050509250929050565b6001600160a01b037f0000000000000000000000000000000000000000000000000000000000000000163003610ee85760405162461bcd60e51b81526004016106b390613ccf565b7f00000000000000000000000000000000000000000000000000000000000000006001600160a01b0316610f1a612767565b6001600160a01b031614610f405760405162461bcd60e51b81526004016106b390613d16565b610f4981612783565b60408051600080825260208201909252610f6591839190612817565b50565b6001600160a01b037f0000000000000000000000000000000000000000000000000000000000000000163003610fb05760405162461bcd60e51b81526004016106b390613ccf565b7f00000000000000000000000000000000000000000000000000000000000000006001600160a01b0316610fe2612767565b6001600160a01b0316146110085760405162461bcd60e51b81526004016106b390613d16565b61101182612783565b61101d82826001612817565b5050565b6000306001600160a01b037f0000000000000000000000000000000000000000000000000000000000000000161461106b5760405162461bcd60e51b81526004016106b390613d7b565b5060008051602061441783398151915290565b6040516327f51bc360e01b81526000903090849082906327f51bc3906110a8908490600401613681565b602060405180830381865afa1580156110c5573d6000803e3d6000fd5b505050506040513d601f19601f820116820180604052508101906110e99190613b93565b6111085780604051637ccc4b2f60e11b81526004016106b39190613681565b83806001600160401b03166000036111325760405162461bcd60e51b81526004016106b390613b10565b604051633ac1631960e21b8152309087908790839063eb058c649061115d9085908590600401613bb4565b602060405180830381865afa15801561117a573d6000803e3d6000fd5b505050506040513d601f19601f8201168201806040525081019061119e9190613b93565b6111bf5781816040516333fcc5d360e11b81526004016106b3929190613bb4565b60006111ca8a6121d6565b90506111d6818a612691565b9a9950505050505050505050565b6040516327f51bc360e01b81526000903090849082906327f51bc39061120e908490600401613681565b602060405180830381865afa15801561122b573d6000803e3d6000fd5b505050506040513d601f19601f8201168201806040525081019061124f9190613b93565b61126e5780604051637ccc4b2f60e11b81526004016106b39190613681565b83806001600160401b03166000036112985760405162461bcd60e51b81526004016106b390613b10565b60006112a3876121d6565b90506112af81876125bf565b979650505050505050565b600054610100900460ff166112e15760405162461bcd60e51b81526004016106b390613dd3565b606880546001600160a01b039485166001600160a01b0319918216179091556069805493851693821693909317909255606a8054919093169116179055565b6040516327f51bc360e01b81523090849082906327f51bc390611347908490600401613681565b602060405180830381865afa158015611364573d6000803e3d6000fd5b505050506040513d601f19601f820116820180604052508101906113889190613b93565b6113a75780604051637ccc4b2f60e11b81526004016106b39190613681565b83806001600160401b03166000036113d15760405162461bcd60e51b81526004016106b390613b10565b83806001600160401b03166000036113fb5760405162461bcd60e51b81526004016106b390613b10565b604051633ac1631960e21b8152309088908890839063eb058c64906114269085908590600401613bb4565b602060405180830381865afa158015611443573d6000803e3d6000fd5b505050506040513d601f19601f820116820180604052508101906114679190613b93565b6114885781816040516333fcc5d360e11b81526004016106b3929190613bb4565b6040516357e926df60e01b815230908b908b9083906357e926df906114b39085908590600401613bb4565b602060405180830381865afa1580156114d0573d6000803e3d6000fd5b505050506040513d601f19601f820116820180604052508101906114f49190613c59565b6001600160401b03161561151f578181604051637f579cdf60e01b81526004016106b3929190613bb4565b61152b8d8d60016128f9565b60006115368e612332565b905060006115438f6121d6565b9050611573828f8f606a60009054906101000a90046001600160a01b03168561294890949392919063ffffffff16565b8e6001600160401b03167f71d4ff176efe5dd026d11903476249f064ccc8abf867ae20fe24ecb57f87aade8f8f6040516115ae929190613bb4565b60405180910390a2505050505050505050505050505050565b6040516327f51bc360e01b81523090849082906327f51bc3906115ee908490600401613681565b602060405180830381865afa15801561160b573d6000803e3d6000fd5b505050506040513d601f19601f8201168201806040525081019061162f9190613b93565b61164e5780604051637ccc4b2f60e11b81526004016106b39190613681565b83806001600160401b03166000036116785760405162461bcd60e51b81526004016106b390613b10565b604051633ac1631960e21b8152309087908790839063eb058c64906116a39085908590600401613bb4565b602060405180830381865afa1580156116c0573d6000803e3d6000fd5b505050506040513d601f19601f820116820180604052508101906116e49190613b93565b6117055781816040516333fcc5d360e11b81526004016106b3929190613bb4565b861561174b5761171789896001612abf565b886001600160401b031660008051602061445e8339815191528960405161173e9190613e01565b60405180910390a2611787565b61175789896000612abf565b886001600160401b031660008051602061445e8339815191528960405161177e9190613e3d565b60405180910390a25b505050505050505050565b6060600082516001600160401b038111156117af576117af61327a565b6040519080825280602002602001820160405280156117d8578160200160208202803683370190505b50905060005b8351816001600160401b031610156118535761181b84826001600160401b03168151811061180e5761180e613a8a565b6020026020010151612332565b82826001600160401b03168151811061183657611836613a8a565b60209081029190910101528061184b81613ab6565b9150506117de565b5092915050565b6000611864612767565b905090565b6040516327f51bc360e01b81526000903090839082906327f51bc390611893908490600401613681565b602060405180830381865afa1580156118b0573d6000803e3d6000fd5b505050506040513d601f19601f820116820180604052508101906118d49190613b93565b6118f35780604051637ccc4b2f60e11b81526004016106b39190613681565b60006118fe856121d6565b9050610d1c816002015490565b6060600082516001600160401b038111156119285761192861327a565b604051908082528060200260200182016040528015611951578160200160208202803683370190505b50905060005b8351816001600160401b031610156118535761199484826001600160401b03168151811061198757611987613a8a565b6020026020010151612c21565b82826001600160401b0316815181106119af576119af613a8a565b6001600160401b0390921660209283029190910190910152806119d181613ab6565b915050611957565b6000610a1e82612c21565b600054610100900460ff1615808015611a045750600054600160ff909116105b80611a255750611a1330612c3c565b158015611a25575060005460ff166001145b611a415760405162461bcd60e51b81526004016106b390613ea7565b6000805460ff191660011790558015611a64576000805461ff0019166101001790555b611a6f8484846112ba565b611a77612c4b565b8015611ac2576000805461ff00191690556040517f7f26b83ff96e1f2b6a682f133852f6798a09c465da95921460cefb384740249890611ab990600190613ecb565b60405180910390a15b50505050565b600080805b8351816001600160401b0316101561185357611b0a84826001600160401b031681518110611afd57611afd613a8a565b6020026020010151611d87565b611b149083613b55565b915080611b2081613ab6565b915050611acd565b6040516327f51bc360e01b81523090849082906327f51bc390611b4f908490600401613681565b602060405180830381865afa158015611b6c573d6000803e3d6000fd5b505050506040513d601f19601f82011682018060405250810190611b909190613b93565b611baf5780604051637ccc4b2f60e11b81526004016106b39190613681565b83806001600160401b0316600003611bd95760405162461bcd60e51b81526004016106b390613b10565b604051633ac1631960e21b8152309087908790839063eb058c6490611c049085908590600401613bb4565b602060405180830381865afa158015611c21573d6000803e3d6000fd5b505050506040513d601f19601f82011682018060405250810190611c459190613b93565b611c665781816040516333fcc5d360e11b81526004016106b3929190613bb4565b3089896002836001600160a01b0316635ca64ded84846040518363ffffffff1660e01b8152600401611c99929190613bb4565b602060405180830381865afa158015611cb6573d6000803e3d6000fd5b505050506040513d601f19601f82011682018060405250810190611cda9190613ef1565b6005811115611ceb57611ceb6136dd565b816005811115611cfd57611cfd6136dd565b14611d1f5782826040516311bb196560e21b81526004016106b3929190613bb4565b611d2b8d8c6003612c74565b611d378d8d6004612abf565b8c6001600160401b03167f21dbfa82d4b89da6859dec9a92e73c407878460e261746073e06920580e149768d604051611d709190613681565b60405180910390a250505050505050505050505050565b6040516327f51bc360e01b81526000903090839082906327f51bc390611db1908490600401613681565b602060405180830381865afa158015611dce573d6000803e3d6000fd5b505050506040513d601f19601f82011682018060405250810190611df29190613b93565b611e115780604051637ccc4b2f60e11b81526004016106b39190613681565b6000611e1c856121d6565b54600160801b90046001600160401b031695945050505050565b6000805b8251816001600160401b0316101561067c57611e7783826001600160401b031681518110611e6a57611e6a613a8a565b6020026020010151611ebf565b611e845750600092915050565b80611e8e81613ab6565b915050611e3a565b600080611ea2836121d6565b8054909150600160401b90046001600160401b03165b9392505050565b600090815260666020526040902054600160401b90046001600160401b0316151590565b6040516327f51bc360e01b81526000903090849082906327f51bc390611f0d908490600401613681565b602060405180830381865afa158015611f2a573d6000803e3d6000fd5b505050506040513d601f19601f82011682018060405250810190611f4e9190613b93565b611f6d5780604051637ccc4b2f60e11b81526004016106b39190613681565b6000611f78866121d6565b9050611f848186612d34565b9695505050505050565b6040516327f51bc360e01b81523090849082906327f51bc390611fb5908490600401613681565b602060405180830381865afa158015611fd2573d6000803e3d6000fd5b505050506040513d601f19601f82011682018060405250810190611ff69190613b93565b6120155780604051637ccc4b2f60e11b81526004016106b39190613681565b83806001600160401b031660000361203f5760405162461bcd60e51b81526004016106b390613b10565b604051633ac1631960e21b8152309087908790839063eb058c649061206a9085908590600401613bb4565b602060405180830381865afa158015612087573d6000803e3d6000fd5b505050506040513d601f19601f820116820180604052508101906120ab9190613b93565b6120cc5781816040516333fcc5d360e11b81526004016106b3929190613bb4565b3089896002836001600160a01b0316635ca64ded84846040518363ffffffff1660e01b81526004016120ff929190613bb4565b602060405180830381865afa15801561211c573d6000803e3d6000fd5b505050506040513d601f19601f820116820180604052508101906121409190613ef1565b6005811115612151576121516136dd565b816005811115612163576121636136dd565b146121855782826040516311bb196560e21b81526004016106b3929190613bb4565b6121918d8c6002612c74565b61219d8d8d6005612abf565b8c6001600160401b03167fd8cfa571062e8a9bcb997476d3d9494fa75787a60f35116ace6289e43ba2a20b8d604051611d709190613681565b6001600160401b031660009081526067602090815260408083205483526066909152902090565b816001600160401b03166000036122265760405162461bcd60e51b81526004016106b390613f3c565b6122308383612d34565b1561224d5760405162461bcd60e51b81526004016106b390613f79565b6000836002018261ffff168154811061226857612268613a8a565b6000918252602082200180549092506001600160401b031690036122c75760008154600160801b900460ff1660058111156122a5576122a56136dd565b146122c25760405162461bcd60e51b81526004016106b390613fb1565b6122ed565b6122d081612df5565b156122ed5760405162461bcd60e51b81526004016106b390613fef565b80546001600160401b03939093166001600160881b031990931683179055600091825260019290920160205260409020805461ffff191661ffff909216919091179055565b6001600160401b031660009081526067602052604090205490565b6001600160401b03811615801590612379575081546001600160401b03828116600160401b9092041614155b6123955760405162461bcd60e51b81526004016106b390614028565b81546001600160401b03909116600160401b02600160401b600160801b0319909116179055565b6002820154156123de5760405162461bcd60e51b81526004016106b390614063565b60005b8161ffff168161ffff1610156124a05761241260408051606081018252600080825260208201819052909182015290565b6002840180546001810182556000918252602091829020835191018054928401516001600160401b03908116600160401b026001600160801b0319909416921691909117919091178082556040830151839291829060ff60801b1916600160801b836005811115612485576124856136dd565b0217905550505050808061249890614073565b9150506123e1565b505050565b60028101546060906000906001600160401b038111156124c7576124c761327a565b6040519080825280602002602001820160405280156124f0578160200160208202803683370190505b50905060005b60028401546001600160401b03821610156118535761253b84600201826001600160401b03168154811061252c5761252c613a8a565b90600052602060002001612df5565b156125ad5783600201816001600160401b03168154811061255e5761255e613a8a565b60009182526020909120015482516001600160401b0391821691849190841690811061258c5761258c613a8a565b60200260200101906001600160401b031690816001600160401b0316815250505b806125b781613ab6565b9150506124f6565b6000816001600160401b03166000036125ea5760405162461bcd60e51b81526004016106b390613f3c565b6001600160401b0382166000908152600184016020526040902054600284015461ffff90911690811061262f5760405162461bcd60e51b81526004016106b3906140b5565b6000846002018261ffff168154811061264a5761264a613a8a565b600091825260209091200190506126618185612e37565b61267d5760405162461bcd60e51b81526004016106b390613f3c565b54600160801b900460ff1691505092915050565b6000816001600160401b03166000036126bc5760405162461bcd60e51b81526004016106b390613f3c565b6126c68383612d34565b6126e25760405162461bcd60e51b81526004016106b3906140f1565b6001600160401b038216600090815260018401602052604081205460028501805461ffff90921692918390811061271b5761271b613a8a565b600091825260209091200190506127328185612e37565b61274e5760405162461bcd60e51b81526004016106b390613f3c565b54600160401b90046001600160401b0316949350505050565b600080516020614417833981519152546001600160a01b031690565b606854604051632474521560e21b81526001600160a01b039091169060009082906391d14854906127ba9084903390600401614101565b602060405180830381865afa1580156127d7573d6000803e3d6000fd5b505050506040513d601f19601f820116820180604052508101906127fb9190613b93565b6124a05760405162461bcd60e51b81526004016106b39061414d565b7f4910fdfa16fed3260ed0e7147f7cc6da11a60208b5b9406d12a635614ffd91435460ff161561284a576124a083612e56565b826001600160a01b03166352d1902d6040518163ffffffff1660e01b8152600401602060405180830381865afa9250505080156128a4575060408051601f3d908101601f191682019092526128a191810190614168565b60015b6128c05760405162461bcd60e51b81526004016106b3906141d4565b60008051602061441783398151915281146128ed5760405162461bcd60e51b81526004016106b39061422a565b506124a0838383612eaa565b61290383836111e4565b6005811115612914576129146136dd565b816005811115612926576129266136dd565b146124a05782826040516311bb196560e21b81526004016106b3929190613bb4565b826001600160401b03166000036129715760405162461bcd60e51b81526004016106b390613f3c565b816001600160401b031660000361299a5760405162461bcd60e51b81526004016106b39061426a565b6129a48584612d34565b6129c05760405162461bcd60e51b81526004016106b3906140f1565b6001600160401b038316600090815260018601602052604081205460028701805461ffff9092169291839081106129f9576129f9613a8a565b60009182526020909120019050612a108185612ecf565b604051636a9799c560e11b81526001600160a01b0384169063d52f338a90612a3e908990889060040161427a565b6020604051808303816000875af1158015612a5d573d6000803e3d6000fd5b505050506040513d601f19601f82011682018060405250810190612a8191906142a0565b6003811115612a9257612a926136dd565b600003612aaa57612aa587866002612f17565b612ab6565b612ab687866003612f17565b50505050505050565b6040516327f51bc360e01b81523090849082906327f51bc390612ae6908490600401613681565b602060405180830381865afa158015612b03573d6000803e3d6000fd5b505050506040513d601f19601f82011682018060405250810190612b279190613b93565b612b465780604051637ccc4b2f60e11b81526004016106b39190613681565b83806001600160401b0316600003612b705760405162461bcd60e51b81526004016106b390613b10565b604051633ac1631960e21b8152309087908790839063eb058c6490612b9b9085908590600401613bb4565b602060405180830381865afa158015612bb8573d6000803e3d6000fd5b505050506040513d601f19601f82011682018060405250810190612bdc9190613b93565b612bfd5781816040516333fcc5d360e11b81526004016106b3929190613bb4565b6000612c088a6121d6565b9050612c15818a8a612f17565b50505050505050505050565b6000908152606660205260409020546001600160401b031690565b6001600160a01b03163b151590565b600054610100900460ff16612c725760405162461bcd60e51b81526004016106b390613dd3565b565b606a546001600160a01b031663d52f338a612c8e85610a13565b846040518363ffffffff1660e01b8152600401612cac92919061427a565b6020604051808303816000875af1158015612ccb573d6000803e3d6000fd5b505050506040513d601f19601f82011682018060405250810190612cef91906142a0565b6003811115612d0057612d006136dd565b816003811115612d1257612d126136dd565b146124a05782826040516311d01ab560e31b81526004016106b3929190613bb4565b6000816001600160401b0316600003612d5f5760405162461bcd60e51b81526004016106b390613f3c565b6001600160401b0382166000908152600184016020526040902054600284015461ffff909116901580612d9a5750600284015461ffff821610155b15612da9576000915050610a1e565b6000846002018261ffff1681548110612dc457612dc4613a8a565b60009182526020909120019050612ddb8185612e37565b612dea57600092505050610a1e565b506001949350505050565b8054600090600290600160801b900460ff166005811115612e1857612e186136dd565b6001600160401b03161115612e2f57506000919050565b506001919050565b81546000906001600160401b0383811691161461067c57506000610a1e565b612e5f81612c3c565b612e7b5760405162461bcd60e51b81526004016106b39061430b565b60008051602061441783398151915280546001600160a01b0319166001600160a01b0392909216919091179055565b612eb383612f94565b600082511180612ec05750805b156124a057611ac28383612fd4565b6001600160401b03811615801590612efb575081546001600160401b03828116600160401b9092041614155b6123955760405162461bcd60e51b81526004016106b390613b45565b612f218383612d34565b612f3d5760405162461bcd60e51b81526004016106b3906140f1565b6001600160401b038216600090815260018401602052604081205460028501805461ffff909216929183908110612f7657612f76613a8a565b60009182526020909120019050612f8d8184612ff9565b5050505050565b612f9d81612e56565b6040516001600160a01b038216907fbc7cd75a20ee27fd9adebab32041f755214dbc6bffa90cc0225b39da2e5c2d3b90600090a250565b6060611eb883836040518060600160405280602781526020016144376027913961318e565b8154600160801b900460ff1660008083600581111561301a5761301a6136dd565b036130425760005b826005811115613034576130346136dd565b0361303d575060035b613146565b6001836005811115613056576130566136dd565b0361307c57600082600581111561306f5761306f6136dd565b0361303d57506001613146565b6002836005811115613090576130906136dd565b036130b65760018260058111156130a9576130a96136dd565b0361303d57506002613146565b60038360058111156130ca576130ca6136dd565b036130d6576001613022565b60048360058111156130ea576130ea6136dd565b03613110576002826005811115613103576131036136dd565b0361303d57506005613146565b6005836005811115613124576131246136dd565b0361314657600282600581111561313d5761313d6136dd565b03613146575060045b600081600581111561315a5761315a6136dd565b14611ac25783548190859060ff60801b1916600160801b836005811115613183576131836136dd565b021790555050505050565b6060600080856001600160a01b0316856040516131ab9190614361565b600060405180830381855af49150503d80600081146131e6576040519150601f19603f3d011682016040523d82523d6000602084013e6131eb565b606091505b5091509150611f84868383876060831561323457825160000361322d5761321185612c3c565b61322d5760405162461bcd60e51b81526004016106b3906143a1565b508161323e565b61323e8383613246565b949350505050565b8151156132565781518083602001fd5b8060405162461bcd60e51b81526004016106b391906143e5565b601f01601f191690565b634e487b7160e01b600052604160045260246000fd5b61329982613270565b81018181106001600160401b03821117156132b6576132b661327a565b6040525050565b60006132c860405190565b90506132d48282613290565b919050565b60006001600160401b038211156132f2576132f261327a565b5060209081020190565b6001600160401b031690565b613311816132fc565b8114610f6557600080fd5b8035610a1e81613308565b600061333a613335846132d9565b6132bd565b8381529050602080820190840283018581111561335957613359600080fd5b835b8181101561337d578061336e888261331c565b8452506020928301920161335b565b5050509392505050565b600082601f83011261339b5761339b600080fd5b813561323e848260208601613327565b6000602082840312156133c0576133c0600080fd5b81356001600160401b038111156133d9576133d9600080fd5b61323e84828501613387565b8015155b82525050565b60208101610a1e82846133e5565b80613311565b8035610a1e816133fd565b600061341c613335846132d9565b8381529050602080820190840283018581111561343b5761343b600080fd5b835b8181101561337d57806134508882613403565b8452506020928301920161343d565b600082601f83011261347357613473600080fd5b813561323e84826020860161340e565b61ffff8116613311565b8035610a1e81613483565b600080600080608085870312156134b1576134b1600080fd5b84356001600160401b038111156134ca576134ca600080fd5b6134d68782880161345f565b94505060206134e78782880161331c565b93505060408501356001600160401b0381111561350657613506600080fd5b61351287828801613387565b92505060606135238782880161348d565b91505092959194509250565b6133e9816132fc565b6000613544838361352f565b505060200190565b6000613556825190565b80845260209384019383018060005b8381101561358a5781516135798882613538565b975060208301925050600101613565565b509495945050505050565b604080825281016135a6818561354c565b9050611eb8602083018461352f565b6000806000606084860312156135cd576135cd600080fd5b60006135d9868661331c565b93505060206135ea8682870161331c565b92505060406135fb8682870161348d565b9150509250925092565b60006020828403121561361a5761361a600080fd5b600061323e848461331c565b806133e9565b60208101610a1e8284613626565b6000806000806080858703121561365357613653600080fd5b600061365f8787613403565b94505060206136708782880161331c565b93505060406135128782880161331c565b60208101610a1e828461352f565b60208082528101611eb8818461354c565b600080604083850312156136b6576136b6600080fd5b60006136c2858561331c565b92505060206136d38582860161331c565b9150509250929050565b634e487b7160e01b600052602160045260246000fd5b60068110610f6557610f656136dd565b806132d4816136f3565b6000610a1e82613703565b6133e98161370d565b6040810161372f8285613718565b611eb8602083018461352f565b6001600160a01b031690565b6000610a1e8261373c565b61331181613748565b8035610a1e81613753565b60006020828403121561377c5761377c600080fd5b600061323e848461375c565b60006001600160401b038211156137a1576137a161327a565b6137aa82613270565b60200192915050565b82818337506000910152565b60006137cd61333584613788565b9050828152602081018484840111156137e8576137e8600080fd5b6137f38482856137b3565b509392505050565b600082601f83011261380f5761380f600080fd5b813561323e8482602086016137bf565b6000806040838503121561383557613835600080fd5b6000613841858561375c565b92505060208301356001600160401b0381111561386057613860600080fd5b6136d3858286016137fb565b60208101610a1e8284613718565b60008060006060848603121561389257613892600080fd5b600061389e868661375c565b93505060206138af8682870161375c565b92505060406135fb8682870161375c565b6000806000606084860312156138d8576138d8600080fd5b60006138e4868661331c565b93505060206138f58682870161331c565b92505060406135fb8682870161331c565b801515613311565b8035610a1e81613906565b60008060006060848603121561393157613931600080fd5b600061393d868661331c565b935050602061394e8682870161331c565b92505060406135fb8682870161390e565b60006135448383613626565b6000613975825190565b80845260209384019383018060005b8381101561358a578151613998888261395f565b975060208301925050600101613984565b60208082528101611eb8818461396b565b6133e981613748565b60208101610a1e82846139ba565b61ffff81166133e9565b60208101610a1e82846139d1565b6000602082840312156139fe576139fe600080fd5b81356001600160401b03811115613a1757613a17600080fd5b61323e8482850161345f565b600060208284031215613a3857613a38600080fd5b600061323e8484613403565b6000610a1e613a58613a558461373c565b90565b61373c565b6000610a1e82613a44565b6000610a1e82613a5d565b6133e981613a68565b60208101610a1e8284613a73565b634e487b7160e01b600052603260045260246000fd5b634e487b7160e01b600052601160045260246000fd5b6000613ac1826132fc565b91506001600160401b038203613ad957613ad9613aa0565b5060010190565b601681526000602082017556616c7565206d757374206e6f74206265207a65726f60501b815291505b5060200190565b60208082528101610a1e81613ae0565b600e81526000602082016d496e76616c696420706172616d7360901b81529150613b09565b60208082528101610a1e81613b20565b6000613b60826132fc565b9150613b6b836132fc565b9250508082016001600160401b03811115610a1e57610a1e613aa0565b8051610a1e81613906565b600060208284031215613ba857613ba8600080fd5b600061323e8484613b88565b6040810161372f828561352f565b6015815260006020820174092dcecc2d8d2c840e4cae0d8d2c6c240d2dcc8caf605b1b81529150613b09565b60208082528101610a1e81613bc2565b60408101613c0c828561352f565b611eb860208301846139d1565b600e81526000602082016d125b9d985b1a590818d85c881a5960921b81529150613b09565b60208082528101610a1e81613c19565b8051610a1e81613308565b600060208284031215613c6e57613c6e600080fd5b600061323e8484613c4e565b60408101613c88828561352f565b611eb86020830184613626565b602c81526000602082016000805160206143f783398151915281526b19195b1959d85d1958d85b1b60a21b602082015291505b5060400190565b60208082528101610a1e81613c95565b602c81526000602082016000805160206143f783398151915281526b6163746976652070726f787960a01b60208201529150613cc8565b60208082528101610a1e81613cdf565b603881526000602082017f555550535570677261646561626c653a206d757374206e6f742062652063616c8152771b1959081d1a1c9bdd59da0819195b1959d85d1958d85b1b60421b60208201529150613cc8565b60208082528101610a1e81613d26565b602b81526000602082017f496e697469616c697a61626c653a20636f6e7472616374206973206e6f74206981526a6e697469616c697a696e6760a81b60208201529150613cc8565b60208082528101610a1e81613d8b565b60078152600060208201667375636365737360c81b81529150613b09565b60408101613e0f828461352f565b8181036020830152611eb881613de3565b600681526000602082016519985a5b195960d21b81529150613b09565b60408101613e4b828461352f565b8181036020830152611eb881613e20565b602e81526000602082017f496e697469616c697a61626c653a20636f6e747261637420697320616c72656181526d191e481a5b9a5d1a585b1a5e995960921b60208201529150613cc8565b60208082528101610a1e81613e5c565b600060ff8216610a1e565b6133e981613eb7565b60208101610a1e8284613ec2565b60068110610f6557600080fd5b8051610a1e81613ed9565b600060208284031215613f0657613f06600080fd5b600061323e8484613ee6565b6013815260006020820172125b9d985b1a59081b585d18da1a5b99c81a59606a1b81529150613b09565b60208082528101610a1e81613f12565b60168152600060208201755265706c69636120616c72656164792065786973747360501b81529150613b09565b60208082528101610a1e81613f4c565b6011815260006020820170496e76616c69642063617220737461746560781b81529150613b09565b60208082528101610a1e81613f89565b60178152600060208201760a4cae0d8d2c6c240e6e8c2e8ca40dcdee840dac2e8c6d604b1b81529150613b09565b60208082528101610a1e81613fc1565b6012815260006020820171125b9d985b1a590819185d185cd95d081a5960721b81529150613b09565b60208082528101610a1e81613fff565b60148152600060208201735265706c696361206973206e6f7420656d70747960601b81529150613b09565b60208082528101610a1e81614038565b61ffff16600061fffe198201613ad957613ad9613aa0565b6013815260006020820172496e646578206f7574206f6620626f756e647360681b81529150613b09565b60208082528101610a1e8161408b565b60158152600060208201745265706c696361206973206e6f742065786973747360581b81529150613b09565b60208082528101610a1e816140c5565b6040810161410f8285613626565b611eb860208301846139ba565b601a81526000602082017913db9b1e48185b1b1bddd959081c9bdb194818d85b8818d85b1b60321b81529150613b09565b60208082528101610a1e8161411c565b8051610a1e816133fd565b60006020828403121561417d5761417d600080fd5b600061323e848461415d565b602e81526000602082017f45524331393637557067726164653a206e657720696d706c656d656e7461746981526d6f6e206973206e6f74205555505360901b60208201529150613cc8565b60208082528101610a1e81614189565b602981526000602082017f45524331393637557067726164653a20756e737570706f727465642070726f788152681a58589b195555525160ba1b60208201529150613cc8565b60208082528101610a1e816141e4565b6019815260006020820178125b9d985b1a5908199a5b1958dbda5b8818db185a5b481a59603a1b81529150613b09565b60208082528101610a1e8161423a565b6040810161372f8285613626565b60048110610f6557600080fd5b8051610a1e81614288565b6000602082840312156142b5576142b5600080fd5b600061323e8484614295565b602d81526000602082017f455243313936373a206e657720696d706c656d656e746174696f6e206973206e81526c1bdd08184818dbdb9d1c9858dd609a1b60208201529150613cc8565b60208082528101610a1e816142c1565b60005b8381101561433657818101518382015260200161431e565b50506000910152565b6000614349825190565b61435781856020860161431b565b9290920192915050565b6000611eb8828461433f565b601d81526000602082017f416464726573733a2063616c6c20746f206e6f6e2d636f6e747261637400000081529150613b09565b60208082528101610a1e8161436d565b60006143bb825190565b8084526020840193506143d281856020860161431b565b6143db81613270565b9093019392505050565b60208082528101611eb881846143b156fe46756e6374696f6e206d7573742062652063616c6c6564207468726f75676820360894a13ba1a3210667c828492db98dca3e2076cc3735a920a3ca505d382bbc416464726573733a206c6f772d6c6576656c2064656c65676174652063616c6c206661696c6564a1c74e1a828c7320a1217cd45b5acf7beee78430eea053fdeaaee8a12b376217a26469706673582212200405fc51a2539030a8d9e845f75a9743fa5bdd1ca7b3c9976a623d3ce97db37264736f6c63430008150033",
  "devdoc": {
    "details": "This contract provides functionality for managing car data and associated replicas.",
    "events": {
      "AdminChanged(address,address)": {
        "details": "Emitted when the admin account has changed."
      },
      "BeaconUpgraded(address)": {
        "details": "Emitted when the beacon is changed."
      },
      "CarReplicaExpired(uint64,uint64)": {
        "details": "This function allows reporting that the storage deal for a replica has expired.",
        "params": {
          "_id": "Car ID associated with the replica.",
          "_matchingId": "Matching ID of the replica."
        }
      },
      "CarReplicaMatchingState(uint64,uint64,string)": {
        "details": "This function allows reporting that the matching for a replica has failed.",
        "params": {
          "_id": "Car ID associated with the replica.",
          "_matchingId": "Matching ID of the replica.",
          "_matchingState": "Matching state of the replica."
        }
      },
      "CarReplicaSlashed(uint64,uint64)": {
        "details": "This function allows reporting that the storage of a replica has been slashed.",
        "params": {
          "_id": "Car ID associated with the replica.",
          "_matchingId": "Matching ID of the replica."
        }
      },
      "Initialized(uint8)": {
        "details": "Triggered when the contract has been initialized or reinitialized."
      },
      "Upgraded(address)": {
        "details": "Emitted when the implementation is upgraded."
      }
    },
    "kind": "dev",
    "methods": {
      "addCar(bytes32,uint64,uint64,uint16)": {
        "details": "Internal function to add a car based on its CID.      tips: diffent dataset has the same car is dones't matter,maybe need limit replicas count for a car.      filplus requires dataset replicas,but not limit for car replicas",
        "params": {
          "_cid": "Car CID to be added.",
          "_datasetId": "dataset index of approved dataset",
          "_replicaCount": "count of car's replicas",
          "_size": "size of car"
        }
      },
      "addCars(bytes32[],uint64,uint64[],uint16)": {
        "details": "This function allows the addition of multiple cars at once.",
        "params": {
          "_cids": "Array of car CIDs to be added.",
          "_datasetId": "dataset index of approved dataset",
          "_replicaCount": "count of car's replicas",
          "_sizes": "car size array"
        },
        "returns": {
          "_0": "The ids of the cars and the size."
        }
      },
      "getCarDatasetId(uint64)": {
        "params": {
          "_id": "Car ID to check."
        },
        "returns": {
          "_0": "The dataset ID of the car."
        }
      },
      "getCarHash(uint64)": {
        "params": {
          "_id": "Car ID which to get car hash."
        },
        "returns": {
          "_0": "The hash of the car."
        }
      },
      "getCarId(bytes32)": {
        "params": {
          "_hash": "The hash which to get car id."
        },
        "returns": {
          "_0": "The id of the car."
        }
      },
      "getCarMatchingIds(uint64)": {
        "params": {
          "_id": "Car ID associated with the replica."
        },
        "returns": {
          "_0": "The matching ids of the car's replica."
        }
      },
      "getCarReplica(uint64,uint64)": {
        "params": {
          "_id": "Car ID associated with the replica.",
          "_matchingId": "Matching ID of the replica."
        },
        "returns": {
          "_0": "The dataset ID, state, and Filecoin claim ID of the replica."
        }
      },
      "getCarReplicaFilecoinClaimId(uint64,uint64)": {
        "params": {
          "_id": "Car ID associated with the replica.",
          "_matchingId": "Matching ID of the replica."
        },
        "returns": {
          "_0": "The Filecoin claim ID of the replica."
        }
      },
      "getCarReplicaState(uint64,uint64)": {
        "params": {
          "_id": "Car ID associated with the replica.",
          "_matchingId": "Matching ID of the replica."
        },
        "returns": {
          "_0": "The state of the replica."
        }
      },
      "getCarReplicasCount(uint64)": {
        "details": "This function returns the number of replicas associated with a car.",
        "params": {
          "_id": "Car ID for which to retrieve the replica count."
        },
        "returns": {
          "_0": "The count of replicas associated with the car."
        }
      },
      "getCarSize(uint64)": {
        "params": {
          "_id": "Car ID to check."
        },
        "returns": {
          "_0": "The car size of the car."
        }
      },
      "getCarsHashs(uint64[])": {
        "params": {
          "_ids": "An array of car IDs for which to get car hashs."
        },
        "returns": {
          "_0": "The hashs of cars."
        }
      },
      "getCarsIds(bytes32[])": {
        "params": {
          "_hashs": "An array of car hashs for which to cat car hashs."
        },
        "returns": {
          "_0": "The ids of cars."
        }
      },
      "getCarsSize(uint64[])": {
        "params": {
          "_ids": "An array of car IDs for which to calculate the size."
        },
        "returns": {
          "_0": "The total size of cars."
        }
      },
      "hasCar(uint64)": {
        "details": "This function returns whether a car exists or not.",
        "params": {
          "_id": "Car ID to check."
        },
        "returns": {
          "_0": "True if the car exists, false otherwise."
        }
      },
      "hasCarHash(bytes32)": {
        "details": "This function returns whether a car exists or not.",
        "params": {
          "_hash": "Car Hash to check."
        },
        "returns": {
          "_0": "True if the car exists, false otherwise."
        }
      },
      "hasCarReplica(uint64,uint64)": {
        "details": "This function returns whether a replica with the specified matching ID exists within a car or not.",
        "params": {
          "_id": "Car ID to check.",
          "_matchingId": "Matching ID of the replica to check."
        },
        "returns": {
          "_0": "True if the replica exists, false otherwise."
        }
      },
      "hasCars(uint64[])": {
        "details": "This function returns whether all the specified cars exist or not.",
        "params": {
          "_ids": "Array of car IDs to check."
        },
        "returns": {
          "_0": "True if all specified cars exist, false if any one does not exist."
        }
      },
      "hasCarsHashs(bytes32[])": {
        "details": "This function returns whether a car exists or not.",
        "params": {
          "_hashs": "Array of car Hashs to check."
        },
        "returns": {
          "_0": "True if the car exists, false otherwise."
        }
      },
      "proxiableUUID()": {
        "details": "Implementation of the ERC1822 {proxiableUUID} function. This returns the storage slot used by the implementation. It is used to validate the implementation's compatibility when performing an upgrade. IMPORTANT: A proxy pointing at a proxiable contract should not be considered proxiable itself, because this risks bricking a proxy that upgrades to it, by delegating to itself until out of gas. Thus it is critical that this function revert if invoked through a proxy. This is guaranteed by the `notDelegated` modifier."
      },
      "registCarReplica(uint64,uint64,uint16)": {
        "details": "This function allows adding a replica to an existing car.",
        "params": {
          "_id": "Car ID to which the replica will be added.",
          "_matchingId": "Matching ID for the new replica.",
          "_replicaIndex": "The index of the replica."
        }
      },
      "reportCarReplicaExpired(uint64,uint64,uint64)": {
        "details": "This function allows reporting that the storage deal for a replica has expired.",
        "params": {
          "_id": "Car ID associated with the replica.",
          "_matchingId": "Matching ID of the replica."
        }
      },
      "reportCarReplicaMatchingState(uint64,uint64,bool)": {
        "details": "This function allows reporting that the matching for a replica is failed.",
        "params": {
          "_id": "Car ID associated with the replica.",
          "_matchingId": "Matching ID of the replica.",
          "_matchingState": "Matching's state of the replica, true for success ,false for failed."
        }
      },
      "reportCarReplicaSlashed(uint64,uint64,uint64)": {
        "details": "This function allows reporting that the storage of a replica has been slashed.",
        "params": {
          "_id": "Car ID associated with the replica.",
          "_matchingId": "Matching ID of the replica."
        }
      },
      "setCarReplicaFilecoinClaimId(uint64,uint64,uint64)": {
        "details": "This function allows setting the Filecoin claim ID for a specific replica's storage.",
        "params": {
          "_claimId": "New Filecoin claim ID to set for the replica's storage.",
          "_id": "Car ID associated with the replica.",
          "_matchingId": "Matching ID of the replica."
        }
      },
      "upgradeTo(address)": {
        "custom:oz-upgrades-unsafe-allow-reachable": "delegatecall",
        "details": "Upgrade the implementation of the proxy to `newImplementation`. Calls {_authorizeUpgrade}. Emits an {Upgraded} event."
      },
      "upgradeToAndCall(address,bytes)": {
        "custom:oz-upgrades-unsafe-allow-reachable": "delegatecall",
        "details": "Upgrade the implementation of the proxy to `newImplementation`, and subsequently execute the function call encoded in `data`. Calls {_authorizeUpgrade}. Emits an {Upgraded} event."
      }
    },
    "title": "CarsStorageBase",
    "version": 1
  },
  "userdoc": {
    "errors": {
      "CarNotExist(uint64)": [
        {
          "notice": "car errors"
        }
      ]
    },
    "events": {
      "CarReplicaExpired(uint64,uint64)": {
        "notice": "Report that storage deal for a replica has expired."
      },
      "CarReplicaFilecoinClaimIdSet(uint64,uint64,uint64)": {
        "notice": "Emitted when the Filecoin claim ID is set for a replica's storage."
      },
      "CarReplicaMatchingState(uint64,uint64,string)": {
        "notice": "Report that matching for a replica has failed."
      },
      "CarReplicaRegisted(uint64,uint64,uint16)": {
        "notice": "Emitted when a replica is registed to a car."
      },
      "CarReplicaSlashed(uint64,uint64)": {
        "notice": "Report that storage of a replica has been slashed."
      },
      "CarsAdded(bytes32[])": {
        "notice": "Emitted when multiple cars are added to the storage."
      }
    },
    "kind": "user",
    "methods": {
      "addCars(bytes32[],uint64,uint64[],uint16)": {
        "notice": "Add multiple cars to the storage."
      },
      "carstoreBaseInitialize(address,address,address)": {
        "notice": "carstoreBaseInitialize function to initialize the contract and grant the default admin role to the deployer."
      },
      "filecoin()": {
        "notice": "get filecoin object"
      },
      "filplus()": {
        "notice": "get filplus object"
      },
      "getCarDatasetId(uint64)": {
        "notice": "Get the dataset ID associated with a car."
      },
      "getCarHash(uint64)": {
        "notice": "Get the hash of car based on the car id."
      },
      "getCarId(bytes32)": {
        "notice": "Get the car's id based on the car's hash."
      },
      "getCarMatchingIds(uint64)": {
        "notice": "Get the matching ids of a replica associated with a car."
      },
      "getCarReplica(uint64,uint64)": {
        "notice": "Get the replica details associated with a car."
      },
      "getCarReplicaFilecoinClaimId(uint64,uint64)": {
        "notice": "Get the Filecoin claim ID associated with a specific replica of a car."
      },
      "getCarReplicaState(uint64,uint64)": {
        "notice": "Get the state of a replica associated with a car."
      },
      "getCarReplicasCount(uint64)": {
        "notice": "Get the count of replicas associated with a car."
      },
      "getCarSize(uint64)": {
        "notice": "Get the dataset ID associated with a car."
      },
      "getCarsHashs(uint64[])": {
        "notice": "Get the hashs of cars based on an array of car IDs."
      },
      "getCarsIds(bytes32[])": {
        "notice": "Get the ids of cars based on an array of car hashs."
      },
      "getCarsSize(uint64[])": {
        "notice": "Get the total size of cars based on an array of car IDs."
      },
      "getImplementation()": {
        "notice": "Returns the implementation contract"
      },
      "hasCar(uint64)": {
        "notice": "Check if a car exists based on its ID."
      },
      "hasCarHash(bytes32)": {
        "notice": "Check if a car exists based on its Hash."
      },
      "hasCarReplica(uint64,uint64)": {
        "notice": "Check if a replica exists within a car based on its matching ID."
      },
      "hasCars(uint64[])": {
        "notice": "Check if multiple cars exist based on their IDs."
      },
      "hasCarsHashs(bytes32[])": {
        "notice": "Check if a car exists based on its Hashs."
      },
      "initialize(address,address,address)": {
        "notice": "initialize function to initialize the contract and grant the default admin role to the deployer."
      },
      "registCarReplica(uint64,uint64,uint16)": {
        "notice": "Regist a replica to a car."
      },
      "reportCarReplicaExpired(uint64,uint64,uint64)": {
        "notice": "Report that storage deal for a replica has expired."
      },
      "reportCarReplicaMatchingState(uint64,uint64,bool)": {
        "notice": "Report that matching's state for a replica."
      },
      "reportCarReplicaSlashed(uint64,uint64,uint64)": {
        "notice": "Report that storage of a replica has been slashed."
      },
      "setCarReplicaFilecoinClaimId(uint64,uint64,uint64)": {
        "notice": "Set the Filecoin claim ID for a replica's storage."
      }
    },
    "notice": "This contract allows adding cars and managing their associated replicas.",
    "version": 1
  },
  "storageLayout": {
    "storage": [
      {
        "astId": 5186,
        "contract": "src/v0.8/core/carstore/Carstore.sol:Carstore",
        "label": "_initialized",
        "offset": 0,
        "slot": "0",
        "type": "t_uint8"
      },
      {
        "astId": 5189,
        "contract": "src/v0.8/core/carstore/Carstore.sol:Carstore",
        "label": "_initializing",
        "offset": 1,
        "slot": "0",
        "type": "t_bool"
      },
      {
        "astId": 5168,
        "contract": "src/v0.8/core/carstore/Carstore.sol:Carstore",
        "label": "__gap",
        "offset": 0,
        "slot": "1",
        "type": "t_array(t_uint256)50_storage"
      },
      {
        "astId": 5483,
        "contract": "src/v0.8/core/carstore/Carstore.sol:Carstore",
        "label": "__gap",
        "offset": 0,
        "slot": "51",
        "type": "t_array(t_uint256)50_storage"
      },
      {
        "astId": 15904,
        "contract": "src/v0.8/core/carstore/Carstore.sol:Carstore",
        "label": "carsCount",
        "offset": 0,
        "slot": "101",
        "type": "t_uint64"
      },
      {
        "astId": 15910,
        "contract": "src/v0.8/core/carstore/Carstore.sol:Carstore",
        "label": "cars",
        "offset": 0,
        "slot": "102",
        "type": "t_mapping(t_bytes32,t_struct(Car)35028_storage)"
      },
      {
        "astId": 15914,
        "contract": "src/v0.8/core/carstore/Carstore.sol:Carstore",
        "label": "carsIndexes",
        "offset": 0,
        "slot": "103",
        "type": "t_mapping(t_uint64,t_bytes32)"
      },
      {
        "astId": 15917,
        "contract": "src/v0.8/core/carstore/Carstore.sol:Carstore",
        "label": "roles",
        "offset": 0,
        "slot": "104",
        "type": "t_contract(IRoles)20939"
      },
      {
        "astId": 15920,
        "contract": "src/v0.8/core/carstore/Carstore.sol:Carstore",
        "label": "filplus",
        "offset": 0,
        "slot": "105",
        "type": "t_contract(IFilplus)20899"
      },
      {
        "astId": 15923,
        "contract": "src/v0.8/core/carstore/Carstore.sol:Carstore",
        "label": "filecoin",
        "offset": 0,
        "slot": "106",
        "type": "t_contract(IFilecoin)20711"
      },
      {
        "astId": 15928,
        "contract": "src/v0.8/core/carstore/Carstore.sol:Carstore",
        "label": "__gap",
        "offset": 0,
        "slot": "107",
        "type": "t_array(t_uint256)32_storage"
      }
    ],
    "types": {
      "t_array(t_struct(Replica)35012_storage)dyn_storage": {
        "base": "t_struct(Replica)35012_storage",
        "encoding": "dynamic_array",
        "label": "struct CarReplicaType.Replica[]",
        "numberOfBytes": "32"
      },
      "t_array(t_uint256)32_storage": {
        "base": "t_uint256",
        "encoding": "inplace",
        "label": "uint256[32]",
        "numberOfBytes": "1024"
      },
      "t_array(t_uint256)50_storage": {
        "base": "t_uint256",
        "encoding": "inplace",
        "label": "uint256[50]",
        "numberOfBytes": "1600"
      },
      "t_bool": {
        "encoding": "inplace",
        "label": "bool",
        "numberOfBytes": "1"
      },
      "t_bytes32": {
        "encoding": "inplace",
        "label": "bytes32",
        "numberOfBytes": "32"
      },
      "t_contract(IFilecoin)20711": {
        "encoding": "inplace",
        "label": "contract IFilecoin",
        "numberOfBytes": "20"
      },
      "t_contract(IFilplus)20899": {
        "encoding": "inplace",
        "label": "contract IFilplus",
        "numberOfBytes": "20"
      },
      "t_contract(IRoles)20939": {
        "encoding": "inplace",
        "label": "contract IRoles",
        "numberOfBytes": "20"
      },
      "t_enum(State)34995": {
        "encoding": "inplace",
        "label": "enum CarReplicaType.State",
        "numberOfBytes": "1"
      },
      "t_mapping(t_bytes32,t_struct(Car)35028_storage)": {
        "encoding": "mapping",
        "key": "t_bytes32",
        "label": "mapping(bytes32 => struct CarReplicaType.Car)",
        "numberOfBytes": "32",
        "value": "t_struct(Car)35028_storage"
      },
      "t_mapping(t_uint64,t_bytes32)": {
        "encoding": "mapping",
        "key": "t_uint64",
        "label": "mapping(uint64 => bytes32)",
        "numberOfBytes": "32",
        "value": "t_bytes32"
      },
      "t_mapping(t_uint64,t_uint16)": {
        "encoding": "mapping",
        "key": "t_uint64",
        "label": "mapping(uint64 => uint16)",
        "numberOfBytes": "32",
        "value": "t_uint16"
      },
      "t_struct(Car)35028_storage": {
        "encoding": "inplace",
        "label": "struct CarReplicaType.Car",
        "members": [
          {
            "astId": 35015,
            "contract": "src/v0.8/core/carstore/Carstore.sol:Carstore",
            "label": "id",
            "offset": 0,
            "slot": "0",
            "type": "t_uint64"
          },
          {
            "astId": 35017,
            "contract": "src/v0.8/core/carstore/Carstore.sol:Carstore",
            "label": "datasetId",
            "offset": 8,
            "slot": "0",
            "type": "t_uint64"
          },
          {
            "astId": 35019,
            "contract": "src/v0.8/core/carstore/Carstore.sol:Carstore",
            "label": "size",
            "offset": 16,
            "slot": "0",
            "type": "t_uint64"
          },
          {
            "astId": 35023,
            "contract": "src/v0.8/core/carstore/Carstore.sol:Carstore",
            "label": "replicaIndex",
            "offset": 0,
            "slot": "1",
            "type": "t_mapping(t_uint64,t_uint16)"
          },
          {
            "astId": 35027,
            "contract": "src/v0.8/core/carstore/Carstore.sol:Carstore",
            "label": "replicas",
            "offset": 0,
            "slot": "2",
            "type": "t_array(t_struct(Replica)35012_storage)dyn_storage"
          }
        ],
        "numberOfBytes": "96"
      },
      "t_struct(Replica)35012_storage": {
        "encoding": "inplace",
        "label": "struct CarReplicaType.Replica",
        "members": [
          {
            "astId": 35006,
            "contract": "src/v0.8/core/carstore/Carstore.sol:Carstore",
            "label": "matchingId",
            "offset": 0,
            "slot": "0",
            "type": "t_uint64"
          },
          {
            "astId": 35008,
            "contract": "src/v0.8/core/carstore/Carstore.sol:Carstore",
            "label": "filecoinClaimId",
            "offset": 8,
            "slot": "0",
            "type": "t_uint64"
          },
          {
            "astId": 35011,
            "contract": "src/v0.8/core/carstore/Carstore.sol:Carstore",
            "label": "state",
            "offset": 16,
            "slot": "0",
            "type": "t_enum(State)34995"
          }
        ],
        "numberOfBytes": "32"
      },
      "t_uint16": {
        "encoding": "inplace",
        "label": "uint16",
        "numberOfBytes": "2"
      },
      "t_uint256": {
        "encoding": "inplace",
        "label": "uint256",
        "numberOfBytes": "32"
      },
      "t_uint64": {
        "encoding": "inplace",
        "label": "uint64",
        "numberOfBytes": "8"
      },
      "t_uint8": {
        "encoding": "inplace",
        "label": "uint8",
        "numberOfBytes": "1"
      }
    }
  }
}