{
  "address": "0xC2f030f8726752d90740404e98a37e82e671b422",
  "abi": [
    {
      "inputs": [
        {
          "internalType": "int256",
          "name": "errorCode",
          "type": "int256"
        }
      ],
      "name": "ActorError",
      "type": "error"
    },
    {
      "inputs": [],
      "name": "ActorNotFound",
      "type": "error"
    },
    {
      "inputs": [],
      "name": "FailToCallActor",
      "type": "error"
    },
    {
      "inputs": [
        {
          "internalType": "bytes",
          "name": "addr",
          "type": "bytes"
        }
      ],
      "name": "InvalidAddress",
      "type": "error"
    },
    {
      "inputs": [
        {
          "internalType": "uint64",
          "name": "",
          "type": "uint64"
        }
      ],
      "name": "InvalidCodec",
      "type": "error"
    },
    {
      "inputs": [],
      "name": "InvalidResponseLength",
      "type": "error"
    },
    {
      "inputs": [
        {
          "internalType": "uint256",
          "name": "balance",
          "type": "uint256"
        },
        {
          "internalType": "uint256",
          "name": "value",
          "type": "uint256"
        }
      ],
      "name": "NotEnoughBalance",
      "type": "error"
    },
    {
      "inputs": [
        {
          "internalType": "string",
          "name": "log",
          "type": "string"
        },
        {
          "internalType": "address",
          "name": "sendr",
          "type": "address"
        },
        {
          "internalType": "address",
          "name": "allowd",
          "type": "address"
        }
      ],
      "name": "errorAddress",
      "type": "error"
    },
    {
      "anonymous": false,
      "inputs": [
        {
          "indexed": false,
          "internalType": "address",
          "name": "previousAdmin",
          "type": "address"
        },
        {
          "indexed": false,
          "internalType": "address",
          "name": "newAdmin",
          "type": "address"
        }
      ],
      "name": "AdminChanged",
      "type": "event"
    },
    {
      "anonymous": false,
      "inputs": [
        {
          "indexed": true,
          "internalType": "address",
          "name": "beacon",
          "type": "address"
        }
      ],
      "name": "BeaconUpgraded",
      "type": "event"
    },
    {
      "anonymous": false,
      "inputs": [
        {
          "indexed": false,
          "internalType": "enum EscrowType.Type",
          "name": "_type",
          "type": "uint8"
        },
        {
          "indexed": true,
          "internalType": "address",
          "name": "_owner",
          "type": "address"
        },
        {
          "indexed": false,
          "internalType": "uint64",
          "name": "_id",
          "type": "uint64"
        },
        {
          "indexed": false,
          "internalType": "uint256",
          "name": "_attoFILAmount",
          "type": "uint256"
        }
      ],
      "name": "Burn",
      "type": "event"
    },
    {
      "anonymous": false,
      "inputs": [
        {
          "indexed": false,
          "internalType": "enum EscrowType.Type",
          "name": "_type",
          "type": "uint8"
        },
        {
          "indexed": true,
          "internalType": "address",
          "name": "_owner",
          "type": "address"
        },
        {
          "indexed": false,
          "internalType": "uint64",
          "name": "_id",
          "type": "uint64"
        },
        {
          "indexed": false,
          "internalType": "uint256",
          "name": "_attoFILAmount",
          "type": "uint256"
        }
      ],
      "name": "Collateral",
      "type": "event"
    },
    {
      "anonymous": false,
      "inputs": [
        {
          "indexed": false,
          "internalType": "uint8",
          "name": "version",
          "type": "uint8"
        }
      ],
      "name": "Initialized",
      "type": "event"
    },
    {
      "anonymous": false,
      "inputs": [
        {
          "indexed": false,
          "internalType": "enum EscrowType.Type",
          "name": "_type",
          "type": "uint8"
        },
        {
          "indexed": true,
          "internalType": "address",
          "name": "_owner",
          "type": "address"
        },
        {
          "indexed": false,
          "internalType": "uint64",
          "name": "_id",
          "type": "uint64"
        },
        {
          "indexed": false,
          "internalType": "uint256",
          "name": "_attoFILAmount",
          "type": "uint256"
        }
      ],
      "name": "PaymentCollateral",
      "type": "event"
    },
    {
      "anonymous": false,
      "inputs": [
        {
          "indexed": false,
          "internalType": "enum EscrowType.Type",
          "name": "_type",
          "type": "uint8"
        },
        {
          "indexed": true,
          "internalType": "address",
          "name": "_owner",
          "type": "address"
        },
        {
          "indexed": false,
          "internalType": "uint64",
          "name": "_id",
          "type": "uint64"
        },
        {
          "indexed": true,
          "internalType": "address",
          "name": "_beneficiary",
          "type": "address"
        },
        {
          "indexed": false,
          "internalType": "uint256",
          "name": "_attoFILAmount",
          "type": "uint256"
        }
      ],
      "name": "PaymentRefund",
      "type": "event"
    },
    {
      "anonymous": false,
      "inputs": [
        {
          "indexed": false,
          "internalType": "enum EscrowType.Type",
          "name": "_type",
          "type": "uint8"
        },
        {
          "indexed": true,
          "internalType": "address",
          "name": "_owner",
          "type": "address"
        },
        {
          "indexed": false,
          "internalType": "uint64",
          "name": "_id",
          "type": "uint64"
        },
        {
          "indexed": true,
          "internalType": "address",
          "name": "_beneficiary",
          "type": "address"
        },
        {
          "indexed": false,
          "internalType": "uint256",
          "name": "_attoFILAmount",
          "type": "uint256"
        }
      ],
      "name": "PaymentSingleBeneficiaryCollateral",
      "type": "event"
    },
    {
      "anonymous": false,
      "inputs": [
        {
          "indexed": false,
          "internalType": "enum EscrowType.Type",
          "name": "_type",
          "type": "uint8"
        },
        {
          "indexed": true,
          "internalType": "address",
          "name": "_owner",
          "type": "address"
        },
        {
          "indexed": false,
          "internalType": "uint64",
          "name": "_id",
          "type": "uint64"
        },
        {
          "indexed": true,
          "internalType": "address",
          "name": "_beneficiary",
          "type": "address"
        },
        {
          "indexed": false,
          "internalType": "uint256",
          "name": "_attoFILAmount",
          "type": "uint256"
        }
      ],
      "name": "PaymentWithdrawn",
      "type": "event"
    },
    {
      "anonymous": false,
      "inputs": [
        {
          "indexed": false,
          "internalType": "enum EscrowType.Type",
          "name": "_type",
          "type": "uint8"
        },
        {
          "indexed": true,
          "internalType": "address",
          "name": "_owner",
          "type": "address"
        },
        {
          "indexed": false,
          "internalType": "uint64",
          "name": "_id",
          "type": "uint64"
        },
        {
          "indexed": false,
          "internalType": "uint256",
          "name": "_attoFILAmount",
          "type": "uint256"
        }
      ],
      "name": "UpdateCollateral",
      "type": "event"
    },
    {
      "anonymous": false,
      "inputs": [
        {
          "indexed": false,
          "internalType": "enum EscrowType.Type",
          "name": "_type",
          "type": "uint8"
        },
        {
          "indexed": true,
          "internalType": "address",
          "name": "_owner",
          "type": "address"
        },
        {
          "indexed": false,
          "internalType": "uint64",
          "name": "_id",
          "type": "uint64"
        },
        {
          "indexed": false,
          "internalType": "address",
          "name": "_beneficiary",
          "type": "address"
        },
        {
          "indexed": false,
          "internalType": "uint256",
          "name": "_attoFILAmount",
          "type": "uint256"
        }
      ],
      "name": "UpdatePaymentBeneficiary",
      "type": "event"
    },
    {
      "anonymous": false,
      "inputs": [
        {
          "indexed": false,
          "internalType": "enum EscrowType.Type",
          "name": "_type",
          "type": "uint8"
        },
        {
          "indexed": true,
          "internalType": "address",
          "name": "_owner",
          "type": "address"
        },
        {
          "indexed": false,
          "internalType": "uint64",
          "name": "_id",
          "type": "uint64"
        },
        {
          "indexed": true,
          "internalType": "address",
          "name": "_beneficiary",
          "type": "address"
        },
        {
          "indexed": false,
          "internalType": "uint256",
          "name": "_attoFILAmount",
          "type": "uint256"
        }
      ],
      "name": "UpdatePaymentCollateral",
      "type": "event"
    },
    {
      "anonymous": false,
      "inputs": [
        {
          "indexed": true,
          "internalType": "address",
          "name": "implementation",
          "type": "address"
        }
      ],
      "name": "Upgraded",
      "type": "event"
    },
    {
      "anonymous": false,
      "inputs": [
        {
          "indexed": false,
          "internalType": "enum EscrowType.Type",
          "name": "_type",
          "type": "uint8"
        },
        {
          "indexed": true,
          "internalType": "address",
          "name": "_owner",
          "type": "address"
        },
        {
          "indexed": false,
          "internalType": "uint64",
          "name": "_id",
          "type": "uint64"
        },
        {
          "indexed": false,
          "internalType": "uint256",
          "name": "_attoFILAmount",
          "type": "uint256"
        }
      ],
      "name": "Withdrawn",
      "type": "event"
    },
    {
      "inputs": [],
      "name": "BURN_ADDRESS",
      "outputs": [
        {
          "internalType": "address payable",
          "name": "",
          "type": "address"
        }
      ],
      "stateMutability": "view",
      "type": "function"
    },
    {
      "inputs": [],
      "name": "PER_DAY_BLOCKNUMBER",
      "outputs": [
        {
          "internalType": "uint256",
          "name": "",
          "type": "uint256"
        }
      ],
      "stateMutability": "view",
      "type": "function"
    },
    {
      "inputs": [
        {
          "internalType": "enum EscrowType.Type",
          "name": "_type",
          "type": "uint8"
        },
        {
          "internalType": "address",
          "name": "_owner",
          "type": "address"
        },
        {
          "internalType": "uint64",
          "name": "_id",
          "type": "uint64"
        },
        {
          "internalType": "uint256",
          "name": "_amount",
          "type": "uint256"
        }
      ],
      "name": "collateral",
      "outputs": [],
      "stateMutability": "payable",
      "type": "function"
    },
    {
      "inputs": [
        {
          "internalType": "enum EscrowType.Type",
          "name": "_type",
          "type": "uint8"
        },
        {
          "internalType": "address",
          "name": "_owner",
          "type": "address"
        },
        {
          "internalType": "uint64",
          "name": "_id",
          "type": "uint64"
        },
        {
          "internalType": "enum EscrowType.CollateralEvent",
          "name": "_event",
          "type": "uint8"
        }
      ],
      "name": "emitCollateralEvent",
      "outputs": [],
      "stateMutability": "nonpayable",
      "type": "function"
    },
    {
      "inputs": [
        {
          "internalType": "enum EscrowType.Type",
          "name": "_type",
          "type": "uint8"
        },
        {
          "internalType": "address",
          "name": "_owner",
          "type": "address"
        },
        {
          "internalType": "uint64",
          "name": "_id",
          "type": "uint64"
        },
        {
          "internalType": "address",
          "name": "_beneficiary",
          "type": "address"
        },
        {
          "internalType": "enum EscrowType.PaymentEvent",
          "name": "_event",
          "type": "uint8"
        }
      ],
      "name": "emitPaymentEvent",
      "outputs": [],
      "stateMutability": "nonpayable",
      "type": "function"
    },
    {
      "inputs": [
        {
          "internalType": "enum EscrowType.Type",
          "name": "_type",
          "type": "uint8"
        },
        {
          "internalType": "address",
          "name": "_owner",
          "type": "address"
        },
        {
          "internalType": "uint64",
          "name": "_id",
          "type": "uint64"
        }
      ],
      "name": "getBeneficiariesList",
      "outputs": [
        {
          "internalType": "address[]",
          "name": "",
          "type": "address[]"
        }
      ],
      "stateMutability": "view",
      "type": "function"
    },
    {
      "inputs": [
        {
          "internalType": "enum EscrowType.Type",
          "name": "_type",
          "type": "uint8"
        },
        {
          "internalType": "address",
          "name": "_owner",
          "type": "address"
        },
        {
          "internalType": "uint64",
          "name": "_id",
          "type": "uint64"
        },
        {
          "internalType": "address",
          "name": "_beneficiary",
          "type": "address"
        }
      ],
      "name": "getBeneficiaryFund",
      "outputs": [
        {
          "internalType": "uint256",
          "name": "",
          "type": "uint256"
        },
        {
          "internalType": "uint256",
          "name": "",
          "type": "uint256"
        },
        {
          "internalType": "uint256",
          "name": "",
          "type": "uint256"
        },
        {
          "internalType": "uint256",
          "name": "",
          "type": "uint256"
        },
        {
          "internalType": "uint64",
          "name": "",
          "type": "uint64"
        }
      ],
      "stateMutability": "view",
      "type": "function"
    },
    {
      "inputs": [],
      "name": "getImplementation",
      "outputs": [
        {
          "internalType": "address",
          "name": "",
          "type": "address"
        }
      ],
      "stateMutability": "view",
      "type": "function"
    },
    {
      "inputs": [
        {
          "internalType": "enum EscrowType.Type",
          "name": "_type",
          "type": "uint8"
        },
        {
          "internalType": "address",
          "name": "_owner",
          "type": "address"
        },
        {
          "internalType": "uint64",
          "name": "_id",
          "type": "uint64"
        }
      ],
      "name": "getOwnerBurned",
      "outputs": [
        {
          "internalType": "uint256",
          "name": "",
          "type": "uint256"
        }
      ],
      "stateMutability": "view",
      "type": "function"
    },
    {
      "inputs": [
        {
          "internalType": "enum EscrowType.Type",
          "name": "_type",
          "type": "uint8"
        },
        {
          "internalType": "address",
          "name": "_owner",
          "type": "address"
        },
        {
          "internalType": "uint64",
          "name": "_id",
          "type": "uint64"
        }
      ],
      "name": "getOwnerCollateral",
      "outputs": [
        {
          "internalType": "uint256",
          "name": "",
          "type": "uint256"
        }
      ],
      "stateMutability": "view",
      "type": "function"
    },
    {
      "inputs": [
        {
          "internalType": "enum EscrowType.Type",
          "name": "_type",
          "type": "uint8"
        },
        {
          "internalType": "address",
          "name": "_owner",
          "type": "address"
        },
        {
          "internalType": "uint64",
          "name": "_id",
          "type": "uint64"
        }
      ],
      "name": "getOwnerCreatedBlockNumber",
      "outputs": [
        {
          "internalType": "uint64",
          "name": "",
          "type": "uint64"
        }
      ],
      "stateMutability": "view",
      "type": "function"
    },
    {
      "inputs": [
        {
          "internalType": "enum EscrowType.Type",
          "name": "_type",
          "type": "uint8"
        },
        {
          "internalType": "address",
          "name": "_owner",
          "type": "address"
        },
        {
          "internalType": "uint64",
          "name": "_id",
          "type": "uint64"
        }
      ],
      "name": "getOwnerLock",
      "outputs": [
        {
          "internalType": "uint256",
          "name": "",
          "type": "uint256"
        }
      ],
      "stateMutability": "view",
      "type": "function"
    },
    {
      "inputs": [
        {
          "internalType": "enum EscrowType.Type",
          "name": "_type",
          "type": "uint8"
        },
        {
          "internalType": "address",
          "name": "_owner",
          "type": "address"
        },
        {
          "internalType": "uint64",
          "name": "_id",
          "type": "uint64"
        }
      ],
      "name": "getOwnerTotal",
      "outputs": [
        {
          "internalType": "uint256",
          "name": "",
          "type": "uint256"
        }
      ],
      "stateMutability": "view",
      "type": "function"
    },
    {
      "inputs": [
        {
          "internalType": "address",
          "name": "_roles",
          "type": "address"
        }
      ],
      "name": "initialize",
      "outputs": [],
      "stateMutability": "nonpayable",
      "type": "function"
    },
    {
      "inputs": [
        {
          "internalType": "enum EscrowType.Type",
          "name": "_type",
          "type": "uint8"
        },
        {
          "internalType": "address",
          "name": "_owner",
          "type": "address"
        },
        {
          "internalType": "uint64",
          "name": "_id",
          "type": "uint64"
        },
        {
          "internalType": "uint256",
          "name": "_amount",
          "type": "uint256"
        }
      ],
      "name": "paymentCollateral",
      "outputs": [],
      "stateMutability": "payable",
      "type": "function"
    },
    {
      "inputs": [
        {
          "internalType": "enum EscrowType.Type",
          "name": "_type",
          "type": "uint8"
        },
        {
          "internalType": "address",
          "name": "_owner",
          "type": "address"
        },
        {
          "internalType": "uint64",
          "name": "_id",
          "type": "uint64"
        },
        {
          "internalType": "address",
          "name": "_beneficiary",
          "type": "address"
        },
        {
          "internalType": "uint256",
          "name": "_amount",
          "type": "uint256"
        }
      ],
      "name": "paymentSingleBeneficiaryCollateral",
      "outputs": [],
      "stateMutability": "payable",
      "type": "function"
    },
    {
      "inputs": [
        {
          "internalType": "enum EscrowType.Type",
          "name": "_type",
          "type": "uint8"
        },
        {
          "internalType": "address",
          "name": "_owner",
          "type": "address"
        },
        {
          "internalType": "uint64",
          "name": "_id",
          "type": "uint64"
        },
        {
          "internalType": "address",
          "name": "_beneficiary",
          "type": "address"
        }
      ],
      "name": "paymentWithdraw",
      "outputs": [],
      "stateMutability": "nonpayable",
      "type": "function"
    },
    {
      "inputs": [],
      "name": "proxiableUUID",
      "outputs": [
        {
          "internalType": "bytes32",
          "name": "",
          "type": "bytes32"
        }
      ],
      "stateMutability": "view",
      "type": "function"
    },
    {
      "inputs": [
        {
          "internalType": "address",
          "name": "_datasets",
          "type": "address"
        },
        {
          "internalType": "address",
          "name": "_datasetsProof",
          "type": "address"
        },
        {
          "internalType": "address",
          "name": "_datasetsRequirement",
          "type": "address"
        }
      ],
      "name": "setDependencies",
      "outputs": [],
      "stateMutability": "nonpayable",
      "type": "function"
    },
    {
      "inputs": [
        {
          "internalType": "address",
          "name": "newImplementation",
          "type": "address"
        }
      ],
      "name": "upgradeTo",
      "outputs": [],
      "stateMutability": "nonpayable",
      "type": "function"
    },
    {
      "inputs": [
        {
          "internalType": "address",
          "name": "newImplementation",
          "type": "address"
        },
        {
          "internalType": "bytes",
          "name": "data",
          "type": "bytes"
        }
      ],
      "name": "upgradeToAndCall",
      "outputs": [],
      "stateMutability": "payable",
      "type": "function"
    },
    {
      "inputs": [
        {
          "internalType": "enum EscrowType.Type",
          "name": "_type",
          "type": "uint8"
        },
        {
          "internalType": "address payable",
          "name": "_owner",
          "type": "address"
        },
        {
          "internalType": "uint64",
          "name": "_id",
          "type": "uint64"
        }
      ],
      "name": "withdraw",
      "outputs": [],
      "stateMutability": "nonpayable",
      "type": "function"
    }
  ],
  "numDeployments": 1,
  "solcInputHash": "41e379183134fdd1b89fe7b3f8116a55",
  "bytecode": "0x60a06040523060805234801561001457600080fd5b506080516132a261004c600039600081816105af015281816105f801528181610758015281816107980152610ad501526132a26000f3fe6080604052600436106101055760003560e01c80631054f8371461010a5780631a1015d81461012c5780633659cfe61461013f57806341279ee21461015f5780634b5af90a146101955780634f1ef286146101c257806351166ac8146101d557806352d1902d1461020657806364000be01461021b5780636e4b15611461023b5780637916b3971461024e578063938a6b0d1461026e578063aaf10f421461028e578063b52d326c146102b0578063c190abc4146102d0578063c23732b6146102f0578063c4d66de81461031d578063ce37bde71461033d578063ebc5397714610350578063ef8e926e14610366578063f39b9c5114610386578063fccc2813146103a6575b600080fd5b34801561011657600080fd5b5061012a61012536600461245b565b6103c1565b005b61012a61013a3660046124bc565b610488565b34801561014b57600080fd5b5061012a61015a366004612520565b6105a5565b34801561016b57600080fd5b5061017f61017a36600461245b565b610676565b60405161018c9190612549565b60405180910390f35b3480156101a157600080fd5b506101b56101b036600461245b565b6106e1565b60405161018c9190612566565b61012a6101d0366004612679565b61074e565b3480156101e157600080fd5b506101f56101f03660046126d0565b610807565b60405161018c959493929190612728565b34801561021257600080fd5b5061017f610ac8565b34801561022757600080fd5b5061012a610236366004612782565b610b25565b61012a6102493660046127da565b610b9b565b34801561025a57600080fd5b5061017f61026936600461245b565b610d4d565b34801561027a57600080fd5b5061017f61028936600461245b565b610dba565b34801561029a57600080fd5b506102a3610e27565b60405161018c919061285b565b3480156102bc57600080fd5b5061012a6102cb366004612869565b610e36565b3480156102dc57600080fd5b5061012a6102eb3660046126d0565b610f0b565b3480156102fc57600080fd5b5061031061030b36600461245b565b610fd9565b60405161018c919061290c565b34801561032957600080fd5b5061012a610338366004612520565b611099565b61012a61034b3660046124bc565b61118a565b34801561035c57600080fd5b5061017f610b4081565b34801561037257600080fd5b5061012a610381366004612935565b61124a565b34801561039257600080fd5b5061017f6103a136600461245b565b6112de565b3480156103b257600080fd5b506102a3606360ff60981b0181565b6000610429606560008660068111156103dc576103dc6129a0565b60068111156103ed576103ed6129a0565b8152602080820192909252604090810160009081206001600160a01b038816825283528181206001600160401b0387168252909252902061134b565b905061043d61043784611397565b826113da565b826001600160a01b03167f9ccf10f668293516a0d1338249a1982941370c884ac59080376da8f1bf727dde85848460405161047a939291906129e4565b60405180910390a250505050565b346104f181606560008860068111156104a3576104a36129a0565b60068111156104b4576104b46129a0565b8152602080820192909252604090810160009081206001600160a01b038a16825283528181206001600160401b0389168252909252902090611427565b610559826065600088600681111561050b5761050b6129a0565b600681111561051c5761051c6129a0565b8152602080820192909252604090810160009081206001600160a01b038a16825283528181206001600160401b0389168252909252902090611444565b836001600160a01b03167f409cd1254366d822e7a1a581017102dbdfa9c24840e9d59965138006a9b6b423868585604051610596939291906129e4565b60405180910390a25050505050565b6001600160a01b037f00000000000000000000000000000000000000000000000000000000000000001630036105f65760405162461bcd60e51b81526004016105ed90612a46565b60405180910390fd5b7f00000000000000000000000000000000000000000000000000000000000000006001600160a01b03166106286114bd565b6001600160a01b03161461064e5760405162461bcd60e51b81526004016105ed90612a8d565b610657816114d9565b604080516000808252602082019092526106739183919061156d565b50565b60006065600085600681111561068e5761068e6129a0565b600681111561069f5761069f6129a0565b8152602080820192909252604090810160009081206001600160a01b038716825283528181206001600160401b038616825290925290205490505b9392505050565b6000606560008560068111156106f9576106f96129a0565b600681111561070a5761070a6129a0565b8152602080820192909252604090810160009081206001600160a01b038716825283528181206001600160401b038087168352935220600401541690509392505050565b6001600160a01b037f00000000000000000000000000000000000000000000000000000000000000001630036107965760405162461bcd60e51b81526004016105ed90612a46565b7f00000000000000000000000000000000000000000000000000000000000000006001600160a01b03166107c86114bd565b6001600160a01b0316146107ee5760405162461bcd60e51b81526004016105ed90612a8d565b6107f7826114d9565b6108038282600161156d565b5050565b6000806000806000606560008a6006811115610825576108256129a0565b6006811115610836576108366129a0565b8152602080820192909252604090810160009081206001600160a01b03808d1683529084528282206001600160401b038c1683528452828220908a16825260069081019093529081205491606591908c90811115610896576108966129a0565b60068111156108a7576108a76129a0565b8152602080820192909252604090810160009081206001600160a01b03808e1683529084528282206001600160401b038d1683528452828220908b16825260069081019093529081206001015491606591908d9081111561090a5761090a6129a0565b600681111561091b5761091b6129a0565b8152602080820192909252604090810160009081206001600160a01b03808f1683529084528282206001600160401b038e1683528452828220908c16825260069081019093529081206002015491606591908e9081111561097e5761097e6129a0565b600681111561098f5761098f6129a0565b815260200190815260200160002060008c6001600160a01b03166001600160a01b0316815260200190815260200160002060008b6001600160401b0316815260200190815260200160002060060160008a6001600160a01b03166001600160a01b0316815260200190815260200160002060030154606560008e6006811115610a1a57610a1a6129a0565b6006811115610a2b57610a2b6129a0565b815260200190815260200160002060008d6001600160a01b03166001600160a01b0316815260200190815260200160002060008c6001600160401b0316815260200190815260200160002060060160008b6001600160a01b03166001600160a01b0316815260200190815260200160002060040160009054906101000a90046001600160401b031694509450945094509450945094509450945094565b6000306001600160a01b037f00000000000000000000000000000000000000000000000000000000000000001614610b125760405162461bcd60e51b81526004016105ed90612af2565b5060008051602061322683398151915290565b6000816001811115610b3957610b396129a0565b03610b5f576000610b4b85858561164f565b9050610b5985858584611664565b50610b95565b6001816001811115610b7357610b736129a0565b03610b95576000610b8585858561171c565b9050610b9385858584611770565b505b50505050565b3481811015610bbc5760405162461bcd60e51b81526004016105ed90612b39565b610c248160656000896006811115610bd657610bd66129a0565b6006811115610be757610be76129a0565b8152602080820192909252604090810160009081206001600160a01b038b16825283528181206001600160401b038a168252909252902090611427565b610c8c8260656000896006811115610c3e57610c3e6129a0565b6006811115610c4f57610c4f6129a0565b8152602080820192909252604090810160009081206001600160a01b038b16825283528181206001600160401b038a168252909252902090611444565b610cf68383606560008a6006811115610ca757610ca76129a0565b6006811115610cb857610cb86129a0565b8152602080820192909252604090810160009081206001600160a01b038c16825283528181206001600160401b038b16825290925290209190611815565b826001600160a01b0316856001600160a01b03167f3872d0105f277400a4349cb96831a79079aa9e644a404f22492d16ccfda76b1b888786604051610d3d939291906129e4565b60405180910390a3505050505050565b600060656000856006811115610d6557610d656129a0565b6006811115610d7657610d766129a0565b8152602080820192909252604090810160009081206001600160a01b038716825283528181206001600160401b038616825290925290206003015490509392505050565b600060656000856006811115610dd257610dd26129a0565b6006811115610de357610de36129a0565b8152602080820192909252604090810160009081206001600160a01b038716825283528181206001600160401b038616825290925290206001015490509392505050565b6000610e316114bd565b905090565b606654604051632474521560e21b81526001600160a01b039091169060009082906391d1485490610e6d9084903390600401612b49565b602060405180830381865afa158015610e8a573d6000803e3d6000fd5b505050506040513d601f19601f82011682018060405250810190610eae9190612b77565b610eca5760405162461bcd60e51b81526004016105ed90612bc9565b5050606780546001600160a01b039485166001600160a01b031991821617909155606880549385169382169390931790925560698054919093169116179055565b6000610f758260656000886006811115610f2757610f276129a0565b6006811115610f3857610f386129a0565b8152602080820192909252604090810160009081206001600160a01b038a16825283528181206001600160401b0389168252909252902090611932565b9050610f8361043783611397565b816001600160a01b0316846001600160a01b03167f6c0be515497374ca368522d4e81d9fe03076c933939c1fd6a11385e5c5b0f98f878685604051610fca939291906129e4565b60405180910390a35050505050565b606060656000856006811115610ff157610ff16129a0565b6006811115611002576110026129a0565b8152602080820192909252604090810160009081206001600160a01b038716825283528181206001600160401b038616825283528190206005018054825181850281018501909352808352919290919083018282801561108b57602002820191906000526020600020905b81546001600160a01b0316815260019091019060200180831161106d575b505050505090509392505050565b600054610100900460ff16158080156110b95750600054600160ff909116105b806110da57506110c8306119e0565b1580156110da575060005460ff166001145b6110f65760405162461bcd60e51b81526004016105ed90612c24565b6000805460ff191660011790558015611119576000805461ff0019166101001790555b606680546001600160a01b0319166001600160a01b03841617905561113c6119ef565b8015610803576000805461ff00191690556040517f7f26b83ff96e1f2b6a682f133852f6798a09c465da95921460cefb38474024989061117e90600190612c48565b60405180910390a15050565b346111a581606560008860068111156104a3576104a36129a0565b61120d82606560008860068111156111bf576111bf6129a0565b60068111156111d0576111d06129a0565b8152602080820192909252604090810160009081206001600160a01b038a16825283528181206001600160401b0389168252909252902090611a18565b836001600160a01b03167ff1978664b2832761807daf0ded155154e67a78ce72ffd418c03368b29cb690b0868585604051610596939291906129e4565b600081600281111561125e5761125e6129a0565b0361128657600061127186868686611a6d565b90506112808686868685611a83565b50610b93565b600181600281111561129a5761129a6129a0565b036112ae5760006112808686868685611b34565b60028160028111156112c2576112c26129a0565b03610b935760006112d68686868685611bf5565b505050505050565b6000606560008560068111156112f6576112f66129a0565b6006811115611307576113076129a0565b8152602080820192909252604090810160009081206001600160a01b038716825283528181206001600160401b038616825290925290206002015490509392505050565b600181015460028201548254600092839290916113689190612c6c565b6113729190612c6c565b90508083600001600001600082825461138b9190612c6c565b90915550909392505050565b6040805160208101909152606081526040518060200160405280836040516020016113c29190612ca7565b60408051601f19818403018152919052905292915050565b81516040805160008082526020820190925290916113fe9183908190866000611c9e565b9050805160001461142257604051630e74990760e01b815260040160405180910390fd5b505050565b81548190839060009061143b908490612cc7565b90915550505050565b600282015460018301546114589083612cc7565b6114629190612cc7565b825410156114825760405162461bcd60e51b81526004016105ed90612d00565b808260000160010160008282546114999190612cc7565b90915550505060040180546001600160401b031916436001600160401b0316179055565b600080516020613226833981519152546001600160a01b031690565b606654604051632474521560e21b81526001600160a01b039091169060009082906391d14854906115109084903390600401612b49565b602060405180830381865afa15801561152d573d6000803e3d6000fd5b505050506040513d601f19601f820116820180604052508101906115519190612b77565b6114225760405162461bcd60e51b81526004016105ed90612bc9565b7f4910fdfa16fed3260ed0e7147f7cc6da11a60208b5b9406d12a635614ffd91435460ff16156115a05761142283611d9f565b826001600160a01b03166352d1902d6040518163ffffffff1660e01b8152600401602060405180830381865afa9250505080156115fa575060408051601f3d908101601f191682019092526115f791810190612d1b565b60015b6116165760405162461bcd60e51b81526004016105ed90612d87565b60008051602061322683398151915281146116435760405162461bcd60e51b81526004016105ed90612ddd565b50611422838383611df3565b600061165c8484846112de565b949350505050565b6116cc816065600087600681111561167e5761167e6129a0565b600681111561168f5761168f6129a0565b8152602080820192909252604090810160009081206001600160a01b038916825283528181206001600160401b0388168252909252902090611e18565b6116df610437606360ff60981b01611397565b826001600160a01b03167face2e7cd57fcab72c26e0619b66587ba03740fe156d60d70328f2c5e48406f0085848460405161047a939291906129e4565b600080846006811115611731576117316129a0565b03611747576117408383611e64565b90506106da565b600184600681111561175b5761175b6129a0565b03611768575060006106da565b5060006106da565b6117d8816065600087600681111561178a5761178a6129a0565b600681111561179b5761179b6129a0565b8152602080820192909252604090810160009081206001600160a01b038916825283528181206001600160401b0388168252909252902060020155565b826001600160a01b03167f0f3003e0f346f0c0389d24d73cffa6ab50447c7107ae5a2623d0024f1a416d4385848460405161047a939291906129e4565b6001600160a01b03821660009081526006840160205260408120600401546001600160401b0316900361187357600583018054600181018255600091825260209091200180546001600160a01b0319166001600160a01b0384161790555b60018301548111156118975760405162461bcd60e51b81526004016105ed90612b39565b6001600160a01b0382166000908152600684016020526040812080548392906118c1908490612cc7565b90915550506001600160a01b0382166000908152600684016020526040812060020180548392906118f3908490612cc7565b9091555050506001600160a01b031660009081526006919091016020526040902060040180546001600160401b031916436001600160401b0316179055565b6001600160a01b03811660009081526006830160205260408120600181015460028201549154839261196391612c6c565b61196d9190612c6c565b6001600160a01b038416600090815260068601602052604081208054929350839290919061199c908490612c6c565b90915550508354819085906000906119b5908490612c6c565b90915550506001840180548291906000906119d1908490612c6c565b90915550909150505b92915050565b6001600160a01b03163b151590565b600054610100900460ff16611a165760405162461bcd60e51b81526004016105ed90612e35565b565b60018201546002830154611a2c9083612cc7565b611a369190612cc7565b82541015611a565760405162461bcd60e51b81526004016105ed90612e6e565b808260000160020160008282546114999190612cc7565b6000611a7a8585856112de565b95945050505050565b611aed828260656000896006811115611a9e57611a9e6129a0565b6006811115611aaf57611aaf6129a0565b8152602080820192909252604090810160009081206001600160a01b038b16825283528181206001600160401b038a16825290925290209190612121565b816001600160a01b0316846001600160a01b03167f24a78bbda083574ecaadfe16fa5b79a48513a59663be00f6473b52c875a7dbd6878685604051610fca939291906129e4565b611bae828260656000896006811115611b4f57611b4f6129a0565b6006811115611b6057611b606129a0565b8152602080820192909252604090810160009081206001600160a01b038b811683529084528282206001600160401b038b168352845282822095168152600690940190915290912060020155565b816001600160a01b0316846001600160a01b03167f7ad3d7b39364868423c70c1aa9a4afd171bf006e0c427e6721c4f8ddbadf2aa8878685604051610fca939291906129e4565b611c5f828260656000896006811115611c1057611c106129a0565b6006811115611c2157611c216129a0565b8152602080820192909252604090810160009081206001600160a01b038b16825283528181206001600160401b038a16825290925290209190611815565b836001600160a01b03167f391a520487332e0bf31618bfe79add3870072ff9c1f471caae5708e6c6697b97868585856040516105969493929190612e7e565b6060600287511015611cc5578660405163370d875f60e01b81526004016105ed9190612f0b565b611cd66003607f60991b01846121a3565b6000806003607f60991b01888686611cef576000611cf2565b60015b8a8a8e604051602001611d0a96959493929190612f1c565b60408051601f1981840301815290829052611d2491612fa5565b600060405180830381855af49150503d8060008114611d5f576040519150601f19603f3d011682016040523d82523d6000602084013e611d64565b606091505b509150915081611d8757604051638a7db5bf60e01b815260040160405180910390fd5b611d90816121eb565b925050505b9695505050505050565b611da8816119e0565b611dc45760405162461bcd60e51b81526004016105ed90612ffb565b60008051602061322683398151915280546001600160a01b0319166001600160a01b0392909216919091179055565b611dfc836122c4565b600082511180611e095750805b1561142257610b958383612304565b815481908390600090611e2c908490612c6c565b9091555050600282018054829190600090611e48908490612c6c565b909155505060038201805482919060009061143b908490612cc7565b6067546040516315b536bd60e11b8152600091829182916001600160a01b031690632b6a6d7a90611e99908790600401612566565b602060405180830381865afa158015611eb6573d6000803e3d6000fd5b505050506040513d601f19601f82011682018060405250810190611eda9190613016565b90506000611eea600087876106e1565b90506003826006811115611f0057611f006129a0565b1480611f4757506006826006811115611f1b57611f1b6129a0565b14158015611f475750611f31610b4060b4613037565b611f44906001600160401b038316612cc7565b43115b80611f715750611f5b610b4061016d613037565b611f6e906001600160401b038316612cc7565b43115b15611f81578293505050506119da565b6068546040516309447d3b60e31b81526001600160a01b0390911690634a23e9d890611fb4908890600090600401613084565b602060405180830381865afa158015611fd1573d6000803e3d6000fd5b505050506040513d601f19601f82011682018060405250810190611ff59190612b77565b15612072576068546040516305ce199d60e31b81526001600160a01b0390911690632e70cce89061202a908890600401612566565b602060405180830381865afa158015612047573d6000803e3d6000fd5b505050506040513d601f19601f8201168201806040525081019061206b9190612d1b565b92506120e6565b6069546040516304138a9d60e11b81526001600160a01b0390911690630827153a906120a2908890600401612566565b602060405180830381865afa1580156120bf573d6000803e3d6000fd5b505050506040513d601f19601f820116820180604052508101906120e39190612d1b565b92505b60006120f460008888610676565b9050838110156121165760405162461bcd60e51b81526004016105ed906130d3565b509195945050505050565b6001600160a01b03821660009081526006840160205260408120805483929061214b908490612c6c565b90915550506001600160a01b03821660009081526006840160205260408120600201805483929061217d908490612c6c565b9091555050600183018054829190600090612199908490612c6c565b9091555050505050565b47818110156121c9578082604051634787a10360e11b81526004016105ed9291906130e3565b823f151580610b955760405163064d954b60e41b815260040160405180910390fd5b60606000806000848060200190518101906122069190613161565b919450925090506001600160401b0382166122405780511561223b57604051630e74990760e01b815260040160405180910390fd5b6122a3565b6001600160401b0382166051148061226157506001600160401b0382166071145b1561228857805160000361223b57604051630e74990760e01b815260040160405180910390fd5b8160405163f1f6bced60e01b81526004016105ed9190612566565b821561165c578260405163d4bb667160e01b81526004016105ed9190612549565b6122cd81611d9f565b6040516001600160a01b038216907fbc7cd75a20ee27fd9adebab32041f755214dbc6bffa90cc0225b39da2e5c2d3b90600090a250565b60606106da8383604051806060016040528060278152602001613246602791396060600080856001600160a01b0316856040516123419190612fa5565b600060405180830381855af49150503d806000811461237c576040519150601f19603f3d011682016040523d82523d6000602084013e612381565b606091505b5091509150611d9586838387606083156123ca5782516000036123c3576123a7856119e0565b6123c35760405162461bcd60e51b81526004016105ed906131f5565b508161165c565b61165c83838151156123df5781518083602001fd5b8060405162461bcd60e51b81526004016105ed9190612f0b565b6007811061067357600080fd5b80356119da816123f9565b60006001600160a01b0382166119da565b61242b81612411565b811461067357600080fd5b80356119da81612422565b6001600160401b03811661242b565b80356119da81612441565b60008060006060848603121561247357612473600080fd5b600061247f8686612406565b935050602061249086828701612436565b92505060406124a186828701612450565b9150509250925092565b8061242b565b80356119da816124ab565b600080600080608085870312156124d5576124d5600080fd5b60006124e18787612406565b94505060206124f287828801612436565b935050604061250387828801612450565b9250506060612514878288016124b1565b91505092959194509250565b60006020828403121561253557612535600080fd5b600061165c8484612436565b805b82525050565b602081016119da8284612541565b6001600160401b038116612543565b602081016119da8284612557565b601f01601f191690565b634e487b7160e01b600052604160045260246000fd5b61259d82612574565b81018181106001600160401b03821117156125ba576125ba61257e565b6040525050565b60006125cc60405190565b90506125d88282612594565b919050565b60006001600160401b038211156125f6576125f661257e565b6125ff82612574565b60200192915050565b82818337506000910152565b6000612627612622846125dd565b6125c1565b90508281526020810184848401111561264257612642600080fd5b61264d848285612608565b509392505050565b600082601f83011261266957612669600080fd5b813561165c848260208601612614565b6000806040838503121561268f5761268f600080fd5b600061269b8585612436565b92505060208301356001600160401b038111156126ba576126ba600080fd5b6126c685828601612655565b9150509250929050565b600080600080608085870312156126e9576126e9600080fd5b60006126f58787612406565b945050602061270687828801612436565b935050604061271787828801612450565b925050606061251487828801612436565b60a081016127368288612541565b6127436020830187612541565b6127506040830186612541565b61275d6060830185612541565b611d956080830184612557565b6002811061067357600080fd5b80356119da8161276a565b6000806000806080858703121561279b5761279b600080fd5b60006127a78787612406565b94505060206127b887828801612436565b93505060406127c987828801612450565b925050606061251487828801612777565b600080600080600060a086880312156127f5576127f5600080fd5b60006128018888612406565b955050602061281288828901612436565b945050604061282388828901612450565b935050606061283488828901612436565b9250506080612845888289016124b1565b9150509295509295909350565b61254381612411565b602081016119da8284612852565b60008060006060848603121561288157612881600080fd5b600061288d8686612436565b935050602061289e86828701612436565b92505060406124a186828701612436565b60006128bb8383612852565b505060200190565b60006128cd825190565b80845260209384019383018060005b838110156129015781516128f088826128af565b9750602083019250506001016128dc565b509495945050505050565b602080825281016106da81846128c3565b6003811061067357600080fd5b80356119da8161291d565b600080600080600060a0868803121561295057612950600080fd5b600061295c8888612406565b955050602061296d88828901612436565b945050604061297e88828901612450565b935050606061298f88828901612436565b92505060806128458882890161292a565b634e487b7160e01b600052602160045260246000fd5b60078110610673576106736129a0565b806125d8816129b6565b60006119da826129c6565b612543816129d0565b606081016129f282866129db565b6129ff6020830185612557565b61165c6040830184612541565b602c815260006020820160008051602061320683398151915281526b19195b1959d85d1958d85b1b60a21b602082015291505b5060400190565b602080825281016119da81612a0c565b602c815260006020820160008051602061320683398151915281526b6163746976652070726f787960a01b60208201529150612a3f565b602080825281016119da81612a56565b603881526000602082017f555550535570677261646561626c653a206d757374206e6f742062652063616c8152771b1959081d1a1c9bdd59da0819195b1959d85d1958d85b1b60421b60208201529150612a3f565b602080825281016119da81612a9d565b601d81526000602082017f457863656564732074686520616d6f756e74206f66207061796d656e74000000815291505b5060200190565b602080825281016119da81612b02565b60408101612b578285612541565b6106da6020830184612852565b80151561242b565b80516119da81612b64565b600060208284031215612b8c57612b8c600080fd5b600061165c8484612b6c565b601a81526000602082017913db9b1e48185b1b1bddd959081c9bdb194818d85b8818d85b1b60321b81529150612b32565b602080825281016119da81612b98565b602e81526000602082017f496e697469616c697a61626c653a20636f6e747261637420697320616c72656181526d191e481a5b9a5d1a585b1a5e995960921b60208201529150612a3f565b602080825281016119da81612bd9565b600060ff82166119da565b61254381612c34565b602081016119da8284612c3f565b634e487b7160e01b600052601160045260246000fd5b818103818111156119da576119da612c56565b60006119da8260601b90565b60006119da82612c7f565b612543612ca282612411565b612c8b565b61020560f11b81526002016000612cbe8284612c96565b50601401919050565b808201808211156119da576119da612c56565b600f81526000602082016e1c185e5b595b9d080f881d1bdd185b608a1b81529150612b32565b602080825281016119da81612cda565b80516119da816124ab565b600060208284031215612d3057612d30600080fd5b600061165c8484612d10565b602e81526000602082017f45524331393637557067726164653a206e657720696d706c656d656e7461746981526d6f6e206973206e6f74205555505360901b60208201529150612a3f565b602080825281016119da81612d3c565b602981526000602082017f45524331393637557067726164653a20756e737570706f727465642070726f788152681a58589b195555525160ba1b60208201529150612a3f565b602080825281016119da81612d97565b602b81526000602082017f496e697469616c697a61626c653a20636f6e7472616374206973206e6f74206981526a6e697469616c697a696e6760a81b60208201529150612a3f565b602080825281016119da81612ded565b601281526000602082017118dbdb1b185d195c985b080f881d1bdd185b60721b81529150612b32565b602080825281016119da81612e45565b60808101612e8c82876129db565b612e996020830186612557565b612ea66040830185612852565b611a7a6060830184612541565b60005b83811015612ece578181015183820152602001612eb6565b50506000910152565b6000612ee1825190565b808452602084019350612ef8818560208601612eb3565b612f0181612574565b9093019392505050565b602080825281016106da8184612ed7565b60c08101612f2a8289612557565b612f376020830188612541565b612f446040830187612557565b612f516060830186612557565b8181036080830152612f638185612ed7565b905081810360a0830152612f778184612ed7565b98975050505050505050565b6000612f8d825190565b612f9b818560208601612eb3565b9290920192915050565b60006106da8284612f83565b602d81526000602082017f455243313936373a206e657720696d706c656d656e746174696f6e206973206e81526c1bdd08184818dbdb9d1c9858dd609a1b60208201529150612a3f565b602080825281016119da81612fb1565b80516119da816123f9565b60006020828403121561302b5761302b600080fd5b600061165c848461300b565b81810280821583820485141761304f5761304f612c56565b5092915050565b60028110610673576106736129a0565b806125d881613056565b60006119da82613066565b61254381613070565b604081016130928285612557565b6106da602083018461307b565b601d81526000602082017f496e73756666696369656e7420636f6c6c61746572616c2066756e647300000081529150612b32565b602080825281016119da8161309f565b604081016130f18285612541565b6106da6020830184612541565b80516119da81612441565b6000613117612622846125dd565b90508281526020810184848401111561313257613132600080fd5b61264d848285612eb3565b600082601f83011261315157613151600080fd5b815161165c848260208601613109565b60008060006060848603121561317957613179600080fd5b60006131858686612d10565b9350506020613196868287016130fe565b92505060408401516001600160401b038111156131b5576131b5600080fd5b6124a18682870161313d565b601d81526000602082017f416464726573733a2063616c6c20746f206e6f6e2d636f6e747261637400000081529150612b32565b602080825281016119da816131c156fe46756e6374696f6e206d7573742062652063616c6c6564207468726f75676820360894a13ba1a3210667c828492db98dca3e2076cc3735a920a3ca505d382bbc416464726573733a206c6f772d6c6576656c2064656c65676174652063616c6c206661696c6564a2646970667358221220f203bf41a5d346bbc8c843a4b8ee7f1257fed6e92d5d30dd2e154e2cc9b4b11b64736f6c63430008150033",
  "devdoc": {
    "details": "Base escrow contract, holds funds designated for a payee until they withdraw them.",
    "events": {
      "AdminChanged(address,address)": {
        "details": "Emitted when the admin account has changed."
      },
      "BeaconUpgraded(address)": {
        "details": "Emitted when the beacon is changed."
      },
      "Burn(uint8,address,uint64,uint256)": {
        "details": "This function allows report the burn event.",
        "params": {
          "_attoFILAmount": "The amount of attoFIL.",
          "_id": "The business id associated with the credited funds.",
          "_owner": "The destination address for the credited funds.",
          "_type": "The Escrow type for the credited funds."
        }
      },
      "Collateral(uint8,address,uint64,uint256)": {
        "details": "This function allows report the collateral event of a specific amount in attoFIL.",
        "params": {
          "_attoFILAmount": "The amount of attoFIL.",
          "_id": "The business id associated with the credited funds.",
          "_owner": "The destination address for the credited funds.",
          "_type": "The Escrow type for the credited funds."
        }
      },
      "Initialized(uint8)": {
        "details": "Triggered when the contract has been initialized or reinitialized."
      },
      "PaymentCollateral(uint8,address,uint64,uint256)": {
        "details": "This function allows report the payment event of a specific amount in attoFIL.",
        "params": {
          "_attoFILAmount": "The amount of attoFIL.",
          "_id": "The business id associated with the credited funds.",
          "_owner": "The destination address for the credited funds.",
          "_type": "The Escrow type for the credited funds."
        }
      },
      "PaymentRefund(uint8,address,uint64,address,uint256)": {
        "details": "This function allows report the payment refund event of a specific amount in attoFIL.",
        "params": {
          "_attoFILAmount": "The amount of attoFIL.",
          "_beneficiary": "The beneficiary address for the payment credited funds.",
          "_id": "The business id associated with the credited funds.",
          "_owner": "The destination address for the credited funds.",
          "_type": "The Escrow type for the credited funds."
        }
      },
      "PaymentSingleBeneficiaryCollateral(uint8,address,uint64,address,uint256)": {
        "details": "This function allows report the payment event of a specific amount in attoFIL.",
        "params": {
          "_attoFILAmount": "The amount of attoFIL.",
          "_beneficiary": "The beneficiary address for the payment credited funds.",
          "_id": "The business id associated with the credited funds.",
          "_owner": "The destination address for the credited funds.",
          "_type": "The Escrow type for the credited funds."
        }
      },
      "PaymentWithdrawn(uint8,address,uint64,address,uint256)": {
        "details": "This function allows report the payment withdrawn event of a specific amount in attoFIL.",
        "params": {
          "_attoFILAmount": "The amount of attoFIL.",
          "_beneficiary": "The beneficiary address for the payment credited funds.",
          "_id": "The business id associated with the credited funds.",
          "_owner": "The destination address for the credited funds.",
          "_type": "The Escrow type for the credited funds."
        }
      },
      "UpdateCollateral(uint8,address,uint64,uint256)": {
        "details": "This function allows report the update collateral event of funds.",
        "params": {
          "_attoFILAmount": "The amount of attoFIL.",
          "_id": "The business id associated with the credited funds.",
          "_owner": "The destination address for the credited funds.",
          "_type": "The Escrow type for the credited funds."
        }
      },
      "UpdatePaymentBeneficiary(uint8,address,uint64,address,uint256)": {
        "details": "This function allows report the payment collateral event of a specific amount in attoFIL.",
        "params": {
          "_attoFILAmount": "The payment funds.",
          "_beneficiary": "The beneficiary address for the payment credited funds.",
          "_id": "The business id associated with the credited funds.",
          "_owner": "The destination address for the credited funds.",
          "_type": "The Escrow type for the credited funds."
        }
      },
      "UpdatePaymentCollateral(uint8,address,uint64,address,uint256)": {
        "details": "This function allows report the payment collateral event of a specific amount in attoFIL.",
        "params": {
          "_attoFILAmount": "The amount of attoFIL.",
          "_beneficiary": "The beneficiary address for the payment credited funds.",
          "_id": "The business id associated with the credited funds.",
          "_owner": "The destination address for the credited funds.",
          "_type": "The Escrow type for the credited funds."
        }
      },
      "Upgraded(address)": {
        "details": "Emitted when the implementation is upgraded."
      },
      "Withdrawn(uint8,address,uint64,uint256)": {
        "details": "This function allows report the withdrawal event of funds.",
        "params": {
          "_attoFILAmount": "The amount of attoFIL.",
          "_id": "The business id associated with the credited funds.",
          "_owner": "The destination address for the credited funds.",
          "_type": "The Escrow type for the credited funds."
        }
      }
    },
    "kind": "dev",
    "methods": {
      "collateral(uint8,address,uint64,uint256)": {
        "details": "Records the sent amount as credit for future withdrawals. Note Called by the payer to store the sent amount as credit to be pulled. Funds sent in this way are stored in an intermediate {Escrow} contract, so there is no danger of them being spent before withdrawal.",
        "params": {
          "_amount": "The collateral funds.",
          "_id": "The business id associated with the credited funds.",
          "_owner": "The destination address for the credited funds.",
          "_type": "The Escrow type for the credited funds."
        }
      },
      "emitCollateralEvent(uint8,address,uint64,uint8)": {
        "params": {
          "_id": "The business id associated with the credited funds.",
          "_owner": "The destination address for the credited funds.",
          "_type": "The Escrow type for the credited funds."
        }
      },
      "emitPaymentEvent(uint8,address,uint64,address,uint8)": {
        "params": {
          "_beneficiary": "The beneficiary address for the payment credited funds.",
          "_id": "The business id associated with the credited funds.",
          "_owner": "The destination address for the credited funds.",
          "_type": "The Escrow type for the credited funds."
        }
      },
      "getBeneficiariesList(uint8,address,uint64)": {
        "params": {
          "_id": "The business id associated with the credited funds.",
          "_owner": "The destination address for the credited funds.",
          "_type": "The Escrow type for the credited funds."
        }
      },
      "getBeneficiaryFund(uint8,address,uint64,address)": {
        "params": {
          "_beneficiary": "The beneficiary address for the payment credited funds.",
          "_id": "The business id associated with the credited funds.",
          "_owner": "The destination address for the credited funds.",
          "_type": "The Escrow type for the credited funds."
        }
      },
      "getOwnerBurned(uint8,address,uint64)": {
        "params": {
          "_id": "The business id associated with the credited funds.",
          "_owner": "The destination address for the credited funds.",
          "_type": "The Escrow type for the credited funds."
        }
      },
      "getOwnerCollateral(uint8,address,uint64)": {
        "params": {
          "_id": "The business id associated with the credited funds.",
          "_owner": "The destination address for the credited funds.",
          "_type": "The Escrow type for the credited funds."
        }
      },
      "getOwnerCreatedBlockNumber(uint8,address,uint64)": {
        "params": {
          "_id": "The business id associated with the credited funds.",
          "_owner": "The destination address for the credited funds.",
          "_type": "The Escrow type for the credited funds."
        }
      },
      "getOwnerLock(uint8,address,uint64)": {
        "params": {
          "_id": "The business id associated with the credited funds.",
          "_owner": "The destination address for the credited funds.",
          "_type": "The Escrow type for the credited funds."
        }
      },
      "getOwnerTotal(uint8,address,uint64)": {
        "params": {
          "_id": "The business id associated with the credited funds.",
          "_owner": "The destination address for the credited funds.",
          "_type": "The Escrow type for the credited funds."
        }
      },
      "paymentCollateral(uint8,address,uint64,uint256)": {
        "details": "Records the sent amount as credit for future payment withdraw. Note Called by the payer to store the sent amount as credit to be pulled. Funds sent in this way are stored in an intermediate {Escrow} contract, so there is no danger of them being spent before withdrawal.",
        "params": {
          "_amount": "The collateral funds.",
          "_id": "The business id associated with the credited funds.",
          "_owner": "The destination address for the credited funds.",
          "_type": "The Escrow type for the credited funds."
        }
      },
      "paymentSingleBeneficiaryCollateral(uint8,address,uint64,address,uint256)": {
        "details": "Records the sent amount as credit for future payment withdraw. Note Called by the payer to store the sent amount as credit to be pulled. Funds sent in this way are stored in an intermediate {Escrow} contract, so there is no danger of them being spent before withdrawal.",
        "params": {
          "_amount": "The collateral funds.",
          "_beneficiary": "The beneficiary address for the payment credited funds.",
          "_id": "The business id associated with the credited funds.",
          "_owner": "The destination address for the credited funds.",
          "_type": "The Escrow type for the credited funds."
        }
      },
      "paymentWithdraw(uint8,address,uint64,address)": {
        "params": {
          "_beneficiary": "The beneficiary address for the payment credited funds.",
          "_id": "The business id associated with the credited funds.",
          "_owner": "The destination address for the credited funds.",
          "_type": "The Escrow type for the credited funds."
        }
      },
      "proxiableUUID()": {
        "details": "Implementation of the ERC1822 {proxiableUUID} function. This returns the storage slot used by the implementation. It is used to validate the implementation's compatibility when performing an upgrade. IMPORTANT: A proxy pointing at a proxiable contract should not be considered proxiable itself, because this risks bricking a proxy that upgrades to it, by delegating to itself until out of gas. Thus it is critical that this function revert if invoked through a proxy. This is guaranteed by the `notDelegated` modifier."
      },
      "setDependencies(address,address,address)": {
        "details": "After the contract is deployed, this function needs to be called manually!"
      },
      "upgradeTo(address)": {
        "custom:oz-upgrades-unsafe-allow-reachable": "delegatecall",
        "details": "Upgrade the implementation of the proxy to `newImplementation`. Calls {_authorizeUpgrade}. Emits an {Upgraded} event."
      },
      "upgradeToAndCall(address,bytes)": {
        "custom:oz-upgrades-unsafe-allow-reachable": "delegatecall",
        "details": "Upgrade the implementation of the proxy to `newImplementation`, and subsequently execute the function call encoded in `data`. Calls {_authorizeUpgrade}. Emits an {Upgraded} event."
      },
      "withdraw(uint8,address,uint64)": {
        "details": "This function allows the owner to initiate a withdrawal of authorized funds.",
        "params": {
          "_id": "The business id associated with the credited funds.",
          "_owner": "The destination address for the credited funds.",
          "_type": "The Escrow type for the credited funds."
        }
      }
    },
    "stateVariables": {
      "__gap": {
        "details": "This empty reserved space is put in place to allow future versions to add new"
      }
    },
    "title": "Escrow",
    "version": 1
  },
  "userdoc": {
    "errors": {
      "ActorError(int256)": [
        {
          "notice": "the called actor returned an error as part of its expected behaviour"
        }
      ],
      "ActorNotFound()": [
        {
          "notice": "the actor is not found"
        }
      ],
      "FailToCallActor()": [
        {
          "notice": "an error happened trying to call the actor"
        }
      ],
      "InvalidAddress(bytes)": [
        {
          "notice": "the provided address is not valid"
        }
      ],
      "InvalidCodec(uint64)": [
        {
          "notice": "the codec received is not valid"
        }
      ],
      "InvalidResponseLength()": [
        {
          "notice": "the response received is not correct. In some case no response is expected and we received one, or a response was indeed expected and we received none."
        }
      ],
      "NotEnoughBalance(uint256,uint256)": [
        {
          "notice": "the smart contract has no enough balance to transfer"
        }
      ]
    },
    "events": {
      "Burn(uint8,address,uint64,uint256)": {
        "notice": "Report a burn event."
      },
      "Collateral(uint8,address,uint64,uint256)": {
        "notice": "Report a collateral event."
      },
      "PaymentCollateral(uint8,address,uint64,uint256)": {
        "notice": "Report a payment event."
      },
      "PaymentRefund(uint8,address,uint64,address,uint256)": {
        "notice": "Report a PaymentRefund event."
      },
      "PaymentSingleBeneficiaryCollateral(uint8,address,uint64,address,uint256)": {
        "notice": "Report a single beneficiary payment event."
      },
      "PaymentWithdrawn(uint8,address,uint64,address,uint256)": {
        "notice": "Report a PaymentWithdrawn event."
      },
      "UpdateCollateral(uint8,address,uint64,uint256)": {
        "notice": "Report a update collateral event."
      },
      "UpdatePaymentBeneficiary(uint8,address,uint64,address,uint256)": {
        "notice": "Report a UpdatePaymentBeneficiaries."
      },
      "UpdatePaymentCollateral(uint8,address,uint64,address,uint256)": {
        "notice": "Report a UpdatePaymentCollateral made by a _beneficiary."
      },
      "Withdrawn(uint8,address,uint64,uint256)": {
        "notice": "Report a withdrawal event."
      }
    },
    "kind": "user",
    "methods": {
      "collateral(uint8,address,uint64,uint256)": {
        "notice": "Emits a {Collateral} event upon successful credit recording."
      },
      "emitCollateralEvent(uint8,address,uint64,uint8)": {
        "notice": "Post an event for collateral type."
      },
      "emitPaymentEvent(uint8,address,uint64,address,uint8)": {
        "notice": "Post an event for payment type."
      },
      "getBeneficiariesList(uint8,address,uint64)": {
        "notice": "Get beneficiariesList."
      },
      "getBeneficiaryFund(uint8,address,uint64,address)": {
        "notice": "Get beneficiary fund."
      },
      "getImplementation()": {
        "notice": "Returns the implementation contract"
      },
      "getOwnerBurned(uint8,address,uint64)": {
        "notice": "Get owner burned funds."
      },
      "getOwnerCollateral(uint8,address,uint64)": {
        "notice": "Get owner collateral funds."
      },
      "getOwnerCreatedBlockNumber(uint8,address,uint64)": {
        "notice": "Get owner created block number."
      },
      "getOwnerLock(uint8,address,uint64)": {
        "notice": "Get owner lock funds."
      },
      "getOwnerTotal(uint8,address,uint64)": {
        "notice": "Get owner total funds."
      },
      "initialize(address)": {
        "notice": "Initialize function to initialize the contract and grant the default admin role to the deployer."
      },
      "paymentCollateral(uint8,address,uint64,uint256)": {
        "notice": "Emits a {PaymentCollateral} event upon successful credit recording."
      },
      "paymentSingleBeneficiaryCollateral(uint8,address,uint64,address,uint256)": {
        "notice": "Emits a {PaymentSingleBeneficiaryCollateral} event upon successful credit recording."
      },
      "paymentWithdraw(uint8,address,uint64,address)": {
        "notice": "Payment withdraw funds authorized for an address.Emits a {PaymentWithdrawn} event upon successful credit recording."
      },
      "setDependencies(address,address,address)": {
        "notice": "Set dependencies function to initialize the depend contract."
      },
      "withdraw(uint8,address,uint64)": {
        "notice": "Withdraw funds authorized for an address.Emits a {Withdrawn} event upon successful withdrawal."
      }
    },
    "version": 1
  },
  "storageLayout": {
    "storage": [
      {
        "astId": 5186,
        "contract": "src/v0.8/core/finance/Escrow.sol:Escrow",
        "label": "_initialized",
        "offset": 0,
        "slot": "0",
        "type": "t_uint8"
      },
      {
        "astId": 5189,
        "contract": "src/v0.8/core/finance/Escrow.sol:Escrow",
        "label": "_initializing",
        "offset": 1,
        "slot": "0",
        "type": "t_bool"
      },
      {
        "astId": 5168,
        "contract": "src/v0.8/core/finance/Escrow.sol:Escrow",
        "label": "__gap",
        "offset": 0,
        "slot": "1",
        "type": "t_array(t_uint256)50_storage"
      },
      {
        "astId": 5483,
        "contract": "src/v0.8/core/finance/Escrow.sol:Escrow",
        "label": "__gap",
        "offset": 0,
        "slot": "51",
        "type": "t_array(t_uint256)50_storage"
      },
      {
        "astId": 18189,
        "contract": "src/v0.8/core/finance/Escrow.sol:Escrow",
        "label": "escrowAccount",
        "offset": 0,
        "slot": "101",
        "type": "t_mapping(t_enum(Type)35196,t_mapping(t_address,t_mapping(t_uint256,t_struct(Escrow)35230_storage)))"
      },
      {
        "astId": 18192,
        "contract": "src/v0.8/core/finance/Escrow.sol:Escrow",
        "label": "roles",
        "offset": 0,
        "slot": "102",
        "type": "t_contract(IRoles)20939"
      },
      {
        "astId": 18195,
        "contract": "src/v0.8/core/finance/Escrow.sol:Escrow",
        "label": "datasets",
        "offset": 0,
        "slot": "103",
        "type": "t_contract(IDatasets)21161"
      },
      {
        "astId": 18198,
        "contract": "src/v0.8/core/finance/Escrow.sol:Escrow",
        "label": "datasetsProof",
        "offset": 0,
        "slot": "104",
        "type": "t_contract(IDatasetsProof)21426"
      },
      {
        "astId": 18201,
        "contract": "src/v0.8/core/finance/Escrow.sol:Escrow",
        "label": "datasetsRequirement",
        "offset": 0,
        "slot": "105",
        "type": "t_contract(IDatasetsRequirement)21497"
      },
      {
        "astId": 18215,
        "contract": "src/v0.8/core/finance/Escrow.sol:Escrow",
        "label": "__gap",
        "offset": 0,
        "slot": "106",
        "type": "t_array(t_uint256)32_storage"
      }
    ],
    "types": {
      "t_address": {
        "encoding": "inplace",
        "label": "address",
        "numberOfBytes": "20"
      },
      "t_array(t_address)dyn_storage": {
        "base": "t_address",
        "encoding": "dynamic_array",
        "label": "address[]",
        "numberOfBytes": "32"
      },
      "t_array(t_uint256)32_storage": {
        "base": "t_uint256",
        "encoding": "inplace",
        "label": "uint256[32]",
        "numberOfBytes": "1024"
      },
      "t_array(t_uint256)50_storage": {
        "base": "t_uint256",
        "encoding": "inplace",
        "label": "uint256[50]",
        "numberOfBytes": "1600"
      },
      "t_bool": {
        "encoding": "inplace",
        "label": "bool",
        "numberOfBytes": "1"
      },
      "t_contract(IDatasets)21161": {
        "encoding": "inplace",
        "label": "contract IDatasets",
        "numberOfBytes": "20"
      },
      "t_contract(IDatasetsProof)21426": {
        "encoding": "inplace",
        "label": "contract IDatasetsProof",
        "numberOfBytes": "20"
      },
      "t_contract(IDatasetsRequirement)21497": {
        "encoding": "inplace",
        "label": "contract IDatasetsRequirement",
        "numberOfBytes": "20"
      },
      "t_contract(IRoles)20939": {
        "encoding": "inplace",
        "label": "contract IRoles",
        "numberOfBytes": "20"
      },
      "t_enum(Type)35196": {
        "encoding": "inplace",
        "label": "enum EscrowType.Type",
        "numberOfBytes": "1"
      },
      "t_mapping(t_address,t_mapping(t_uint256,t_struct(Escrow)35230_storage))": {
        "encoding": "mapping",
        "key": "t_address",
        "label": "mapping(address => mapping(uint256 => struct EscrowType.Escrow))",
        "numberOfBytes": "32",
        "value": "t_mapping(t_uint256,t_struct(Escrow)35230_storage)"
      },
      "t_mapping(t_address,t_struct(Fund)35217_storage)": {
        "encoding": "mapping",
        "key": "t_address",
        "label": "mapping(address => struct EscrowType.Fund)",
        "numberOfBytes": "32",
        "value": "t_struct(Fund)35217_storage"
      },
      "t_mapping(t_enum(Type)35196,t_mapping(t_address,t_mapping(t_uint256,t_struct(Escrow)35230_storage)))": {
        "encoding": "mapping",
        "key": "t_enum(Type)35196",
        "label": "mapping(enum EscrowType.Type => mapping(address => mapping(uint256 => struct EscrowType.Escrow)))",
        "numberOfBytes": "32",
        "value": "t_mapping(t_address,t_mapping(t_uint256,t_struct(Escrow)35230_storage))"
      },
      "t_mapping(t_uint256,t_struct(Escrow)35230_storage)": {
        "encoding": "mapping",
        "key": "t_uint256",
        "label": "mapping(uint256 => struct EscrowType.Escrow)",
        "numberOfBytes": "32",
        "value": "t_struct(Escrow)35230_storage"
      },
      "t_struct(Escrow)35230_storage": {
        "encoding": "inplace",
        "label": "struct EscrowType.Escrow",
        "members": [
          {
            "astId": 35221,
            "contract": "src/v0.8/core/finance/Escrow.sol:Escrow",
            "label": "owner",
            "offset": 0,
            "slot": "0",
            "type": "t_struct(Fund)35217_storage"
          },
          {
            "astId": 35224,
            "contract": "src/v0.8/core/finance/Escrow.sol:Escrow",
            "label": "beneficiariesList",
            "offset": 0,
            "slot": "5",
            "type": "t_array(t_address)dyn_storage"
          },
          {
            "astId": 35229,
            "contract": "src/v0.8/core/finance/Escrow.sol:Escrow",
            "label": "beneficiaries",
            "offset": 0,
            "slot": "6",
            "type": "t_mapping(t_address,t_struct(Fund)35217_storage)"
          }
        ],
        "numberOfBytes": "224"
      },
      "t_struct(Fund)35217_storage": {
        "encoding": "inplace",
        "label": "struct EscrowType.Fund",
        "members": [
          {
            "astId": 35208,
            "contract": "src/v0.8/core/finance/Escrow.sol:Escrow",
            "label": "total",
            "offset": 0,
            "slot": "0",
            "type": "t_uint256"
          },
          {
            "astId": 35210,
            "contract": "src/v0.8/core/finance/Escrow.sol:Escrow",
            "label": "lock",
            "offset": 0,
            "slot": "1",
            "type": "t_uint256"
          },
          {
            "astId": 35212,
            "contract": "src/v0.8/core/finance/Escrow.sol:Escrow",
            "label": "collateral",
            "offset": 0,
            "slot": "2",
            "type": "t_uint256"
          },
          {
            "astId": 35214,
            "contract": "src/v0.8/core/finance/Escrow.sol:Escrow",
            "label": "burned",
            "offset": 0,
            "slot": "3",
            "type": "t_uint256"
          },
          {
            "astId": 35216,
            "contract": "src/v0.8/core/finance/Escrow.sol:Escrow",
            "label": "createdBlockNumber",
            "offset": 0,
            "slot": "4",
            "type": "t_uint64"
          }
        ],
        "numberOfBytes": "160"
      },
      "t_uint256": {
        "encoding": "inplace",
        "label": "uint256",
        "numberOfBytes": "32"
      },
      "t_uint64": {
        "encoding": "inplace",
        "label": "uint64",
        "numberOfBytes": "8"
      },
      "t_uint8": {
        "encoding": "inplace",
        "label": "uint8",
        "numberOfBytes": "1"
      }
    }
  }
}