{
  "address": "0x978B97694A6E5998e375B44B4C053536bbE5e507",
  "abi": [
    {
      "inputs": [
        {
          "internalType": "int256",
          "name": "errorCode",
          "type": "int256"
        }
      ],
      "name": "ActorError",
      "type": "error"
    },
    {
      "inputs": [],
      "name": "ActorNotFound",
      "type": "error"
    },
    {
      "inputs": [],
      "name": "FailToCallActor",
      "type": "error"
    },
    {
      "inputs": [
        {
          "internalType": "uint64",
          "name": "",
          "type": "uint64"
        }
      ],
      "name": "InvalidCodec",
      "type": "error"
    },
    {
      "inputs": [],
      "name": "InvalidResponseLength",
      "type": "error"
    },
    {
      "inputs": [
        {
          "internalType": "uint256",
          "name": "balance",
          "type": "uint256"
        },
        {
          "internalType": "uint256",
          "name": "value",
          "type": "uint256"
        }
      ],
      "name": "NotEnoughBalance",
      "type": "error"
    },
    {
      "inputs": [
        {
          "internalType": "string",
          "name": "log",
          "type": "string"
        },
        {
          "internalType": "address",
          "name": "sendr",
          "type": "address"
        },
        {
          "internalType": "address",
          "name": "allowd",
          "type": "address"
        }
      ],
      "name": "errorAddress",
      "type": "error"
    },
    {
      "anonymous": false,
      "inputs": [
        {
          "indexed": false,
          "internalType": "address",
          "name": "previousAdmin",
          "type": "address"
        },
        {
          "indexed": false,
          "internalType": "address",
          "name": "newAdmin",
          "type": "address"
        }
      ],
      "name": "AdminChanged",
      "type": "event"
    },
    {
      "anonymous": false,
      "inputs": [
        {
          "indexed": true,
          "internalType": "address",
          "name": "beacon",
          "type": "address"
        }
      ],
      "name": "BeaconUpgraded",
      "type": "event"
    },
    {
      "anonymous": false,
      "inputs": [
        {
          "indexed": false,
          "internalType": "uint8",
          "name": "version",
          "type": "uint8"
        }
      ],
      "name": "Initialized",
      "type": "event"
    },
    {
      "anonymous": false,
      "inputs": [
        {
          "indexed": true,
          "internalType": "address",
          "name": "implementation",
          "type": "address"
        }
      ],
      "name": "Upgraded",
      "type": "event"
    },
    {
      "inputs": [
        {
          "internalType": "address",
          "name": "client",
          "type": "address"
        },
        {
          "internalType": "uint256",
          "name": "_size",
          "type": "uint256"
        }
      ],
      "name": "allocateDatacap",
      "outputs": [],
      "stateMutability": "nonpayable",
      "type": "function"
    },
    {
      "inputs": [],
      "name": "getImplementation",
      "outputs": [
        {
          "internalType": "address",
          "name": "",
          "type": "address"
        }
      ],
      "stateMutability": "view",
      "type": "function"
    },
    {
      "inputs": [
        {
          "internalType": "uint64",
          "name": "_provider",
          "type": "uint64"
        },
        {
          "internalType": "uint64",
          "name": "_claimId",
          "type": "uint64"
        }
      ],
      "name": "getReplicaClaimData",
      "outputs": [
        {
          "internalType": "bytes",
          "name": "",
          "type": "bytes"
        }
      ],
      "stateMutability": "nonpayable",
      "type": "function"
    },
    {
      "inputs": [
        {
          "internalType": "bytes32",
          "name": "",
          "type": "bytes32"
        },
        {
          "internalType": "uint64",
          "name": "_claimId",
          "type": "uint64"
        }
      ],
      "name": "getReplicaDealState",
      "outputs": [
        {
          "internalType": "enum FilecoinType.DealState",
          "name": "",
          "type": "uint8"
        }
      ],
      "stateMutability": "nonpayable",
      "type": "function"
    },
    {
      "inputs": [
        {
          "internalType": "address",
          "name": "_datacap",
          "type": "address"
        }
      ],
      "name": "initDependencies",
      "outputs": [],
      "stateMutability": "nonpayable",
      "type": "function"
    },
    {
      "inputs": [
        {
          "internalType": "enum FilecoinType.Network",
          "name": "_network",
          "type": "uint8"
        },
        {
          "internalType": "address",
          "name": "_roles",
          "type": "address"
        }
      ],
      "name": "initialize",
      "outputs": [],
      "stateMutability": "nonpayable",
      "type": "function"
    },
    {
      "inputs": [],
      "name": "network",
      "outputs": [
        {
          "internalType": "enum FilecoinType.Network",
          "name": "",
          "type": "uint8"
        }
      ],
      "stateMutability": "view",
      "type": "function"
    },
    {
      "inputs": [],
      "name": "proxiableUUID",
      "outputs": [
        {
          "internalType": "bytes32",
          "name": "",
          "type": "bytes32"
        }
      ],
      "stateMutability": "view",
      "type": "function"
    },
    {
      "inputs": [
        {
          "internalType": "uint64",
          "name": "claimId",
          "type": "uint64"
        },
        {
          "internalType": "bytes",
          "name": "_data",
          "type": "bytes"
        }
      ],
      "name": "setMockClaimData",
      "outputs": [],
      "stateMutability": "nonpayable",
      "type": "function"
    },
    {
      "inputs": [
        {
          "internalType": "enum FilecoinType.DealState",
          "name": "_state",
          "type": "uint8"
        }
      ],
      "name": "setMockDealState",
      "outputs": [],
      "stateMutability": "nonpayable",
      "type": "function"
    },
    {
      "inputs": [
        {
          "internalType": "address",
          "name": "newImplementation",
          "type": "address"
        }
      ],
      "name": "upgradeTo",
      "outputs": [],
      "stateMutability": "nonpayable",
      "type": "function"
    },
    {
      "inputs": [
        {
          "internalType": "address",
          "name": "newImplementation",
          "type": "address"
        },
        {
          "internalType": "bytes",
          "name": "data",
          "type": "bytes"
        }
      ],
      "name": "upgradeToAndCall",
      "outputs": [],
      "stateMutability": "payable",
      "type": "function"
    }
  ],
  "numDeployments": 1,
  "solcInputHash": "41e379183134fdd1b89fe7b3f8116a55",
  "bytecode": "0x60a06040523060805234801561001457600080fd5b5060805161337961004c600039600081816102b1015281816102f101528181610392015281816103d2015261056501526133796000f3fe6080604052600436106100975760003560e01c806325dd2e691461009c5780633659cfe6146100be5780634f1ef286146100de5780635187599d146100f157806352d1902d146101115780636739afca1461013c5780639aabb5c3146101635780639c452162146101825780639cdaed62146101a2578063aaf10f42146101c0578063ceb1a8cb146101e2578063d52f338a1461020f575b600080fd5b3480156100a857600080fd5b506100bc6100b736600461243a565b61023c565b005b3480156100ca57600080fd5b506100bc6100d9366004612477565b6102a7565b6100bc6100ec3660046125a1565b610388565b3480156100fd57600080fd5b506100bc61010c366004612606565b61043d565b34801561011d57600080fd5b50610126610558565b6040516101339190612641565b60405180910390f35b34801561014857600080fd5b506065546101569060ff1681565b6040516101339190612693565b34801561016f57600080fd5b506100bc61017e3660046126bb565b5050565b34801561018e57600080fd5b506100bc61019d366004612477565b6105b5565b3480156101ae57600080fd5b506100bc6101bd3660046126f5565b50565b3480156101cc57600080fd5b506101d561066d565b604051610133919061271f565b3480156101ee57600080fd5b506102026101fd36600461272d565b61067c565b60405161013391906127be565b34801561021b57600080fd5b5061022f61022a3660046127cf565b610765565b604051610133919061281f565b6066546001600160a01b03163381146102705760405162461bcd60e51b815260040161026790612864565b60405180910390fd5b60006040518060400160405280610286866107be565b815260200161029485610807565b905290506102a181610853565b50505050565b6001600160a01b037f00000000000000000000000000000000000000000000000000000000000000001630036102ef5760405162461bcd60e51b8152600401610267906128ae565b7f00000000000000000000000000000000000000000000000000000000000000006001600160a01b0316610321610899565b6001600160a01b0316146103475760405162461bcd60e51b8152600401610267906128f5565b610350816108b5565b6101bd816000604051818152601f19601f8301168101602001604052908015610380576020820181803683370190505b506000610949565b6001600160a01b037f00000000000000000000000000000000000000000000000000000000000000001630036103d05760405162461bcd60e51b8152600401610267906128ae565b7f00000000000000000000000000000000000000000000000000000000000000006001600160a01b0316610402610899565b6001600160a01b0316146104285760405162461bcd60e51b8152600401610267906128f5565b610431826108b5565b61017e82826001610949565b600054610100900460ff161580801561045d5750600054600160ff909116105b8061047e575061046c30610a2b565b15801561047e575060005460ff166001145b61049a5760405162461bcd60e51b815260040161026790612950565b6000805460ff1916600117905580156104bd576000805461ff0019166101001790555b6065805484919060ff191660018360028111156104dc576104dc61264f565b021790555060658054610100600160a81b0319166101006001600160a01b03851602179055610509610a3a565b8015610553576000805461ff00191690557f7f26b83ff96e1f2b6a682f133852f6798a09c465da95921460cefb3847402498600160405161054a9190612974565b60405180910390a15b505050565b6000306001600160a01b037f000000000000000000000000000000000000000000000000000000000000000016146105a25760405162461bcd60e51b8152600401610267906129d7565b506000805160206132fd83398151915290565b60655461010090046001600160a01b03166000816391d1485482336040518363ffffffff1660e01b81526004016105ed9291906129e7565b602060405180830381865afa15801561060a573d6000803e3d6000fd5b50505050604051601f3d908101601f1916820160405261062d9190810190612a19565b6106495760405162461bcd60e51b815260040161026790612a6b565b5050606680546001600160a01b0319166001600160a01b0392909216919091179055565b6000610677610899565b905090565b6060600060016040519080825280602002602001820160405280156106ab578160200160208202803683370190505b50905082816000815181106106c2576106c2612a7b565b60200260200101906001600160401b031690816001600160401b03168152505060006040518060400160405280866001600160401b03168152602001838152509050600061070f82610a63565b90506000816020015151116107365760405162461bcd60e51b815260040161026790612ac2565b806020015160008151811061074d5761074d612a7b565b60200260200101516040015193505050505b92915050565b60008061077183610aa3565b905043816020015160070b121561078c57600391505061075f565b600061079784610ae4565b905043816020015160070b12156107b35760029250505061075f565b506000949350505050565b6107d2604051602081016040526060815290565b6040518060200160405280836040516020016107ee9190612afa565b6040516020818303038152906040528152509050919050565b61082260405160408082019052606081526000602082015290565b600061082f836000610b1a565b90506040516040808201905280825181526020018260200151151590529392505050565b600061085e82610b54565b90506000610877600663e96cc6f0605185600080610beb565b905080511561055357604051630e74990760e01b815260040160405180910390fd5b6000805160206132fd833981519152546001600160a01b031690565b60655461010090046001600160a01b03166000816391d1485482336040518363ffffffff1660e01b81526004016108ed9291906129e7565b602060405180830381865afa15801561090a573d6000803e3d6000fd5b50505050604051601f3d908101601f1916820160405261092d9190810190612a19565b6105535760405162461bcd60e51b815260040161026790612a6b565b7f4910fdfa16fed3260ed0e7147f7cc6da11a60208b5b9406d12a635614ffd91435460ff161561097c5761055383610cc7565b826001600160a01b03166352d1902d6040518163ffffffff1660e01b8152600401602060405180830381865afa9250505080156109d65750604051601f3d908101601f191682016040526109d39190810190612b29565b60015b6109f25760405162461bcd60e51b815260040161026790612b95565b6000805160206132fd8339815191528114610a1f5760405162461bcd60e51b815260040161026790612beb565b50610553838383610d1b565b6001600160a01b03163b151590565b600054610100900460ff16610a615760405162461bcd60e51b815260040161026790612c43565b565b610a6b612354565b6000610a7683610d40565b90506000610a90600663831f5ed360518560006001610beb565b9050610a9b81610e5b565b949350505050565b610aab612387565b6000610abf836001600160401b03166112a0565b90506000610ad960056309c30b2060518560006001610beb565b9050610a9b816112d8565b610aec612387565b6000610b00836001600160401b03166112a0565b90506000610ad96005639904f2ff60518560006001610beb565b610b2261239e565b610b4d83604051602001610b369190612c59565b604051602081830303815290604052836000611330565b9392505050565b6060600080610b6684602001516113e7565b9050610b726002611505565b610b7c9083612c84565b9150610b89845151611553565b610b939083612c84565b9150610b9e81611553565b610ba89083612c84565b91506000610bb58361156b565b9050610bc281600261158b565b610bcf8551518290611597565b610bd98183611597565b610be2816115b0565b95945050505050565b6060610bfe6005607f60991b01846115dd565b6000806005607f60991b01888686610c17576000610c1a565b60015b8a8a8e604051602001610c3296959493929190612cc0565b604051602081830303815290604052604051610c4e9190612d49565b600060405180830381855af49150503d8060008114610c89576040513d603f01601f191681016040523d815291503d6000602084013e610c8e565b606091505b509150915081610cb157604051638a7db5bf60e01b815260040160405180910390fd5b610cba81611625565b9998505050505050505050565b610cd081610a2b565b610cec5760405162461bcd60e51b815260040161026790612d9f565b6000805160206132fd83398151915280546001600160a01b0319166001600160a01b0392909216919091179055565b610d24836116fc565b600082511180610d315750805b15610553576102a1838361173e565b60606000808360200151519050610d576002611505565b610d619083612c84565b9150610d6d8451611761565b610d779083612c84565b9150610d8281611505565b610d8c9083612c84565b915060005b81811015610ddd57610dbf85602001518281518110610db257610db2612a7b565b6020026020010151611761565b610dc99084612c84565b925080610dd581612daf565b915050610d91565b506000610de98361156b565b9050610df681600261158b565b610e0285518290611776565b610e0c818361158b565b60005b82811015610e5157610e3f86602001518281518110610e3057610e30612a7b565b60200260200101518390611776565b80610e4981612daf565b915050610e0f565b50610be2816115b0565b610e63612354565b600080610e708482611780565b9250905060028114610e8457610e84612dc9565b610e8e8483611780565b9250905060028114610ea257610ea2612dc9565b610eac84836117cc565b845163ffffffff92831690529250610ec8908590849061178016565b92509050806001600160401b03811115610ee457610ee46124a2565b604051908082528060200260200182016040528015610f2f57816020015b610f1c604051604080820190526000808252602082015290565b815260200190600190039081610f025790505b5083516020015260005b81811015610fe757610f4b8584611780565b9350915060028214610f5f57610f5f612dc9565b610f6985846117cc565b8551602001518381518110610f8057610f80612a7b565b602002602001015163ffffffff92831690529350610fa290869085906117cc16565b8551602001518381518110610fb957610fb9612a7b565b602002602001015163ffffffff90921660209290920191909152925080610fdf81612daf565b915050610f39565b50610ff28483611780565b92509050806001600160401b0381111561100e5761100e6124a2565b60405190808252806020026020018201604052801561108657816020015b6110736040516101008101604090815260008083526020830181905260609183018290529082018190526080820181905260a0820181905260c0820181905260e082015290565b81526020019060019003908161102c5790505b50602084015260005b81811015611298576110a18584611780565b93509150600882146110b5576110b5612dc9565b6110bf858461180d565b856020015183815181106110d5576110d5612a7b565b60200260200101516001600160401b0390921690915292506110f7858461180d565b8560200151838151811061110d5761110d612a7b565b60200260200101516001600160401b039092166020929092019190915292506111368584611827565b8560200151838151811061114c5761114c612a7b565b602002602001015160400191909152925061116785846117cc565b8560200151838151811061117d5761117d612a7b565b60200260200101516001600160401b039092166060929092019190915292506111a68584611999565b856020015183815181106111bc576111bc612a7b565b602002602001015160079290920b60809092019190915292506111df8584611999565b856020015183815181106111f5576111f5612a7b565b602002602001015160079290920b60a09092019190915292506112188584611999565b8560200151838151811061122e5761122e612a7b565b602002602001015160079290920b60c0909201919091529250611251858461180d565b8560200151838151811061126757611267612a7b565b60200260200101516001600160401b0390921660e0929092019190915292508061129081612daf565b91505061108f565b505050919050565b606060006112b6836001600160401b0316611505565b905060006112c38261156b565b90506112cf81856119a7565b610a9b816115b0565b6112e0612387565b6000806112ed8482611780565b925090506002811461130157611301612dc9565b61130b8483611999565b60079190910b8452915061131f8483611999565b5060070b6020840152509092915050565b61133861239e565b602084018451600059601f8316156001811461136657601f8416602090810380860184528301019250611370565b6020820192508382525b508282848660046101c2fa506020815101810160405280515b602081146113b7576000602083015114600181146113a757506113b7565b60208301925050601f1901611389565b815284525050506020810183905281156113d157816113db565b6113db81516119b3565b60408201529392505050565b606060008251516113f9906001612c84565b6001600160401b03811115611410576114106124a2565b604051818152601f19601f830116810160200160405290801561143a576020820181803683370190505b50905082602001511515600114611452576000611458565b600160f81b5b8160008151811061146b5761146b612a7b565b60200101906001600160f81b031916908160001a905350600160005b8451518110156114fc57845181815181106114a4576114a4612a7b565b60200101516001600160f81b0319168383815181106114c5576114c5612a7b565b60200101906001600160f81b031916908160001a905350816114e681612daf565b92505080806114f490612daf565b915050611487565b50909392505050565b60006017821161151757506001919050565b60ff821161152757506002919050565b61ffff821161153857506003919050565b63ffffffff821161154b57506005919050565b506009919050565b600081516115618351611505565b61075f9190612c84565b6115736123c1565b61157e8151836119f1565b5060006020820152919050565b61017e82600483611a5b565b6115a48260028351611a62565b61055381835190611b7f565b60608160200151156115d45760405162461bcd60e51b815260040161026790612e02565b81515192915050565b4781811015611603578082604051634787a10360e11b8152600401610267929190612e12565b823f1515806102a15760405163064d954b60e41b815260040160405180910390fd5b60606000808060208501855181019061163e9190612e94565b919450925090506001600160401b0382166116785780511561167357604051630e74990760e01b815260040160405180910390fd5b6116db565b6001600160401b0382166051148061169957506001600160401b0382166071145b156116c057805160000361167357604051630e74990760e01b815260040160405180910390fd5b8160405163f1f6bced60e01b81526004016102679190612efe565b8215610a9b578260405163d4bb667160e01b81526004016102679190612641565b61170581610cc7565b806001600160a01b03167fbc7cd75a20ee27fd9adebab32041f755214dbc6bffa90cc0225b39da2e5c2d3b60405160405180910390a250565b6060610b4d838360405160608101604052602780825261331d6020830139611b93565b600081610b4d6001600160401b038216611505565b61017e82826119a7565b6000806000806117908686611c0b565b96509092506001600160401b0316905060ff82166004146117c35760405162461bcd60e51b815260040161026790612f40565b95939450505050565b6000806000806117dc8686611c0b565b96509092506001600160401b0316905060ff8216156117c35760405162461bcd60e51b815260040161026790612f92565b6000808061181b85856117cc565b90969095509350505050565b606060008060006118388686611c0b565b96509092506001600160401b0316905060ff82166006148061185d575060ff82166002145b6118795760405162461bcd60e51b815260040161026790612fed565b60051960ff8316016118b25761188f8686611c0b565b96509092506001600160401b0316905060ff82166002146118b2576118b2612dc9565b60006118be8287612c84565b90506000826001600160401b038111156118da576118da6124a2565b604051818152601f19601f8301168101602001604052908015611904576020820181803683370190505b5090506000875b8381101561197d5789818151811061192557611925612a7b565b60200101516001600160f81b03191683838151811061194657611946612a7b565b60200101906001600160f81b031916908160001a9053508161196781612daf565b925050808061197590612daf565b91505061190b565b5081611989858a612c84565b9650965050505050509250929050565b6000808061181b8585611d88565b61017e82600083611a62565b60006119be82611dd7565b156119cb57506000919050565b6000602083015190506119dd81611e20565b915060086020845103028201915050919050565b6119f96123e1565b611a04602083613013565b15611a2c57611a14602083613013565b611a1f906020613027565b611a299083612c84565b91505b602083018290526040518084526000815282810160200181811015611a5057600080fd5b604052509192915050565b6105538383835b6017816001600160401b031611611a88576102a160e0600584901b168217845190612011565b60ff816001600160401b031611611ac957611ab06018611fe0600585901b1617845190612011565b506102a16001600160401b038216600185519190612071565b61ffff816001600160401b031611611b0b57611af26019611fe0600585901b1617845190612011565b506102a16001600160401b038216600285519190612071565b63ffffffff816001600160401b031611611b4f57611b36601a611fe0600585901b1617845190612011565b506102a16001600160401b038216600485519190612071565b611b66601b611fe0600585901b1617845190612011565b506102a16001600160401b038216600885519190612071565b611b876123e1565b610b4d838384516120ed565b6060600080856001600160a01b031685604051611bb09190612d49565b600060405180830381855af49150503d8060008114611beb576040513d603f01601f191681016040523d815291503d6000602084013e611bf0565b606091505b5091509150611c01868383876121b4565b9695505050505050565b600080600080611c1b86866121fb565b9050611c28600186612c84565b94506007600582901c16601f8216601c8110611c565760405162461bcd60e51b81526004016102679061307c565b60188160ff161015611c745790945060ff169250849150611d819050565b8060ff16601803611cd1576000611c8b89896121fb565b9050611c98600189612c84565b975060188160ff161015611cbe5760405162461bcd60e51b8152600401610267906130af565b9195505060ff169250849150611d819050565b8060ff16601903611d0b576000611ce88989612249565b9050611cf5600289612c84565b97509195505061ffff169250849150611d819050565b8060ff16601a03611d47576000611d22898961228a565b9050611d2f600489612c84565b97509195505063ffffffff169250849150611d819050565b8060ff16601b14611d5a57611d5a612dc9565b6000611d6689896122cb565b9050611d73600889612c84565b975091955090935085925050505b9250925092565b600080600080611d988686611c0b565b96509092506001600160401b0316905060ff821660011480611dbb575060ff8216155b6117c35760405162461bcd60e51b815260040161026790613111565b60008060208301815b8451811015611e1557815192508215611dfe57506000949350505050565b602091820191611e0e9082612c84565b9050611de0565b506001949350505050565b600081156001811461200657600160801b600160401b600160201b620100006101006010600460026000198b019081041790810417908104179081041790810417908104179081041790810417600101926040517ff8f9cbfae6cc78fbefe7cdc3a1793dfcf4f0e8bbd8cec470b6a28a7a5a3e1efd81527ff5ecf1b3e9debc68e1d9cfabc5997135bfb7a7a3938b7b606b5b4b3f2f1f0ffe60208201527ff6e4ed9ff2d6b458eadcdf97bd91692de2d4da8fd2d0ac50c6ae9a827252361660408201527fc8c0b887b0a8a4489c948c7f847c6125746c645c544c444038302820181008ff60608201527ff7cae577eec2a03cf3bad76fb589591debb2dd67e0aa9834bea6925f6a4a2e0e60808201527fe39ed557db96902cd38ed14fad815115c786af479b7e8324736353433727170760a08201527fc976c13bb96e881cb166a933a55e490d9d56952b8d4e801485467d236242260660c08201527f753a6d1b65325d0c552a4d1345224105391a310b29122104190a11030902010060e082015261010081016040527e818283848586878898a8b8c8d8e8f929395969799a9b9d9e9faaeb6bedeeff600160f81b8082880204818160ff0385015104600160ff1b86116101000201965060001985018516611ffc576001870196505b505050505061200b565b600091505b50919050565b6120196123e1565b60008351519050600061202d826001612c84565b90508460200151821061204e5761204e85612049836002613121565b61230c565b84516020838201018581538151831115612066578282525b509495945050505050565b6120796123e1565b60008451519050600061208c8285612c84565b905085602001518111156120a9576120a986612049836002613121565b600060016120b98661010061324e565b6120c39190613027565b9050865182810187831982511617815281518411156120e0578382525b5096979650505050505050565b6120f56123e1565b825182111561210357600080fd5b6000845151905060006121168483612c84565b905085602001518111156121335761213386612049836002613121565b6000808751805185602083010193508085111561214e578482525b505050602086015b6020861061218e578051825261216d602083612c84565b915061217a602082612c84565b9050612187602087613027565b9550612156565b60001960208790036101000a018019825116818451161790925250959695505050505050565b606083156121f15782516000036121ea576121ce85610a2b565b6121ea5760405162461bcd60e51b815260040161026790613291565b5081610a9b565b610a9b8383612327565b6000612208826001612c84565b835110156122285760405162461bcd60e51b8152600401610267906132cc565b82828151811061223a5761223a612a7b565b602001015160f81c9392505050565b6000612256826002612c84565b835110156122765760405162461bcd60e51b8152600401610267906132cc565b60008260200184015160f01c949350505050565b6000612297826004612c84565b835110156122b75760405162461bcd60e51b8152600401610267906132cc565b60008260200184015160e01c949350505050565b60006122d8826008612c84565b835110156122f85760405162461bcd60e51b8152600401610267906132cc565b60008260200184015160c01c949350505050565b60008251905061231c83836119f1565b506102a18382611b7f565b60008251111561233a5781518083602001fd5b8060405162461bcd60e51b815260040161026791906127be565b604051806040016040528061237a60405160408082019052600081526060602082015290565b8152602001606081525090565b604051604080820190526000808252602082015290565b604051806060016040528060608152602001600015158152602001600081525090565b60405180604001604052806123d46123e1565b8152602001600081525090565b60405160408082019052606081526000602082015290565b60006001600160a01b03821661075f565b612413816123f9565b81146101bd57600080fd5b803561075f8161240a565b80612413565b803561075f81612429565b6000806040838503121561245057612450600080fd5b600061245c858561241e565b925050602061246d8582860161242f565b9150509250929050565b60006020828403121561248c5761248c600080fd5b6000610a9b848461241e565b601f01601f191690565b634e487b7160e01b600052604160045260246000fd5b6124c182612498565b81018181106001600160401b03821117156124de576124de6124a2565b6040525050565b60006124f46000604051905090565b905061250082826124b8565b919050565b60006001600160401b0382111561251e5761251e6124a2565b61252782612498565b60200192915050565b82818337506000910152565b600061254f61254a84612505565b6124e5565b90508281526020810184848401111561256a5761256a600080fd5b612575848285612530565b509392505050565b600082601f83011261259157612591600080fd5b8135610a9b84826020860161253c565b600080604083850312156125b7576125b7600080fd5b60006125c3858561241e565b92505060208301356001600160401b038111156125e2576125e2600080fd5b61246d8582860161257d565b600381106101bd57600080fd5b803561075f816125ee565b6000806040838503121561261c5761261c600080fd5b600061262885856125fb565b925050602061246d8582860161241e565b805b82525050565b6020810161075f8284612639565b634e487b7160e01b600052602160045260246000fd5b600381106101bd576101bd61264f565b8061250081612665565b600061075f82612675565b61263b8161267f565b6020810161075f828461268a565b6001600160401b038116612413565b803561075f816126a1565b600080604083850312156126d1576126d1600080fd5b60006125c385856126b0565b600481106101bd57600080fd5b803561075f816126dd565b60006020828403121561270a5761270a600080fd5b6000610a9b84846126ea565b61263b816123f9565b6020810161075f8284612716565b6000806040838503121561274357612743600080fd5b600061274f85856126b0565b925050602061246d858286016126b0565b60005b8381101561277b578082015183820152602001612763565b50506000910152565b6000612794826000815192915050565b8084526020840193506127ab818560208601612760565b6127b481612498565b9093019392505050565b60208082528101610b4d8184612784565b600080604083850312156127e5576127e5600080fd5b600061274f858561242f565b600481106101bd576101bd61264f565b80612500816127f1565b600061075f82612801565b61263b8161280b565b6020810161075f8284612816565b601d81526000602082017f4f6e6c7920616c6c6f77656420616464726573732063616e2063616c6c000000815291505b5060200190565b6020808252810161075f8161282d565b602c81526000602082016000805160206132dd83398151915281526b19195b1959d85d1958d85b1b60a21b602082015291505b5060400190565b6020808252810161075f81612874565b602c81526000602082016000805160206132dd83398151915281526b6163746976652070726f787960a01b602082015291506128a7565b6020808252810161075f816128be565b602e81526000602082017f496e697469616c697a61626c653a20636f6e747261637420697320616c72656181526d191e481a5b9a5d1a585b1a5e995960921b602082015291506128a7565b6020808252810161075f81612905565b600060ff821661075f565b61263b81612960565b6020810161075f828461296b565b603881526000602082017f555550535570677261646561626c653a206d757374206e6f742062652063616c8152771b1959081d1a1c9bdd59da0819195b1959d85d1958d85b1b60421b602082015291506128a7565b6020808252810161075f81612982565b604081016129f58285612639565b610b4d6020830184612716565b801515612413565b60008151905061075f81612a02565b600060208284031215612a2e57612a2e600080fd5b6000610a9b8484612a0a565b601a81526000602082017913db9b1e48185b1b1bddd959081c9bdb194818d85b8818d85b1b60321b8152915061285d565b6020808252810161075f81612a3a565b634e487b7160e01b600052603260045260246000fd5b601a81526000602082017906c656e677468206d6173742067726561746572207468616e20360341b8152915061285d565b6020808252810161075f81612a91565b600061075f8260601b90565b600061075f82612ad2565b61263b612af5826123f9565b612ade565b61020560f11b81526002016000612b118284612ae9565b50601401919050565b60008151905061075f81612429565b600060208284031215612b3e57612b3e600080fd5b6000610a9b8484612b1a565b602e81526000602082017f45524331393637557067726164653a206e657720696d706c656d656e7461746981526d6f6e206973206e6f74205555505360901b602082015291506128a7565b6020808252810161075f81612b4a565b602981526000602082017f45524331393637557067726164653a20756e737570706f727465642070726f788152681a58589b195555525160ba1b602082015291506128a7565b6020808252810161075f81612ba5565b602b81526000602082017f496e697469616c697a61626c653a20636f6e7472616374206973206e6f74206981526a6e697469616c697a696e6760a81b602082015291506128a7565b6020808252810161075f81612bfb565b8061263b565b6000612c658284612c53565b50602001919050565b634e487b7160e01b600052601160045260246000fd5b8082018082111561075f5761075f612c6e565b6001600160401b03811661263b565b60006001600160401b03821661075f565b61263b81612ca6565b60c08101612cce8289612c97565b612cdb6020830188612639565b612ce86040830187612c97565b612cf56060830186612c97565b8181036080830152612d078185612784565b9050612d1660a0830184612cb7565b979650505050505050565b6000612d31826000815192915050565b612d3f818560208601612760565b9290920192915050565b6000610b4d8284612d21565b602d81526000602082017f455243313936373a206e657720696d706c656d656e746174696f6e206973206e81526c1bdd08184818dbdb9d1c9858dd609a1b602082015291506128a7565b6020808252810161075f81612d55565b60006000198203612dc257612dc2612c6e565b5060010190565b634e487b7160e01b600052600160045260246000fd5b600c81526000602082016b24b73b30b634b21021a127a960a11b8152915061285d565b6020808252810161075f81612ddf565b60408101612e208285612639565b610b4d6020830184612639565b60008151905061075f816126a1565b6000612e4a61254a84612505565b905082815260208101848484011115612e6557612e65600080fd5b612575848285612760565b600082601f830112612e8457612e84600080fd5b8151610a9b848260208601612e3c565b600080600060608486031215612eac57612eac600080fd5b6000612eb88686612b1a565b9350506020612ec986828701612e2d565b92505060408401516001600160401b03811115612ee857612ee8600080fd5b612ef486828701612e70565b9150509250925092565b6020810161075f8284612c97565b601f81526000602082017f696e76616c6964206d616a20286578706563746564204d616a417272617929008152915061285d565b6020808252810161075f81612f0c565b602581526000602082017f696e76616c6964206d616a20286578706563746564204d616a556e7369676e6581526464496e742960d81b602082015291506128a7565b6020808252810161075f81612f50565b602e81526000602082017f696e76616c6964206d616a20286578706563746564204d616a546167206f722081526d4d616a42797465537472696e672960901b602082015291506128a7565b6020808252810161075f81612fa2565b634e487b7160e01b600052601260045260246000fd5b60008261302257613022612ffd565b500690565b8181038181111561075f5761075f612c6e565b602581526000602082017f63616e6e6f742068616e646c6520686561646572732077697468206578747261815264203e20323760d81b602082015291506128a7565b6020808252810161075f8161303a565b600c81526000602082016b34b73b30b634b21031b137b960a11b8152915061285d565b6020808252810161075f8161308c565b603581526000602082017f696e76616c6964206d616a20286578706563746564204d616a5369676e6564498152746e74206f72204d616a556e7369676e6564496e742960581b602082015291506128a7565b6020808252810161075f816130bf565b81810280821583820485141761313957613139612c6e565b5092915050565b80825b600185111561317f5780860481111561315e5761315e612c6e565b600185161561316c57908102905b80026131788560011c90565b9450613143565b94509492505050565b60008261319757506001610b4d565b816131a457506000610b4d565b81600181146131ba57600281146131c4576131f1565b6001915050610b4d565b60ff8411156131d5576131d5612c6e565b8360020a9150848211156131eb576131eb612c6e565b50610b4d565b5060208310610133831016604e8410600b8410161715613224575081810a8381111561321f5761321f612c6e565b610b4d565b6132318484846001613140565b9250905081840481111561324757613247612c6e565b0292915050565b6000610b4d6000198484613188565b601d81526000602082017f416464726573733a2063616c6c20746f206e6f6e2d636f6e74726163740000008152915061285d565b6020808252810161075f8161325d565b6014815260006020820173736c6963696e67206f7574206f662072616e676560601b8152915061285d565b6020808252810161075f816132a156fe46756e6374696f6e206d7573742062652063616c6c6564207468726f75676820360894a13ba1a3210667c828492db98dca3e2076cc3735a920a3ca505d382bbc416464726573733a206c6f772d6c6576656c2064656c65676174652063616c6c206661696c6564a2646970667358221220d5f0599cc4257ed0f84dac328894c18b2809c8464aa1bfa1f63f737cd2aa90b864736f6c63430008150033",
  "devdoc": {
    "events": {
      "AdminChanged(address,address)": {
        "details": "Emitted when the admin account has changed."
      },
      "BeaconUpgraded(address)": {
        "details": "Emitted when the beacon is changed."
      },
      "Initialized(uint8)": {
        "details": "Triggered when the contract has been initialized or reinitialized."
      },
      "Upgraded(address)": {
        "details": "Emitted when the implementation is upgraded."
      }
    },
    "kind": "dev",
    "methods": {
      "getReplicaDealState(bytes32,uint64)": {
        "details": "TODO:check _claimId belongs to the _cid, now filecoin-solidity is not support           https://github.com/dataswap/core/issues/41"
      },
      "proxiableUUID()": {
        "details": "Implementation of the ERC1822 {proxiableUUID} function. This returns the storage slot used by the implementation. It is used to validate the implementation's compatibility when performing an upgrade. IMPORTANT: A proxy pointing at a proxiable contract should not be considered proxiable itself, because this risks bricking a proxy that upgrades to it, by delegating to itself until out of gas. Thus it is critical that this function revert if invoked through a proxy. This is guaranteed by the `notDelegated` modifier."
      },
      "setMockClaimData(uint64,bytes)": {
        "details": "mock the filecoin claim data"
      },
      "setMockDealState(uint8)": {
        "details": "do nothing,just for mock"
      },
      "upgradeTo(address)": {
        "custom:oz-upgrades-unsafe-allow-reachable": "delegatecall",
        "details": "Upgrade the implementation of the proxy to `newImplementation`. Calls {_authorizeUpgrade}. Emits an {Upgraded} event."
      },
      "upgradeToAndCall(address,bytes)": {
        "custom:oz-upgrades-unsafe-allow-reachable": "delegatecall",
        "details": "Upgrade the implementation of the proxy to `newImplementation`, and subsequently execute the function call encoded in `data`. Calls {_authorizeUpgrade}. Emits an {Upgraded} event."
      }
    },
    "stateVariables": {
      "__gap": {
        "details": "This empty reserved space is put in place to allow future versions to add new"
      }
    },
    "title": "Filecoin",
    "version": 1
  },
  "userdoc": {
    "errors": {
      "ActorError(int256)": [
        {
          "notice": "the called actor returned an error as part of its expected behaviour"
        }
      ],
      "ActorNotFound()": [
        {
          "notice": "the actor is not found"
        }
      ],
      "FailToCallActor()": [
        {
          "notice": "an error happened trying to call the actor"
        }
      ],
      "InvalidCodec(uint64)": [
        {
          "notice": "the codec received is not valid"
        }
      ],
      "InvalidResponseLength()": [
        {
          "notice": "the response received is not correct. In some case no response is expected and we received one, or a response was indeed expected and we received none."
        }
      ],
      "NotEnoughBalance(uint256,uint256)": [
        {
          "notice": "the smart contract has no enough balance to transfer"
        }
      ]
    },
    "kind": "user",
    "methods": {
      "allocateDatacap(address,uint256)": {
        "notice": "The function to allocate the datacap of a storage deal."
      },
      "getImplementation()": {
        "notice": "Returns the implementation contract"
      },
      "getReplicaClaimData(uint64,uint64)": {
        "notice": "Internal function to get the claim of a Filecoin storage for a replica."
      },
      "getReplicaDealState(bytes32,uint64)": {
        "notice": "Internal function to get the state of a Filecoin storage deal for a replica."
      },
      "initDependencies(address)": {
        "notice": "The function to init the dependencies of a filecoin."
      },
      "initialize(uint8,address)": {
        "notice": "initialize function to initialize the contract and grant the default admin role to the deployer."
      }
    },
    "version": 1
  },
  "storageLayout": {
    "storage": [
      {
        "astId": 5186,
        "contract": "src/v0.8/core/filecoin/Filecoin.sol:Filecoin",
        "label": "_initialized",
        "offset": 0,
        "slot": "0",
        "type": "t_uint8"
      },
      {
        "astId": 5189,
        "contract": "src/v0.8/core/filecoin/Filecoin.sol:Filecoin",
        "label": "_initializing",
        "offset": 1,
        "slot": "0",
        "type": "t_bool"
      },
      {
        "astId": 5168,
        "contract": "src/v0.8/core/filecoin/Filecoin.sol:Filecoin",
        "label": "__gap",
        "offset": 0,
        "slot": "1",
        "type": "t_array(t_uint256)50_storage"
      },
      {
        "astId": 5483,
        "contract": "src/v0.8/core/filecoin/Filecoin.sol:Filecoin",
        "label": "__gap",
        "offset": 0,
        "slot": "51",
        "type": "t_array(t_uint256)50_storage"
      },
      {
        "astId": 16987,
        "contract": "src/v0.8/core/filecoin/Filecoin.sol:Filecoin",
        "label": "network",
        "offset": 0,
        "slot": "101",
        "type": "t_enum(Network)35244"
      },
      {
        "astId": 16990,
        "contract": "src/v0.8/core/filecoin/Filecoin.sol:Filecoin",
        "label": "roles",
        "offset": 1,
        "slot": "101",
        "type": "t_contract(IRoles)20939"
      },
      {
        "astId": 16992,
        "contract": "src/v0.8/core/filecoin/Filecoin.sol:Filecoin",
        "label": "datacapAddress",
        "offset": 0,
        "slot": "102",
        "type": "t_address"
      },
      {
        "astId": 16997,
        "contract": "src/v0.8/core/filecoin/Filecoin.sol:Filecoin",
        "label": "__gap",
        "offset": 0,
        "slot": "103",
        "type": "t_array(t_uint256)32_storage"
      }
    ],
    "types": {
      "t_address": {
        "encoding": "inplace",
        "label": "address",
        "numberOfBytes": "20"
      },
      "t_array(t_uint256)32_storage": {
        "base": "t_uint256",
        "encoding": "inplace",
        "label": "uint256[32]",
        "numberOfBytes": "1024"
      },
      "t_array(t_uint256)50_storage": {
        "base": "t_uint256",
        "encoding": "inplace",
        "label": "uint256[50]",
        "numberOfBytes": "1600"
      },
      "t_bool": {
        "encoding": "inplace",
        "label": "bool",
        "numberOfBytes": "1"
      },
      "t_contract(IRoles)20939": {
        "encoding": "inplace",
        "label": "contract IRoles",
        "numberOfBytes": "20"
      },
      "t_enum(Network)35244": {
        "encoding": "inplace",
        "label": "enum FilecoinType.Network",
        "numberOfBytes": "1"
      },
      "t_uint256": {
        "encoding": "inplace",
        "label": "uint256",
        "numberOfBytes": "32"
      },
      "t_uint8": {
        "encoding": "inplace",
        "label": "uint8",
        "numberOfBytes": "1"
      }
    }
  }
}