{
  "address": "0xf81449e45E36681b53C4C86D9Af7b36814b9e287",
  "abi": [
    {
      "inputs": [
        {
          "internalType": "uint64",
          "name": "matchingId",
          "type": "uint64"
        },
        {
          "internalType": "address",
          "name": "expectedInitiator",
          "type": "address"
        },
        {
          "internalType": "address",
          "name": "actualInitiator",
          "type": "address"
        }
      ],
      "name": "NotMatchingInitiator",
      "type": "error"
    },
    {
      "inputs": [
        {
          "internalType": "uint64",
          "name": "_matchingId",
          "type": "uint64"
        },
        {
          "internalType": "address",
          "name": "actualAddress",
          "type": "address"
        }
      ],
      "name": "NotMatchingsTarget",
      "type": "error"
    },
    {
      "inputs": [
        {
          "internalType": "string",
          "name": "log",
          "type": "string"
        },
        {
          "internalType": "address",
          "name": "sendr",
          "type": "address"
        },
        {
          "internalType": "address",
          "name": "allowd",
          "type": "address"
        }
      ],
      "name": "errorAddress",
      "type": "error"
    },
    {
      "anonymous": false,
      "inputs": [
        {
          "indexed": false,
          "internalType": "address",
          "name": "previousAdmin",
          "type": "address"
        },
        {
          "indexed": false,
          "internalType": "address",
          "name": "newAdmin",
          "type": "address"
        }
      ],
      "name": "AdminChanged",
      "type": "event"
    },
    {
      "anonymous": false,
      "inputs": [
        {
          "indexed": true,
          "internalType": "address",
          "name": "beacon",
          "type": "address"
        }
      ],
      "name": "BeaconUpgraded",
      "type": "event"
    },
    {
      "anonymous": false,
      "inputs": [
        {
          "indexed": false,
          "internalType": "uint8",
          "name": "version",
          "type": "uint8"
        }
      ],
      "name": "Initialized",
      "type": "event"
    },
    {
      "anonymous": false,
      "inputs": [
        {
          "indexed": true,
          "internalType": "uint64",
          "name": "_matchingId",
          "type": "uint64"
        }
      ],
      "name": "MatchingCancelled",
      "type": "event"
    },
    {
      "anonymous": false,
      "inputs": [
        {
          "indexed": true,
          "internalType": "uint64",
          "name": "_matchingId",
          "type": "uint64"
        }
      ],
      "name": "MatchingClosed",
      "type": "event"
    },
    {
      "anonymous": false,
      "inputs": [
        {
          "indexed": true,
          "internalType": "uint64",
          "name": "_matchingId",
          "type": "uint64"
        },
        {
          "indexed": true,
          "internalType": "address",
          "name": "_winner",
          "type": "address"
        }
      ],
      "name": "MatchingHasWinner",
      "type": "event"
    },
    {
      "anonymous": false,
      "inputs": [
        {
          "indexed": true,
          "internalType": "uint64",
          "name": "_matchingId",
          "type": "uint64"
        }
      ],
      "name": "MatchingNoWinner",
      "type": "event"
    },
    {
      "anonymous": false,
      "inputs": [
        {
          "indexed": true,
          "internalType": "uint64",
          "name": "_matchingId",
          "type": "uint64"
        }
      ],
      "name": "MatchingPaused",
      "type": "event"
    },
    {
      "anonymous": false,
      "inputs": [
        {
          "indexed": true,
          "internalType": "uint64",
          "name": "_matchingId",
          "type": "uint64"
        }
      ],
      "name": "MatchingResumed",
      "type": "event"
    },
    {
      "anonymous": false,
      "inputs": [
        {
          "indexed": true,
          "internalType": "address",
          "name": "implementation",
          "type": "address"
        }
      ],
      "name": "Upgraded",
      "type": "event"
    },
    {
      "inputs": [
        {
          "internalType": "uint64",
          "name": "_datasetId",
          "type": "uint64"
        },
        {
          "internalType": "enum MatchingType.BidSelectionRule",
          "name": "_bidSelectionRule",
          "type": "uint8"
        },
        {
          "internalType": "uint64",
          "name": "_biddingDelayBlockCount",
          "type": "uint64"
        },
        {
          "internalType": "uint64",
          "name": "_biddingPeriodBlockCount",
          "type": "uint64"
        },
        {
          "internalType": "uint64",
          "name": "_storageCompletionPeriodBlocks",
          "type": "uint64"
        },
        {
          "internalType": "uint256",
          "name": "_biddingThreshold",
          "type": "uint256"
        },
        {
          "internalType": "uint16",
          "name": "_replicaIndex",
          "type": "uint16"
        },
        {
          "internalType": "string",
          "name": "_additionalInfo",
          "type": "string"
        }
      ],
      "name": "createMatching",
      "outputs": [
        {
          "internalType": "uint64",
          "name": "",
          "type": "uint64"
        }
      ],
      "stateMutability": "nonpayable",
      "type": "function"
    },
    {
      "inputs": [],
      "name": "datasetsRequirement",
      "outputs": [
        {
          "internalType": "contract IDatasetsRequirement",
          "name": "",
          "type": "address"
        }
      ],
      "stateMutability": "view",
      "type": "function"
    },
    {
      "inputs": [
        {
          "internalType": "uint64",
          "name": "_matchingId",
          "type": "uint64"
        }
      ],
      "name": "getBidSelectionRule",
      "outputs": [
        {
          "internalType": "enum MatchingType.BidSelectionRule",
          "name": "",
          "type": "uint8"
        }
      ],
      "stateMutability": "view",
      "type": "function"
    },
    {
      "inputs": [
        {
          "internalType": "uint64",
          "name": "_matchingId",
          "type": "uint64"
        }
      ],
      "name": "getBiddingAfterPauseHeight",
      "outputs": [
        {
          "internalType": "uint64",
          "name": "",
          "type": "uint64"
        }
      ],
      "stateMutability": "view",
      "type": "function"
    },
    {
      "inputs": [
        {
          "internalType": "uint64",
          "name": "_matchingId",
          "type": "uint64"
        }
      ],
      "name": "getBiddingEndHeight",
      "outputs": [
        {
          "internalType": "uint64",
          "name": "",
          "type": "uint64"
        }
      ],
      "stateMutability": "view",
      "type": "function"
    },
    {
      "inputs": [
        {
          "internalType": "uint64",
          "name": "_matchingId",
          "type": "uint64"
        }
      ],
      "name": "getBiddingStartHeight",
      "outputs": [
        {
          "internalType": "uint64",
          "name": "",
          "type": "uint64"
        }
      ],
      "stateMutability": "view",
      "type": "function"
    },
    {
      "inputs": [
        {
          "internalType": "uint64",
          "name": "_matchingId",
          "type": "uint64"
        }
      ],
      "name": "getBiddingThreshold",
      "outputs": [
        {
          "internalType": "uint256",
          "name": "",
          "type": "uint256"
        }
      ],
      "stateMutability": "view",
      "type": "function"
    },
    {
      "inputs": [],
      "name": "getImplementation",
      "outputs": [
        {
          "internalType": "address",
          "name": "",
          "type": "address"
        }
      ],
      "stateMutability": "view",
      "type": "function"
    },
    {
      "inputs": [
        {
          "internalType": "uint64",
          "name": "_matchingId",
          "type": "uint64"
        }
      ],
      "name": "getMatchingInitiator",
      "outputs": [
        {
          "internalType": "address",
          "name": "",
          "type": "address"
        }
      ],
      "stateMutability": "view",
      "type": "function"
    },
    {
      "inputs": [
        {
          "internalType": "uint64",
          "name": "_matchingId",
          "type": "uint64"
        }
      ],
      "name": "getMatchingState",
      "outputs": [
        {
          "internalType": "enum MatchingType.State",
          "name": "",
          "type": "uint8"
        }
      ],
      "stateMutability": "view",
      "type": "function"
    },
    {
      "inputs": [
        {
          "internalType": "address",
          "name": "_matchingsTarget",
          "type": "address"
        },
        {
          "internalType": "address",
          "name": "_matchingsBids",
          "type": "address"
        }
      ],
      "name": "initDependencies",
      "outputs": [],
      "stateMutability": "nonpayable",
      "type": "function"
    },
    {
      "inputs": [
        {
          "internalType": "address",
          "name": "_governanceAddress",
          "type": "address"
        },
        {
          "internalType": "address",
          "name": "_roles",
          "type": "address"
        },
        {
          "internalType": "address",
          "name": "_datasetsRequirement",
          "type": "address"
        }
      ],
      "name": "initialize",
      "outputs": [],
      "stateMutability": "nonpayable",
      "type": "function"
    },
    {
      "inputs": [],
      "name": "matchingsBids",
      "outputs": [
        {
          "internalType": "contract IMatchingsBids",
          "name": "",
          "type": "address"
        }
      ],
      "stateMutability": "view",
      "type": "function"
    },
    {
      "inputs": [],
      "name": "matchingsCount",
      "outputs": [
        {
          "internalType": "uint64",
          "name": "",
          "type": "uint64"
        }
      ],
      "stateMutability": "view",
      "type": "function"
    },
    {
      "inputs": [],
      "name": "matchingsTarget",
      "outputs": [
        {
          "internalType": "contract IMatchingsTarget",
          "name": "",
          "type": "address"
        }
      ],
      "stateMutability": "view",
      "type": "function"
    },
    {
      "inputs": [
        {
          "internalType": "uint64",
          "name": "_matchingId",
          "type": "uint64"
        }
      ],
      "name": "pauseMatching",
      "outputs": [],
      "stateMutability": "nonpayable",
      "type": "function"
    },
    {
      "inputs": [],
      "name": "proxiableUUID",
      "outputs": [
        {
          "internalType": "bytes32",
          "name": "",
          "type": "bytes32"
        }
      ],
      "stateMutability": "view",
      "type": "function"
    },
    {
      "inputs": [
        {
          "internalType": "uint64",
          "name": "_matchingId",
          "type": "uint64"
        }
      ],
      "name": "reportCancelMatching",
      "outputs": [],
      "stateMutability": "nonpayable",
      "type": "function"
    },
    {
      "inputs": [
        {
          "internalType": "uint64",
          "name": "_matchingId",
          "type": "uint64"
        }
      ],
      "name": "reportCloseMatching",
      "outputs": [],
      "stateMutability": "nonpayable",
      "type": "function"
    },
    {
      "inputs": [
        {
          "internalType": "uint64",
          "name": "_matchingId",
          "type": "uint64"
        },
        {
          "internalType": "address",
          "name": "_winner",
          "type": "address"
        }
      ],
      "name": "reportMatchingHasWinner",
      "outputs": [],
      "stateMutability": "nonpayable",
      "type": "function"
    },
    {
      "inputs": [
        {
          "internalType": "uint64",
          "name": "_matchingId",
          "type": "uint64"
        }
      ],
      "name": "reportMatchingNoWinner",
      "outputs": [],
      "stateMutability": "nonpayable",
      "type": "function"
    },
    {
      "inputs": [
        {
          "internalType": "uint64",
          "name": "_matchingId",
          "type": "uint64"
        }
      ],
      "name": "reportPublishMatching",
      "outputs": [],
      "stateMutability": "nonpayable",
      "type": "function"
    },
    {
      "inputs": [
        {
          "internalType": "uint64",
          "name": "_matchingId",
          "type": "uint64"
        }
      ],
      "name": "resumeMatching",
      "outputs": [],
      "stateMutability": "nonpayable",
      "type": "function"
    },
    {
      "inputs": [
        {
          "internalType": "address",
          "name": "newImplementation",
          "type": "address"
        }
      ],
      "name": "upgradeTo",
      "outputs": [],
      "stateMutability": "nonpayable",
      "type": "function"
    },
    {
      "inputs": [
        {
          "internalType": "address",
          "name": "newImplementation",
          "type": "address"
        },
        {
          "internalType": "bytes",
          "name": "data",
          "type": "bytes"
        }
      ],
      "name": "upgradeToAndCall",
      "outputs": [],
      "stateMutability": "payable",
      "type": "function"
    }
  ],
  "numDeployments": 1,
  "solcInputHash": "038f280edc17531efddb244e965d4ced",
  "bytecode": "0x60a06040523060805234801561001457600080fd5b50608051612e3461004c60003960008181610a0601528181610a4601528181610b0501528181610b450152610bc10152612e346000f3fe6080604052600436106101265760003560e01c8063089161971461012b5780630e635d7e146101615780631ed25163146101835780632620333e146101a35780632b34cbc5146101d05780632de966b0146101f057806334ad3b4a146102365780633659cfe61461026357806338d51ea7146102835780634f1ef286146102a357806352d1902d146102b657806352ffae6b146102cb57806392191e6c146102eb5780639247e80f1461030b5780639aa023d11461032b5780639e5a53e51461034b5780639f6c8a471461036b578063aaf10f421461038b578063b1fa766c146103ad578063b6c91783146103cd578063bbf8367414610413578063c0c53b8b14610433578063d7606cf614610453578063dd8fff9714610473578063e19edda114610493575b600080fd5b34801561013757600080fd5b5060655461014b906001600160401b031681565b6040516101589190611d4f565b60405180910390f35b34801561016d57600080fd5b5061018161017c366004611da7565b6104d5565b005b34801561018f57600080fd5b5061018161019e366004611de4565b610576565b3480156101af57600080fd5b50606a546101c3906001600160a01b031681565b6040516101589190611e3d565b3480156101dc57600080fd5b5061014b6101eb366004611f8e565b61066e565b3480156101fc57600080fd5b5061022961020b366004611de4565b6001600160401b031660009081526066602052604090206001015490565b6040516101589190612061565b34801561024257600080fd5b50610256610251366004611de4565b6109cd565b60405161015891906120b3565b34801561026f57600080fd5b5061018161027e3660046120c1565b6109fc565b34801561028f57600080fd5b5061014b61029e366004611de4565b610ac4565b6101816102b13660046120e2565b610afb565b3480156102c257600080fd5b50610229610bb4565b3480156102d757600080fd5b506101816102e6366004611de4565b610c11565b3480156102f757600080fd5b50610181610306366004611de4565b610c69565b34801561031757600080fd5b50610181610326366004611de4565b610d61565b34801561033757600080fd5b506069546101c3906001600160a01b031681565b34801561035757600080fd5b5061014b610366366004611de4565b610ded565b34801561037757600080fd5b5061014b610386366004611de4565b610e3e565b34801561039757600080fd5b506103a0610e98565b6040516101589190612138565b3480156103b957600080fd5b506101816103c8366004611de4565b610ea7565b3480156103d957600080fd5b506104066103e8366004611de4565b6001600160401b031660009081526066602052604090205460ff1690565b6040516101589190612174565b34801561041f57600080fd5b5061018161042e366004612182565b610f33565b34801561043f57600080fd5b5061018161044e3660046121a4565b610ff7565b34801561045f57600080fd5b5061018161046e366004611de4565b61110c565b34801561047f57600080fd5b50606b546101c3906001600160a01b031681565b34801561049f57600080fd5b506103a06104ae366004611de4565b6001600160401b03166000908152606660205260409020600401546001600160a01b031690565b606b546001600160a01b03168233821461050f578033604051636355073560e01b81526004016105069291906121f4565b60405180910390fd5b6001600160401b038416600090815260666020526040902061053081611198565b6040516001600160a01b038516906001600160401b038716907f821b2f08eee92e612e3d5f8a0f9249514abb4bcb60d2c9a815c55ec2288e36c990600090a35050505050565b60405163e19edda160e01b815230908290600090839063e19edda1906105a0908590600401611d4f565b602060405180830381865afa1580156105bd573d6000803e3d6000fd5b505050506040513d601f19601f820116820180604052508101906105e1919061221a565b90506001600160a01b03811633146106125781813360405163bb5a686560e01b81526004016105069392919061223b565b6001600160401b0384166000908152606660205260409020610633816111e1565b6040516001600160401b038616907fdcc3f18bbb54786ec327b109e3597e1adc0e10856ba975001e5ec6f2922aee4090600090a25050505050565b606854604051632474521560e21b81526000916001600160a01b0316907f2e7a99dcc48463ba57667732f1d19d96afa51e11db099e5c9c708076a0a080409082906391d14854906106c59084903390600401612263565b602060405180830381865afa1580156106e2573d6000803e3d6000fd5b505050506040513d601f19601f820116820180604052508101906107069190612284565b6107225760405162461bcd60e51b8152600401610506906122d9565b606580546001600160401b031690600061073b836122ff565b82546101009290920a6001600160401b03818102199093169183160217909155606554166000908152606660205260409081902060695491516314a41d8560e01b81529092506001600160a01b03909116906314a41d85906107a1908f90600401611d4f565b602060405180830381865afa1580156107be573d6000803e3d6000fd5b505050506040513d601f19601f820116820180604052508101906107e29190612334565b61ffff168661ffff16106108085760405162461bcd60e51b815260040161050690612384565b6000606960009054906101000a90046001600160a01b03166001600160a01b031663146846a88e896040518363ffffffff1660e01b815260040161084d9291906123ac565b600060405180830381865afa15801561086a573d6000803e3d6000fd5b505050506040513d6000823e601f3d908101601f1916820160405261089291908101906124f5565b5050505090506000815111156108c8576108ac81336112ab565b6108c85760405162461bcd60e51b8152600401610506906125e5565b81548c90839060ff191660018360038111156108e6576108e661206f565b02179055508a8260000160016101000a8154816001600160401b0302191690836001600160401b03160217905550898260000160096101000a8154816001600160401b0302191690836001600160401b03160217905550888260000160116101000a8154816001600160401b0302191690836001600160401b031602179055508782600101819055508582600301908161098091906126fb565b50506004810180546001600160a01b0319163317905560020180546001600160401b034381166001600160401b031990921691909117909155606554169250505098975050505050505050565b6001600160401b03811660009081526066602052604081206004810154600160e01b900460ff165b9392505050565b6001600160a01b037f0000000000000000000000000000000000000000000000000000000000000000163003610a445760405162461bcd60e51b8152600401610506906127f3565b7f00000000000000000000000000000000000000000000000000000000000000006001600160a01b0316610a76611312565b6001600160a01b031614610a9c5760405162461bcd60e51b81526004016105069061283a565b610aa58161132e565b60408051600080825260208201909252610ac1918391906113c7565b50565b6001600160401b03808216600090815260666020526040812080546002820154929391926109f5926101009092048216911661284a565b6001600160a01b037f0000000000000000000000000000000000000000000000000000000000000000163003610b435760405162461bcd60e51b8152600401610506906127f3565b7f00000000000000000000000000000000000000000000000000000000000000006001600160a01b0316610b75611312565b6001600160a01b031614610b9b5760405162461bcd60e51b81526004016105069061283a565b610ba48261132e565b610bb0828260016113c7565b5050565b6000306001600160a01b037f00000000000000000000000000000000000000000000000000000000000000001614610bfe5760405162461bcd60e51b8152600401610506906128d2565b50600080516020612db883398151915290565b606a546001600160a01b031681338214610c42578033604051636355073560e01b81526004016105069291906121f4565b6001600160401b0383166000908152606660205260409020610c63816114a9565b50505050565b60405163e19edda160e01b815230908290600090839063e19edda190610c93908590600401611d4f565b602060405180830381865afa158015610cb0573d6000803e3d6000fd5b505050506040513d601f19601f82011682018060405250810190610cd4919061221a565b90506001600160a01b0381163314610d055781813360405163bb5a686560e01b81526004016105069392919061223b565b6001600160401b0384166000908152606660205260409020610d26816114fe565b6040516001600160401b038616907f626d41b3e003b5c1801aaa2831a8ba5e6f1b5d68d30196e9bf22fc928792d89890600090a25050505050565b606b546001600160a01b031681338214610d92578033604051636355073560e01b81526004016105069291906121f4565b6001600160401b0383166000908152606660205260409020610db3816115f2565b6040516001600160401b038516907fe76447b03fa89f6733afb0da8c385e7ffae3a3a92a26544a29f1de4e5982b97090600090a250505050565b6001600160401b03808216600090815260666020526040812060048101548154600283015493949293600160a01b909204831692610e34926101009092048116911661284a565b6109f5919061284a565b6001600160401b03808216600090815260666020526040812060048101548154600283015493949293600160a01b909204831692600160481b8204811692610e8e9261010090048216911661284a565b610e34919061284a565b6000610ea2611312565b905090565b606b546001600160a01b031681338214610ed8578033604051636355073560e01b81526004016105069291906121f4565b6001600160401b0383166000908152606660205260409020610ef98161163b565b6040516001600160401b038516907f225fdadf186a0d9a44c06a05f50a5bdede5791bab4fdb67c98246934eb67ccea90600090a250505050565b606854604051632474521560e21b81526001600160a01b039091169060009082906391d1485490610f6a9084903390600401612263565b602060405180830381865afa158015610f87573d6000803e3d6000fd5b505050506040513d601f19601f82011682018060405250810190610fab9190612284565b610fc75760405162461bcd60e51b8152600401610506906122d9565b5050606a80546001600160a01b039384166001600160a01b031991821617909155606b8054929093169116179055565b600054610100900460ff16158080156110175750600054600160ff909116105b8061103857506110263061172b565b158015611038575060005460ff166001145b6110545760405162461bcd60e51b81526004016105069061292d565b6000805460ff191660011790558015611077576000805461ff0019166101001790555b606780546001600160a01b038087166001600160a01b0319928316179092556068805486841690831617905560698054928516929091169190911790556110bc61173a565b8015610c63576000805461ff00191690556040517f7f26b83ff96e1f2b6a682f133852f6798a09c465da95921460cefb3847402498906110fe90600190612951565b60405180910390a150505050565b606b546001600160a01b03168133821461113d578033604051636355073560e01b81526004016105069291906121f4565b6001600160401b038316600090815260666020526040902061115e81611763565b6040516001600160401b038516907f913823578c5ee3be58d2695ff6571ebfb455231c3d35eb1660cff0faacadd83790600090a250505050565b600480820154600160e01b900460ff1660078111156111b9576111b961206f565b146111d65760405162461bcd60e51b815260040161050690612983565b610ac18160086118c7565b60036004820154600160e01b900460ff1660078111156112035761120361206f565b146112205760405162461bcd60e51b815260040161050690612983565b6004810154600160a01b90046001600160401b03166000036112545760405162461bcd60e51b8152600401610506906129c2565b600481015461127390600160a01b90046001600160401b0316436129d2565b6004820180546001600160401b0392909216600160a01b02600160a01b600160e01b0319909216919091179055610ac18160056118c7565b6000805b835181101561130657826001600160a01b03168482815181106112d4576112d4612a05565b60200260200101516001600160a01b0316036112f457600191505061130c565b806112fe81612a1b565b9150506112af565b50600090505b92915050565b600080516020612db8833981519152546001600160a01b031690565b606854604051632474521560e21b81526001600160a01b039091169060009082906391d14854906113659084903390600401612263565b602060405180830381865afa158015611382573d6000803e3d6000fd5b505050506040513d601f19601f820116820180604052508101906113a69190612284565b6113c25760405162461bcd60e51b8152600401610506906122d9565b505050565b7f4910fdfa16fed3260ed0e7147f7cc6da11a60208b5b9406d12a635614ffd91435460ff16156113fa576113c283611b6a565b826001600160a01b03166352d1902d6040518163ffffffff1660e01b8152600401602060405180830381865afa925050508015611454575060408051601f3d908101601f1916820190925261145191810190612a39565b60015b6114705760405162461bcd60e51b815260040161050690612aa5565b600080516020612db8833981519152811461149d5760405162461bcd60e51b815260040161050690612afb565b506113c2838383611bbe565b60006004820154600160e01b900460ff1660078111156114cb576114cb61206f565b146114e85760405162461bcd60e51b815260040161050690612983565b6114f38160006118c7565b610ac18160016118c7565b60026004820154600160e01b900460ff1660078111156115205761152061206f565b1461153d5760405162461bcd60e51b815260040161050690612983565b6004810154600160a01b90046001600160401b03161561156f5760405162461bcd60e51b8152600401610506906129c2565b80546002820154611591916001600160401b036101009091048116911661284a565b6001600160401b0316436001600160401b0316106115c15760405162461bcd60e51b815260040161050690612b3d565b600481018054600160a01b600160e01b031916600160a01b436001600160401b031602179055610ac18160036118c7565b600480820154600160e01b900460ff1660078111156116135761161361206f565b146116305760405162461bcd60e51b815260040161050690612983565b610ac18160096118c7565b60016004820154600160e01b900460ff16600781111561165d5761165d61206f565b1480611688575060026004820154600160e01b900460ff1660078111156116865761168661206f565b145b806116b2575060036004820154600160e01b900460ff1660078111156116b0576116b061206f565b145b6116ce5760405162461bcd60e51b815260040161050690612983565b805460028201546116f0916001600160401b036101009091048116911661284a565b6001600160401b0316436001600160401b0316106117205760405162461bcd60e51b815260040161050690612b81565b610ac18160066118c7565b6001600160a01b03163b151590565b600054610100900460ff166117615760405162461bcd60e51b815260040161050690612bd9565b565b60026004820154600160e01b900460ff1660078111156117855761178561206f565b146117a25760405162461bcd60e51b815260040161050690612983565b6002815460ff1660038111156117ba576117ba61206f565b14806117db57506003815460ff1660038111156117d9576117d961206f565b145b15611848576004810154815460028301546001600160401b03600160a01b9093048316926118119261010090048116911661284a565b61181b919061284a565b6001600160401b03164310156118435760405162461bcd60e51b815260040161050690612c11565b6118c0565b6004810154815460028301546001600160401b03600160a01b909304831692600160481b8304811692611884926101009091048216911661284a565b61188e919061284a565b611898919061284a565b6001600160401b03164310156118c05760405162461bcd60e51b815260040161050690612c52565b610ac18160075b6004820154600160e01b900460ff166000808360098111156118eb576118eb61206f565b036119125760008260078111156119045761190461206f565b0361190d575060015b611b1f565b60018360098111156119265761192661206f565b0361194d5760015b8260078111156119405761194061206f565b0361190d57506002611b1f565b60028360098111156119615761196161206f565b036119885760015b82600781111561197b5761197b61206f565b0361190d57506007611b1f565b600383600981111561199c5761199c61206f565b036119c25760028260078111156119b5576119b561206f565b0361190d57506003611b1f565b60058360098111156119d6576119d661206f565b036119e257600361192e565b60048360098111156119f6576119f661206f565b03611a02576003611969565b6006836009811115611a1657611a1661206f565b03611a75576001826007811115611a2f57611a2f61206f565b1480611a4c57506003826007811115611a4a57611a4a61206f565b145b80611a6857506002826007811115611a6657611a6661206f565b145b1561190d57506006611b1f565b6007836009811115611a8957611a8961206f565b03611aaf576002826007811115611aa257611aa261206f565b0361190d57506004611b1f565b6008836009811115611ac357611ac361206f565b03611ae9576004826007811115611adc57611adc61206f565b0361190d57506005611b1f565b6009836009811115611afd57611afd61206f565b03611b1f576004826007811115611b1657611b1661206f565b03611b1f575060075b6000816007811115611b3357611b3361206f565b14610c635760048401805482919060ff60e01b1916600160e01b836007811115611b5f57611b5f61206f565b021790555050505050565b611b738161172b565b611b8f5760405162461bcd60e51b815260040161050690612cac565b600080516020612db883398151915280546001600160a01b0319166001600160a01b0392909216919091179055565b611bc783611be3565b600082511180611bd45750805b156113c257610c638383611c23565b611bec81611b6a565b6040516001600160a01b038216907fbc7cd75a20ee27fd9adebab32041f755214dbc6bffa90cc0225b39da2e5c2d3b90600090a250565b60606109f58383604051806060016040528060278152602001612dd8602791396060600080856001600160a01b031685604051611c609190612d02565b600060405180830381855af49150503d8060008114611c9b576040519150601f19603f3d011682016040523d82523d6000602084013e611ca0565b606091505b5091509150611cb186838387611cbb565b9695505050505050565b60608315611cf8578251600003611cf157611cd58561172b565b611cf15760405162461bcd60e51b815260040161050690612d42565b5081611d02565b611d028383611d0a565b949350505050565b815115611d1a5781518083602001fd5b8060405162461bcd60e51b81526004016105069190612d86565b6001600160401b031690565b611d4981611d34565b82525050565b6020810161130c8284611d40565b611d6681611d34565b8114610ac157600080fd5b803561130c81611d5d565b6001600160a01b031690565b600061130c82611d7c565b611d6681611d88565b803561130c81611d93565b60008060408385031215611dbd57611dbd600080fd5b6000611dc98585611d71565b9250506020611dda85828601611d9c565b9150509250929050565b600060208284031215611df957611df9600080fd5b6000611d028484611d71565b600061130c611e19611e1684611d7c565b90565b611d7c565b600061130c82611e05565b600061130c82611e1e565b611d4981611e29565b6020810161130c8284611e34565b60048110610ac157600080fd5b803561130c81611e4b565b80611d66565b803561130c81611e63565b61ffff8116611d66565b803561130c81611e74565b601f01601f191690565b634e487b7160e01b600052604160045260246000fd5b611eb282611e89565b81018181106001600160401b0382111715611ecf57611ecf611e93565b6040525050565b6000611ee160405190565b9050611eed8282611ea9565b919050565b60006001600160401b03821115611f0b57611f0b611e93565b611f1482611e89565b60200192915050565b82818337506000910152565b6000611f3c611f3784611ef2565b611ed6565b905082815260208101848484011115611f5757611f57600080fd5b611f62848285611f1d565b509392505050565b600082601f830112611f7e57611f7e600080fd5b8135611d02848260208601611f29565b600080600080600080600080610100898b031215611fae57611fae600080fd5b6000611fba8b8b611d71565b9850506020611fcb8b828c01611e58565b9750506040611fdc8b828c01611d71565b9650506060611fed8b828c01611d71565b9550506080611ffe8b828c01611d71565b94505060a061200f8b828c01611e69565b93505060c06120208b828c01611e7e565b92505060e08901356001600160401b0381111561203f5761203f600080fd5b61204b8b828c01611f6a565b9150509295985092959890939650565b80611d49565b6020810161130c828461205b565b634e487b7160e01b600052602160045260246000fd5b60088110610ac157610ac161206f565b80611eed81612085565b600061130c82612095565b611d498161209f565b6020810161130c82846120aa565b6000602082840312156120d6576120d6600080fd5b6000611d028484611d9c565b600080604083850312156120f8576120f8600080fd5b60006121048585611d9c565b92505060208301356001600160401b0381111561212357612123600080fd5b611dda85828601611f6a565b611d4981611d88565b6020810161130c828461212f565b60048110610ac157610ac161206f565b80611eed81612146565b600061130c82612156565b611d4981612160565b6020810161130c828461216b565b6000806040838503121561219857612198600080fd5b6000611dc98585611d9c565b6000806000606084860312156121bc576121bc600080fd5b60006121c88686611d9c565b93505060206121d986828701611d9c565b92505060406121ea86828701611d9c565b9150509250925092565b604081016122028285611d40565b6109f5602083018461212f565b805161130c81611d93565b60006020828403121561222f5761222f600080fd5b6000611d02848461220f565b606081016122498286611d40565b612256602083018561212f565b611d02604083018461212f565b60408101612202828561205b565b801515611d66565b805161130c81612271565b60006020828403121561229957612299600080fd5b6000611d028484612279565b601a81526000602082017913db9b1e48185b1b1bddd959081c9bdb194818d85b8818d85b1b60321b815291505b5060200190565b6020808252810161130c816122a5565b634e487b7160e01b600052601160045260246000fd5b600061230a82611d34565b91506001600160401b038203612322576123226122e9565b5060010190565b805161130c81611e74565b60006020828403121561234957612349600080fd5b6000611d028484612329565b6018815260006020820177496e76616c6964206d61746368696e67207265706c69636160401b815291506122d2565b6020808252810161130c81612355565b600061130c61ffff8316611d34565b611d4981612394565b604081016123ba8285611d40565b6109f560208301846123a3565b60006001600160401b038211156123e0576123e0611e93565b5060209081020190565b60006123f8611f37846123c7565b8381529050602080820190840283018581111561241757612417600080fd5b835b8181101561243b578061242c888261220f565b84525060209283019201612419565b5050509392505050565b600082601f83011261245957612459600080fd5b8151611d028482602086016123ea565b63ffffffff8116611d66565b805161130c81612469565b600061248e611f37846123c7565b838152905060208082019084028301858111156124ad576124ad600080fd5b835b8181101561243b57806124c28882612475565b845250602092830192016124af565b600082601f8301126124e5576124e5600080fd5b8151611d02848260208601612480565b600080600080600060a0868803121561251057612510600080fd5b85516001600160401b0381111561252957612529600080fd5b61253588828901612445565b95505060208601516001600160401b0381111561255457612554600080fd5b61256088828901612445565b945050604061257188828901612329565b935050606061258288828901612329565b92505060808601516001600160401b038111156125a1576125a1600080fd5b6125ad888289016124d1565b9150509295509295909350565b601481526000602082017324b73b30b634b21022281039bab136b4ba3a32b960611b815291506122d2565b6020808252810161130c816125ba565b634e487b7160e01b600052602260045260246000fd5b60028104600182168061261f57607f821691505b602082108103612631576126316125f5565b50919050565b600061130c611e168381565b61264c83612637565b815460001960089490940293841b1916921b91909117905550565b60006113c2818484612643565b81811015610bb057612687600082612667565b600101612674565b601f8211156113c2576000818152602090206020601f850104810160208510156126b65750805b6126c86020601f860104830182612674565b5050505050565b6000196008929092029190911c191690565b60006126ed83836126cf565b600290930290921792915050565b81516001600160401b0381111561271457612714611e93565b61271e825461260b565b61272982828561268f565b6020601f83116001811461275757600084156127455750858201515b61274f85826126e1565b8655506127b1565b600085815260208120601f198616915b828110156127875788850151825560209485019460019092019101612767565b868310156127a457848901516127a0601f8916826126cf565b8355505b6001600288020188555050505b505050505050565b602c8152600060208201600080516020612d9883398151915281526b19195b1959d85d1958d85b1b60a21b602082015291505b5060400190565b6020808252810161130c816127b9565b602c8152600060208201600080516020612d9883398151915281526b6163746976652070726f787960a01b602082015291506127ec565b6020808252810161130c81612803565b600061285582611d34565b915061286083611d34565b9250508082016001600160401b0381111561130c5761130c6122e9565b603881526000602082017f555550535570677261646561626c653a206d757374206e6f742062652063616c8152771b1959081d1a1c9bdd59da0819195b1959d85d1958d85b1b60421b602082015291506127ec565b6020808252810161130c8161287d565b602e81526000602082017f496e697469616c697a61626c653a20636f6e747261637420697320616c72656181526d191e481a5b9a5d1a585b1a5e995960921b602082015291506127ec565b6020808252810161130c816128e2565b600060ff821661130c565b611d498161293d565b6020810161130c8284612948565b600d81526000602082016c496e76616c696420737461746560981b815291506122d2565b6020808252810161130c8161295f565b60188152600060208201776f6e6c792063616e20706175736564206f6e652074696d6560401b815291506122d2565b6020808252810161130c81612993565b60006129dd82611d34565b91506129e883611d34565b9250508181036001600160401b0381111561130c5761130c6122e9565b634e487b7160e01b600052603260045260246000fd5b60006000198203612322576123226122e9565b805161130c81611e63565b600060208284031215612a4e57612a4e600080fd5b6000611d028484612a2e565b602e81526000602082017f45524331393637557067726164653a206e657720696d706c656d656e7461746981526d6f6e206973206e6f74205555505360901b602082015291506127ec565b6020808252810161130c81612a5a565b602981526000602082017f45524331393637557067726164653a20756e737570706f727465642070726f788152681a58589b195555525160ba1b602082015291506127ec565b6020808252810161130c81612ab5565b601b81526000602082017a30b63932b0bc903134b23234b7339631b0b713ba103830bab9b29760291b815291506122d2565b6020808252810161130c81612b0b565b601d81526000602082017f62696420616c726561792073746172742c63616e27742063616e63656c000000815291506122d2565b6020808252810161130c81612b4d565b602b81526000602082017f496e697469616c697a61626c653a20636f6e7472616374206973206e6f74206981526a6e697469616c697a696e6760a81b602082015291506127ec565b6020808252810161130c81612b91565b601181526000602082017042696464696e6720746f6f206561726c7960781b815291506122d2565b6020808252810161130c81612be9565b601a815260006020820179109a59191a5b99c81c195c9a5bd9081b9bdd08195e1c1a5c995960321b815291506122d2565b6020808252810161130c81612c21565b602d81526000602082017f455243313936373a206e657720696d706c656d656e746174696f6e206973206e81526c1bdd08184818dbdb9d1c9858dd609a1b602082015291506127ec565b6020808252810161130c81612c62565b60005b83811015612cd7578181015183820152602001612cbf565b50506000910152565b6000612cea825190565b612cf8818560208601612cbc565b9290920192915050565b60006109f58284612ce0565b601d81526000602082017f416464726573733a2063616c6c20746f206e6f6e2d636f6e7472616374000000815291506122d2565b6020808252810161130c81612d0e565b6000612d5c825190565b808452602084019350612d73818560208601612cbc565b612d7c81611e89565b9093019392505050565b602080825281016109f58184612d5256fe46756e6374696f6e206d7573742062652063616c6c6564207468726f75676820360894a13ba1a3210667c828492db98dca3e2076cc3735a920a3ca505d382bbc416464726573733a206c6f772d6c6576656c2064656c65676174652063616c6c206661696c6564a26469706673582212205298ad60e331187c04ec941d64949bb6f7554e8157e5c51cec6b0d1640d43da464736f6c63430008150033",
  "devdoc": {
    "details": "This contract is intended to be inherited by specific matching-related contracts.      TODO: Missing fund proccess,need add later https://github.com/dataswap/core/issues/20            1 bidder(when bidding) and initiator(when publish) should transfer FIL to payable function            2 proccess the fund after matched            3 proccess the fund after matchedsotre,step by step",
    "events": {
      "AdminChanged(address,address)": {
        "details": "Emitted when the admin account has changed."
      },
      "BeaconUpgraded(address)": {
        "details": "Emitted when the beacon is changed."
      },
      "Initialized(uint8)": {
        "details": "Triggered when the contract has been initialized or reinitialized."
      },
      "Upgraded(address)": {
        "details": "Emitted when the implementation is upgraded."
      }
    },
    "kind": "dev",
    "methods": {
      "createMatching(uint64,uint8,uint64,uint64,uint64,uint256,uint16,string)": {
        "params": {
          "_additionalInfo": "The additional information about the matching.",
          "_bidSelectionRule": "The rules for determining the winning bid.",
          "_biddingDelayBlockCount": "The number of blocks to delay bidding.",
          "_biddingPeriodBlockCount": "The number of blocks for bidding period.",
          "_biddingThreshold": "The threshold for bidding.",
          "_datasetId": "The dataset id to create matching.",
          "_replicaIndex": "The index of the replica in dataset.",
          "_storageCompletionPeriodBlocks": "The number of blocks for storage period."
        },
        "returns": {
          "_0": "The matchingId."
        }
      },
      "proxiableUUID()": {
        "details": "Implementation of the ERC1822 {proxiableUUID} function. This returns the storage slot used by the implementation. It is used to validate the implementation's compatibility when performing an upgrade. IMPORTANT: A proxy pointing at a proxiable contract should not be considered proxiable itself, because this risks bricking a proxy that upgrades to it, by delegating to itself until out of gas. Thus it is critical that this function revert if invoked through a proxy. This is guaranteed by the `notDelegated` modifier."
      },
      "reportPublishMatching(uint64)": {
        "params": {
          "_matchingId": "The matching id to publish cars."
        }
      },
      "upgradeTo(address)": {
        "custom:oz-upgrades-unsafe-allow-reachable": "delegatecall",
        "details": "Upgrade the implementation of the proxy to `newImplementation`. Calls {_authorizeUpgrade}. Emits an {Upgraded} event."
      },
      "upgradeToAndCall(address,bytes)": {
        "custom:oz-upgrades-unsafe-allow-reachable": "delegatecall",
        "details": "Upgrade the implementation of the proxy to `newImplementation`, and subsequently execute the function call encoded in `data`. Calls {_authorizeUpgrade}. Emits an {Upgraded} event."
      }
    },
    "stateVariables": {
      "__gap": {
        "details": "This empty reserved space is put in place to allow future versions to add new"
      }
    },
    "title": "Matchings Base Contract",
    "version": 1
  },
  "userdoc": {
    "kind": "user",
    "methods": {
      "createMatching(uint64,uint8,uint64,uint64,uint64,uint256,uint16,string)": {
        "notice": "Function for create a new matching."
      },
      "getBidSelectionRule(uint64)": {
        "notice": "Function for getting the selection rule of a matching"
      },
      "getBiddingAfterPauseHeight(uint64)": {
        "notice": "Function for getting the after pause height of a matching"
      },
      "getBiddingEndHeight(uint64)": {
        "notice": "Function for getting the end height of a matching"
      },
      "getBiddingStartHeight(uint64)": {
        "notice": "Function for getting the start height of a matching"
      },
      "getBiddingThreshold(uint64)": {
        "notice": "Function for getting the threshold of a matching"
      },
      "getImplementation()": {
        "notice": "Returns the implementation contract"
      },
      "getMatchingInitiator(uint64)": {
        "notice": "Function for getting the initiator of a matching"
      },
      "getMatchingState(uint64)": {
        "notice": "Function for getting the state of a matching"
      },
      "initDependencies(address,address)": {
        "notice": "The function to init the dependencies of a matchings."
      },
      "initialize(address,address,address)": {
        "notice": "initialize function to initialize the contract and grant the default admin role to the deployer."
      },
      "matchingsCount()": {
        "notice": "Declare private variables"
      },
      "pauseMatching(uint64)": {
        "notice": "Function for pausing a matching"
      },
      "reportCancelMatching(uint64)": {
        "notice": "Function for report canceling a matching"
      },
      "reportCloseMatching(uint64)": {
        "notice": "Function for closing a matching"
      },
      "reportMatchingHasWinner(uint64,address)": {
        "notice": "Function for report complete a matching with a winner"
      },
      "reportMatchingNoWinner(uint64)": {
        "notice": "Function for report complete a matching without winner."
      },
      "reportPublishMatching(uint64)": {
        "notice": "Function for publishing a matching"
      },
      "resumeMatching(uint64)": {
        "notice": "Function for resuming a paused matching"
      }
    },
    "notice": "This contract serves as the base for managing matchings, their states, and associated actions.",
    "version": 1
  },
  "storageLayout": {
    "storage": [
      {
        "astId": 5186,
        "contract": "src/v0.8/module/matching/Matchings.sol:Matchings",
        "label": "_initialized",
        "offset": 0,
        "slot": "0",
        "type": "t_uint8"
      },
      {
        "astId": 5189,
        "contract": "src/v0.8/module/matching/Matchings.sol:Matchings",
        "label": "_initializing",
        "offset": 1,
        "slot": "0",
        "type": "t_bool"
      },
      {
        "astId": 5168,
        "contract": "src/v0.8/module/matching/Matchings.sol:Matchings",
        "label": "__gap",
        "offset": 0,
        "slot": "1",
        "type": "t_array(t_uint256)50_storage"
      },
      {
        "astId": 5483,
        "contract": "src/v0.8/module/matching/Matchings.sol:Matchings",
        "label": "__gap",
        "offset": 0,
        "slot": "51",
        "type": "t_array(t_uint256)50_storage"
      },
      {
        "astId": 27310,
        "contract": "src/v0.8/module/matching/Matchings.sol:Matchings",
        "label": "matchingsCount",
        "offset": 0,
        "slot": "101",
        "type": "t_uint64"
      },
      {
        "astId": 27315,
        "contract": "src/v0.8/module/matching/Matchings.sol:Matchings",
        "label": "matchings",
        "offset": 0,
        "slot": "102",
        "type": "t_mapping(t_uint64,t_struct(Matching)35317_storage)"
      },
      {
        "astId": 27317,
        "contract": "src/v0.8/module/matching/Matchings.sol:Matchings",
        "label": "governanceAddress",
        "offset": 0,
        "slot": "103",
        "type": "t_address"
      },
      {
        "astId": 27320,
        "contract": "src/v0.8/module/matching/Matchings.sol:Matchings",
        "label": "roles",
        "offset": 0,
        "slot": "104",
        "type": "t_contract(IRoles)20939"
      },
      {
        "astId": 27323,
        "contract": "src/v0.8/module/matching/Matchings.sol:Matchings",
        "label": "datasetsRequirement",
        "offset": 0,
        "slot": "105",
        "type": "t_contract(IDatasetsRequirement)21497"
      },
      {
        "astId": 27326,
        "contract": "src/v0.8/module/matching/Matchings.sol:Matchings",
        "label": "matchingsTarget",
        "offset": 0,
        "slot": "106",
        "type": "t_contract(IMatchingsTarget)21897"
      },
      {
        "astId": 27329,
        "contract": "src/v0.8/module/matching/Matchings.sol:Matchings",
        "label": "matchingsBids",
        "offset": 0,
        "slot": "107",
        "type": "t_contract(IMatchingsBids)21737"
      },
      {
        "astId": 27334,
        "contract": "src/v0.8/module/matching/Matchings.sol:Matchings",
        "label": "__gap",
        "offset": 0,
        "slot": "108",
        "type": "t_array(t_uint256)32_storage"
      }
    ],
    "types": {
      "t_address": {
        "encoding": "inplace",
        "label": "address",
        "numberOfBytes": "20"
      },
      "t_array(t_uint256)32_storage": {
        "base": "t_uint256",
        "encoding": "inplace",
        "label": "uint256[32]",
        "numberOfBytes": "1024"
      },
      "t_array(t_uint256)50_storage": {
        "base": "t_uint256",
        "encoding": "inplace",
        "label": "uint256[50]",
        "numberOfBytes": "1600"
      },
      "t_bool": {
        "encoding": "inplace",
        "label": "bool",
        "numberOfBytes": "1"
      },
      "t_contract(IDatasetsRequirement)21497": {
        "encoding": "inplace",
        "label": "contract IDatasetsRequirement",
        "numberOfBytes": "20"
      },
      "t_contract(IMatchingsBids)21737": {
        "encoding": "inplace",
        "label": "contract IMatchingsBids",
        "numberOfBytes": "20"
      },
      "t_contract(IMatchingsTarget)21897": {
        "encoding": "inplace",
        "label": "contract IMatchingsTarget",
        "numberOfBytes": "20"
      },
      "t_contract(IRoles)20939": {
        "encoding": "inplace",
        "label": "contract IRoles",
        "numberOfBytes": "20"
      },
      "t_enum(BidSelectionRule)35293": {
        "encoding": "inplace",
        "label": "enum MatchingType.BidSelectionRule",
        "numberOfBytes": "1"
      },
      "t_enum(State)35275": {
        "encoding": "inplace",
        "label": "enum MatchingType.State",
        "numberOfBytes": "1"
      },
      "t_mapping(t_uint64,t_struct(Matching)35317_storage)": {
        "encoding": "mapping",
        "key": "t_uint64",
        "label": "mapping(uint64 => struct MatchingType.Matching)",
        "numberOfBytes": "32",
        "value": "t_struct(Matching)35317_storage"
      },
      "t_string_storage": {
        "encoding": "bytes",
        "label": "string",
        "numberOfBytes": "32"
      },
      "t_struct(Matching)35317_storage": {
        "encoding": "inplace",
        "label": "struct MatchingType.Matching",
        "members": [
          {
            "astId": 35297,
            "contract": "src/v0.8/module/matching/Matchings.sol:Matchings",
            "label": "bidSelectionRule",
            "offset": 0,
            "slot": "0",
            "type": "t_enum(BidSelectionRule)35293"
          },
          {
            "astId": 35299,
            "contract": "src/v0.8/module/matching/Matchings.sol:Matchings",
            "label": "biddingDelayBlockCount",
            "offset": 1,
            "slot": "0",
            "type": "t_uint64"
          },
          {
            "astId": 35301,
            "contract": "src/v0.8/module/matching/Matchings.sol:Matchings",
            "label": "biddingPeriodBlockCount",
            "offset": 9,
            "slot": "0",
            "type": "t_uint64"
          },
          {
            "astId": 35303,
            "contract": "src/v0.8/module/matching/Matchings.sol:Matchings",
            "label": "storageCompletionPeriodBlocks",
            "offset": 17,
            "slot": "0",
            "type": "t_uint64"
          },
          {
            "astId": 35305,
            "contract": "src/v0.8/module/matching/Matchings.sol:Matchings",
            "label": "biddingThreshold",
            "offset": 0,
            "slot": "1",
            "type": "t_uint256"
          },
          {
            "astId": 35307,
            "contract": "src/v0.8/module/matching/Matchings.sol:Matchings",
            "label": "createdBlockNumber",
            "offset": 0,
            "slot": "2",
            "type": "t_uint64"
          },
          {
            "astId": 35309,
            "contract": "src/v0.8/module/matching/Matchings.sol:Matchings",
            "label": "additionalInfo",
            "offset": 0,
            "slot": "3",
            "type": "t_string_storage"
          },
          {
            "astId": 35311,
            "contract": "src/v0.8/module/matching/Matchings.sol:Matchings",
            "label": "initiator",
            "offset": 0,
            "slot": "4",
            "type": "t_address"
          },
          {
            "astId": 35313,
            "contract": "src/v0.8/module/matching/Matchings.sol:Matchings",
            "label": "pausedBlockCount",
            "offset": 20,
            "slot": "4",
            "type": "t_uint64"
          },
          {
            "astId": 35316,
            "contract": "src/v0.8/module/matching/Matchings.sol:Matchings",
            "label": "state",
            "offset": 28,
            "slot": "4",
            "type": "t_enum(State)35275"
          }
        ],
        "numberOfBytes": "160"
      },
      "t_uint256": {
        "encoding": "inplace",
        "label": "uint256",
        "numberOfBytes": "32"
      },
      "t_uint64": {
        "encoding": "inplace",
        "label": "uint64",
        "numberOfBytes": "8"
      },
      "t_uint8": {
        "encoding": "inplace",
        "label": "uint8",
        "numberOfBytes": "1"
      }
    }
  }
}