{
  "address": "0x5fe723b4742bacade8B6e54487c11593d645aA53",
  "abi": [
    {
      "inputs": [
        {
          "internalType": "uint64",
          "name": "matchingId",
          "type": "uint64"
        },
        {
          "internalType": "enum MatchingType.State",
          "name": "expectedState",
          "type": "uint8"
        },
        {
          "internalType": "enum MatchingType.State",
          "name": "actualState",
          "type": "uint8"
        }
      ],
      "name": "InvalidMatchingState",
      "type": "error"
    },
    {
      "inputs": [
        {
          "internalType": "uint64",
          "name": "matchingId",
          "type": "uint64"
        },
        {
          "internalType": "address",
          "name": "winner",
          "type": "address"
        }
      ],
      "name": "NotCompliantRuleMatchingTargetMeetsFilPlusRequirements",
      "type": "error"
    },
    {
      "inputs": [
        {
          "internalType": "uint64",
          "name": "matchingId",
          "type": "uint64"
        },
        {
          "internalType": "address",
          "name": "expectedInitiator",
          "type": "address"
        },
        {
          "internalType": "address",
          "name": "actualInitiator",
          "type": "address"
        }
      ],
      "name": "NotMatchingInitiator",
      "type": "error"
    },
    {
      "inputs": [
        {
          "internalType": "string",
          "name": "log",
          "type": "string"
        },
        {
          "internalType": "address",
          "name": "sendr",
          "type": "address"
        },
        {
          "internalType": "address",
          "name": "allowd",
          "type": "address"
        }
      ],
      "name": "errorAddress",
      "type": "error"
    },
    {
      "anonymous": false,
      "inputs": [
        {
          "indexed": false,
          "internalType": "address",
          "name": "previousAdmin",
          "type": "address"
        },
        {
          "indexed": false,
          "internalType": "address",
          "name": "newAdmin",
          "type": "address"
        }
      ],
      "name": "AdminChanged",
      "type": "event"
    },
    {
      "anonymous": false,
      "inputs": [
        {
          "indexed": true,
          "internalType": "address",
          "name": "beacon",
          "type": "address"
        }
      ],
      "name": "BeaconUpgraded",
      "type": "event"
    },
    {
      "anonymous": false,
      "inputs": [
        {
          "indexed": false,
          "internalType": "uint8",
          "name": "version",
          "type": "uint8"
        }
      ],
      "name": "Initialized",
      "type": "event"
    },
    {
      "anonymous": false,
      "inputs": [
        {
          "indexed": true,
          "internalType": "uint64",
          "name": "_matchingId",
          "type": "uint64"
        },
        {
          "indexed": false,
          "internalType": "address",
          "name": "_bidder",
          "type": "address"
        },
        {
          "indexed": false,
          "internalType": "uint256",
          "name": "_amount",
          "type": "uint256"
        }
      ],
      "name": "MatchingBidPlaced",
      "type": "event"
    },
    {
      "anonymous": false,
      "inputs": [
        {
          "indexed": true,
          "internalType": "address",
          "name": "implementation",
          "type": "address"
        }
      ],
      "name": "Upgraded",
      "type": "event"
    },
    {
      "inputs": [
        {
          "internalType": "uint64",
          "name": "_matchingId",
          "type": "uint64"
        },
        {
          "internalType": "uint256",
          "name": "_amount",
          "type": "uint256"
        }
      ],
      "name": "bidding",
      "outputs": [],
      "stateMutability": "nonpayable",
      "type": "function"
    },
    {
      "inputs": [
        {
          "internalType": "uint64",
          "name": "_matchingId",
          "type": "uint64"
        }
      ],
      "name": "cancelMatching",
      "outputs": [],
      "stateMutability": "nonpayable",
      "type": "function"
    },
    {
      "inputs": [
        {
          "internalType": "uint64",
          "name": "_matchingId",
          "type": "uint64"
        }
      ],
      "name": "closeMatching",
      "outputs": [],
      "stateMutability": "nonpayable",
      "type": "function"
    },
    {
      "inputs": [],
      "name": "datasets",
      "outputs": [
        {
          "internalType": "contract IDatasets",
          "name": "",
          "type": "address"
        }
      ],
      "stateMutability": "view",
      "type": "function"
    },
    {
      "inputs": [],
      "name": "datasetsProof",
      "outputs": [
        {
          "internalType": "contract IDatasetsProof",
          "name": "",
          "type": "address"
        }
      ],
      "stateMutability": "view",
      "type": "function"
    },
    {
      "inputs": [],
      "name": "datasetsRequirement",
      "outputs": [
        {
          "internalType": "contract IDatasetsRequirement",
          "name": "",
          "type": "address"
        }
      ],
      "stateMutability": "view",
      "type": "function"
    },
    {
      "inputs": [],
      "name": "getImplementation",
      "outputs": [
        {
          "internalType": "address",
          "name": "",
          "type": "address"
        }
      ],
      "stateMutability": "view",
      "type": "function"
    },
    {
      "inputs": [
        {
          "internalType": "uint64",
          "name": "_matchingId",
          "type": "uint64"
        },
        {
          "internalType": "address",
          "name": "_bidder",
          "type": "address"
        }
      ],
      "name": "getMatchingBidAmount",
      "outputs": [
        {
          "internalType": "uint256",
          "name": "",
          "type": "uint256"
        }
      ],
      "stateMutability": "view",
      "type": "function"
    },
    {
      "inputs": [
        {
          "internalType": "uint64",
          "name": "_matchingId",
          "type": "uint64"
        }
      ],
      "name": "getMatchingBids",
      "outputs": [
        {
          "internalType": "address[]",
          "name": "",
          "type": "address[]"
        },
        {
          "internalType": "uint256[]",
          "name": "",
          "type": "uint256[]"
        }
      ],
      "stateMutability": "view",
      "type": "function"
    },
    {
      "inputs": [
        {
          "internalType": "uint64",
          "name": "_matchingId",
          "type": "uint64"
        }
      ],
      "name": "getMatchingBidsCount",
      "outputs": [
        {
          "internalType": "uint64",
          "name": "",
          "type": "uint64"
        }
      ],
      "stateMutability": "view",
      "type": "function"
    },
    {
      "inputs": [
        {
          "internalType": "uint64",
          "name": "_matchingId",
          "type": "uint64"
        }
      ],
      "name": "getMatchingWinner",
      "outputs": [
        {
          "internalType": "address",
          "name": "",
          "type": "address"
        }
      ],
      "stateMutability": "view",
      "type": "function"
    },
    {
      "inputs": [
        {
          "internalType": "uint64[]",
          "name": "_matchingIds",
          "type": "uint64[]"
        }
      ],
      "name": "getMatchingWinners",
      "outputs": [
        {
          "internalType": "address[]",
          "name": "",
          "type": "address[]"
        }
      ],
      "stateMutability": "view",
      "type": "function"
    },
    {
      "inputs": [
        {
          "internalType": "uint64",
          "name": "_matchingId",
          "type": "uint64"
        },
        {
          "internalType": "address",
          "name": "_bidder",
          "type": "address"
        }
      ],
      "name": "hasMatchingBid",
      "outputs": [
        {
          "internalType": "bool",
          "name": "",
          "type": "bool"
        }
      ],
      "stateMutability": "view",
      "type": "function"
    },
    {
      "inputs": [
        {
          "internalType": "address",
          "name": "_matchings",
          "type": "address"
        },
        {
          "internalType": "address",
          "name": "_matchingsTarget",
          "type": "address"
        }
      ],
      "name": "initDependencies",
      "outputs": [],
      "stateMutability": "nonpayable",
      "type": "function"
    },
    {
      "inputs": [
        {
          "internalType": "address",
          "name": "_governanceAddress",
          "type": "address"
        },
        {
          "internalType": "address",
          "name": "_roles",
          "type": "address"
        },
        {
          "internalType": "address",
          "name": "_filplus",
          "type": "address"
        },
        {
          "internalType": "address",
          "name": "_carstore",
          "type": "address"
        },
        {
          "internalType": "address",
          "name": "_datasets",
          "type": "address"
        },
        {
          "internalType": "address",
          "name": "_datasetsRequirement",
          "type": "address"
        },
        {
          "internalType": "address",
          "name": "_datasetsProof",
          "type": "address"
        }
      ],
      "name": "initialize",
      "outputs": [],
      "stateMutability": "nonpayable",
      "type": "function"
    },
    {
      "inputs": [],
      "name": "matchings",
      "outputs": [
        {
          "internalType": "contract IMatchings",
          "name": "",
          "type": "address"
        }
      ],
      "stateMutability": "view",
      "type": "function"
    },
    {
      "inputs": [],
      "name": "matchingsTarget",
      "outputs": [
        {
          "internalType": "contract IMatchingsTarget",
          "name": "",
          "type": "address"
        }
      ],
      "stateMutability": "view",
      "type": "function"
    },
    {
      "inputs": [],
      "name": "proxiableUUID",
      "outputs": [
        {
          "internalType": "bytes32",
          "name": "",
          "type": "bytes32"
        }
      ],
      "stateMutability": "view",
      "type": "function"
    },
    {
      "inputs": [
        {
          "internalType": "address",
          "name": "newImplementation",
          "type": "address"
        }
      ],
      "name": "upgradeTo",
      "outputs": [],
      "stateMutability": "nonpayable",
      "type": "function"
    },
    {
      "inputs": [
        {
          "internalType": "address",
          "name": "newImplementation",
          "type": "address"
        },
        {
          "internalType": "bytes",
          "name": "data",
          "type": "bytes"
        }
      ],
      "name": "upgradeToAndCall",
      "outputs": [],
      "stateMutability": "payable",
      "type": "function"
    }
  ],
  "numDeployments": 1,
  "solcInputHash": "30b504aec0cebedbd35c0590286a6e9b",
  "bytecode": "0x60a06040523060805234801561001457600080fd5b5060805161386461004c60003960008181610bbb01528181610bfb01528181610c8301528181610cc30152610e2501526138646000f3fe6080604052600436106100ef5760003560e01c8063050507a9146100f457806306e726c01461011657806312c9618c1461014d5780632620333e1461016d578063358764761461019a5780633659cfe6146101ba5780634f1ef286146101da5780634fc780e8146101ed57806352d1902d1461021a578063639764071461023c5780636ad81d6214610269578063840febd91461028957806396fd77b0146102a95780639a917558146102c95780639aa023d1146102f65780639cfa7d5514610316578063a2cda22e14610336578063aaf10f4214610363578063ab2d10f714610378578063bbf8367414610398575b600080fd5b34801561010057600080fd5b5061011461010f366004612614565b6103b8565b005b34801561012257600080fd5b50610136610131366004612614565b6108c4565b604051610144929190612708565b60405180910390f35b34801561015957600080fd5b50610114610168366004612614565b6108f4565b34801561017957600080fd5b50606e5461018d906001600160a01b031681565b6040516101449190612762565b3480156101a657600080fd5b506101146101b5366004612784565b610a66565b3480156101c657600080fd5b506101146101d5366004612823565b610bb1565b6101146101e8366004612949565b610c79565b3480156101f957600080fd5b5061020d610208366004612a42565b610d32565b6040516101449190612a7c565b34801561022657600080fd5b5061022f610e18565b6040516101449190612a8d565b34801561024857600080fd5b5061025c610257366004612614565b610e76565b6040516101449190612a9b565b34801561027557600080fd5b50606c5461018d906001600160a01b031681565b34801561029557600080fd5b50606d5461018d906001600160a01b031681565b3480156102b557600080fd5b506101146102c4366004612aba565b610e9d565b3480156102d557600080fd5b506102e96102e4366004612aed565b611477565b6040516101449190612b28565b34801561030257600080fd5b50606b5461018d906001600160a01b031681565b34801561032257600080fd5b5061022f610331366004612aed565b6114a3565b34801561034257600080fd5b50610356610351366004612614565b6114c5565b6040516101449190612b3f565b34801561036f57600080fd5b5061025c6114e7565b34801561038457600080fd5b50606a5461018d906001600160a01b031681565b3480156103a457600080fd5b506101146103b3366004612b4d565b6114f6565b606d54604051631a569da560e11b81526002916001600160a01b0316906334ad3b4a906103e9908590600401612b3f565b602060405180830381865afa158015610406573d6000803e3d6000fd5b505050506040513d601f19601f8201168201806040525081019061042a9190612b9d565b600781111561043b5761043b612b6f565b036104c057606d54604051636bb0367b60e11b81526001600160a01b039091169063d7606cf690610470908490600401612b3f565b600060405180830381600087803b15801561048a57600080fd5b505af192505050801561049b575060015b6104c05760405162461bcd60e51b81526004016104b790612bed565b60405180910390fd5b606d54604051631a569da560e11b81526004916001600160a01b0316906334ad3b4a906104f09085908501612b3f565b602060405180830381865afa15801561050d573d6000803e3d6000fd5b505050506040513d601f19601f820116820180604052508101906105319190612b9d565b600781111561054257610542612b6f565b1461055f5760405162461bcd60e51b81526004016104b790612c21565b6001600160401b038116600090815260656020526040808220606d54915163b6c9178360e01b815290929161074c916001600160a01b039091169063b6c91783906105ae908790600401612b3f565b602060405180830381865afa1580156105cb573d6000803e3d6000fd5b505050506040513d601f19601f820116820180604052508101906105ef9190612c49565b606d546040516302de966b60e41b81526001600160a01b0390911690632de966b09061061f908890600401612b3f565b602060405180830381865afa15801561063c573d6000803e3d6000fd5b505050506040513d601f19601f820116820180604052508101906106609190612c75565b606d54604051639e5a53e560e01b81526001600160a01b0390911690639e5a53e590610690908990600401612b3f565b602060405180830381865afa1580156106ad573d6000803e3d6000fd5b505050506040513d601f19601f820116820180604052508101906106d19190612ca1565b606d54604051639f6c8a4760e01b81526001600160a01b0390911690639f6c8a4790610701908a90600401612b3f565b602060405180830381865afa15801561071e573d6000803e3d6000fd5b505050506040513d601f19601f820116820180604052508101906107429190612ca1565b86939291906115ba565b90506001600160a01b0381161561088657606e546040516383587b9d60e01b81526001600160a01b03909116906383587b9d9061078f9086908590600401612cc2565b602060405180830381865afa1580156107ac573d6000803e3d6000fd5b505050506040513d601f19601f820116820180604052508101906107d09190612cf0565b6107fb576107de82826118b1565b8281604051632fa0b95d60e01b81526004016104b7929190612cc2565b6108048361195c565b6001820180546001600160a01b0319166001600160a01b0383811691909117909155606d54604051630731aebf60e11b8152911690630e635d7e9061084f9086908590600401612cc2565b600060405180830381600087803b15801561086957600080fd5b505af115801561087d573d6000803e3d6000fd5b50505050505050565b61088f83611a89565b606d54604051639247e80f60e01b81526001600160a01b0390911690639247e80f9061084f908690600401612b3f565b505050565b6001600160401b038116600090815260656020526040902060609081906108ea81611bb6565b9250925050915091565b606d5460405163e19edda160e01b81526001600160a01b03909116908290600090839063e19edda19061092b908590600401612b3f565b602060405180830381865afa158015610948573d6000803e3d6000fd5b505050506040513d601f19601f8201168201806040525081019061096c9190612d1c565b90506001600160a01b038116331461099d5781813360405163bb5a686560e01b81526004016104b793929190612d3d565b6109a684611a89565b606d54604051632c7e9d9b60e21b81526001600160a01b039091169063b1fa766c906109d6908790600401612b3f565b600060405180830381600087803b1580156109f057600080fd5b505af1925050508015610a01575060015b610a6057610a0d612d65565b806308c379a003610a465750610a21612d80565b80610a2c5750610a48565b8060405162461bcd60e51b81526004016104b79190612e5d565b505b60405162461bcd60e51b81526004016104b790612ea2565b50505050565b600054610100900460ff1615808015610a865750600054600160ff909116105b80610aa75750610a9530611d4c565b158015610aa7575060005460ff166001145b610ac35760405162461bcd60e51b81526004016104b790612f00565b6000805460ff191660011790558015610ae6576000805461ff0019166101001790555b606680546001600160a01b03199081166001600160a01b038b8116919091179092556067805482168a8416179055606880548216898416179055606980548216888416179055606a80548216878416179055606b80548216868416179055606c8054909116918416919091179055610b5c611d5b565b8015610ba7576000805461ff00191690556040517f7f26b83ff96e1f2b6a682f133852f6798a09c465da95921460cefb384740249890610b9e90600190612f25565b60405180910390a15b5050505050505050565b6001600160a01b037f0000000000000000000000000000000000000000000000000000000000000000163003610bf95760405162461bcd60e51b81526004016104b790612f6a565b7f00000000000000000000000000000000000000000000000000000000000000006001600160a01b0316610c2b611d84565b6001600160a01b031614610c515760405162461bcd60e51b81526004016104b790612fb1565b610c5a81611da0565b60408051600080825260208201909252610c7691839190611e34565b50565b6001600160a01b037f0000000000000000000000000000000000000000000000000000000000000000163003610cc15760405162461bcd60e51b81526004016104b790612f6a565b7f00000000000000000000000000000000000000000000000000000000000000006001600160a01b0316610cf3611d84565b6001600160a01b031614610d195760405162461bcd60e51b81526004016104b790612fb1565b610d2282611da0565b610d2e82826001611e34565b5050565b6060600080610d418482611f16565b915091506000826001600160401b03811115610d5f57610d5f61284e565b604051908082528060200260200182016040528015610d88578160200160208202803683370190505b50905060005b83816001600160401b03161015610e0f57610dca83826001600160401b031681518110610dbd57610dbd612fc1565b6020026020010151610e76565b82826001600160401b031681518110610de557610de5612fc1565b6001600160a01b039092166020928302919091019091015280610e0781612fed565b915050610d8e565b50949350505050565b6000306001600160a01b037f00000000000000000000000000000000000000000000000000000000000000001614610e625760405162461bcd60e51b81526004016104b79061306c565b506000805160206137e88339815191525b90565b6001600160401b03166000908152606560205260409020600101546001600160a01b031690565b606754604051632474521560e21b81526001600160a01b03909116907fbef3bd11e82b4054dbbbfa191ade24a0f7f56837be03eaafd87d83dd8673ed669082906391d1485490610ef3908490339060040161307c565b602060405180830381865afa158015610f10573d6000803e3d6000fd5b505050506040513d601f19601f82011682018060405250810190610f349190612cf0565b610f505760405162461bcd60e51b81526004016104b7906130bb565b606d54604051631a569da560e11b81526001600160a01b0390911690859060029060009084906334ad3b4a90610f8a908690600401612b3f565b602060405180830381865afa158015610fa7573d6000803e3d6000fd5b505050506040513d601f19601f82011682018060405250810190610fcb9190612b9d565b9050816007811115610fdf57610fdf612b6f565b816007811115610ff157610ff1612b6f565b14611015578282826040516399df707960e01b81526004016104b7939291906130f9565b6001600160401b038816600090815260656020526040808220606d54915163b6c9178360e01b81529092916001600160a01b03169063b6c917839061105e908d90600401612b3f565b602060405180830381865afa15801561107b573d6000803e3d6000fd5b505050506040513d601f19601f8201168201806040525081019061109f9190612c49565b606d546040516302de966b60e41b81529192506112269183916001600160a01b031690632de966b0906110d6908f90600401612b3f565b602060405180830381865afa1580156110f3573d6000803e3d6000fd5b505050506040513d601f19601f820116820180604052508101906111179190612c75565b606d60009054906101000a90046001600160a01b03166001600160a01b0316639e5a53e58e6040518263ffffffff1660e01b81526004016111589190612b3f565b602060405180830381865afa158015611175573d6000803e3d6000fd5b505050506040513d601f19601f820116820180604052508101906111999190612ca1565b606d60009054906101000a90046001600160a01b03166001600160a01b0316639f6c8a478f6040518263ffffffff1660e01b81526004016111da9190612b3f565b602060405180830381865afa1580156111f7573d6000803e3d6000fd5b505050506040513d601f19601f8201168201806040525081019061121b9190612ca1565b86939291908e6120b9565b6000606b60009054906101000a90046001600160a01b03166001600160a01b031663146846a8606e60009054906101000a90046001600160a01b03166001600160a01b03166340f7f10b8e6040518263ffffffff1660e01b815260040161128d9190612b3f565b602060405180830381865afa1580156112aa573d6000803e3d6000fd5b505050506040513d601f19601f820116820180604052508101906112ce9190612ca1565b606e60009054906101000a90046001600160a01b03166001600160a01b031663075717218f6040518263ffffffff1660e01b815260040161130f9190612b3f565b602060405180830381865afa15801561132c573d6000803e3d6000fd5b505050506040513d601f19601f820116820180604052508101906113509190613136565b6040518363ffffffff1660e01b815260040161136d92919061316a565b600060405180830381865afa15801561138a573d6000803e3d6000fd5b505050506040513d6000823e601f3d908101601f191682016040526113b29190810190613286565b5050509150506000815111156113e8576113cc81336122be565b6113e85760405162461bcd60e51b81526004016104b790613376565b8a6001600160401b03167f2d59e8efadb0626949fe9770419e2db68557cae79e87826fea8478c843b2f066338c604051611423929190613386565b60405180910390a2600282600381111561143f5761143f612b6f565b148061145c5750600382600381111561145a5761145a612b6f565b145b1561146a5761146a8b6103b8565b5050505050505050505050565b6001600160401b03821660009081526065602052604081206114998184612323565b9150505b92915050565b6001600160401b03821660009081526065602052604081206114998184612397565b6001600160401b038116600090815260656020526040812080545b9392505050565b60006114f1611d84565b905090565b606754604051632474521560e21b81526001600160a01b039091169060009082906391d148549061152d908490339060040161307c565b602060405180830381865afa15801561154a573d6000803e3d6000fd5b505050506040513d601f19601f8201168201806040525081019061156e9190612cf0565b61158a5760405162461bcd60e51b81526004016104b7906130bb565b5050606d80546001600160a01b039384166001600160a01b031991821617909155606e8054929093169116179055565b600060028560038111156115d0576115d0612b6f565b14806115ed575060038560038111156115eb576115eb612b6f565b145b1561162057826001600160401b031643101561161b5760405162461bcd60e51b81526004016104b7906133c9565b611649565b816001600160401b03164310156116495760405162461bcd60e51b81526004016104b79061340b565b836000805b88546001600160401b03821610156118a557600088600381111561167457611674612b6f565b14806116915750600288600381111561168f5761168f612b6f565b145b1561177c578289600001826001600160401b0316815481106116b5576116b5612fc1565b906000526020600020906003020160010154118015611705575088600001816001600160401b0316815481106116ed576116ed612fc1565b600091825260209091206002600390920201015460ff165b156117775788600001816001600160401b03168154811061172857611728612fc1565b906000526020600020906003020160010154925088600001816001600160401b03168154811061175a5761175a612fc1565b60009182526020909120600390910201546001600160a01b031691505b611893565b600188600381111561179057611790612b6f565b14806117ad575060038860038111156117ab576117ab612b6f565b145b15611893578289600001826001600160401b0316815481106117d1576117d1612fc1565b906000526020600020906003020160010154108015611821575088600001816001600160401b03168154811061180957611809612fc1565b600091825260209091206002600390920201015460ff165b156118935788600001816001600160401b03168154811061184457611844612fc1565b906000526020600020906003020160010154925088600001816001600160401b03168154811061187657611876612fc1565b60009182526020909120600390910201546001600160a01b031691505b8061189d81612fed565b91505061164e565b50979650505050505050565b81546000906118c29060019061341b565b90505b82600001816001600160401b0316815481106118e3576118e3612fc1565b60009182526020909120600390910201546001600160a01b039081169083160361194a57600083600001826001600160401b03168154811061192757611927612fc1565b60009182526020909120600390910201600201805460ff19169115159190911790555b806119548161342e565b9150506118c5565b606e546040516314bcfacf60e31b81526000916001600160a01b03169063a5e7d6789061198d908590600401612b3f565b600060405180830381865afa1580156119aa573d6000803e3d6000fd5b505050506040513d6000823e601f3d908101601f191682016040526119d291908101906134c5565b905060005b8151816001600160401b031610156108bf5760695482516001600160a01b0390911690639528f0629084906001600160401b038516908110611a1b57611a1b612fc1565b60200260200101518560016040518463ffffffff1660e01b8152600401611a44939291906134ff565b600060405180830381600087803b158015611a5e57600080fd5b505af1158015611a72573d6000803e3d6000fd5b505050508080611a8190612fed565b9150506119d7565b606e546040516314bcfacf60e31b81526000916001600160a01b03169063a5e7d67890611aba908590600401612b3f565b600060405180830381865afa158015611ad7573d6000803e3d6000fd5b505050506040513d6000823e601f3d908101601f19168201604052611aff91908101906134c5565b905060005b8151816001600160401b031610156108bf5760695482516001600160a01b0390911690639528f0629084906001600160401b038516908110611b4857611b48612fc1565b60200260200101518560006040518463ffffffff1660e01b8152600401611b71939291906134ff565b600060405180830381600087803b158015611b8b57600080fd5b505af1158015611b9f573d6000803e3d6000fd5b505050508080611bae90612fed565b915050611b04565b805460609081906000906001600160401b03811115611bd757611bd761284e565b604051908082528060200260200182016040528015611c00578160200160208202803683370190505b5084549091506000906001600160401b03811115611c2057611c2061284e565b604051908082528060200260200182016040528015611c49578160200160208202803683370190505b50905060005b85546001600160401b0382161015611d415785600001816001600160401b031681548110611c7f57611c7f612fc1565b600091825260209091206003909102015483516001600160a01b039091169084906001600160401b038416908110611cb957611cb9612fc1565b60200260200101906001600160a01b031690816001600160a01b03168152505085600001816001600160401b031681548110611cf757611cf7612fc1565b90600052602060002090600302016001015482826001600160401b031681518110611d2457611d24612fc1565b602090810291909101015280611d3981612fed565b915050611c4f565b509094909350915050565b6001600160a01b03163b151590565b600054610100900460ff16611d825760405162461bcd60e51b81526004016104b79061356f565b565b6000805160206137e8833981519152546001600160a01b031690565b606754604051632474521560e21b81526001600160a01b039091169060009082906391d1485490611dd7908490339060040161307c565b602060405180830381865afa158015611df4573d6000803e3d6000fd5b505050506040513d601f19601f82011682018060405250810190611e189190612cf0565b6108bf5760405162461bcd60e51b81526004016104b7906130bb565b7f4910fdfa16fed3260ed0e7147f7cc6da11a60208b5b9406d12a635614ffd91435460ff1615611e67576108bf83612439565b826001600160a01b03166352d1902d6040518163ffffffff1660e01b8152600401602060405180830381865afa925050508015611ec1575060408051601f3d908101601f19168201909252611ebe91810190612c75565b60015b611edd5760405162461bcd60e51b81526004016104b7906135ca565b6000805160206137e88339815191528114611f0a5760405162461bcd60e51b81526004016104b790613620565b506108bf83838361248d565b60006060600084516001600160401b03811115611f3557611f3561284e565b604051908082528060200260200182016040528015611f5e578160200160208202803683370190505b5090506000805b865181101561200457856001600160401b0316878281518110611f8a57611f8a612fc1565b60200260200101516001600160401b031614611ff257868181518110611fb257611fb2612fc1565b6020026020010151838381518110611fcc57611fcc612fc1565b6001600160401b039092166020928302919091019091015281611fee81613630565b9250505b80611ffc81613630565b915050611f65565b506000816001600160401b0381111561201f5761201f61284e565b604051908082528060200260200182016040528015612048578160200160208202803683370190505b50905060005b828110156120ac5783818151811061206857612068612fc1565b602002602001015182828151811061208257612082612fc1565b6001600160401b0390921660209283029190910190910152806120a481613630565b91505061204e565b5090969095509350505050565b60008560038111156120cd576120cd612b6f565b14806120ea575060028560038111156120e8576120e8612b6f565b145b1561210f578381101561210f5760405162461bcd60e51b81526004016104b790613668565b600185600381111561212357612123612b6f565b14806121405750600385600381111561213e5761213e612b6f565b145b1561216557838111156121655760405162461bcd60e51b81526004016104b790613668565b826001600160401b031643101561218e5760405162461bcd60e51b81526004016104b7906136ac565b816001600160401b031643106121b65760405162461bcd60e51b81526004016104b7906136eb565b6121c08633612323565b156122475760008560038111156121d9576121d9612b6f565b03612206576121e88633612397565b81116122065760405162461bcd60e51b81526004016104b790613668565b600185600381111561221a5761221a612b6f565b03612247576122298633612397565b81106122475760405162461bcd60e51b81526004016104b790613668565b604080516060810182523381526020808201938452600192820183815289548085018b5560009a8b52919099209151600390910290910180546001600160a01b0319166001600160a01b0390921691909117815591519082015594516002909501805460ff19169515159590951790945550505050565b6000805b835181101561231957826001600160a01b03168482815181106122e7576122e7612fc1565b60200260200101516001600160a01b03160361230757600191505061149d565b8061231181613630565b9150506122c2565b5060009392505050565b6000805b83546001600160401b03821610156123195783600001816001600160401b03168154811061235757612357612fc1565b60009182526020909120600390910201546001600160a01b039081169084160361238557600191505061149d565b8061238f81612fed565b915050612327565b815460009081906123aa9060019061341b565b90505b83600001816001600160401b0316815481106123cb576123cb612fc1565b60009182526020909120600390910201546001600160a01b03908116908416036124275783600001816001600160401b03168154811061240d5761240d612fc1565b90600052602060002090600302016001015491505061149d565b806124318161342e565b9150506123ad565b61244281611d4c565b61245e5760405162461bcd60e51b81526004016104b790613745565b6000805160206137e883398151915280546001600160a01b0319166001600160a01b0392909216919091179055565b612496836124b2565b6000825111806124a35750805b156108bf57610a6083836124f2565b6124bb81612439565b6040516001600160a01b038216907fbc7cd75a20ee27fd9adebab32041f755214dbc6bffa90cc0225b39da2e5c2d3b90600090a250565b60606114e08383604051806060016040528060278152602001613808602791396060600080856001600160a01b03168560405161252f9190613777565b600060405180830381855af49150503d806000811461256a576040519150601f19603f3d011682016040523d82523d6000602084013e61256f565b606091505b50915091506125808683838761258a565b9695505050505050565b606083156125c75782516000036125c0576125a485611d4c565b6125c05760405162461bcd60e51b81526004016104b7906137b7565b50816125d1565b6125d183836125d9565b949350505050565b815115610a2c5781518083602001fd5b6001600160401b031690565b6125fe816125e9565b8114610c7657600080fd5b803561149d816125f5565b60006020828403121561262957612629600080fd5b60006114998484612609565b6001600160a01b031690565b600061149d82612635565b61265581612641565b82525050565b6000612667838361264c565b505060200190565b6000612679825190565b80845260209384019383018060005b838110156126ad57815161269c888261265b565b975060208301925050600101612688565b509495945050505050565b80612655565b600061266783836126b8565b60006126d4825190565b80845260209384019383018060005b838110156126ad5781516126f788826126be565b9750602083019250506001016126e3565b60408082528101612719818561266f565b905081810360208301526125d181846126ca565b600061149d61273e610e7384612635565b612635565b600061149d8261272d565b600061149d82612743565b6126558161274e565b6020810161149d8284612759565b6125fe81612641565b803561149d81612770565b600080600080600080600060e0888a0312156127a2576127a2600080fd5b60006127ae8a8a612779565b97505060206127bf8a828b01612779565b96505060406127d08a828b01612779565b95505060606127e18a828b01612779565b94505060806127f28a828b01612779565b93505060a06128038a828b01612779565b92505060c06128148a828b01612779565b91505092959891949750929550565b60006020828403121561283857612838600080fd5b60006114998484612779565b601f01601f191690565b634e487b7160e01b600052604160045260246000fd5b61286d82612844565b81018181106001600160401b038211171561288a5761288a61284e565b6040525050565b600061289c60405190565b90506128a88282612864565b919050565b60006001600160401b038211156128c6576128c661284e565b6128cf82612844565b60200192915050565b82818337506000910152565b60006128f76128f2846128ad565b612891565b90508281526020810184848401111561291257612912600080fd5b61291d8482856128d8565b509392505050565b600082601f83011261293957612939600080fd5b81356114998482602086016128e4565b6000806040838503121561295f5761295f600080fd5b600061296b8585612779565b92505060208301356001600160401b0381111561298a5761298a600080fd5b61299685828601612925565b9150509250929050565b60006001600160401b038211156129b9576129b961284e565b5060209081020190565b60006129d16128f2846129a0565b838152905060208082019084028301858111156129f0576129f0600080fd5b835b81811015612a145780612a058882612609565b845250602092830192016129f2565b5050509392505050565b600082601f830112612a3257612a32600080fd5b81356114998482602086016129c3565b600060208284031215612a5757612a57600080fd5b81356001600160401b03811115612a7057612a70600080fd5b61149984828501612a1e565b602080825281016114e0818461266f565b6020810161149d82846126b8565b6020810161149d828461264c565b806125fe565b803561149d81612aa9565b60008060408385031215612ad057612ad0600080fd5b6000612adc8585612609565b925050602061299685828601612aaf565b60008060408385031215612b0357612b03600080fd5b6000612b0f8585612609565b925050602061299685828601612779565b801515612655565b6020810161149d8284612b20565b612655816125e9565b6020810161149d8284612b36565b60008060408385031215612b6357612b63600080fd5b6000612b0f8585612779565b634e487b7160e01b600052602160045260246000fd5b60088110610c7657600080fd5b805161149d81612b85565b600060208284031215612bb257612bb2600080fd5b60006114998484612b92565b601581526000602082017418db1bdcd9481b585d18da1a5b99c819985a5b1959605a1b815291505b5060200190565b6020808252810161149d81612bbe565b600d81526000602082016c496e76616c696420737461746560981b81529150612be6565b6020808252810161149d81612bfd565b60048110610c7657600080fd5b805161149d81612c31565b600060208284031215612c5e57612c5e600080fd5b60006114998484612c3e565b805161149d81612aa9565b600060208284031215612c8a57612c8a600080fd5b60006114998484612c6a565b805161149d816125f5565b600060208284031215612cb657612cb6600080fd5b60006114998484612c96565b60408101612cd08285612b36565b6114e0602083018461264c565b8015156125fe565b805161149d81612cdd565b600060208284031215612d0557612d05600080fd5b60006114998484612ce5565b805161149d81612770565b600060208284031215612d3157612d31600080fd5b60006114998484612d11565b60608101612d4b8286612b36565b612d58602083018561264c565b6125d1604083018461264c565b600060033d1115610e735760046000803e5060005160e01c90565b600060443d1015612d8e5790565b60405160043d036004823e80513d60248201116001600160401b0382111715612db657505090565b80820180516001600160401b03811115612dd1575050505090565b80602083010160043d038501811115612dec57505050505090565b612dfb82602001850186612864565b5090949350505050565b60005b83811015612e20578181015183820152602001612e08565b50506000910152565b6000612e33825190565b808452602084019350612e4a818560208601612e05565b612e5381612844565b9093019392505050565b602080825281016114e08184612e29565b601d81526000602082017f7265706f72742063616e63656c206d61746368696e67206661696c656400000081529150612be6565b6020808252810161149d81612e6e565b602e81526000602082017f496e697469616c697a61626c653a20636f6e747261637420697320616c72656181526d191e481a5b9a5d1a585b1a5e995960921b602082015291505b5060400190565b6020808252810161149d81612eb2565b60ff1690565b61265581600061149d82612f10565b6020810161149d8284612f16565b602c81526000602082016000805160206137c883398151915281526b19195b1959d85d1958d85b1b60a21b60208201529150612ef9565b6020808252810161149d81612f33565b602c81526000602082016000805160206137c883398151915281526b6163746976652070726f787960a01b60208201529150612ef9565b6020808252810161149d81612f7a565b634e487b7160e01b600052603260045260246000fd5b634e487b7160e01b600052601160045260246000fd5b6000612ff8826125e9565b91506001600160401b03820361301057613010612fd7565b5060010190565b603881526000602082017f555550535570677261646561626c653a206d757374206e6f742062652063616c8152771b1959081d1a1c9bdd59da0819195b1959d85d1958d85b1b60421b60208201529150612ef9565b6020808252810161149d81613017565b60408101612cd082856126b8565b601a81526000602082017913db9b1e48185b1b1bddd959081c9bdb194818d85b8818d85b1b60321b81529150612be6565b6020808252810161149d8161308a565b60088110610c7657610c76612b6f565b806128a8816130cb565b600061149d826130db565b612655816130e5565b606081016131078286612b36565b61311460208301856130f0565b6125d160408301846130f0565b61ffff81166125fe565b805161149d81613121565b60006020828403121561314b5761314b600080fd5b6000611499848461312b565b61265581600061149d61ffff83166125e9565b604081016131788285612b36565b6114e06020830184613157565b60006131936128f2846129a0565b838152905060208082019084028301858111156131b2576131b2600080fd5b835b81811015612a1457806131c78882612d11565b845250602092830192016131b4565b600082601f8301126131ea576131ea600080fd5b8151611499848260208601613185565b63ffffffff81166125fe565b805161149d816131fa565b600061321f6128f2846129a0565b8381529050602080820190840283018581111561323e5761323e600080fd5b835b81811015612a1457806132538882613206565b84525060209283019201613240565b600082601f83011261327657613276600080fd5b8151611499848260208601613211565b600080600080600060a086880312156132a1576132a1600080fd5b85516001600160401b038111156132ba576132ba600080fd5b6132c6888289016131d6565b95505060208601516001600160401b038111156132e5576132e5600080fd5b6132f1888289016131d6565b94505060406133028882890161312b565b93505060606133138882890161312b565b92505060808601516001600160401b0381111561333257613332600080fd5b61333e88828901613262565b9150509295509295909350565b601481526000602082017324b73b30b634b21029a81039bab136b4ba3a32b960611b81529150612be6565b6020808252810161149d8161334b565b60408101613394828561264c565b6114e060208301846126b8565b601181526000602082017042696464696e6720746f6f206561726c7960781b81529150612be6565b6020808252810161149d816133a1565b60208082527f42696464696e6720706572696f6420686173206e6f7420656e6465642079657491019081526000612be6565b6020808252810161149d816133d9565b8181038181111561149d5761149d612fd7565b6000613439826125e9565b91508161344857613448612fd7565b506000190190565b600061345e6128f2846129a0565b8381529050602080820190840283018581111561347d5761347d600080fd5b835b81811015612a1457806134928882612c96565b8452506020928301920161347f565b600082601f8301126134b5576134b5600080fd5b8151611499848260208601613450565b6000602082840312156134da576134da600080fd5b81516001600160401b038111156134f3576134f3600080fd5b611499848285016134a1565b6060810161350d8286612b36565b61351a6020830185612b36565b6125d16040830184612b20565b602b81526000602082017f496e697469616c697a61626c653a20636f6e7472616374206973206e6f74206981526a6e697469616c697a696e6760a81b60208201529150612ef9565b6020808252810161149d81613527565b602e81526000602082017f45524331393637557067726164653a206e657720696d706c656d656e7461746981526d6f6e206973206e6f74205555505360901b60208201529150612ef9565b6020808252810161149d8161357f565b602981526000602082017f45524331393637557067726164653a20756e737570706f727465642070726f788152681a58589b195555525160ba1b60208201529150612ef9565b6020808252810161149d816135da565b6000600019820361301057613010612fd7565b600e81526000602082016d125b9d985b1a5908185b5bdd5b9d60921b81529150612be6565b6020808252810161149d81613643565b601e81526000602082017f4d61746368696e673a2042696464696e67206973206e6f74207374617274000081529150612be6565b6020808252810161149d81613678565b601881526000602082017713585d18da1a5b99ce88109a59191a5b99c81a5cc8195b9960421b81529150612be6565b6020808252810161149d816136bc565b602d81526000602082017f455243313936373a206e657720696d706c656d656e746174696f6e206973206e81526c1bdd08184818dbdb9d1c9858dd609a1b60208201529150612ef9565b6020808252810161149d816136fb565b600061375f825190565b61376d818560208601612e05565b9290920192915050565b60006114e08284613755565b601d81526000602082017f416464726573733a2063616c6c20746f206e6f6e2d636f6e747261637400000081529150612be6565b6020808252810161149d8161378356fe46756e6374696f6e206d7573742062652063616c6c6564207468726f75676820360894a13ba1a3210667c828492db98dca3e2076cc3735a920a3ca505d382bbc416464726573733a206c6f772d6c6576656c2064656c65676174652063616c6c206661696c6564a264697066735822122021fab90133d8fdc3f22ce0b96c04d51f8cee678c1a8aaf20bb06899a5f59606d64736f6c63430008150033",
  "devdoc": {
    "details": "This contract is intended to be inherited by specific matching-related contracts.      TODO: Missing fund proccess,need add later https://github.com/dataswap/core/issues/20            1 bidder(when bidding) and initiator(when publish) should transfer FIL to payable function            2 proccess the fund after matched            3 proccess the fund after matchedsotre,step by step",
    "events": {
      "AdminChanged(address,address)": {
        "details": "Emitted when the admin account has changed."
      },
      "BeaconUpgraded(address)": {
        "details": "Emitted when the beacon is changed."
      },
      "Initialized(uint8)": {
        "details": "Triggered when the contract has been initialized or reinitialized."
      },
      "Upgraded(address)": {
        "details": "Emitted when the implementation is upgraded."
      }
    },
    "kind": "dev",
    "methods": {
      "cancelMatching(uint64)": {
        "params": {
          "_matchingId": "The ID of the matching."
        }
      },
      "proxiableUUID()": {
        "details": "Implementation of the ERC1822 {proxiableUUID} function. This returns the storage slot used by the implementation. It is used to validate the implementation's compatibility when performing an upgrade. IMPORTANT: A proxy pointing at a proxiable contract should not be considered proxiable itself, because this risks bricking a proxy that upgrades to it, by delegating to itself until out of gas. Thus it is critical that this function revert if invoked through a proxy. This is guaranteed by the `notDelegated` modifier."
      },
      "upgradeTo(address)": {
        "custom:oz-upgrades-unsafe-allow-reachable": "delegatecall",
        "details": "Upgrade the implementation of the proxy to `newImplementation`. Calls {_authorizeUpgrade}. Emits an {Upgraded} event."
      },
      "upgradeToAndCall(address,bytes)": {
        "custom:oz-upgrades-unsafe-allow-reachable": "delegatecall",
        "details": "Upgrade the implementation of the proxy to `newImplementation`, and subsequently execute the function call encoded in `data`. Calls {_authorizeUpgrade}. Emits an {Upgraded} event."
      }
    },
    "stateVariables": {
      "__gap": {
        "details": "This empty reserved space is put in place to allow future versions to add new"
      }
    },
    "title": "Matchings Base Contract",
    "version": 1
  },
  "userdoc": {
    "errors": {
      "InvalidMatchingState(uint64,uint8,uint8)": [
        {
          "notice": "matching errors"
        }
      ]
    },
    "kind": "user",
    "methods": {
      "bidding(uint64,uint256)": {
        "notice": "Function for bidding on a matching"
      },
      "cancelMatching(uint64)": {
        "notice": "Function for canceling a matching"
      },
      "closeMatching(uint64)": {
        "notice": "Function for closing a matching and choosing a winner"
      },
      "getImplementation()": {
        "notice": "Returns the implementation contract"
      },
      "getMatchingBidAmount(uint64,address)": {
        "notice": "Function for getting bid amount of a bidder in a matching"
      },
      "getMatchingBids(uint64)": {
        "notice": "Function for getting bids in a matching"
      },
      "getMatchingBidsCount(uint64)": {
        "notice": "Function for getting the count of bids in a matching"
      },
      "getMatchingWinner(uint64)": {
        "notice": "Function for getting winner of a matching"
      },
      "getMatchingWinners(uint64[])": {
        "notice": "Function for getting winners of a matchings"
      },
      "hasMatchingBid(uint64,address)": {
        "notice": "Function for checking if a bidder has a bid in a matching"
      },
      "initDependencies(address,address)": {
        "notice": "The function to init the dependencies of a matchingsBids."
      },
      "initialize(address,address,address,address,address,address,address)": {
        "notice": "initialize function to initialize the contract and grant the default admin role to the deployer."
      }
    },
    "notice": "This contract serves as the base for managing matchings, their states, and associated actions.",
    "version": 1
  },
  "storageLayout": {
    "storage": [
      {
        "astId": 5186,
        "contract": "src/v0.8/module/matching/MatchingsBids.sol:MatchingsBids",
        "label": "_initialized",
        "offset": 0,
        "slot": "0",
        "type": "t_uint8"
      },
      {
        "astId": 5189,
        "contract": "src/v0.8/module/matching/MatchingsBids.sol:MatchingsBids",
        "label": "_initializing",
        "offset": 1,
        "slot": "0",
        "type": "t_bool"
      },
      {
        "astId": 5168,
        "contract": "src/v0.8/module/matching/MatchingsBids.sol:MatchingsBids",
        "label": "__gap",
        "offset": 0,
        "slot": "1",
        "type": "t_array(t_uint256)50_storage"
      },
      {
        "astId": 5483,
        "contract": "src/v0.8/module/matching/MatchingsBids.sol:MatchingsBids",
        "label": "__gap",
        "offset": 0,
        "slot": "51",
        "type": "t_array(t_uint256)50_storage"
      },
      {
        "astId": 27996,
        "contract": "src/v0.8/module/matching/MatchingsBids.sol:MatchingsBids",
        "label": "matchingBids",
        "offset": 0,
        "slot": "101",
        "type": "t_mapping(t_uint64,t_struct(MatchingBids)35349_storage)"
      },
      {
        "astId": 27998,
        "contract": "src/v0.8/module/matching/MatchingsBids.sol:MatchingsBids",
        "label": "governanceAddress",
        "offset": 0,
        "slot": "102",
        "type": "t_address"
      },
      {
        "astId": 28001,
        "contract": "src/v0.8/module/matching/MatchingsBids.sol:MatchingsBids",
        "label": "roles",
        "offset": 0,
        "slot": "103",
        "type": "t_contract(IRoles)20939"
      },
      {
        "astId": 28004,
        "contract": "src/v0.8/module/matching/MatchingsBids.sol:MatchingsBids",
        "label": "filplus",
        "offset": 0,
        "slot": "104",
        "type": "t_contract(IFilplus)20899"
      },
      {
        "astId": 28007,
        "contract": "src/v0.8/module/matching/MatchingsBids.sol:MatchingsBids",
        "label": "carstore",
        "offset": 0,
        "slot": "105",
        "type": "t_contract(ICarstore)20452"
      },
      {
        "astId": 28010,
        "contract": "src/v0.8/module/matching/MatchingsBids.sol:MatchingsBids",
        "label": "datasets",
        "offset": 0,
        "slot": "106",
        "type": "t_contract(IDatasets)21161"
      },
      {
        "astId": 28013,
        "contract": "src/v0.8/module/matching/MatchingsBids.sol:MatchingsBids",
        "label": "datasetsRequirement",
        "offset": 0,
        "slot": "107",
        "type": "t_contract(IDatasetsRequirement)21497"
      },
      {
        "astId": 28016,
        "contract": "src/v0.8/module/matching/MatchingsBids.sol:MatchingsBids",
        "label": "datasetsProof",
        "offset": 0,
        "slot": "108",
        "type": "t_contract(IDatasetsProof)21426"
      },
      {
        "astId": 28019,
        "contract": "src/v0.8/module/matching/MatchingsBids.sol:MatchingsBids",
        "label": "matchings",
        "offset": 0,
        "slot": "109",
        "type": "t_contract(IMatchings)21643"
      },
      {
        "astId": 28022,
        "contract": "src/v0.8/module/matching/MatchingsBids.sol:MatchingsBids",
        "label": "matchingsTarget",
        "offset": 0,
        "slot": "110",
        "type": "t_contract(IMatchingsTarget)21897"
      },
      {
        "astId": 28027,
        "contract": "src/v0.8/module/matching/MatchingsBids.sol:MatchingsBids",
        "label": "__gap",
        "offset": 0,
        "slot": "111",
        "type": "t_array(t_uint256)32_storage"
      }
    ],
    "types": {
      "t_address": {
        "encoding": "inplace",
        "label": "address",
        "numberOfBytes": "20"
      },
      "t_array(t_struct(Bid)35341_storage)dyn_storage": {
        "base": "t_struct(Bid)35341_storage",
        "encoding": "dynamic_array",
        "label": "struct MatchingType.Bid[]",
        "numberOfBytes": "32"
      },
      "t_array(t_uint256)32_storage": {
        "base": "t_uint256",
        "encoding": "inplace",
        "label": "uint256[32]",
        "numberOfBytes": "1024"
      },
      "t_array(t_uint256)50_storage": {
        "base": "t_uint256",
        "encoding": "inplace",
        "label": "uint256[50]",
        "numberOfBytes": "1600"
      },
      "t_bool": {
        "encoding": "inplace",
        "label": "bool",
        "numberOfBytes": "1"
      },
      "t_contract(ICarstore)20452": {
        "encoding": "inplace",
        "label": "contract ICarstore",
        "numberOfBytes": "20"
      },
      "t_contract(IDatasets)21161": {
        "encoding": "inplace",
        "label": "contract IDatasets",
        "numberOfBytes": "20"
      },
      "t_contract(IDatasetsProof)21426": {
        "encoding": "inplace",
        "label": "contract IDatasetsProof",
        "numberOfBytes": "20"
      },
      "t_contract(IDatasetsRequirement)21497": {
        "encoding": "inplace",
        "label": "contract IDatasetsRequirement",
        "numberOfBytes": "20"
      },
      "t_contract(IFilplus)20899": {
        "encoding": "inplace",
        "label": "contract IFilplus",
        "numberOfBytes": "20"
      },
      "t_contract(IMatchings)21643": {
        "encoding": "inplace",
        "label": "contract IMatchings",
        "numberOfBytes": "20"
      },
      "t_contract(IMatchingsTarget)21897": {
        "encoding": "inplace",
        "label": "contract IMatchingsTarget",
        "numberOfBytes": "20"
      },
      "t_contract(IRoles)20939": {
        "encoding": "inplace",
        "label": "contract IRoles",
        "numberOfBytes": "20"
      },
      "t_mapping(t_uint64,t_struct(MatchingBids)35349_storage)": {
        "encoding": "mapping",
        "key": "t_uint64",
        "label": "mapping(uint64 => struct MatchingType.MatchingBids)",
        "numberOfBytes": "32",
        "value": "t_struct(MatchingBids)35349_storage"
      },
      "t_struct(Bid)35341_storage": {
        "encoding": "inplace",
        "label": "struct MatchingType.Bid",
        "members": [
          {
            "astId": 35336,
            "contract": "src/v0.8/module/matching/MatchingsBids.sol:MatchingsBids",
            "label": "bidder",
            "offset": 0,
            "slot": "0",
            "type": "t_address"
          },
          {
            "astId": 35338,
            "contract": "src/v0.8/module/matching/MatchingsBids.sol:MatchingsBids",
            "label": "bid",
            "offset": 0,
            "slot": "1",
            "type": "t_uint256"
          },
          {
            "astId": 35340,
            "contract": "src/v0.8/module/matching/MatchingsBids.sol:MatchingsBids",
            "label": "complyFilplusRule",
            "offset": 0,
            "slot": "2",
            "type": "t_bool"
          }
        ],
        "numberOfBytes": "96"
      },
      "t_struct(MatchingBids)35349_storage": {
        "encoding": "inplace",
        "label": "struct MatchingType.MatchingBids",
        "members": [
          {
            "astId": 35346,
            "contract": "src/v0.8/module/matching/MatchingsBids.sol:MatchingsBids",
            "label": "bids",
            "offset": 0,
            "slot": "0",
            "type": "t_array(t_struct(Bid)35341_storage)dyn_storage"
          },
          {
            "astId": 35348,
            "contract": "src/v0.8/module/matching/MatchingsBids.sol:MatchingsBids",
            "label": "winner",
            "offset": 0,
            "slot": "1",
            "type": "t_address"
          }
        ],
        "numberOfBytes": "64"
      },
      "t_uint256": {
        "encoding": "inplace",
        "label": "uint256",
        "numberOfBytes": "32"
      },
      "t_uint64": {
        "encoding": "inplace",
        "label": "uint64",
        "numberOfBytes": "8"
      },
      "t_uint8": {
        "encoding": "inplace",
        "label": "uint8",
        "numberOfBytes": "1"
      }
    }
  }
}