{
  "address": "0xCa2c6BDB1c4EB0331F2117bf97B34fF74D76EfEe",
  "abi": [
    {
      "inputs": [
        {
          "internalType": "int256",
          "name": "errorCode",
          "type": "int256"
        }
      ],
      "name": "ActorError",
      "type": "error"
    },
    {
      "inputs": [],
      "name": "ActorNotFound",
      "type": "error"
    },
    {
      "inputs": [
        {
          "internalType": "address",
          "name": "",
          "type": "address"
        }
      ],
      "name": "BeneficiaryAlreadyExist",
      "type": "error"
    },
    {
      "inputs": [
        {
          "internalType": "address",
          "name": "",
          "type": "address"
        }
      ],
      "name": "BeneficiaryIsInvalid",
      "type": "error"
    },
    {
      "inputs": [
        {
          "internalType": "uint256",
          "name": "total",
          "type": "uint256"
        },
        {
          "internalType": "uint256",
          "name": "burn",
          "type": "uint256"
        }
      ],
      "name": "ExceedValidBurnAmount",
      "type": "error"
    },
    {
      "inputs": [
        {
          "internalType": "uint256",
          "name": "total",
          "type": "uint256"
        },
        {
          "internalType": "uint256",
          "name": "collateral",
          "type": "uint256"
        }
      ],
      "name": "ExceedValidCollateralAmount",
      "type": "error"
    },
    {
      "inputs": [
        {
          "internalType": "uint256",
          "name": "total",
          "type": "uint256"
        },
        {
          "internalType": "uint256",
          "name": "payment",
          "type": "uint256"
        }
      ],
      "name": "ExceedValidPaymentAmount",
      "type": "error"
    },
    {
      "inputs": [
        {
          "internalType": "uint256",
          "name": "total",
          "type": "uint256"
        },
        {
          "internalType": "uint256",
          "name": "refund",
          "type": "uint256"
        }
      ],
      "name": "ExceedValidRefundAmount",
      "type": "error"
    },
    {
      "inputs": [
        {
          "internalType": "uint256",
          "name": "total",
          "type": "uint256"
        },
        {
          "internalType": "uint256",
          "name": "transfer",
          "type": "uint256"
        }
      ],
      "name": "ExceedValidTransferAmount",
      "type": "error"
    },
    {
      "inputs": [],
      "name": "FailToCallActor",
      "type": "error"
    },
    {
      "inputs": [
        {
          "internalType": "bytes",
          "name": "addr",
          "type": "bytes"
        }
      ],
      "name": "InvalidAddress",
      "type": "error"
    },
    {
      "inputs": [
        {
          "internalType": "uint64",
          "name": "",
          "type": "uint64"
        }
      ],
      "name": "InvalidCodec",
      "type": "error"
    },
    {
      "inputs": [],
      "name": "InvalidResponseLength",
      "type": "error"
    },
    {
      "inputs": [
        {
          "internalType": "uint256",
          "name": "balance",
          "type": "uint256"
        },
        {
          "internalType": "uint256",
          "name": "value",
          "type": "uint256"
        }
      ],
      "name": "NotEnoughBalance",
      "type": "error"
    },
    {
      "inputs": [],
      "name": "NotRefundableAmount",
      "type": "error"
    },
    {
      "inputs": [],
      "name": "OnlySpecifyTypeAllowedTransfer",
      "type": "error"
    },
    {
      "inputs": [
        {
          "internalType": "address",
          "name": "",
          "type": "address"
        }
      ],
      "name": "SubAccountAlreadyExist",
      "type": "error"
    },
    {
      "anonymous": false,
      "inputs": [
        {
          "indexed": false,
          "internalType": "address",
          "name": "previousAdmin",
          "type": "address"
        },
        {
          "indexed": false,
          "internalType": "address",
          "name": "newAdmin",
          "type": "address"
        }
      ],
      "name": "AdminChanged",
      "type": "event"
    },
    {
      "anonymous": false,
      "inputs": [
        {
          "indexed": true,
          "internalType": "address",
          "name": "beacon",
          "type": "address"
        }
      ],
      "name": "BeaconUpgraded",
      "type": "event"
    },
    {
      "anonymous": false,
      "inputs": [
        {
          "indexed": false,
          "internalType": "enum EscrowType.Type",
          "name": "_type",
          "type": "uint8"
        },
        {
          "indexed": true,
          "internalType": "address",
          "name": "_owner",
          "type": "address"
        },
        {
          "indexed": false,
          "internalType": "uint64",
          "name": "_id",
          "type": "uint64"
        },
        {
          "indexed": false,
          "internalType": "uint256",
          "name": "_attoFILAmount",
          "type": "uint256"
        }
      ],
      "name": "Burn",
      "type": "event"
    },
    {
      "anonymous": false,
      "inputs": [
        {
          "indexed": false,
          "internalType": "enum EscrowType.Type",
          "name": "_type",
          "type": "uint8"
        },
        {
          "indexed": true,
          "internalType": "address",
          "name": "_owner",
          "type": "address"
        },
        {
          "indexed": false,
          "internalType": "uint64",
          "name": "_id",
          "type": "uint64"
        },
        {
          "indexed": false,
          "internalType": "uint256",
          "name": "_attoFILAmount",
          "type": "uint256"
        }
      ],
      "name": "Collateral",
      "type": "event"
    },
    {
      "anonymous": false,
      "inputs": [
        {
          "indexed": false,
          "internalType": "uint8",
          "name": "version",
          "type": "uint8"
        }
      ],
      "name": "Initialized",
      "type": "event"
    },
    {
      "anonymous": false,
      "inputs": [
        {
          "indexed": false,
          "internalType": "enum EscrowType.Type",
          "name": "_type",
          "type": "uint8"
        },
        {
          "indexed": true,
          "internalType": "address",
          "name": "_owner",
          "type": "address"
        },
        {
          "indexed": false,
          "internalType": "uint64",
          "name": "_id",
          "type": "uint64"
        },
        {
          "indexed": false,
          "internalType": "uint256",
          "name": "_attoFILAmount",
          "type": "uint256"
        }
      ],
      "name": "Payment",
      "type": "event"
    },
    {
      "anonymous": false,
      "inputs": [
        {
          "indexed": false,
          "internalType": "enum EscrowType.Type",
          "name": "_type",
          "type": "uint8"
        },
        {
          "indexed": true,
          "internalType": "address",
          "name": "_owner",
          "type": "address"
        },
        {
          "indexed": false,
          "internalType": "uint64",
          "name": "_id",
          "type": "uint64"
        },
        {
          "indexed": true,
          "internalType": "address",
          "name": "_beneficiary",
          "type": "address"
        },
        {
          "indexed": false,
          "internalType": "uint256",
          "name": "_attoFILAmount",
          "type": "uint256"
        }
      ],
      "name": "PaymentRefund",
      "type": "event"
    },
    {
      "anonymous": false,
      "inputs": [
        {
          "indexed": false,
          "internalType": "enum EscrowType.Type",
          "name": "_type",
          "type": "uint8"
        },
        {
          "indexed": true,
          "internalType": "address",
          "name": "_owner",
          "type": "address"
        },
        {
          "indexed": false,
          "internalType": "uint64",
          "name": "_id",
          "type": "uint64"
        },
        {
          "indexed": true,
          "internalType": "address",
          "name": "_beneficiary",
          "type": "address"
        },
        {
          "indexed": false,
          "internalType": "uint256",
          "name": "_attoFILAmount",
          "type": "uint256"
        }
      ],
      "name": "PaymentSingleBeneficiary",
      "type": "event"
    },
    {
      "anonymous": false,
      "inputs": [
        {
          "indexed": false,
          "internalType": "enum EscrowType.Type",
          "name": "_type",
          "type": "uint8"
        },
        {
          "indexed": true,
          "internalType": "address",
          "name": "_owner",
          "type": "address"
        },
        {
          "indexed": false,
          "internalType": "uint64",
          "name": "_id",
          "type": "uint64"
        },
        {
          "indexed": false,
          "internalType": "uint256",
          "name": "_attoFILAmount",
          "type": "uint256"
        }
      ],
      "name": "PaymentTransfer",
      "type": "event"
    },
    {
      "anonymous": false,
      "inputs": [
        {
          "indexed": false,
          "internalType": "enum EscrowType.Type",
          "name": "_type",
          "type": "uint8"
        },
        {
          "indexed": true,
          "internalType": "address",
          "name": "_owner",
          "type": "address"
        },
        {
          "indexed": false,
          "internalType": "uint64",
          "name": "_id",
          "type": "uint64"
        },
        {
          "indexed": true,
          "internalType": "address",
          "name": "_beneficiary",
          "type": "address"
        },
        {
          "indexed": false,
          "internalType": "uint256",
          "name": "_attoFILAmount",
          "type": "uint256"
        }
      ],
      "name": "PaymentWithdrawn",
      "type": "event"
    },
    {
      "anonymous": false,
      "inputs": [
        {
          "indexed": false,
          "internalType": "enum EscrowType.Type",
          "name": "_type",
          "type": "uint8"
        },
        {
          "indexed": true,
          "internalType": "address",
          "name": "_owner",
          "type": "address"
        },
        {
          "indexed": false,
          "internalType": "uint64",
          "name": "_id",
          "type": "uint64"
        },
        {
          "indexed": false,
          "internalType": "uint256",
          "name": "_attoFILAmount",
          "type": "uint256"
        }
      ],
      "name": "UpdateCollateral",
      "type": "event"
    },
    {
      "anonymous": false,
      "inputs": [
        {
          "indexed": false,
          "internalType": "enum EscrowType.Type",
          "name": "_type",
          "type": "uint8"
        },
        {
          "indexed": true,
          "internalType": "address",
          "name": "_owner",
          "type": "address"
        },
        {
          "indexed": false,
          "internalType": "uint64",
          "name": "_id",
          "type": "uint64"
        },
        {
          "indexed": false,
          "internalType": "address",
          "name": "_beneficiary",
          "type": "address"
        },
        {
          "indexed": false,
          "internalType": "uint256",
          "name": "_attoFILAmount",
          "type": "uint256"
        }
      ],
      "name": "UpdatePaymentBeneficiary",
      "type": "event"
    },
    {
      "anonymous": false,
      "inputs": [
        {
          "indexed": false,
          "internalType": "enum EscrowType.Type",
          "name": "_type",
          "type": "uint8"
        },
        {
          "indexed": true,
          "internalType": "address",
          "name": "_owner",
          "type": "address"
        },
        {
          "indexed": false,
          "internalType": "uint64",
          "name": "_id",
          "type": "uint64"
        },
        {
          "indexed": true,
          "internalType": "address",
          "name": "_beneficiary",
          "type": "address"
        },
        {
          "indexed": false,
          "internalType": "uint256",
          "name": "_attoFILAmount",
          "type": "uint256"
        }
      ],
      "name": "UpdatePaymentLock",
      "type": "event"
    },
    {
      "anonymous": false,
      "inputs": [
        {
          "indexed": false,
          "internalType": "enum EscrowType.Type",
          "name": "_type",
          "type": "uint8"
        },
        {
          "indexed": true,
          "internalType": "address",
          "name": "_owner",
          "type": "address"
        },
        {
          "indexed": false,
          "internalType": "uint64",
          "name": "_id",
          "type": "uint64"
        },
        {
          "indexed": true,
          "internalType": "address",
          "name": "_beneficiary",
          "type": "address"
        },
        {
          "indexed": false,
          "internalType": "uint256",
          "name": "_attoFILAmount",
          "type": "uint256"
        }
      ],
      "name": "UpdatePaymentSubAccount",
      "type": "event"
    },
    {
      "anonymous": false,
      "inputs": [
        {
          "indexed": true,
          "internalType": "address",
          "name": "implementation",
          "type": "address"
        }
      ],
      "name": "Upgraded",
      "type": "event"
    },
    {
      "anonymous": false,
      "inputs": [
        {
          "indexed": false,
          "internalType": "enum EscrowType.Type",
          "name": "_type",
          "type": "uint8"
        },
        {
          "indexed": true,
          "internalType": "address",
          "name": "_owner",
          "type": "address"
        },
        {
          "indexed": false,
          "internalType": "uint64",
          "name": "_id",
          "type": "uint64"
        },
        {
          "indexed": false,
          "internalType": "uint256",
          "name": "_attoFILAmount",
          "type": "uint256"
        }
      ],
      "name": "Withdrawn",
      "type": "event"
    },
    {
      "inputs": [],
      "name": "BURN_ADDRESS",
      "outputs": [
        {
          "internalType": "address payable",
          "name": "",
          "type": "address"
        }
      ],
      "stateMutability": "view",
      "type": "function"
    },
    {
      "inputs": [
        {
          "internalType": "enum EscrowType.Type",
          "name": "_type",
          "type": "uint8"
        },
        {
          "internalType": "address",
          "name": "_owner",
          "type": "address"
        },
        {
          "internalType": "uint64",
          "name": "_id",
          "type": "uint64"
        },
        {
          "internalType": "uint256",
          "name": "_amount",
          "type": "uint256"
        }
      ],
      "name": "collateral",
      "outputs": [],
      "stateMutability": "payable",
      "type": "function"
    },
    {
      "inputs": [
        {
          "internalType": "enum EscrowType.Type",
          "name": "_type",
          "type": "uint8"
        },
        {
          "internalType": "address",
          "name": "_owner",
          "type": "address"
        },
        {
          "internalType": "uint64",
          "name": "_id",
          "type": "uint64"
        }
      ],
      "name": "collateralRedeem",
      "outputs": [],
      "stateMutability": "nonpayable",
      "type": "function"
    },
    {
      "inputs": [
        {
          "internalType": "enum EscrowType.Type",
          "name": "_type",
          "type": "uint8"
        },
        {
          "internalType": "address",
          "name": "_owner",
          "type": "address"
        },
        {
          "internalType": "uint64",
          "name": "_id",
          "type": "uint64"
        },
        {
          "internalType": "enum EscrowType.CollateralEvent",
          "name": "_event",
          "type": "uint8"
        }
      ],
      "name": "emitCollateralUpdate",
      "outputs": [],
      "stateMutability": "nonpayable",
      "type": "function"
    },
    {
      "inputs": [
        {
          "internalType": "enum EscrowType.Type",
          "name": "_type",
          "type": "uint8"
        },
        {
          "internalType": "address",
          "name": "_owner",
          "type": "address"
        },
        {
          "internalType": "uint64",
          "name": "_id",
          "type": "uint64"
        },
        {
          "internalType": "address",
          "name": "_beneficiary",
          "type": "address"
        },
        {
          "internalType": "enum EscrowType.PaymentEvent",
          "name": "_event",
          "type": "uint8"
        }
      ],
      "name": "emitPaymentUpdate",
      "outputs": [],
      "stateMutability": "nonpayable",
      "type": "function"
    },
    {
      "inputs": [
        {
          "internalType": "enum EscrowType.Type",
          "name": "_type",
          "type": "uint8"
        },
        {
          "internalType": "address",
          "name": "_owner",
          "type": "address"
        },
        {
          "internalType": "uint64",
          "name": "_id",
          "type": "uint64"
        }
      ],
      "name": "getBeneficiariesList",
      "outputs": [
        {
          "internalType": "address[]",
          "name": "",
          "type": "address[]"
        }
      ],
      "stateMutability": "view",
      "type": "function"
    },
    {
      "inputs": [
        {
          "internalType": "enum EscrowType.Type",
          "name": "_type",
          "type": "uint8"
        },
        {
          "internalType": "address",
          "name": "_owner",
          "type": "address"
        },
        {
          "internalType": "uint64",
          "name": "_id",
          "type": "uint64"
        },
        {
          "internalType": "address",
          "name": "_beneficiary",
          "type": "address"
        }
      ],
      "name": "getBeneficiaryFund",
      "outputs": [
        {
          "internalType": "uint256",
          "name": "",
          "type": "uint256"
        },
        {
          "internalType": "uint256",
          "name": "",
          "type": "uint256"
        },
        {
          "internalType": "uint256",
          "name": "",
          "type": "uint256"
        },
        {
          "internalType": "uint256",
          "name": "",
          "type": "uint256"
        },
        {
          "internalType": "uint64",
          "name": "",
          "type": "uint64"
        }
      ],
      "stateMutability": "view",
      "type": "function"
    },
    {
      "inputs": [],
      "name": "getImplementation",
      "outputs": [
        {
          "internalType": "address",
          "name": "",
          "type": "address"
        }
      ],
      "stateMutability": "view",
      "type": "function"
    },
    {
      "inputs": [
        {
          "internalType": "enum EscrowType.Type",
          "name": "_type",
          "type": "uint8"
        },
        {
          "internalType": "address",
          "name": "_owner",
          "type": "address"
        },
        {
          "internalType": "uint64",
          "name": "_id",
          "type": "uint64"
        }
      ],
      "name": "getOwnerBurned",
      "outputs": [
        {
          "internalType": "uint256",
          "name": "",
          "type": "uint256"
        }
      ],
      "stateMutability": "view",
      "type": "function"
    },
    {
      "inputs": [
        {
          "internalType": "enum EscrowType.Type",
          "name": "_type",
          "type": "uint8"
        },
        {
          "internalType": "address",
          "name": "_owner",
          "type": "address"
        },
        {
          "internalType": "uint64",
          "name": "_id",
          "type": "uint64"
        }
      ],
      "name": "getOwnerCollateral",
      "outputs": [
        {
          "internalType": "uint256",
          "name": "",
          "type": "uint256"
        }
      ],
      "stateMutability": "view",
      "type": "function"
    },
    {
      "inputs": [
        {
          "internalType": "enum EscrowType.Type",
          "name": "_type",
          "type": "uint8"
        },
        {
          "internalType": "address",
          "name": "_owner",
          "type": "address"
        },
        {
          "internalType": "uint64",
          "name": "_id",
          "type": "uint64"
        }
      ],
      "name": "getOwnerCreatedBlockNumber",
      "outputs": [
        {
          "internalType": "uint64",
          "name": "",
          "type": "uint64"
        }
      ],
      "stateMutability": "view",
      "type": "function"
    },
    {
      "inputs": [
        {
          "internalType": "enum EscrowType.Type",
          "name": "_type",
          "type": "uint8"
        },
        {
          "internalType": "address",
          "name": "_owner",
          "type": "address"
        },
        {
          "internalType": "uint64",
          "name": "_id",
          "type": "uint64"
        }
      ],
      "name": "getOwnerLock",
      "outputs": [
        {
          "internalType": "uint256",
          "name": "",
          "type": "uint256"
        }
      ],
      "stateMutability": "view",
      "type": "function"
    },
    {
      "inputs": [
        {
          "internalType": "enum EscrowType.Type",
          "name": "_type",
          "type": "uint8"
        },
        {
          "internalType": "address",
          "name": "_owner",
          "type": "address"
        },
        {
          "internalType": "uint64",
          "name": "_id",
          "type": "uint64"
        }
      ],
      "name": "getOwnerTotal",
      "outputs": [
        {
          "internalType": "uint256",
          "name": "",
          "type": "uint256"
        }
      ],
      "stateMutability": "view",
      "type": "function"
    },
    {
      "inputs": [
        {
          "internalType": "address",
          "name": "_datasetsProof",
          "type": "address"
        },
        {
          "internalType": "address",
          "name": "_storages",
          "type": "address"
        },
        {
          "internalType": "address",
          "name": "_datacaps",
          "type": "address"
        }
      ],
      "name": "initDependencies",
      "outputs": [],
      "stateMutability": "nonpayable",
      "type": "function"
    },
    {
      "inputs": [
        {
          "internalType": "address",
          "name": "_roles",
          "type": "address"
        }
      ],
      "name": "initialize",
      "outputs": [],
      "stateMutability": "nonpayable",
      "type": "function"
    },
    {
      "inputs": [
        {
          "internalType": "enum EscrowType.Type",
          "name": "_type",
          "type": "uint8"
        },
        {
          "internalType": "address",
          "name": "_owner",
          "type": "address"
        },
        {
          "internalType": "uint64",
          "name": "_id",
          "type": "uint64"
        },
        {
          "internalType": "uint256",
          "name": "_amount",
          "type": "uint256"
        }
      ],
      "name": "payment",
      "outputs": [],
      "stateMutability": "payable",
      "type": "function"
    },
    {
      "inputs": [
        {
          "internalType": "enum EscrowType.Type",
          "name": "_type",
          "type": "uint8"
        },
        {
          "internalType": "address",
          "name": "_owner",
          "type": "address"
        },
        {
          "internalType": "uint64",
          "name": "_id",
          "type": "uint64"
        }
      ],
      "name": "paymentRefund",
      "outputs": [],
      "stateMutability": "nonpayable",
      "type": "function"
    },
    {
      "inputs": [
        {
          "internalType": "enum EscrowType.Type",
          "name": "_type",
          "type": "uint8"
        },
        {
          "internalType": "address",
          "name": "_owner",
          "type": "address"
        },
        {
          "internalType": "uint64",
          "name": "_id",
          "type": "uint64"
        },
        {
          "internalType": "address",
          "name": "_beneficiary",
          "type": "address"
        },
        {
          "internalType": "uint256",
          "name": "_amount",
          "type": "uint256"
        }
      ],
      "name": "paymentSingleBeneficiary",
      "outputs": [],
      "stateMutability": "payable",
      "type": "function"
    },
    {
      "inputs": [
        {
          "internalType": "enum EscrowType.Type",
          "name": "_type",
          "type": "uint8"
        },
        {
          "internalType": "address",
          "name": "_owner",
          "type": "address"
        },
        {
          "internalType": "uint64",
          "name": "_id",
          "type": "uint64"
        },
        {
          "internalType": "uint256",
          "name": "_amount",
          "type": "uint256"
        }
      ],
      "name": "paymentTransfer",
      "outputs": [],
      "stateMutability": "nonpayable",
      "type": "function"
    },
    {
      "inputs": [
        {
          "internalType": "enum EscrowType.Type",
          "name": "_type",
          "type": "uint8"
        },
        {
          "internalType": "address",
          "name": "_owner",
          "type": "address"
        },
        {
          "internalType": "uint64",
          "name": "_id",
          "type": "uint64"
        },
        {
          "internalType": "address",
          "name": "_beneficiary",
          "type": "address"
        }
      ],
      "name": "paymentWithdraw",
      "outputs": [],
      "stateMutability": "nonpayable",
      "type": "function"
    },
    {
      "inputs": [],
      "name": "proxiableUUID",
      "outputs": [
        {
          "internalType": "bytes32",
          "name": "",
          "type": "bytes32"
        }
      ],
      "stateMutability": "view",
      "type": "function"
    },
    {
      "inputs": [
        {
          "internalType": "address",
          "name": "newImplementation",
          "type": "address"
        }
      ],
      "name": "upgradeTo",
      "outputs": [],
      "stateMutability": "nonpayable",
      "type": "function"
    },
    {
      "inputs": [
        {
          "internalType": "address",
          "name": "newImplementation",
          "type": "address"
        },
        {
          "internalType": "bytes",
          "name": "data",
          "type": "bytes"
        }
      ],
      "name": "upgradeToAndCall",
      "outputs": [],
      "stateMutability": "payable",
      "type": "function"
    },
    {
      "inputs": [
        {
          "internalType": "enum EscrowType.Type",
          "name": "_type",
          "type": "uint8"
        },
        {
          "internalType": "address payable",
          "name": "_owner",
          "type": "address"
        },
        {
          "internalType": "uint64",
          "name": "_id",
          "type": "uint64"
        }
      ],
      "name": "withdraw",
      "outputs": [],
      "stateMutability": "nonpayable",
      "type": "function"
    }
  ],
  "numDeployments": 1,
  "solcInputHash": "9021cb8d818084f87f27b3e6df282435",
  "bytecode": "0x60a06040523060805234801561001457600080fd5b50608051614c0261004c600039600081816104f20152818161053b01528181610773015281816107b30152610ae70152614c026000f3fe60806040526004361061011b5760003560e01c80631054f837146101205780633659cfe61461014257806337cdcc9b1461016257806341279ee2146101825780634b5af90a146101b85780634f1ef286146101e557806351166ac8146101f857806352d1902d14610229578063656c66281461023e57806372e7cf181461025e5780637916b397146102715780638afcc8ce14610291578063938a6b0d146102b1578063aaf10f42146102d1578063ba6555ec146102f3578063c190abc414610313578063c23732b614610333578063c4d66de814610360578063cb0786c614610380578063ce37bde7146103a0578063d8ea185e146103b3578063ea12c742146103d3578063f39b9c51146103e6578063fccc281314610406575b600080fd5b34801561012c57600080fd5b5061014061013b366004613ca2565b610421565b005b34801561014e57600080fd5b5061014061015d366004613cf2565b6104e8565b34801561016e57600080fd5b5061014061017d366004613d13565b6105b9565b34801561018e57600080fd5b506101a261019d366004613ca2565b610691565b6040516101af9190613d61565b60405180910390f35b3480156101c457600080fd5b506101d86101d3366004613ca2565b6106fc565b6040516101af9190613d78565b6101406101f3366004613e8b565b610769565b34801561020457600080fd5b50610218610213366004613ee2565b610822565b6040516101af959493929190613f46565b34801561023557600080fd5b506101a2610ada565b34801561024a57600080fd5b50610140610259366004613fa0565b610b37565b61014061026c366004614009565b610bad565b34801561027d57600080fd5b506101a261028c366004613ca2565b610d64565b34801561029d57600080fd5b506101406102ac366004613ca2565b610dd1565b3480156102bd57600080fd5b506101a26102cc366004613ca2565b611030565b3480156102dd57600080fd5b506102e661109d565b6040516101af919061408a565b3480156102ff57600080fd5b5061014061030e366004614098565b6110ac565b34801561031f57600080fd5b5061014061032e366004613ee2565b6111bb565b34801561033f57600080fd5b5061035361034e366004613ca2565b61127a565b6040516101af919061414d565b34801561036c57600080fd5b5061014061037b366004613cf2565b61133a565b34801561038c57600080fd5b5061014061039b366004613ca2565b61142b565b6101406103ae366004614098565b61143d565b3480156103bf57600080fd5b506101406103ce366004614176565b61154b565b6101406103e1366004614098565b6115fb565b3480156103f257600080fd5b506101a2610401366004613ca2565b6116bb565b34801561041257600080fd5b506102e6606360ff60981b0181565b60006104896065600086600781111561043c5761043c6141e1565b600781111561044d5761044d6141e1565b8152602080820192909252604090810160009081206001600160a01b038816825283528181206001600160401b03871682529092529020611728565b905061049d61049784611774565b826117b7565b826001600160a01b03167f9ccf10f668293516a0d1338249a1982941370c884ac59080376da8f1bf727dde8584846040516104da93929190614225565b60405180910390a250505050565b6001600160a01b037f00000000000000000000000000000000000000000000000000000000000000001630036105395760405162461bcd60e51b815260040161053090614287565b60405180910390fd5b7f00000000000000000000000000000000000000000000000000000000000000006001600160a01b031661056b6117ff565b6001600160a01b0316146105915760405162461bcd60e51b8152600401610530906142ce565b61059a8161181b565b604080516000808252602082019092526105b6918391906118af565b50565b606654604051632474521560e21b81526001600160a01b039091169060009082906391d14854906105f090849033906004016142de565b602060405180830381865afa15801561060d573d6000803e3d6000fd5b505050506040513d601f19601f82011682018060405250810190610631919061430c565b61064d5760405162461bcd60e51b815260040161053090614361565b5050606780546001600160a01b039384166001600160a01b031991821617909155606880549284169282169290921790915560698054939092169216919091179055565b6000606560008560078111156106a9576106a96141e1565b60078111156106ba576106ba6141e1565b8152602080820192909252604090810160009081206001600160a01b038716825283528181206001600160401b038616825290925290205490505b9392505050565b600060656000856007811115610714576107146141e1565b6007811115610725576107256141e1565b8152602080820192909252604090810160009081206001600160a01b038716825283528181206001600160401b038087168352935220600401541690509392505050565b6001600160a01b037f00000000000000000000000000000000000000000000000000000000000000001630036107b15760405162461bcd60e51b815260040161053090614287565b7f00000000000000000000000000000000000000000000000000000000000000006001600160a01b03166107e36117ff565b6001600160a01b0316146108095760405162461bcd60e51b8152600401610530906142ce565b6108128261181b565b61081e828260016118af565b5050565b6000806000806000606560008a6007811115610840576108406141e1565b6007811115610851576108516141e1565b8152602080820192909252604090810160009081206001600160a01b03808d1683529084528282206001600160401b038c1683528452828220908a168252600601909252812054906065908b60078111156108ae576108ae6141e1565b60078111156108bf576108bf6141e1565b8152602080820192909252604090810160009081206001600160a01b03808e1683529084528282206001600160401b038d1683528452828220908b168252600601909252812060010154906065908c600781111561091f5761091f6141e1565b6007811115610930576109306141e1565b8152602080820192909252604090810160009081206001600160a01b03808f1683529084528282206001600160401b038e1683528452828220908c168252600601909252812060020154906065908d6007811115610990576109906141e1565b60078111156109a1576109a16141e1565b815260200190815260200160002060008c6001600160a01b03166001600160a01b0316815260200190815260200160002060008b6001600160401b0316815260200190815260200160002060060160008a6001600160a01b03166001600160a01b0316815260200190815260200160002060030154606560008e6007811115610a2c57610a2c6141e1565b6007811115610a3d57610a3d6141e1565b815260200190815260200160002060008d6001600160a01b03166001600160a01b0316815260200190815260200160002060008c6001600160401b0316815260200190815260200160002060060160008b6001600160a01b03166001600160a01b0316815260200190815260200160002060040160009054906101000a90046001600160401b031694509450945094509450945094509450945094565b6000306001600160a01b037f00000000000000000000000000000000000000000000000000000000000000001614610b245760405162461bcd60e51b8152600401610530906143c6565b50600080516020614b8683398151915290565b6000816001811115610b4b57610b4b6141e1565b03610b71576000610b5d858585611991565b9050610b6b85858584611a3c565b50610ba7565b6001816001811115610b8557610b856141e1565b03610ba7576000610b97858585611af4565b9050610ba585858584611c57565b505b50505050565b3481811015610bd357808260405163e5c453b560e01b81526004016105309291906143d6565b610c3b8160656000896007811115610bed57610bed6141e1565b6007811115610bfe57610bfe6141e1565b8152602080820192909252604090810160009081206001600160a01b038b16825283528181206001600160401b038a168252909252902090611cfc565b610ca38260656000896007811115610c5557610c556141e1565b6007811115610c6657610c666141e1565b8152602080820192909252604090810160009081206001600160a01b038b16825283528181206001600160401b038a168252909252902090611d19565b610d0d8383606560008a6007811115610cbe57610cbe6141e1565b6007811115610ccf57610ccf6141e1565b8152602080820192909252604090810160009081206001600160a01b038c16825283528181206001600160401b038b16825290925290209190611db8565b826001600160a01b0316856001600160a01b03167f5dd43df7132d52fd317b43f88f5dc18a7542068d4a114937f85fa9d47b51a3d5888786604051610d5493929190614225565b60405180910390a3505050505050565b600060656000856007811115610d7c57610d7c6141e1565b6007811115610d8d57610d8d6141e1565b8152602080820192909252604090810160009081206001600160a01b038716825283528181206001600160401b038616825290925290206003015490509392505050565b606754610dec908490849084906001600160a01b0316611f82565b1515600114610e0e5760405163dee2a80b60e01b815260040160405180910390fd5b600060656000856007811115610e2657610e266141e1565b6007811115610e3757610e376141e1565b8152602080820192909252604090810160009081206001600160a01b038716825283528181206001600160401b038616825290925281206005019150805b8254811015610f7657610f0b838281548110610e9357610e936143f1565b60009182526020822001546001600160a01b031690606590896007811115610ebd57610ebd6141e1565b6007811115610ece57610ece6141e1565b8152602080820192909252604090810160009081206001600160a01b038b16825283528181206001600160401b038a168252909252902090612335565b9150828181548110610f1f57610f1f6143f1565b6000918252602090912001546040516001600160a01b0391821691871690600080516020614b4683398151915290610f5c908a9089908890614225565b60405180910390a380610f6e8161441d565b915050610e75565b50610fe360656000876007811115610f9057610f906141e1565b6007811115610fa157610fa16141e1565b8152602080820192909252604090810160009081206001600160a01b038916825283528181206001600160401b03881682529092528120600101805491905590565b90508015610ba55760006001600160a01b0316846001600160a01b0316600080516020614b4683398151915287868560405161102193929190614225565b60405180910390a35050505050565b600060656000856007811115611048576110486141e1565b6007811115611059576110596141e1565b8152602080820192909252604090810160009081206001600160a01b038716825283528181206001600160401b038616825290925290206001015490509392505050565b60006110a76117ff565b905090565b82336001600160a01b038216146110d55760405162461bcd60e51b81526004016105309061446b565b60058560078111156110e9576110e96141e1565b146111075760405163cd67c99d60e01b815260040160405180910390fd5b61116f8260656000886007811115611121576111216141e1565b6007811115611132576111326141e1565b8152602080820192909252604090810160009081206001600160a01b038a16825283528181206001600160401b038916825290925290209061241b565b836001600160a01b03167f737bc06728eac2f65eaa15ae7004e53560b53dbeb79ecfa90949050638ecc3f28685856040516111ac93929190614225565b60405180910390a25050505050565b600061122582606560008860078111156111d7576111d76141e1565b60078111156111e8576111e86141e1565b8152602080820192909252604090810160009081206001600160a01b038a16825283528181206001600160401b038916825290925290209061245f565b905061123361049783611774565b816001600160a01b0316846001600160a01b03167f6c0be515497374ca368522d4e81d9fe03076c933939c1fd6a11385e5c5b0f98f87868560405161102193929190614225565b606060656000856007811115611292576112926141e1565b60078111156112a3576112a36141e1565b8152602080820192909252604090810160009081206001600160a01b038716825283528181206001600160401b038616825283528190206005018054825181850281018501909352808352919290919083018282801561132c57602002820191906000526020600020905b81546001600160a01b0316815260019091019060200180831161130e575b505050505090509392505050565b600054610100900460ff161580801561135a5750600054600160ff909116105b8061137b5750611369306124fe565b15801561137b575060005460ff166001145b6113975760405162461bcd60e51b8152600401610530906144c6565b6000805460ff1916600117905580156113ba576000805461ff0019166101001790555b606680546001600160a01b0319166001600160a01b0384161790556113dd61250d565b801561081e576000805461ff00191690556040517f7f26b83ff96e1f2b6a682f133852f6798a09c465da95921460cefb38474024989061141f906001906144ea565b60405180910390a15050565b6114388383836001610b37565b505050565b346114a68160656000886007811115611458576114586141e1565b6007811115611469576114696141e1565b8152602080820192909252604090810160009081206001600160a01b038a16825283528181206001600160401b0389168252909252902090611cfc565b61150e82606560008860078111156114c0576114c06141e1565b60078111156114d1576114d16141e1565b8152602080820192909252604090810160009081206001600160a01b038a16825283528181206001600160401b0389168252909252902090612536565b836001600160a01b03167ff1978664b2832761807daf0ded155154e67a78ce72ffd418c03368b29cb690b08685856040516111ac93929190614225565b600081600281111561155f5761155f6141e1565b03611587576000611572868686866125b1565b905061158186868686856126ba565b50610ba5565b600181600281111561159b5761159b6141e1565b036115bd5760006115ae8686868661276b565b9050611581868686868561282a565b60028160028111156115d1576115d16141e1565b03610ba55760006115e4868686866128d3565b90506115f38686868685612b10565b505050505050565b346116168160656000886007811115611458576114586141e1565b61167e8260656000886007811115611630576116306141e1565b6007811115611641576116416141e1565b8152602080820192909252604090810160009081206001600160a01b038a16825283528181206001600160401b0389168252909252902090611d19565b836001600160a01b03167fb153f294632a4d7487c6d696762dd3c30d57754ba6ac8ed0f08c6bd96ec62ec58685856040516111ac93929190614225565b6000606560008560078111156116d3576116d36141e1565b60078111156116e4576116e46141e1565b8152602080820192909252604090810160009081206001600160a01b038716825283528181206001600160401b038616825290925290206002015490509392505050565b6001810154600282015482546000928392909161174591906144f8565b61174f91906144f8565b90508083600001600001600082825461176891906144f8565b90915550909392505050565b60408051602081019091526060815260405180602001604052808360405160200161179f9190614533565b60408051601f19818403018152919052905292915050565b81516040805160008082526020820190925290916117db9183908190866000612da9565b9050805160001461143857604051630e74990760e01b815260040160405180910390fd5b600080516020614b86833981519152546001600160a01b031690565b606654604051632474521560e21b81526001600160a01b039091169060009082906391d148549061185290849033906004016142de565b602060405180830381865afa15801561186f573d6000803e3d6000fd5b505050506040513d601f19601f82011682018060405250810190611893919061430c565b6114385760405162461bcd60e51b815260040161053090614361565b7f4910fdfa16fed3260ed0e7147f7cc6da11a60208b5b9406d12a635614ffd91435460ff16156118e25761143883612eaa565b826001600160a01b03166352d1902d6040518163ffffffff1660e01b8152600401602060405180830381865afa92505050801561193c575060408051601f3d908101601f191682019092526119399181019061455e565b60015b6119585760405162461bcd60e51b8152600401610530906145ca565b600080516020614b8683398151915281146119855760405162461bcd60e51b815260040161053090614620565b50611438838383612efe565b6000606560008560078111156119a9576119a96141e1565b60078111156119ba576119ba6141e1565b8152602080820192909252604090810160009081206001600160a01b038716825283528181206001600160401b03861682529092528120600301549003611a32576001846007811115611a0f57611a0f6141e1565b03611a3257606854611a2b9083906001600160a01b0316612f23565b90506106f5565b5060009392505050565b611aa48160656000876007811115611a5657611a566141e1565b6007811115611a6757611a676141e1565b8152602080820192909252604090810160009081206001600160a01b038916825283528181206001600160401b0388168252909252902090612f93565b611ab7610497606360ff60981b01611774565b826001600160a01b03167face2e7cd57fcab72c26e0619b66587ba03740fe156d60d70328f2c5e48406f008584846040516104da93929190614225565b60008060656000866007811115611b0d57611b0d6141e1565b6007811115611b1e57611b1e6141e1565b8152602080820192909252604090810160009081206001600160a01b038816825283528181206001600160401b038716825290925290206002015490508015611c4f576000856007811115611b7557611b756141e1565b03611bb557606754606954611bae9185916001600160a01b039182169116611b9e8989856106fc565b611ba98a8a8a610691565b61300c565b9050611c4f565b6001856007811115611bc957611bc96141e1565b03611c4f5760656000866007811115611be457611be46141e1565b6007811115611bf557611bf56141e1565b8152602080820192909252604090810160009081206001600160a01b0380891683529084528282206001600160401b038816835290935220600301546068549091611c4291869116613361565b611c4c91906144f8565b90505b949350505050565b611cbf8160656000876007811115611c7157611c716141e1565b6007811115611c8257611c826141e1565b8152602080820192909252604090810160009081206001600160a01b038916825283528181206001600160401b0388168252909252902090613390565b826001600160a01b03167f0f3003e0f346f0c0389d24d73cffa6ab50447c7107ae5a2623d0024f1a416d438584846040516104da93929190614225565b815481908390600090611d10908490614630565b90915550505050565b600282015460018301548354839291611d31916144f8565b611d3b91906144f8565b1015611d7d57600282015460018301548354611d5791906144f8565b611d6191906144f8565b8160405163e5c453b560e01b81526004016105309291906143d6565b80826000016001016000828254611d949190614630565b90915550505060040180546001600160401b031916436001600160401b0316179055565b6001600160a01b03821660009081526006840160205260409020600401546001600160401b031615611dff578160405163358499bd60e11b8152600401610530919061408a565b80600003611e0c57505050565b6000805b6005850154811015611e7a57846006016000866005018381548110611e3757611e376143f1565b60009182526020808320909101546001600160a01b03168352820192909252604001902054611e669083614630565b915080611e728161441d565b915050611e10565b5060018401548290611e8d9083906144f8565b1015611ebf576001840154611ea39082906144f8565b8260405163e5c453b560e01b81526004016105309291906143d6565b6005840180546001810182556000918252602080832090910180546001600160a01b0319166001600160a01b0387169081179091558252600686019052604081208054849290611f10908490614630565b90915550506001600160a01b038316600090815260068501602052604081206001018054849290611f42908490614630565b909155505050506001600160a01b031660009081526006919091016020526040902060040180546001600160401b031916436001600160401b0316179055565b60006007856007811115611f9857611f986141e1565b14801561208357506005826001600160a01b031663840febd96040518163ffffffff1660e01b8152600401602060405180830381865afa158015611fe0573d6000803e3d6000fd5b505050506040513d601f19601f820116820180604052508101906120049190614662565b6001600160a01b03166334ad3b4a856040518263ffffffff1660e01b815260040161202f9190613d78565b602060405180830381865afa15801561204c573d6000803e3d6000fd5b505050506040513d601f19601f82011682018060405250810190612070919061468e565b6007811115612081576120816141e1565b145b801561216e5750836001600160a01b0316826001600160a01b031663dd8fff976040518163ffffffff1660e01b8152600401602060405180830381865afa1580156120d2573d6000803e3d6000fd5b505050506040513d601f19601f820116820180604052508101906120f69190614662565b6001600160a01b03166363976407856040518263ffffffff1660e01b81526004016121219190613d78565b602060405180830381865afa15801561213e573d6000803e3d6000fd5b505050506040513d601f19601f8201168201806040525081019061216291906146ba565b6001600160a01b031614155b1561217b57506001611c4f565b600785600781111561218f5761218f6141e1565b14806121ac575060068560078111156121aa576121aa6141e1565b145b1561221e5760405163b46251e560e01b81526001600160a01b0383169063b46251e5906121dd908690600401613d78565b602060405180830381865afa1580156121fa573d6000803e3d6000fd5b505050506040513d601f19601f82011682018060405250810190611bae919061430c565b6004856007811115612232576122326141e1565b14801561231d57506002826001600160a01b031663ab2d10f76040518163ffffffff1660e01b8152600401602060405180830381865afa15801561227a573d6000803e3d6000fd5b505050506040513d601f19601f8201168201806040525081019061229e9190614662565b6001600160a01b0316632b6a6d7a856040518263ffffffff1660e01b81526004016122c99190613d78565b602060405180830381865afa1580156122e6573d6000803e3d6000fd5b505050506040513d601f19601f8201168201806040525081019061230a91906146f3565b600681111561231b5761231b6141e1565b145b1561232a57506001611c4f565b506000949350505050565b6001600160a01b0381166000908152600683016020526040812060018101549054811115612395576001600160a01b038316600090815260068501602052604090819020549051636d2cbdf360e01b8152610530919083906004016143d6565b6001600160a01b0383166000908152600685016020526040812080548392906123bf9084906144f8565b90915550506001840180548291906000906123db9084906144f8565b90915550506001600160a01b038316600090815260068501602052604081206001018054829061240c9082906144f8565b90915550909150505b92915050565b6001820154811115612448576001820154604051634654b75f60e11b8152610530919083906004016143d6565b80826000016001016000828254611d1091906144f8565b6001600160a01b038116600090815260068301602052604081206001810154600282015491548392612490916144f8565b61249a91906144f8565b6001600160a01b03841660009081526006860160205260408120805492935083929091906124c99084906144f8565b90915550508354819085906000906124e29084906144f8565b909155505060018401805482919060009061240c9084906144f8565b6001600160a01b03163b151590565b600054610100900460ff166125345760405162461bcd60e51b81526004016105309061475c565b565b60018201546002830154835483929161254e916144f8565b61255891906144f8565b101561259a5760018201546002830154835461257491906144f8565b61257e91906144f8565b81604051630f761a7560e11b81526004016105309291906143d6565b80826000016002016000828254611d949190614630565b600080606560008760078111156125ca576125ca6141e1565b60078111156125db576125db6141e1565b8152602080820192909252604090810160009081206001600160a01b03808a1683529084528282206001600160401b038916835284528282209087168252600601909252902060010154905080156126b1576007866007811115612641576126416141e1565b036126645760675461265d9085906001600160a01b03166133c1565b90506126b1565b6006866007811115612678576126786141e1565b036126945760675461265d9085906001600160a01b03166133f0565b60048660078111156126a8576126a86141e1565b036126b1575060005b95945050505050565b6127248282606560008960078111156126d5576126d56141e1565b60078111156126e6576126e66141e1565b8152602080820192909252604090810160009081206001600160a01b038b16825283528181206001600160401b038a1682529092529020919061341f565b816001600160a01b0316846001600160a01b03167fc2724c09169c55bb6a61e60ea91b57899fed414a888fc758473675dfd2ac458687868560405161102193929190614225565b60006007856007811115612781576127816141e1565b036127fa57611bae848484606560008a60078111156127a2576127a26141e1565b60078111156127b3576127b36141e1565b8152602080820192909252604090810160009081206001600160a01b03808d1683529084528282206001600160401b038c168352909352206001015460675490911661349f565b600485600781111561280e5761280e6141e1565b0361232a57606954611bae9084906001600160a01b0316613685565b612894828260656000896007811115612845576128456141e1565b6007811115612856576128566141e1565b8152602080820192909252604090810160009081206001600160a01b038b16825283528181206001600160401b038a16825290925290209190611db8565b836001600160a01b03167f391a520487332e0bf31618bfe79add3870072ff9c1f471caae5708e6c6697b97868585856040516111ac949392919061476c565b600060058560078111156128e9576128e96141e1565b0361232a57606760009054906101000a90046001600160a01b03166001600160a01b031663840febd96040518163ffffffff1660e01b8152600401602060405180830381865afa158015612941573d6000803e3d6000fd5b505050506040513d601f19601f820116820180604052508101906129659190614662565b6001600160a01b031663e19edda1846040518263ffffffff1660e01b81526004016129909190613d78565b602060405180830381865afa1580156129ad573d6000803e3d6000fd5b505050506040513d601f19601f820116820180604052508101906129d191906146ba565b6001600160a01b0316826001600160a01b031614612a045781604051633330463760e21b8152600401610530919061408a565b60675460408051631310199f60e11b815290516000926001600160a01b031691632620333e9160048083019260209291908290030181865afa158015612a4e573d6000803e3d6000fd5b505050506040513d601f19601f82011682018060405250810190612a729190614662565b6001600160a01b03166340f7f10b856040518263ffffffff1660e01b8152600401612a9d9190613d78565b602060405180830381865afa158015612aba573d6000803e3d6000fd5b505050506040513d601f19601f82011682018060405250810190612ade91906147ac565b9050612b088482612af0898986611030565b6069546067546001600160a01b0391821691166136b4565b915050611c4f565b612b1c600685856106fc565b6001600160401b031615612b455783604051635d14a0e360e01b8152600401610530919061408a565b60675460408051631310199f60e11b815290516000926001600160a01b031691632620333e9160048083019260209291908290030181865afa158015612b8f573d6000803e3d6000fd5b505050506040513d601f19601f82011682018060405250810190612bb39190614662565b6001600160a01b03166340f7f10b856040518263ffffffff1660e01b8152600401612bde9190613d78565b602060405180830381865afa158015612bfb573d6000803e3d6000fd5b505050506040513d601f19601f82011682018060405250810190612c1f91906147ac565b9050600060656000886007811115612c3957612c396141e1565b6007811115612c4a57612c4a6141e1565b8152602080820192909252604090810160009081206001600160a01b038a16825283528181206001600160401b038616825290925290206001810154909150831115612cb157600181015460405163e5c453b560e01b8152610530919085906004016143d6565b805483908290600090612cc59084906144f8565b9091555050600181018054849190600090612ce19084906144f8565b90915550506001600160a01b03861660009081527f04a5731ce8ad6be395c578c475212c2c17a7a79e2d18742d54199a610648d251602090815260408083206001600160401b03891684529091529020612d3b8185611cfc565b612d458185611d19565b612d50818686611db8565b846001600160a01b0316876001600160a01b03167f6899746bdb8864444448b40e22ac91add18fb79413ff3ba38aa89f34b33b662f8a8988604051612d9793929190614225565b60405180910390a35050505050505050565b6060600287511015612dd0578660405163370d875f60e01b81526004016105309190614825565b612de16003607f60991b01846139e4565b6000806003607f60991b01888686612dfa576000612dfd565b60015b8a8a8e604051602001612e1596959493929190614836565b60408051601f1981840301815290829052612e2f916148b3565b600060405180830381855af49150503d8060008114612e6a576040519150601f19603f3d011682016040523d82523d6000602084013e612e6f565b606091505b509150915081612e9257604051638a7db5bf60e01b815260040160405180910390fd5b612e9b81613a2c565b925050505b9695505050505050565b612eb3816124fe565b612ecf5760405162461bcd60e51b815260040161053090614909565b600080516020614b8683398151915280546001600160a01b0319166001600160a01b0392909216919091179055565b612f0783613b05565b600082511180612f145750805b1561143857610ba78383613b45565b604051637205105160e11b81526000906001600160a01b0383169063e40a20a290612f52908690600401613d78565b602060405180830381865afa158015612f6f573d6000803e3d6000fd5b505050506040513d601f19601f820116820180604052508101906106f5919061455e565b6002820154811115612fc057600282015460405163449de1e760e01b8152610530919083906004016143d6565b815481908390600090612fd49084906144f8565b9091555050600282018054829190600090612ff09084906144f8565b9091555050600382018054829190600090611d10908490614630565b600080600090506000866001600160a01b031663ab2d10f76040518163ffffffff1660e01b8152600401602060405180830381865afa158015613053573d6000803e3d6000fd5b505050506040513d601f19601f820116820180604052508101906130779190614662565b6001600160a01b0316632b6a6d7a896040518263ffffffff1660e01b81526004016130a29190613d78565b602060405180830381865afa1580156130bf573d6000803e3d6000fd5b505050506040513d601f19601f820116820180604052508101906130e391906146f3565b905060038160068111156130f9576130f96141e1565b148061314057506006816006811115613114576131146141e1565b14158015613140575061312a610b4060b4614919565b61313d906001600160401b038716614630565b43115b8061316a5750613154610b4061016d614919565b613167906001600160401b038716614630565b43115b15613177575090506126b1565b6040516309447d3b60e31b81526001600160a01b03871690634a23e9d8906131a6908b90600090600401614966565b602060405180830381865afa1580156131c3573d6000803e3d6000fd5b505050506040513d601f19601f820116820180604052508101906131e7919061430c565b15613260576040516305ce199d60e31b81526001600160a01b03871690632e70cce890613218908b90600401613d78565b602060405180830381865afa158015613235573d6000803e3d6000fd5b505050506040513d601f19601f82011682018060405250810190613259919061455e565b9150613331565b856001600160a01b0316639aa023d16040518163ffffffff1660e01b8152600401602060405180830381865afa15801561329e573d6000803e3d6000fd5b505050506040513d601f19601f820116820180604052508101906132c29190614662565b6001600160a01b0316630827153a896040518263ffffffff1660e01b81526004016132ed9190613d78565b602060405180830381865afa15801561330a573d6000803e3d6000fd5b505050506040513d601f19601f8201168201806040525081019061332e919061455e565b91505b81841015613356578382604051630f761a7560e11b81526004016105309291906143d6565b509695505050505050565b604051637de1478760e01b81526000906001600160a01b03831690637de1478790612f52908690600401613d78565b6001820154825482916133a2916144f8565b10156133b9576001820154825461257e91906144f8565b600290910155565b604051630f28c28360e21b81526000906001600160a01b03831690633ca30a0c90612f52908690600401613d78565b60405163c3690e6360e01b81526000906001600160a01b0383169063c3690e6390612f52908690600401613d78565b6001600160a01b0382166000908152600684016020526040902060028101549054829161344b916144f8565b101561347c576001600160a01b0382166000908152600684016020526040902060028101549054611d6191906144f8565b6001600160a01b0390911660009081526006909201602052604090912060010155565b6000836001600160a01b0316826001600160a01b031663840febd96040518163ffffffff1660e01b8152600401602060405180830381865afa1580156134e9573d6000803e3d6000fd5b505050506040513d601f19601f8201168201806040525081019061350d9190614662565b6001600160a01b031663e19edda1876040518263ffffffff1660e01b81526004016135389190613d78565b602060405180830381865afa158015613555573d6000803e3d6000fd5b505050506040513d601f19601f8201168201806040525081019061357991906146ba565b6001600160a01b031614801561366d5750856001600160a01b0316826001600160a01b031663dd8fff976040518163ffffffff1660e01b8152600401602060405180830381865afa1580156135d2573d6000803e3d6000fd5b505050506040513d601f19601f820116820180604052508101906135f69190614662565b6001600160a01b03166363976407876040518263ffffffff1660e01b81526004016136219190613d78565b602060405180830381865afa15801561363e573d6000803e3d6000fd5b505050506040513d601f19601f8201168201806040525081019061366291906146ba565b6001600160a01b0316145b156136795750816126b1565b50600095945050505050565b604051630696f51560e21b81526000906001600160a01b03831690631a5bd45490612f52908690600401613d78565b600080826001600160a01b0316632620333e6040518163ffffffff1660e01b8152600401602060405180830381865afa1580156136f5573d6000803e3d6000fd5b505050506040513d601f19601f820116820180604052508101906137199190614662565b6001600160a01b031663b3c21e88886040518263ffffffff1660e01b81526004016137449190613d78565b602060405180830381865afa158015613761573d6000803e3d6000fd5b505050506040513d601f19601f8201168201806040525081019061378591906147ac565b90506000836001600160a01b031663ab2d10f76040518163ffffffff1660e01b8152600401602060405180830381865afa1580156137c7573d6000803e3d6000fd5b505050506040513d601f19601f820116820180604052508101906137eb9190614662565b6001600160a01b031663ee03e10e886040518263ffffffff1660e01b81526004016138169190613d78565b602060405180830381865afa158015613833573d6000803e3d6000fd5b505050506040513d601f19601f8201168201806040525081019061385791906147ac565b856001600160a01b0316639aa023d16040518163ffffffff1660e01b8152600401602060405180830381865afa158015613895573d6000803e3d6000fd5b505050506040513d601f19601f820116820180604052508101906138b99190614662565b6001600160a01b03166314a41d85896040518263ffffffff1660e01b81526004016138e49190613d78565b602060405180830381865afa158015613901573d6000803e3d6000fd5b505050506040513d601f19601f820116820180604052508101906139259190614996565b61ffff16866001600160a01b03166386de143c8a60006040518363ffffffff1660e01b8152600401613958929190614966565b602060405180830381865afa158015613975573d6000803e3d6000fd5b505050506040513d601f19601f8201168201806040525081019061399991906147ac565b6139a391906149b7565b6139ad91906149ec565b9050816001600160401b0316816001600160401b0316876139ce9190614a35565b6139d89190614919565b98975050505050505050565b4781811015613a0a578082604051634787a10360e11b81526004016105309291906143d6565b823f151580610ba75760405163064d954b60e41b815260040160405180910390fd5b6060600080600084806020019051810190613a479190614aa1565b919450925090506001600160401b038216613a8157805115613a7c57604051630e74990760e01b815260040160405180910390fd5b613ae4565b6001600160401b03821660511480613aa257506001600160401b0382166071145b15613ac9578051600003613a7c57604051630e74990760e01b815260040160405180910390fd5b8160405163f1f6bced60e01b81526004016105309190613d78565b8215611c4f578260405163d4bb667160e01b81526004016105309190613d61565b613b0e81612eaa565b6040516001600160a01b038216907fbc7cd75a20ee27fd9adebab32041f755214dbc6bffa90cc0225b39da2e5c2d3b90600090a250565b60606106f58383604051806060016040528060278152602001614ba6602791396060600080856001600160a01b031685604051613b8291906148b3565b600060405180830381855af49150503d8060008114613bbd576040519150601f19603f3d011682016040523d82523d6000602084013e613bc2565b606091505b5091509150612ea08683838760608315613c0b578251600003613c0457613be8856124fe565b613c045760405162461bcd60e51b815260040161053090614b35565b5081611c4f565b611c4f8383815115613c205781518083602001fd5b8060405162461bcd60e51b81526004016105309190614825565b600881106105b657600080fd5b803561241581613c3a565b60006001600160a01b038216612415565b613c6c81613c52565b81146105b657600080fd5b803561241581613c63565b6001600160401b031690565b613c6c81613c82565b803561241581613c8e565b600080600060608486031215613cba57613cba600080fd5b6000613cc68686613c47565b9350506020613cd786828701613c77565b9250506040613ce886828701613c97565b9150509250925092565b600060208284031215613d0757613d07600080fd5b6000611c4f8484613c77565b600080600060608486031215613d2b57613d2b600080fd5b6000613d378686613c77565b9350506020613d4886828701613c77565b9250506040613ce886828701613c77565b805b82525050565b602081016124158284613d59565b613d5b81613c82565b602081016124158284613d6f565b601f01601f191690565b634e487b7160e01b600052604160045260246000fd5b613daf82613d86565b81018181106001600160401b0382111715613dcc57613dcc613d90565b6040525050565b6000613dde60405190565b9050613dea8282613da6565b919050565b60006001600160401b03821115613e0857613e08613d90565b613e1182613d86565b60200192915050565b82818337506000910152565b6000613e39613e3484613def565b613dd3565b905082815260208101848484011115613e5457613e54600080fd5b613e5f848285613e1a565b509392505050565b600082601f830112613e7b57613e7b600080fd5b8135611c4f848260208601613e26565b60008060408385031215613ea157613ea1600080fd5b6000613ead8585613c77565b92505060208301356001600160401b03811115613ecc57613ecc600080fd5b613ed885828601613e67565b9150509250929050565b60008060008060808587031215613efb57613efb600080fd5b6000613f078787613c47565b9450506020613f1887828801613c77565b9350506040613f2987828801613c97565b9250506060613f3a87828801613c77565b91505092959194509250565b60a08101613f548288613d59565b613f616020830187613d59565b613f6e6040830186613d59565b613f7b6060830185613d59565b612ea06080830184613d6f565b600281106105b657600080fd5b803561241581613f88565b60008060008060808587031215613fb957613fb9600080fd5b6000613fc58787613c47565b9450506020613fd687828801613c77565b9350506040613fe787828801613c97565b9250506060613f3a87828801613f95565b80613c6c565b803561241581613ff8565b600080600080600060a0868803121561402457614024600080fd5b60006140308888613c47565b955050602061404188828901613c77565b945050604061405288828901613c97565b935050606061406388828901613c77565b925050608061407488828901613ffe565b9150509295509295909350565b613d5b81613c52565b602081016124158284614081565b600080600080608085870312156140b1576140b1600080fd5b60006140bd8787613c47565b94505060206140ce87828801613c77565b93505060406140df87828801613c97565b9250506060613f3a87828801613ffe565b60006140fc8383614081565b505060200190565b600061410e825190565b80845260209384019383018060005b8381101561414257815161413188826140f0565b97506020830192505060010161411d565b509495945050505050565b602080825281016106f58184614104565b600381106105b657600080fd5b80356124158161415e565b600080600080600060a0868803121561419157614191600080fd5b600061419d8888613c47565b95505060206141ae88828901613c77565b94505060406141bf88828901613c97565b93505060606141d088828901613c77565b92505060806140748882890161416b565b634e487b7160e01b600052602160045260246000fd5b600881106105b6576105b66141e1565b80613dea816141f7565b600061241582614207565b613d5b81614211565b60608101614233828661421c565b6142406020830185613d6f565b611c4f6040830184613d59565b602c8152600060208201600080516020614b6683398151915281526b19195b1959d85d1958d85b1b60a21b602082015291505b5060400190565b602080825281016124158161424d565b602c8152600060208201600080516020614b6683398151915281526b6163746976652070726f787960a01b60208201529150614280565b6020808252810161241581614297565b604081016142ec8285613d59565b6106f56020830184614081565b801515613c6c565b8051612415816142f9565b60006020828403121561432157614321600080fd5b6000611c4f8484614301565b601a81526000602082017913db9b1e48185b1b1bddd959081c9bdb194818d85b8818d85b1b60321b815291505b5060200190565b602080825281016124158161432d565b603881526000602082017f555550535570677261646561626c653a206d757374206e6f742062652063616c8152771b1959081d1a1c9bdd59da0819195b1959d85d1958d85b1b60421b60208201529150614280565b6020808252810161241581614371565b604081016143e48285613d59565b6106f56020830184613d59565b634e487b7160e01b600052603260045260246000fd5b634e487b7160e01b600052601160045260246000fd5b6000600019820361443057614430614407565b5060010190565b601d81526000602082017f4f6e6c7920616c6c6f77656420616464726573732063616e2063616c6c0000008152915061435a565b6020808252810161241581614437565b602e81526000602082017f496e697469616c697a61626c653a20636f6e747261637420697320616c72656181526d191e481a5b9a5d1a585b1a5e995960921b60208201529150614280565b602080825281016124158161447b565b600060ff8216612415565b613d5b816144d6565b6020810161241582846144e1565b8181038181111561241557612415614407565b60006124158260601b90565b60006124158261450b565b613d5b61452e82613c52565b614517565b61020560f11b8152600201600061454a8284614522565b50601401919050565b805161241581613ff8565b60006020828403121561457357614573600080fd5b6000611c4f8484614553565b602e81526000602082017f45524331393637557067726164653a206e657720696d706c656d656e7461746981526d6f6e206973206e6f74205555505360901b60208201529150614280565b602080825281016124158161457f565b602981526000602082017f45524331393637557067726164653a20756e737570706f727465642070726f788152681a58589b195555525160ba1b60208201529150614280565b60208082528101612415816145da565b8082018082111561241557612415614407565b600061241582613c52565b613c6c81614643565b80516124158161464e565b60006020828403121561467757614677600080fd5b6000611c4f8484614657565b805161241581613c3a565b6000602082840312156146a3576146a3600080fd5b6000611c4f8484614683565b805161241581613c63565b6000602082840312156146cf576146cf600080fd5b6000611c4f84846146af565b600781106105b657600080fd5b8051612415816146db565b60006020828403121561470857614708600080fd5b6000611c4f84846146e8565b602b81526000602082017f496e697469616c697a61626c653a20636f6e7472616374206973206e6f74206981526a6e697469616c697a696e6760a81b60208201529150614280565b6020808252810161241581614714565b6080810161477a828761421c565b6147876020830186613d6f565b6147946040830185614081565b6126b16060830184613d59565b805161241581613c8e565b6000602082840312156147c1576147c1600080fd5b6000611c4f84846147a1565b60005b838110156147e85781810151838201526020016147d0565b50506000910152565b60006147fb825190565b8084526020840193506148128185602086016147cd565b61481b81613d86565b9093019392505050565b602080825281016106f581846147f1565b60c081016148448289613d6f565b6148516020830188613d59565b61485e6040830187613d6f565b61486b6060830186613d6f565b818103608083015261487d81856147f1565b905081810360a08301526139d881846147f1565b600061489b825190565b6148a98185602086016147cd565b9290920192915050565b60006106f58284614891565b602d81526000602082017f455243313936373a206e657720696d706c656d656e746174696f6e206973206e81526c1bdd08184818dbdb9d1c9858dd609a1b60208201529150614280565b60208082528101612415816148bf565b81810280821583820485141761493157614931614407565b5092915050565b600281106105b6576105b66141e1565b80613dea81614938565b600061241582614948565b613d5b81614952565b604081016149748285613d6f565b6106f5602083018461495d565b61ffff8116613c6c565b805161241581614981565b6000602082840312156149ab576149ab600080fd5b6000611c4f848461498b565b60006149c282613c82565b91506149cd83613c82565b92508282026149db81613c82565b915080821461493157614931614407565b60006149f782613c82565b9150614a0283613c82565b9250508181036001600160401b0381111561241557612415614407565b634e487b7160e01b600052601260045260246000fd5b600082614a4457614a44614a1f565b500490565b6000614a57613e3484613def565b905082815260208101848484011115614a7257614a72600080fd5b613e5f8482856147cd565b600082601f830112614a9157614a91600080fd5b8151611c4f848260208601614a49565b600080600060608486031215614ab957614ab9600080fd5b6000614ac58686614553565b9350506020614ad6868287016147a1565b92505060408401516001600160401b03811115614af557614af5600080fd5b613ce886828701614a7d565b601d81526000602082017f416464726573733a2063616c6c20746f206e6f6e2d636f6e74726163740000008152915061435a565b6020808252810161241581614b0156fe24a78bbda083574ecaadfe16fa5b79a48513a59663be00f6473b52c875a7dbd646756e6374696f6e206d7573742062652063616c6c6564207468726f75676820360894a13ba1a3210667c828492db98dca3e2076cc3735a920a3ca505d382bbc416464726573733a206c6f772d6c6576656c2064656c65676174652063616c6c206661696c6564a2646970667358221220f994a04dc327a09adee18f019042f756209f8c8b99cb5741335cadc068fa643e64736f6c63430008150033",
  "devdoc": {
    "details": "Base escrow contract, holds funds designated for a payee until they withdraw them.",
    "events": {
      "AdminChanged(address,address)": {
        "details": "Emitted when the admin account has changed."
      },
      "BeaconUpgraded(address)": {
        "details": "Emitted when the beacon is changed."
      },
      "Burn(uint8,address,uint64,uint256)": {
        "details": "This function allows report the burn event.",
        "params": {
          "_attoFILAmount": "The amount of attoFIL.",
          "_id": "The business id associated with the credited funds.",
          "_owner": "The destination address for the credited funds.",
          "_type": "The Escrow type for the credited funds."
        }
      },
      "Collateral(uint8,address,uint64,uint256)": {
        "details": "This function allows report the collateral event of a specific amount in attoFIL.",
        "params": {
          "_attoFILAmount": "The amount of attoFIL.",
          "_id": "The business id associated with the credited funds.",
          "_owner": "The destination address for the credited funds.",
          "_type": "The Escrow type for the credited funds."
        }
      },
      "Initialized(uint8)": {
        "details": "Triggered when the contract has been initialized or reinitialized."
      },
      "Payment(uint8,address,uint64,uint256)": {
        "details": "This function allows report the payment event of a specific amount in attoFIL.",
        "params": {
          "_attoFILAmount": "The amount of attoFIL.",
          "_id": "The business id associated with the credited funds.",
          "_owner": "The destination address for the credited funds.",
          "_type": "The Escrow type for the credited funds."
        }
      },
      "PaymentRefund(uint8,address,uint64,address,uint256)": {
        "details": "This function allows report the payment refund event of a specific amount in attoFIL.",
        "params": {
          "_attoFILAmount": "The amount of attoFIL.",
          "_beneficiary": "The beneficiary address for the payment credited funds.",
          "_id": "The business id associated with the credited funds.",
          "_owner": "The destination address for the credited funds.",
          "_type": "The Escrow type for the credited funds."
        }
      },
      "PaymentSingleBeneficiary(uint8,address,uint64,address,uint256)": {
        "details": "This function allows report the payment event of a specific amount in attoFIL.",
        "params": {
          "_attoFILAmount": "The amount of attoFIL.",
          "_beneficiary": "The beneficiary address for the payment credited funds.",
          "_id": "The business id associated with the credited funds.",
          "_owner": "The destination address for the credited funds.",
          "_type": "The Escrow type for the credited funds."
        }
      },
      "PaymentTransfer(uint8,address,uint64,uint256)": {
        "details": "This function allows report the payment transfer event of a specific amount in attoFIL.",
        "params": {
          "_attoFILAmount": "The amount of attoFIL.",
          "_id": "The business id associated with the credited funds.",
          "_owner": "The destination address for the credited funds.",
          "_type": "The Escrow type for the credited funds."
        }
      },
      "PaymentWithdrawn(uint8,address,uint64,address,uint256)": {
        "details": "This function allows report the payment withdrawn event of a specific amount in attoFIL.",
        "params": {
          "_attoFILAmount": "The amount of attoFIL.",
          "_beneficiary": "The beneficiary address for the payment credited funds.",
          "_id": "The business id associated with the credited funds.",
          "_owner": "The destination address for the credited funds.",
          "_type": "The Escrow type for the credited funds."
        }
      },
      "UpdateCollateral(uint8,address,uint64,uint256)": {
        "details": "This function allows report the update collateral event of funds.",
        "params": {
          "_attoFILAmount": "The amount of attoFIL.",
          "_id": "The business id associated with the credited funds.",
          "_owner": "The destination address for the credited funds.",
          "_type": "The Escrow type for the credited funds."
        }
      },
      "UpdatePaymentBeneficiary(uint8,address,uint64,address,uint256)": {
        "details": "This function allows report the payment collateral event of a specific amount in attoFIL.",
        "params": {
          "_attoFILAmount": "The payment funds.",
          "_beneficiary": "The beneficiary address for the payment credited funds.",
          "_id": "The business id associated with the credited funds.",
          "_owner": "The destination address for the credited funds.",
          "_type": "The Escrow type for the credited funds."
        }
      },
      "UpdatePaymentLock(uint8,address,uint64,address,uint256)": {
        "details": "This function allows report the payment collateral event of a specific amount in attoFIL.",
        "params": {
          "_attoFILAmount": "The amount of attoFIL.",
          "_beneficiary": "The beneficiary address for the payment credited funds.",
          "_id": "The business id associated with the credited funds.",
          "_owner": "The destination address for the credited funds.",
          "_type": "The Escrow type for the credited funds."
        }
      },
      "UpdatePaymentSubAccount(uint8,address,uint64,address,uint256)": {
        "details": "This function allows report the payment collateral event of a specific amount in attoFIL.",
        "params": {
          "_attoFILAmount": "The amount of attoFIL.",
          "_beneficiary": "The beneficiary address for the payment credited funds.",
          "_id": "The business id associated with the credited funds.",
          "_owner": "The destination address for the credited funds.",
          "_type": "The Escrow type for the credited funds."
        }
      },
      "Upgraded(address)": {
        "details": "Emitted when the implementation is upgraded."
      },
      "Withdrawn(uint8,address,uint64,uint256)": {
        "details": "This function allows report the withdrawal event of funds.",
        "params": {
          "_attoFILAmount": "The amount of attoFIL.",
          "_id": "The business id associated with the credited funds.",
          "_owner": "The destination address for the credited funds.",
          "_type": "The Escrow type for the credited funds."
        }
      }
    },
    "kind": "dev",
    "methods": {
      "collateral(uint8,address,uint64,uint256)": {
        "details": "Records the sent amount as credit for future withdrawals. Note Called by the payer to store the sent amount as credit to be pulled. Funds sent in this way are stored in an intermediate {Escrow} contract, so there is no danger of them being spent before withdrawal.",
        "params": {
          "_amount": "The collateral funds.",
          "_id": "The business id associated with the credited funds.",
          "_owner": "The destination address for the credited funds.",
          "_type": "The Escrow type for the credited funds."
        }
      },
      "collateralRedeem(uint8,address,uint64)": {
        "params": {
          "_id": "The business id associated with the credited funds.",
          "_owner": "The destination address for the credited funds.",
          "_type": "The Escrow type for the credited funds."
        }
      },
      "emitCollateralUpdate(uint8,address,uint64,uint8)": {
        "params": {
          "_event": "The collateral event type.",
          "_id": "The business id associated with the credited funds.",
          "_owner": "The destination address for the credited funds.",
          "_type": "The Escrow type for the credited funds."
        }
      },
      "emitPaymentUpdate(uint8,address,uint64,address,uint8)": {
        "params": {
          "_beneficiary": "The beneficiary address for the payment credited funds.",
          "_event": "The payment event type.",
          "_id": "The business id associated with the credited funds.",
          "_owner": "The destination address for the credited funds.",
          "_type": "The Escrow type for the credited funds."
        }
      },
      "getBeneficiariesList(uint8,address,uint64)": {
        "params": {
          "_id": "The business id associated with the credited funds.",
          "_owner": "The destination address for the credited funds.",
          "_type": "The Escrow type for the credited funds."
        }
      },
      "getBeneficiaryFund(uint8,address,uint64,address)": {
        "params": {
          "_beneficiary": "The beneficiary address for the payment credited funds.",
          "_id": "The business id associated with the credited funds.",
          "_owner": "The destination address for the credited funds.",
          "_type": "The Escrow type for the credited funds."
        }
      },
      "getOwnerBurned(uint8,address,uint64)": {
        "params": {
          "_id": "The business id associated with the credited funds.",
          "_owner": "The destination address for the credited funds.",
          "_type": "The Escrow type for the credited funds."
        }
      },
      "getOwnerCollateral(uint8,address,uint64)": {
        "params": {
          "_id": "The business id associated with the credited funds.",
          "_owner": "The destination address for the credited funds.",
          "_type": "The Escrow type for the credited funds."
        }
      },
      "getOwnerCreatedBlockNumber(uint8,address,uint64)": {
        "params": {
          "_id": "The business id associated with the credited funds.",
          "_owner": "The destination address for the credited funds.",
          "_type": "The Escrow type for the credited funds."
        }
      },
      "getOwnerLock(uint8,address,uint64)": {
        "params": {
          "_id": "The business id associated with the credited funds.",
          "_owner": "The destination address for the credited funds.",
          "_type": "The Escrow type for the credited funds."
        }
      },
      "getOwnerTotal(uint8,address,uint64)": {
        "params": {
          "_id": "The business id associated with the credited funds.",
          "_owner": "The destination address for the credited funds.",
          "_type": "The Escrow type for the credited funds."
        }
      },
      "initDependencies(address,address,address)": {
        "details": "After the contract is deployed, this function needs to be called manually!"
      },
      "payment(uint8,address,uint64,uint256)": {
        "details": "Records the sent amount as credit for future payment withdraw. Note Called by the payer to store the sent amount as credit to be pulled. Funds sent in this way are stored in an intermediate {Escrow} contract, so there is no danger of them being spent before withdrawal.",
        "params": {
          "_amount": "The collateral funds.",
          "_id": "The business id associated with the credited funds.",
          "_owner": "The destination address for the credited funds.",
          "_type": "The Escrow type for the credited funds."
        }
      },
      "paymentRefund(uint8,address,uint64)": {
        "params": {
          "_id": "The business id associated with the credited funds.",
          "_owner": "The destination address for the credited funds.",
          "_type": "The Escrow type for the credited funds."
        }
      },
      "paymentSingleBeneficiary(uint8,address,uint64,address,uint256)": {
        "details": "Records the sent amount as credit for future payment withdraw. Note Called by the payer to store the sent amount as credit to be pulled. Funds sent in this way are stored in an intermediate {Escrow} contract, so there is no danger of them being spent before withdrawal.",
        "params": {
          "_amount": "The collateral funds.",
          "_beneficiary": "The beneficiary address for the payment credited funds.",
          "_id": "The business id associated with the credited funds.",
          "_owner": "The destination address for the credited funds.",
          "_type": "The Escrow type for the credited funds."
        }
      },
      "paymentTransfer(uint8,address,uint64,uint256)": {
        "params": {
          "_amount": "The payment transfer credited funds.",
          "_id": "The business id associated with the credited funds.",
          "_owner": "The destination address for the credited funds.",
          "_type": "The Escrow type for the credited funds."
        }
      },
      "paymentWithdraw(uint8,address,uint64,address)": {
        "details": "This function allows anyone to initiate a withdrawal of authorized funds.",
        "params": {
          "_beneficiary": "The beneficiary address for the payment credited funds.",
          "_id": "The business id associated with the credited funds.",
          "_owner": "The destination address for the credited funds.",
          "_type": "The Escrow type for the credited funds."
        }
      },
      "proxiableUUID()": {
        "details": "Implementation of the ERC1822 {proxiableUUID} function. This returns the storage slot used by the implementation. It is used to validate the implementation's compatibility when performing an upgrade. IMPORTANT: A proxy pointing at a proxiable contract should not be considered proxiable itself, because this risks bricking a proxy that upgrades to it, by delegating to itself until out of gas. Thus it is critical that this function revert if invoked through a proxy. This is guaranteed by the `notDelegated` modifier."
      },
      "upgradeTo(address)": {
        "custom:oz-upgrades-unsafe-allow-reachable": "delegatecall",
        "details": "Upgrade the implementation of the proxy to `newImplementation`. Calls {_authorizeUpgrade}. Emits an {Upgraded} event."
      },
      "upgradeToAndCall(address,bytes)": {
        "custom:oz-upgrades-unsafe-allow-reachable": "delegatecall",
        "details": "Upgrade the implementation of the proxy to `newImplementation`, and subsequently execute the function call encoded in `data`. Calls {_authorizeUpgrade}. Emits an {Upgraded} event."
      },
      "withdraw(uint8,address,uint64)": {
        "details": "This function allows anyone to initiate a withdrawal of authorized funds.",
        "params": {
          "_id": "The business id associated with the credited funds.",
          "_owner": "The destination address for the credited funds.",
          "_type": "The Escrow type for the credited funds."
        }
      }
    },
    "stateVariables": {
      "__gap": {
        "details": "This empty reserved space is put in place to allow future versions to add new"
      }
    },
    "title": "Escrow",
    "version": 1
  },
  "userdoc": {
    "errors": {
      "ActorError(int256)": [
        {
          "notice": "the called actor returned an error as part of its expected behaviour"
        }
      ],
      "ActorNotFound()": [
        {
          "notice": "the actor is not found"
        }
      ],
      "ExceedValidPaymentAmount(uint256,uint256)": [
        {
          "notice": "escrow errors"
        }
      ],
      "FailToCallActor()": [
        {
          "notice": "an error happened trying to call the actor"
        }
      ],
      "InvalidAddress(bytes)": [
        {
          "notice": "the provided address is not valid"
        }
      ],
      "InvalidCodec(uint64)": [
        {
          "notice": "the codec received is not valid"
        }
      ],
      "InvalidResponseLength()": [
        {
          "notice": "the response received is not correct. In some case no response is expected and we received one, or a response was indeed expected and we received none."
        }
      ],
      "NotEnoughBalance(uint256,uint256)": [
        {
          "notice": "the smart contract has no enough balance to transfer"
        }
      ]
    },
    "events": {
      "Burn(uint8,address,uint64,uint256)": {
        "notice": "Report a burn event."
      },
      "Collateral(uint8,address,uint64,uint256)": {
        "notice": "Report a collateral event."
      },
      "Payment(uint8,address,uint64,uint256)": {
        "notice": "Report a payment event."
      },
      "PaymentRefund(uint8,address,uint64,address,uint256)": {
        "notice": "Report a PaymentRefund event."
      },
      "PaymentSingleBeneficiary(uint8,address,uint64,address,uint256)": {
        "notice": "Report a single beneficiary payment event."
      },
      "PaymentTransfer(uint8,address,uint64,uint256)": {
        "notice": "Report a payment transfer event."
      },
      "PaymentWithdrawn(uint8,address,uint64,address,uint256)": {
        "notice": "Report a PaymentWithdrawn event."
      },
      "UpdateCollateral(uint8,address,uint64,uint256)": {
        "notice": "Report a update collateral event."
      },
      "UpdatePaymentBeneficiary(uint8,address,uint64,address,uint256)": {
        "notice": "Report a UpdatePaymentBeneficiaries."
      },
      "UpdatePaymentLock(uint8,address,uint64,address,uint256)": {
        "notice": "Report a UpdatePaymentLock made by a _beneficiary."
      },
      "UpdatePaymentSubAccount(uint8,address,uint64,address,uint256)": {
        "notice": "Report a UpdatePaymentSubAccount."
      },
      "Withdrawn(uint8,address,uint64,uint256)": {
        "notice": "Report a withdrawal event."
      }
    },
    "kind": "user",
    "methods": {
      "collateral(uint8,address,uint64,uint256)": {
        "notice": "Emits a {Collateral} event upon successful credit recording."
      },
      "collateralRedeem(uint8,address,uint64)": {
        "notice": "Redeem funds authorized for an address. Redeem the collateral funds after the collateral expires.Emits a {UpdateCollateral} event upon successful credit recording."
      },
      "emitCollateralUpdate(uint8,address,uint64,uint8)": {
        "notice": "Post an event for collateral type. Called by internal contract. TODO: Add Permission control"
      },
      "emitPaymentUpdate(uint8,address,uint64,address,uint8)": {
        "notice": "Post an event for payment type. Called by internal contract. TODO: Add Permission control"
      },
      "getBeneficiariesList(uint8,address,uint64)": {
        "notice": "Get beneficiariesList."
      },
      "getBeneficiaryFund(uint8,address,uint64,address)": {
        "notice": "Get beneficiary fund."
      },
      "getImplementation()": {
        "notice": "Returns the implementation contract"
      },
      "getOwnerBurned(uint8,address,uint64)": {
        "notice": "Get owner burned funds."
      },
      "getOwnerCollateral(uint8,address,uint64)": {
        "notice": "Get owner collateral funds."
      },
      "getOwnerCreatedBlockNumber(uint8,address,uint64)": {
        "notice": "Get owner created block number."
      },
      "getOwnerLock(uint8,address,uint64)": {
        "notice": "Get owner lock funds."
      },
      "getOwnerTotal(uint8,address,uint64)": {
        "notice": "Get owner total funds."
      },
      "initDependencies(address,address,address)": {
        "notice": "Set dependencies function to initialize the depend contract."
      },
      "initialize(address)": {
        "notice": "Initialize function to initialize the contract and grant the default admin role to the deployer."
      },
      "payment(uint8,address,uint64,uint256)": {
        "notice": "Emits a {Payment} event upon successful credit recording."
      },
      "paymentRefund(uint8,address,uint64)": {
        "notice": "Refund funds authorized for an address.Emits a {PaymentRefund} event upon successful credit recording."
      },
      "paymentSingleBeneficiary(uint8,address,uint64,address,uint256)": {
        "notice": "Emits a {PaymentSingleBeneficiary} event upon successful credit recording."
      },
      "paymentTransfer(uint8,address,uint64,uint256)": {
        "notice": "Payment transfer funds from locked to unlocked.Only total data prepare fee allowed transfer.Emits a {PaymentTransfer} event upon successful credit recording."
      },
      "paymentWithdraw(uint8,address,uint64,address)": {
        "notice": "Payment withdraw funds authorized for an address.Emits a {PaymentWithdrawn} event upon successful credit recording."
      },
      "withdraw(uint8,address,uint64)": {
        "notice": "Withdraw funds authorized for an address.Emits a {Withdrawn} event upon successful withdrawal."
      }
    },
    "version": 1
  },
  "storageLayout": {
    "storage": [
      {
        "astId": 5186,
        "contract": "src/v0.8/core/finance/Escrow.sol:Escrow",
        "label": "_initialized",
        "offset": 0,
        "slot": "0",
        "type": "t_uint8"
      },
      {
        "astId": 5189,
        "contract": "src/v0.8/core/finance/Escrow.sol:Escrow",
        "label": "_initializing",
        "offset": 1,
        "slot": "0",
        "type": "t_bool"
      },
      {
        "astId": 5168,
        "contract": "src/v0.8/core/finance/Escrow.sol:Escrow",
        "label": "__gap",
        "offset": 0,
        "slot": "1",
        "type": "t_array(t_uint256)50_storage"
      },
      {
        "astId": 5483,
        "contract": "src/v0.8/core/finance/Escrow.sol:Escrow",
        "label": "__gap",
        "offset": 0,
        "slot": "51",
        "type": "t_array(t_uint256)50_storage"
      },
      {
        "astId": 25763,
        "contract": "src/v0.8/core/finance/Escrow.sol:Escrow",
        "label": "escrowAccount",
        "offset": 0,
        "slot": "101",
        "type": "t_mapping(t_enum(Type)45039,t_mapping(t_address,t_mapping(t_uint256,t_struct(Escrow)45073_storage)))"
      },
      {
        "astId": 25766,
        "contract": "src/v0.8/core/finance/Escrow.sol:Escrow",
        "label": "roles",
        "offset": 0,
        "slot": "102",
        "type": "t_contract(IRoles)29558"
      },
      {
        "astId": 25769,
        "contract": "src/v0.8/core/finance/Escrow.sol:Escrow",
        "label": "storages",
        "offset": 0,
        "slot": "103",
        "type": "t_contract(IStorages)30753"
      },
      {
        "astId": 25772,
        "contract": "src/v0.8/core/finance/Escrow.sol:Escrow",
        "label": "datacaps",
        "offset": 0,
        "slot": "104",
        "type": "t_contract(IDatacaps)29646"
      },
      {
        "astId": 25775,
        "contract": "src/v0.8/core/finance/Escrow.sol:Escrow",
        "label": "datasetsProof",
        "offset": 0,
        "slot": "105",
        "type": "t_contract(IDatasetsProof)30135"
      },
      {
        "astId": 25786,
        "contract": "src/v0.8/core/finance/Escrow.sol:Escrow",
        "label": "__gap",
        "offset": 0,
        "slot": "106",
        "type": "t_array(t_uint256)32_storage"
      }
    ],
    "types": {
      "t_address": {
        "encoding": "inplace",
        "label": "address",
        "numberOfBytes": "20"
      },
      "t_array(t_address)dyn_storage": {
        "base": "t_address",
        "encoding": "dynamic_array",
        "label": "address[]",
        "numberOfBytes": "32"
      },
      "t_array(t_uint256)32_storage": {
        "base": "t_uint256",
        "encoding": "inplace",
        "label": "uint256[32]",
        "numberOfBytes": "1024"
      },
      "t_array(t_uint256)50_storage": {
        "base": "t_uint256",
        "encoding": "inplace",
        "label": "uint256[50]",
        "numberOfBytes": "1600"
      },
      "t_bool": {
        "encoding": "inplace",
        "label": "bool",
        "numberOfBytes": "1"
      },
      "t_contract(IDatacaps)29646": {
        "encoding": "inplace",
        "label": "contract IDatacaps",
        "numberOfBytes": "20"
      },
      "t_contract(IDatasetsProof)30135": {
        "encoding": "inplace",
        "label": "contract IDatasetsProof",
        "numberOfBytes": "20"
      },
      "t_contract(IRoles)29558": {
        "encoding": "inplace",
        "label": "contract IRoles",
        "numberOfBytes": "20"
      },
      "t_contract(IStorages)30753": {
        "encoding": "inplace",
        "label": "contract IStorages",
        "numberOfBytes": "20"
      },
      "t_enum(Type)45039": {
        "encoding": "inplace",
        "label": "enum EscrowType.Type",
        "numberOfBytes": "1"
      },
      "t_mapping(t_address,t_mapping(t_uint256,t_struct(Escrow)45073_storage))": {
        "encoding": "mapping",
        "key": "t_address",
        "label": "mapping(address => mapping(uint256 => struct EscrowType.Escrow))",
        "numberOfBytes": "32",
        "value": "t_mapping(t_uint256,t_struct(Escrow)45073_storage)"
      },
      "t_mapping(t_address,t_struct(Fund)45060_storage)": {
        "encoding": "mapping",
        "key": "t_address",
        "label": "mapping(address => struct EscrowType.Fund)",
        "numberOfBytes": "32",
        "value": "t_struct(Fund)45060_storage"
      },
      "t_mapping(t_enum(Type)45039,t_mapping(t_address,t_mapping(t_uint256,t_struct(Escrow)45073_storage)))": {
        "encoding": "mapping",
        "key": "t_enum(Type)45039",
        "label": "mapping(enum EscrowType.Type => mapping(address => mapping(uint256 => struct EscrowType.Escrow)))",
        "numberOfBytes": "32",
        "value": "t_mapping(t_address,t_mapping(t_uint256,t_struct(Escrow)45073_storage))"
      },
      "t_mapping(t_uint256,t_struct(Escrow)45073_storage)": {
        "encoding": "mapping",
        "key": "t_uint256",
        "label": "mapping(uint256 => struct EscrowType.Escrow)",
        "numberOfBytes": "32",
        "value": "t_struct(Escrow)45073_storage"
      },
      "t_struct(Escrow)45073_storage": {
        "encoding": "inplace",
        "label": "struct EscrowType.Escrow",
        "members": [
          {
            "astId": 45064,
            "contract": "src/v0.8/core/finance/Escrow.sol:Escrow",
            "label": "owner",
            "offset": 0,
            "slot": "0",
            "type": "t_struct(Fund)45060_storage"
          },
          {
            "astId": 45067,
            "contract": "src/v0.8/core/finance/Escrow.sol:Escrow",
            "label": "beneficiariesList",
            "offset": 0,
            "slot": "5",
            "type": "t_array(t_address)dyn_storage"
          },
          {
            "astId": 45072,
            "contract": "src/v0.8/core/finance/Escrow.sol:Escrow",
            "label": "beneficiaries",
            "offset": 0,
            "slot": "6",
            "type": "t_mapping(t_address,t_struct(Fund)45060_storage)"
          }
        ],
        "numberOfBytes": "224"
      },
      "t_struct(Fund)45060_storage": {
        "encoding": "inplace",
        "label": "struct EscrowType.Fund",
        "members": [
          {
            "astId": 45051,
            "contract": "src/v0.8/core/finance/Escrow.sol:Escrow",
            "label": "total",
            "offset": 0,
            "slot": "0",
            "type": "t_uint256"
          },
          {
            "astId": 45053,
            "contract": "src/v0.8/core/finance/Escrow.sol:Escrow",
            "label": "lock",
            "offset": 0,
            "slot": "1",
            "type": "t_uint256"
          },
          {
            "astId": 45055,
            "contract": "src/v0.8/core/finance/Escrow.sol:Escrow",
            "label": "collateral",
            "offset": 0,
            "slot": "2",
            "type": "t_uint256"
          },
          {
            "astId": 45057,
            "contract": "src/v0.8/core/finance/Escrow.sol:Escrow",
            "label": "burned",
            "offset": 0,
            "slot": "3",
            "type": "t_uint256"
          },
          {
            "astId": 45059,
            "contract": "src/v0.8/core/finance/Escrow.sol:Escrow",
            "label": "createdBlockNumber",
            "offset": 0,
            "slot": "4",
            "type": "t_uint64"
          }
        ],
        "numberOfBytes": "160"
      },
      "t_uint256": {
        "encoding": "inplace",
        "label": "uint256",
        "numberOfBytes": "32"
      },
      "t_uint64": {
        "encoding": "inplace",
        "label": "uint64",
        "numberOfBytes": "8"
      },
      "t_uint8": {
        "encoding": "inplace",
        "label": "uint8",
        "numberOfBytes": "1"
      }
    }
  }
}