{
  "address": "0xA2536e042973Aa01C0a8463cb7905116F091CF76",
  "abi": [
    {
      "inputs": [
        {
          "internalType": "int256",
          "name": "errorCode",
          "type": "int256"
        }
      ],
      "name": "ActorError",
      "type": "error"
    },
    {
      "inputs": [],
      "name": "ActorNotFound",
      "type": "error"
    },
    {
      "inputs": [],
      "name": "FailToCallActor",
      "type": "error"
    },
    {
      "inputs": [
        {
          "internalType": "uint64",
          "name": "",
          "type": "uint64"
        }
      ],
      "name": "InvalidCodec",
      "type": "error"
    },
    {
      "inputs": [],
      "name": "InvalidResponseLength",
      "type": "error"
    },
    {
      "inputs": [
        {
          "internalType": "uint256",
          "name": "balance",
          "type": "uint256"
        },
        {
          "internalType": "uint256",
          "name": "value",
          "type": "uint256"
        }
      ],
      "name": "NotEnoughBalance",
      "type": "error"
    },
    {
      "inputs": [
        {
          "internalType": "uint256",
          "name": "u1",
          "type": "uint256"
        },
        {
          "internalType": "uint256",
          "name": "u2",
          "type": "uint256"
        }
      ],
      "name": "SliceUInt8Error",
      "type": "error"
    },
    {
      "anonymous": false,
      "inputs": [
        {
          "indexed": false,
          "internalType": "address",
          "name": "previousAdmin",
          "type": "address"
        },
        {
          "indexed": false,
          "internalType": "address",
          "name": "newAdmin",
          "type": "address"
        }
      ],
      "name": "AdminChanged",
      "type": "event"
    },
    {
      "anonymous": false,
      "inputs": [
        {
          "indexed": true,
          "internalType": "address",
          "name": "beacon",
          "type": "address"
        }
      ],
      "name": "BeaconUpgraded",
      "type": "event"
    },
    {
      "anonymous": false,
      "inputs": [
        {
          "indexed": false,
          "internalType": "uint8",
          "name": "version",
          "type": "uint8"
        }
      ],
      "name": "Initialized",
      "type": "event"
    },
    {
      "anonymous": false,
      "inputs": [
        {
          "indexed": true,
          "internalType": "address",
          "name": "implementation",
          "type": "address"
        }
      ],
      "name": "Upgraded",
      "type": "event"
    },
    {
      "inputs": [
        {
          "internalType": "uint64",
          "name": "client",
          "type": "uint64"
        },
        {
          "internalType": "uint256",
          "name": "_size",
          "type": "uint256"
        }
      ],
      "name": "allocateDatacap",
      "outputs": [],
      "stateMutability": "nonpayable",
      "type": "function"
    },
    {
      "inputs": [],
      "name": "getImplementation",
      "outputs": [
        {
          "internalType": "address",
          "name": "",
          "type": "address"
        }
      ],
      "stateMutability": "view",
      "type": "function"
    },
    {
      "inputs": [
        {
          "internalType": "uint64",
          "name": "_provider",
          "type": "uint64"
        },
        {
          "internalType": "uint64",
          "name": "_claimId",
          "type": "uint64"
        }
      ],
      "name": "getReplicaClaimData",
      "outputs": [
        {
          "internalType": "bytes",
          "name": "",
          "type": "bytes"
        }
      ],
      "stateMutability": "nonpayable",
      "type": "function"
    },
    {
      "inputs": [
        {
          "internalType": "bytes32",
          "name": "",
          "type": "bytes32"
        },
        {
          "internalType": "uint64",
          "name": "_claimId",
          "type": "uint64"
        }
      ],
      "name": "getReplicaDealState",
      "outputs": [
        {
          "internalType": "enum FilecoinType.DealState",
          "name": "",
          "type": "uint8"
        }
      ],
      "stateMutability": "nonpayable",
      "type": "function"
    },
    {
      "inputs": [
        {
          "internalType": "address",
          "name": "_datacap",
          "type": "address"
        }
      ],
      "name": "initDependencies",
      "outputs": [],
      "stateMutability": "nonpayable",
      "type": "function"
    },
    {
      "inputs": [
        {
          "internalType": "enum FilecoinType.Network",
          "name": "_network",
          "type": "uint8"
        },
        {
          "internalType": "address",
          "name": "_roles",
          "type": "address"
        }
      ],
      "name": "initialize",
      "outputs": [],
      "stateMutability": "nonpayable",
      "type": "function"
    },
    {
      "inputs": [],
      "name": "network",
      "outputs": [
        {
          "internalType": "enum FilecoinType.Network",
          "name": "",
          "type": "uint8"
        }
      ],
      "stateMutability": "view",
      "type": "function"
    },
    {
      "inputs": [],
      "name": "proxiableUUID",
      "outputs": [
        {
          "internalType": "bytes32",
          "name": "",
          "type": "bytes32"
        }
      ],
      "stateMutability": "view",
      "type": "function"
    },
    {
      "inputs": [
        {
          "internalType": "uint64",
          "name": "claimId",
          "type": "uint64"
        },
        {
          "internalType": "bytes",
          "name": "_data",
          "type": "bytes"
        }
      ],
      "name": "setMockClaimData",
      "outputs": [],
      "stateMutability": "nonpayable",
      "type": "function"
    },
    {
      "inputs": [
        {
          "internalType": "enum FilecoinType.DealState",
          "name": "_state",
          "type": "uint8"
        }
      ],
      "name": "setMockDealState",
      "outputs": [],
      "stateMutability": "nonpayable",
      "type": "function"
    },
    {
      "inputs": [
        {
          "internalType": "address",
          "name": "newImplementation",
          "type": "address"
        }
      ],
      "name": "upgradeTo",
      "outputs": [],
      "stateMutability": "nonpayable",
      "type": "function"
    },
    {
      "inputs": [
        {
          "internalType": "address",
          "name": "newImplementation",
          "type": "address"
        },
        {
          "internalType": "bytes",
          "name": "data",
          "type": "bytes"
        }
      ],
      "name": "upgradeToAndCall",
      "outputs": [],
      "stateMutability": "payable",
      "type": "function"
    }
  ],
  "numDeployments": 7,
  "solcInputHash": "81e223954fe1aeec08a784fd88e3a776",
  "bytecode": "0x60a06040523060805234801561001457600080fd5b5060805161342461004c600039600081816102460152818161028f01528181610392015281816103d2015261056501526134246000f3fe6080604052600436106100975760003560e01c80633659cfe61461009c57806348abed57146100be5780634f1ef286146100de5780635187599d146100f157806352d1902d146101115780636739afca1461013c5780639aabb5c3146101635780639c452162146101825780639cdaed62146101a2578063aaf10f42146101c0578063ceb1a8cb146101e2578063d52f338a1461020f575b600080fd5b3480156100a857600080fd5b506100bc6100b7366004612482565b61023c565b005b3480156100ca57600080fd5b506100bc6100d93660046124ce565b610326565b6100bc6100ec36600461260f565b610388565b3480156100fd57600080fd5b506100bc61010c366004612674565b61043d565b34801561011d57600080fd5b50610126610558565b60405161013391906126af565b60405180910390f35b34801561014857600080fd5b506065546101569060ff1681565b6040516101339190612701565b34801561016f57600080fd5b506100bc61017e36600461270f565b5050565b34801561018e57600080fd5b506100bc61019d366004612482565b6105b5565b3480156101ae57600080fd5b506100bc6101bd366004612749565b50565b3480156101cc57600080fd5b506101d561066d565b6040516101339190612773565b3480156101ee57600080fd5b506102026101fd366004612781565b61067c565b6040516101339190612812565b34801561021b57600080fd5b5061022f61022a366004612823565b610766565b6040516101339190612873565b6001600160a01b037f000000000000000000000000000000000000000000000000000000000000000016300361028d5760405162461bcd60e51b8152600401610284906128bb565b60405180910390fd5b7f00000000000000000000000000000000000000000000000000000000000000006001600160a01b03166102bf6107bf565b6001600160a01b0316146102e55760405162461bcd60e51b815260040161028490612902565b6102ee816107db565b6101bd816000604051818152601f19601f830116810160200160405290801561031e576020820181803683370190505b50600061086f565b6066546001600160a01b03163381146103515760405162461bcd60e51b815260040161028490612949565b6000604051806040016040528061036786610951565b8152602001610375856109a9565b90529050610382816109f5565b50505050565b6001600160a01b037f00000000000000000000000000000000000000000000000000000000000000001630036103d05760405162461bcd60e51b8152600401610284906128bb565b7f00000000000000000000000000000000000000000000000000000000000000006001600160a01b03166104026107bf565b6001600160a01b0316146104285760405162461bcd60e51b815260040161028490612902565b610431826107db565b61017e8282600161086f565b600054610100900460ff161580801561045d5750600054600160ff909116105b8061047e575061046c30610a3b565b15801561047e575060005460ff166001145b61049a5760405162461bcd60e51b8152600401610284906129a4565b6000805460ff1916600117905580156104bd576000805461ff0019166101001790555b6065805484919060ff191660018360028111156104dc576104dc6126bd565b021790555060658054610100600160a81b0319166101006001600160a01b03851602179055610509610a4a565b8015610553576000805461ff00191690557f7f26b83ff96e1f2b6a682f133852f6798a09c465da95921460cefb3847402498600160405161054a91906129c8565b60405180910390a15b505050565b6000306001600160a01b037f000000000000000000000000000000000000000000000000000000000000000016146105a25760405162461bcd60e51b815260040161028490612a2b565b506000805160206133a883398151915290565b60655461010090046001600160a01b03166000816391d1485482336040518363ffffffff1660e01b81526004016105ed929190612a3b565b602060405180830381865afa15801561060a573d6000803e3d6000fd5b50505050604051601f3d908101601f1916820160405261062d9190810190612a6d565b6106495760405162461bcd60e51b815260040161028490612abf565b5050606680546001600160a01b0319166001600160a01b0392909216919091179055565b60006106776107bf565b905090565b606061069960405160408082019052600081526060602082015290565b6001600160401b0384168152600060016040519080825280602002602001820160405280156106d2578160200160208202803683370190505b50905083816000815181106106e9576106e9612acf565b6001600160401b039092166020928302919091018201528201819052600061071083610a73565b90506000816020015151116107375760405162461bcd60e51b815260040161028490612b16565b806020015160008151811061074e5761074e612acf565b60200260200101516040015193505050505b92915050565b60008061077283610ab3565b905043816020015160070b121561078d576003915050610760565b600061079884610af4565b905043816020015160070b12156107b457600292505050610760565b506000949350505050565b6000805160206133a8833981519152546001600160a01b031690565b60655461010090046001600160a01b03166000816391d1485482336040518363ffffffff1660e01b8152600401610813929190612a3b565b602060405180830381865afa158015610830573d6000803e3d6000fd5b50505050604051601f3d908101601f191682016040526108539190810190612a6d565b6105535760405162461bcd60e51b815260040161028490612abf565b7f4910fdfa16fed3260ed0e7147f7cc6da11a60208b5b9406d12a635614ffd91435460ff16156108a25761055383610b2a565b826001600160a01b03166352d1902d6040518163ffffffff1660e01b8152600401602060405180830381865afa9250505080156108fc5750604051601f3d908101601f191682016040526108f99190810190612b35565b60015b6109185760405162461bcd60e51b815260040161028490612ba1565b6000805160206133a883398151915281146109455760405162461bcd60e51b815260040161028490612bf7565b50610553838383610b7e565b610965604051602081016040526060815290565b600061097083610ba3565b90506040516020810160405280825160405160200161098f9190612c3c565b604051602081830303815290604052815250915050919050565b6109c460405160408082019052606081526000602082015290565b60006109d1836000610bf0565b90506040516040808201905280825181526020018260200151151590529392505050565b6000610a0082610c2a565b90506000610a19600663e96cc6f0605185600080610cc1565b905080511561055357604051630e74990760e01b815260040160405180910390fd5b6001600160a01b03163b151590565b600054610100900460ff16610a715760405162461bcd60e51b815260040161028490612c9b565b565b610a7b6123ad565b6000610a8683610d9d565b90506000610aa0600663831f5ed360518560006001610cc1565b9050610aab81610eb8565b949350505050565b610abb6123e0565b6000610acf836001600160401b03166112fd565b90506000610ae960056309c30b2060518560006001610cc1565b9050610aab81611335565b610afc6123e0565b6000610b10836001600160401b03166112fd565b90506000610ae96005639904f2ff60518560006001610cc1565b610b3381610a3b565b610b4f5760405162461bcd60e51b815260040161028490612cf5565b6000805160206133a883398151915280546001600160a01b0319166001600160a01b0392909216919091179055565b610b878361138d565b600082511180610b945750805b156105535761038283836113cf565b610bab6123f7565b6001600160391b03600783901c1691607f166000839003610bd757610bd082826113f2565b5050919050565b610be482608083176113f2565b5050610bab565b919050565b610bf861240f565b610c2383604051602001610c0c9190612d0b565b604051602081830303815290604052836000611452565b9392505050565b6060600080610c3c8460200151611509565b9050610c486002611627565b610c529083612d36565b9150610c5f845151611675565b610c699083612d36565b9150610c7481611675565b610c7e9083612d36565b91506000610c8b8361168d565b9050610c988160026116ad565b610ca585515182906116b9565b610caf81836116b9565b610cb8816116d2565b95945050505050565b6060610cd46005607f60991b01846116ff565b6000806005607f60991b01888686610ced576000610cf0565b60015b8a8a8e604051602001610d0896959493929190612d72565b604051602081830303815290604052604051610d249190612dd3565b600060405180830381855af49150503d8060008114610d5f576040513d603f01601f191681016040523d815291503d6000602084013e610d64565b606091505b509150915081610d8757604051638a7db5bf60e01b815260040160405180910390fd5b610d9081611747565b9998505050505050505050565b60606000808360200151519050610db46002611627565b610dbe9083612d36565b9150610dca845161181e565b610dd49083612d36565b9150610ddf81611627565b610de99083612d36565b915060005b81811015610e3a57610e1c85602001518281518110610e0f57610e0f612acf565b602002602001015161181e565b610e269084612d36565b925080610e3281612ddf565b915050610dee565b506000610e468361168d565b9050610e538160026116ad565b610e5f85518290611833565b610e6981836116ad565b60005b82811015610eae57610e9c86602001518281518110610e8d57610e8d612acf565b60200260200101518390611833565b80610ea681612ddf565b915050610e6c565b50610cb8816116d2565b610ec06123ad565b600080610ecd848261183d565b9250905060028114610ee157610ee1612df2565b610eeb848361183d565b9250905060028114610eff57610eff612df2565b610f098483611889565b845163ffffffff92831690529250610f25908590849061183d16565b92509050806001600160401b03811115610f4157610f41612515565b604051908082528060200260200182016040528015610f8c57816020015b610f79604051604080820190526000808252602082015290565b815260200190600190039081610f5f5790505b5083516020015260005b8181101561104457610fa8858461183d565b9350915060028214610fbc57610fbc612df2565b610fc68584611889565b8551602001518381518110610fdd57610fdd612acf565b602002602001015163ffffffff92831690529350610fff908690859061188916565b855160200151838151811061101657611016612acf565b602002602001015163ffffffff9092166020929092019190915292508061103c81612ddf565b915050610f96565b5061104f848361183d565b92509050806001600160401b0381111561106b5761106b612515565b6040519080825280602002602001820160405280156110e357816020015b6110d06040516101008101604090815260008083526020830181905260609183018290529082018190526080820181905260a0820181905260c0820181905260e082015290565b8152602001906001900390816110895790505b50602084015260005b818110156112f5576110fe858461183d565b935091506008821461111257611112612df2565b61111c85846118ca565b8560200151838151811061113257611132612acf565b60200260200101516001600160401b03909216909152925061115485846118ca565b8560200151838151811061116a5761116a612acf565b60200260200101516001600160401b0390921660209290920191909152925061119385846118e4565b856020015183815181106111a9576111a9612acf565b60200260200101516040019190915292506111c48584611889565b856020015183815181106111da576111da612acf565b60200260200101516001600160401b039092166060929092019190915292506112038584611a56565b8560200151838151811061121957611219612acf565b602002602001015160079290920b608090920191909152925061123c8584611a56565b8560200151838151811061125257611252612acf565b602002602001015160079290920b60a09092019190915292506112758584611a56565b8560200151838151811061128b5761128b612acf565b602002602001015160079290920b60c09092019190915292506112ae85846118ca565b856020015183815181106112c4576112c4612acf565b60200260200101516001600160401b0390921660e092909201919091529250806112ed81612ddf565b9150506110ec565b505050919050565b60606000611313836001600160401b0316611627565b905060006113208261168d565b905061132c8185611a64565b610aab816116d2565b61133d6123e0565b60008061134a848261183d565b925090506002811461135e5761135e612df2565b6113688483611a56565b60079190910b8452915061137c8483611a56565b5060070b6020840152509092915050565b61139681610b2a565b806001600160a01b03167fbc7cd75a20ee27fd9adebab32041f755214dbc6bffa90cc0225b39da2e5c2d3b60405160405180910390a250565b6060610c2383836040516060810160405260278082526133c86020830139611a70565b6113fa6123f7565b60008351519050600061140e826001612d36565b90508460200151821061142f5761142f8561142a836002612e08565b611ae8565b84516020838201018581538151831115611447578282525b509495945050505050565b61145a61240f565b602084018451600059601f8316156001811461148857601f8416602090810380860184528301019250611492565b6020820192508382525b508282848660046101c2fa506020815101810160405280515b602081146114d9576000602083015114600181146114c957506114d9565b60208301925050601f19016114ab565b815284525050506020810183905281156114f357816114fd565b6114fd8151611b03565b60408201529392505050565b6060600082515161151b906001612d36565b6001600160401b0381111561153257611532612515565b604051818152601f19601f830116810160200160405290801561155c576020820181803683370190505b5090508260200151151560011461157457600061157a565b600160f81b5b8160008151811061158d5761158d612acf565b60200101906001600160f81b031916908160001a905350600160005b84515181101561161e57845181815181106115c6576115c6612acf565b60200101516001600160f81b0319168383815181106115e7576115e7612acf565b60200101906001600160f81b031916908160001a9053508161160881612ddf565b925050808061161690612ddf565b9150506115a9565b50909392505050565b60006017821161163957506001919050565b60ff821161164957506002919050565b61ffff821161165a57506003919050565b63ffffffff821161166d57506005919050565b506009919050565b600081516116838351611627565b6107609190612d36565b611695612432565b6116a0815183611b41565b5060006020820152919050565b61017e82600483611bab565b6116c68260028351611bb2565b61055381835190611ccf565b60608160200151156116f65760405162461bcd60e51b815260040161028490612e4a565b81515192915050565b4781811015611725578082604051634787a10360e11b8152600401610284929190612e5a565b823f1515806103825760405163064d954b60e41b815260040160405180910390fd5b6060600080806020850185518101906117609190612edc565b919450925090506001600160401b03821661179a5780511561179557604051630e74990760e01b815260040160405180910390fd5b6117fd565b6001600160401b038216605114806117bb57506001600160401b0382166071145b156117e257805160000361179557604051630e74990760e01b815260040160405180910390fd5b8160405163f1f6bced60e01b81526004016102849190612f46565b8215610aab578260405163d4bb667160e01b815260040161028491906126af565b600081610c236001600160401b038216611627565b61017e8282611a64565b60008060008061184d8686611ce3565b96509092506001600160401b0316905060ff82166004146118805760405162461bcd60e51b815260040161028490612f88565b95939450505050565b6000806000806118998686611ce3565b96509092506001600160401b0316905060ff8216156118805760405162461bcd60e51b815260040161028490612fda565b600080806118d88585611889565b90969095509350505050565b606060008060006118f58686611ce3565b96509092506001600160401b0316905060ff82166006148061191a575060ff82166002145b6119365760405162461bcd60e51b815260040161028490613035565b60051960ff83160161196f5761194c8686611ce3565b96509092506001600160401b0316905060ff821660021461196f5761196f612df2565b600061197b8287612d36565b90506000826001600160401b0381111561199757611997612515565b604051818152601f19601f83011681016020016040529080156119c1576020820181803683370190505b5090506000875b83811015611a3a578981815181106119e2576119e2612acf565b60200101516001600160f81b031916838381518110611a0357611a03612acf565b60200101906001600160f81b031916908160001a90535081611a2481612ddf565b9250508080611a3290612ddf565b9150506119c8565b5081611a46858a612d36565b9650965050505050509250929050565b600080806118d88585611e60565b61017e82600083611bb2565b6060600080856001600160a01b031685604051611a8d9190612dd3565b600060405180830381855af49150503d8060008114611ac8576040513d603f01601f191681016040523d815291503d6000602084013e611acd565b606091505b5091509150611ade86838387611eaf565b9695505050505050565b600082519050611af88383611b41565b506103828382611ccf565b6000611b0e82611ef6565b15611b1b57506000919050565b600060208301519050611b2d81611f3f565b915060086020845103028201915050919050565b611b496123f7565b611b5460208361305b565b15611b7c57611b6460208361305b565b611b6f90602061306f565b611b799083612d36565b91505b602083018290526040518084526000815282810160200181811015611ba057600080fd5b604052509192915050565b6105538383835b6017816001600160401b031611611bd85761038260e0600584901b1682178451906113f2565b60ff816001600160401b031611611c1957611c006018611fe0600585901b16178451906113f2565b506103826001600160401b038216600185519190612130565b61ffff816001600160401b031611611c5b57611c426019611fe0600585901b16178451906113f2565b506103826001600160401b038216600285519190612130565b63ffffffff816001600160401b031611611c9f57611c86601a611fe0600585901b16178451906113f2565b506103826001600160401b038216600485519190612130565b611cb6601b611fe0600585901b16178451906113f2565b506103826001600160401b038216600885519190612130565b611cd76123f7565b610c23838384516121ac565b600080600080611cf38686612273565b9050611d00600186612d36565b94506007600582901c16601f8216601c8110611d2e5760405162461bcd60e51b8152600401610284906130c4565b60188160ff161015611d4c5790945060ff169250849150611e599050565b8060ff16601803611da9576000611d638989612273565b9050611d70600189612d36565b975060188160ff161015611d965760405162461bcd60e51b8152600401610284906130f7565b9195505060ff169250849150611e599050565b8060ff16601903611de3576000611dc089896122bd565b9050611dcd600289612d36565b97509195505061ffff169250849150611e599050565b8060ff16601a03611e1f576000611dfa89896122fe565b9050611e07600489612d36565b97509195505063ffffffff169250849150611e599050565b8060ff16601b14611e3257611e32612df2565b6000611e3e898961233f565b9050611e4b600889612d36565b975091955090935085925050505b9250925092565b600080600080611e708686611ce3565b96509092506001600160401b0316905060ff821660011480611e93575060ff8216155b6118805760405162461bcd60e51b815260040161028490613159565b60608315611eec578251600003611ee557611ec985610a3b565b611ee55760405162461bcd60e51b81526004016102849061319d565b5081610aab565b610aab8383612380565b60008060208301815b8451811015611f3457815192508215611f1d57506000949350505050565b602091820191611f2d9082612d36565b9050611eff565b506001949350505050565b600081156001811461212557600160801b600160401b600160201b620100006101006010600460026000198b019081041790810417908104179081041790810417908104179081041790810417600101926040517ff8f9cbfae6cc78fbefe7cdc3a1793dfcf4f0e8bbd8cec470b6a28a7a5a3e1efd81527ff5ecf1b3e9debc68e1d9cfabc5997135bfb7a7a3938b7b606b5b4b3f2f1f0ffe60208201527ff6e4ed9ff2d6b458eadcdf97bd91692de2d4da8fd2d0ac50c6ae9a827252361660408201527fc8c0b887b0a8a4489c948c7f847c6125746c645c544c444038302820181008ff60608201527ff7cae577eec2a03cf3bad76fb589591debb2dd67e0aa9834bea6925f6a4a2e0e60808201527fe39ed557db96902cd38ed14fad815115c786af479b7e8324736353433727170760a08201527fc976c13bb96e881cb166a933a55e490d9d56952b8d4e801485467d236242260660c08201527f753a6d1b65325d0c552a4d1345224105391a310b29122104190a11030902010060e082015261010081016040527e818283848586878898a8b8c8d8e8f929395969799a9b9d9e9faaeb6bedeeff600160f81b8082880204818160ff0385015104600160ff1b8611610100020196506000198501851661211b576001870196505b505050505061212a565b600091505b50919050565b6121386123f7565b60008451519050600061214b8285612d36565b90508560200151811115612168576121688661142a836002612e08565b60006001612178866101006132bb565b612182919061306f565b90508651828101878319825116178152815184111561219f578382525b5096979650505050505050565b6121b46123f7565b82518211156121c257600080fd5b6000845151905060006121d58483612d36565b905085602001518111156121f2576121f28661142a836002612e08565b6000808751805185602083010193508085111561220d578482525b505050602086015b6020861061224d578051825261222c602083612d36565b9150612239602082612d36565b905061224660208761306f565b9550612215565b60001960208790036101000a018019825116818451161790925250959695505050505050565b6000818351101561229c5782518260405163765b269760e01b8152600401610284929190612e5a565b8282815181106122ae576122ae612acf565b602001015160f81c9392505050565b60006122ca826002612d36565b835110156122ea5760405162461bcd60e51b8152600401610284906132f9565b60008260200184015160f01c949350505050565b600061230b826004612d36565b8351101561232b5760405162461bcd60e51b815260040161028490613338565b60008260200184015160e01c949350505050565b600061234c826008612d36565b8351101561236c5760405162461bcd60e51b815260040161028490613377565b60008260200184015160c01c949350505050565b6000825111156123935781518083602001fd5b8060405162461bcd60e51b81526004016102849190612812565b60405180604001604052806123d360405160408082019052600081526060602082015290565b8152602001606081525090565b604051604080820190526000808252602082015290565b60405160408082019052606081526000602082015290565b604051806060016040528060608152602001600015158152602001600081525090565b60405180604001604052806124456123f7565b8152602001600081525090565b60006001600160a01b038216610760565b61246c81612452565b81146101bd57600080fd5b803561076081612463565b60006020828403121561249757612497600080fd5b6000610aab8484612477565b6001600160401b03811661246c565b8035610760816124a3565b8061246c565b8035610760816124bd565b600080604083850312156124e4576124e4600080fd5b60006124f085856124b2565b9250506020612501858286016124c3565b9150509250929050565b601f01601f191690565b634e487b7160e01b600052604160045260246000fd5b6125348261250b565b81018181106001600160401b038211171561255157612551612515565b6040525050565b60006125676000604051905090565b9050610beb828261252b565b60006001600160401b0382111561258c5761258c612515565b6125958261250b565b60200192915050565b82818337506000910152565b60006125bd6125b884612573565b612558565b9050828152602081018484840111156125d8576125d8600080fd5b6125e384828561259e565b509392505050565b600082601f8301126125ff576125ff600080fd5b8135610aab8482602086016125aa565b6000806040838503121561262557612625600080fd5b60006126318585612477565b92505060208301356001600160401b0381111561265057612650600080fd5b612501858286016125eb565b600381106101bd57600080fd5b80356107608161265c565b6000806040838503121561268a5761268a600080fd5b60006126968585612669565b925050602061250185828601612477565b805b82525050565b6020810161076082846126a7565b634e487b7160e01b600052602160045260246000fd5b600381106101bd576101bd6126bd565b80610beb816126d3565b6000610760826126e3565b6126a9816126ed565b6020810161076082846126f8565b6000806040838503121561272557612725600080fd5b600061263185856124b2565b600481106101bd57600080fd5b803561076081612731565b60006020828403121561275e5761275e600080fd5b6000610aab848461273e565b6126a981612452565b60208101610760828461276a565b6000806040838503121561279757612797600080fd5b60006127a385856124b2565b9250506020612501858286016124b2565b60005b838110156127cf5780820151838201526020016127b7565b50506000910152565b60006127e8826000815192915050565b8084526020840193506127ff8185602086016127b4565b6128088161250b565b9093019392505050565b60208082528101610c2381846127d8565b6000806040838503121561283957612839600080fd5b60006127a385856124c3565b600481106101bd576101bd6126bd565b80610beb81612845565b600061076082612855565b6126a98161285f565b60208101610760828461286a565b602c815260006020820160008051602061338883398151915281526b19195b1959d85d1958d85b1b60a21b602082015291505b5060400190565b6020808252810161076081612881565b602c815260006020820160008051602061338883398151915281526b6163746976652070726f787960a01b602082015291506128b4565b60208082528101610760816128cb565b601d81526000602082017f4f6e6c7920616c6c6f77656420616464726573732063616e2063616c6c000000815291505b5060200190565b6020808252810161076081612912565b602e81526000602082017f496e697469616c697a61626c653a20636f6e747261637420697320616c72656181526d191e481a5b9a5d1a585b1a5e995960921b602082015291506128b4565b6020808252810161076081612959565b600060ff8216610760565b6126a9816129b4565b6020810161076082846129bf565b603881526000602082017f555550535570677261646561626c653a206d757374206e6f742062652063616c8152771b1959081d1a1c9bdd59da0819195b1959d85d1958d85b1b60421b602082015291506128b4565b60208082528101610760816129d6565b60408101612a4982856126a7565b610c23602083018461276a565b80151561246c565b60008151905061076081612a56565b600060208284031215612a8257612a82600080fd5b6000610aab8484612a5e565b601a81526000602082017913db9b1e48185b1b1bddd959081c9bdb194818d85b8818d85b1b60321b81529150612942565b6020808252810161076081612a8e565b634e487b7160e01b600052603260045260246000fd5b601a81526000602082017906c656e677468206d6173742067726561746572207468616e20360341b81529150612942565b6020808252810161076081612ae5565b600081519050610760816124bd565b600060208284031215612b4a57612b4a600080fd5b6000610aab8484612b26565b602e81526000602082017f45524331393637557067726164653a206e657720696d706c656d656e7461746981526d6f6e206973206e6f74205555505360901b602082015291506128b4565b6020808252810161076081612b56565b602981526000602082017f45524331393637557067726164653a20756e737570706f727465642070726f788152681a58589b195555525160ba1b602082015291506128b4565b6020808252810161076081612bb1565b60008082525b5060010190565b6000612c24826000815192915050565b612c328185602086016127b4565b9290920192915050565b6000612c4782612c07565b9150610c238284612c14565b602b81526000602082017f496e697469616c697a61626c653a20636f6e7472616374206973206e6f74206981526a6e697469616c697a696e6760a81b602082015291506128b4565b6020808252810161076081612c53565b602d81526000602082017f455243313936373a206e657720696d706c656d656e746174696f6e206973206e81526c1bdd08184818dbdb9d1c9858dd609a1b602082015291506128b4565b6020808252810161076081612cab565b806126a9565b6000612d178284612d05565b50602001919050565b634e487b7160e01b600052601160045260246000fd5b8082018082111561076057610760612d20565b6001600160401b0381166126a9565b60006001600160401b038216610760565b6126a981612d58565b60c08101612d808289612d49565b612d8d60208301886126a7565b612d9a6040830187612d49565b612da76060830186612d49565b8181036080830152612db981856127d8565b9050612dc860a0830184612d69565b979650505050505050565b6000610c238284612c14565b60006000198203612c0d57612c0d612d20565b634e487b7160e01b600052600160045260246000fd5b818102808215838204851417612e2057612e20612d20565b5092915050565b600c81526000602082016b24b73b30b634b21021a127a960a11b81529150612942565b6020808252810161076081612e27565b60408101612e6882856126a7565b610c2360208301846126a7565b600081519050610760816124a3565b6000612e926125b884612573565b905082815260208101848484011115612ead57612ead600080fd5b6125e38482856127b4565b600082601f830112612ecc57612ecc600080fd5b8151610aab848260208601612e84565b600080600060608486031215612ef457612ef4600080fd5b6000612f008686612b26565b9350506020612f1186828701612e75565b92505060408401516001600160401b03811115612f3057612f30600080fd5b612f3c86828701612eb8565b9150509250925092565b602081016107608284612d49565b601f81526000602082017f696e76616c6964206d616a20286578706563746564204d616a4172726179290081529150612942565b6020808252810161076081612f54565b602581526000602082017f696e76616c6964206d616a20286578706563746564204d616a556e7369676e6581526464496e742960d81b602082015291506128b4565b6020808252810161076081612f98565b602e81526000602082017f696e76616c6964206d616a20286578706563746564204d616a546167206f722081526d4d616a42797465537472696e672960901b602082015291506128b4565b6020808252810161076081612fea565b634e487b7160e01b600052601260045260246000fd5b60008261306a5761306a613045565b500690565b8181038181111561076057610760612d20565b602581526000602082017f63616e6e6f742068616e646c6520686561646572732077697468206578747261815264203e20323760d81b602082015291506128b4565b6020808252810161076081613082565b600c81526000602082016b34b73b30b634b21031b137b960a11b81529150612942565b60208082528101610760816130d4565b603581526000602082017f696e76616c6964206d616a20286578706563746564204d616a5369676e6564498152746e74206f72204d616a556e7369676e6564496e742960581b602082015291506128b4565b6020808252810161076081613107565b601d81526000602082017f416464726573733a2063616c6c20746f206e6f6e2d636f6e747261637400000081529150612942565b6020808252810161076081613169565b80825b60018511156131ec578086048111156131cb576131cb612d20565b60018516156131d957908102905b80026131e58560011c90565b94506131b0565b94509492505050565b60008261320457506001610c23565b8161321157506000610c23565b816001811461322757600281146132315761325e565b6001915050610c23565b60ff84111561324257613242612d20565b8360020a91508482111561325857613258612d20565b50610c23565b5060208310610133831016604e8410600b8410161715613291575081810a8381111561328c5761328c612d20565b610c23565b61329e84848460016131ad565b925090508184048111156132b4576132b4612d20565b0292915050565b6000610c2360001984846131f5565b601881526000602082017733343120736c6963696e67206f7574206f662072616e676560401b81529150612942565b60208082528101610760816132ca565b601881526000602082017733353420736c6963696e67206f7574206f662072616e676560401b81529150612942565b6020808252810161076081613309565b601881526000602082017733363720736c6963696e67206f7574206f662072616e676560401b81529150612942565b602080825281016107608161334856fe46756e6374696f6e206d7573742062652063616c6c6564207468726f75676820360894a13ba1a3210667c828492db98dca3e2076cc3735a920a3ca505d382bbc416464726573733a206c6f772d6c6576656c2064656c65676174652063616c6c206661696c6564a2646970667358221220412bf685c4c8081078a1d7d157d90c813dbe848f1cc36dd2b9b9f6410118d0ad64736f6c63430008150033",
  "devdoc": {
    "events": {
      "AdminChanged(address,address)": {
        "details": "Emitted when the admin account has changed."
      },
      "BeaconUpgraded(address)": {
        "details": "Emitted when the beacon is changed."
      },
      "Initialized(uint8)": {
        "details": "Triggered when the contract has been initialized or reinitialized."
      },
      "Upgraded(address)": {
        "details": "Emitted when the implementation is upgraded."
      }
    },
    "kind": "dev",
    "methods": {
      "getReplicaDealState(bytes32,uint64)": {
        "details": "TODO:check _claimId belongs to the _cid, now filecoin-solidity is not support           https://github.com/dataswap/core/issues/41"
      },
      "proxiableUUID()": {
        "details": "Implementation of the ERC1822 {proxiableUUID} function. This returns the storage slot used by the implementation. It is used to validate the implementation's compatibility when performing an upgrade. IMPORTANT: A proxy pointing at a proxiable contract should not be considered proxiable itself, because this risks bricking a proxy that upgrades to it, by delegating to itself until out of gas. Thus it is critical that this function revert if invoked through a proxy. This is guaranteed by the `notDelegated` modifier."
      },
      "setMockClaimData(uint64,bytes)": {
        "details": "mock the filecoin claim data"
      },
      "setMockDealState(uint8)": {
        "details": "do nothing,just for mock"
      },
      "upgradeTo(address)": {
        "custom:oz-upgrades-unsafe-allow-reachable": "delegatecall",
        "details": "Upgrade the implementation of the proxy to `newImplementation`. Calls {_authorizeUpgrade}. Emits an {Upgraded} event."
      },
      "upgradeToAndCall(address,bytes)": {
        "custom:oz-upgrades-unsafe-allow-reachable": "delegatecall",
        "details": "Upgrade the implementation of the proxy to `newImplementation`, and subsequently execute the function call encoded in `data`. Calls {_authorizeUpgrade}. Emits an {Upgraded} event."
      }
    },
    "stateVariables": {
      "__gap": {
        "details": "This empty reserved space is put in place to allow future versions to add new"
      }
    },
    "title": "Filecoin",
    "version": 1
  },
  "userdoc": {
    "errors": {
      "ActorError(int256)": [
        {
          "notice": "the called actor returned an error as part of its expected behaviour"
        }
      ],
      "ActorNotFound()": [
        {
          "notice": "the actor is not found"
        }
      ],
      "FailToCallActor()": [
        {
          "notice": "an error happened trying to call the actor"
        }
      ],
      "InvalidCodec(uint64)": [
        {
          "notice": "the codec received is not valid"
        }
      ],
      "InvalidResponseLength()": [
        {
          "notice": "the response received is not correct. In some case no response is expected and we received one, or a response was indeed expected and we received none."
        }
      ],
      "NotEnoughBalance(uint256,uint256)": [
        {
          "notice": "the smart contract has no enough balance to transfer"
        }
      ]
    },
    "kind": "user",
    "methods": {
      "allocateDatacap(uint64,uint256)": {
        "notice": "The function to allocate the datacap of a storage deal."
      },
      "getImplementation()": {
        "notice": "Returns the implementation contract"
      },
      "getReplicaClaimData(uint64,uint64)": {
        "notice": "Internal function to get the claim of a Filecoin storage for a replica."
      },
      "getReplicaDealState(bytes32,uint64)": {
        "notice": "Internal function to get the state of a Filecoin storage deal for a replica."
      },
      "initDependencies(address)": {
        "notice": "The function to init the dependencies of a filecoin."
      },
      "initialize(uint8,address)": {
        "notice": "initialize function to initialize the contract and grant the default admin role to the deployer."
      }
    },
    "version": 1
  },
  "storageLayout": {
    "storage": [
      {
        "astId": 5186,
        "contract": "src/v0.8/core/filecoin/Filecoin.sol:Filecoin",
        "label": "_initialized",
        "offset": 0,
        "slot": "0",
        "type": "t_uint8"
      },
      {
        "astId": 5189,
        "contract": "src/v0.8/core/filecoin/Filecoin.sol:Filecoin",
        "label": "_initializing",
        "offset": 1,
        "slot": "0",
        "type": "t_bool"
      },
      {
        "astId": 5168,
        "contract": "src/v0.8/core/filecoin/Filecoin.sol:Filecoin",
        "label": "__gap",
        "offset": 0,
        "slot": "1",
        "type": "t_array(t_uint256)50_storage"
      },
      {
        "astId": 5483,
        "contract": "src/v0.8/core/filecoin/Filecoin.sol:Filecoin",
        "label": "__gap",
        "offset": 0,
        "slot": "51",
        "type": "t_array(t_uint256)50_storage"
      },
      {
        "astId": 16987,
        "contract": "src/v0.8/core/filecoin/Filecoin.sol:Filecoin",
        "label": "network",
        "offset": 0,
        "slot": "101",
        "type": "t_enum(Network)35318"
      },
      {
        "astId": 16990,
        "contract": "src/v0.8/core/filecoin/Filecoin.sol:Filecoin",
        "label": "roles",
        "offset": 1,
        "slot": "101",
        "type": "t_contract(IRoles)20946"
      },
      {
        "astId": 16992,
        "contract": "src/v0.8/core/filecoin/Filecoin.sol:Filecoin",
        "label": "datacapAddress",
        "offset": 0,
        "slot": "102",
        "type": "t_address"
      },
      {
        "astId": 16997,
        "contract": "src/v0.8/core/filecoin/Filecoin.sol:Filecoin",
        "label": "__gap",
        "offset": 0,
        "slot": "103",
        "type": "t_array(t_uint256)32_storage"
      }
    ],
    "types": {
      "t_address": {
        "encoding": "inplace",
        "label": "address",
        "numberOfBytes": "20"
      },
      "t_array(t_uint256)32_storage": {
        "base": "t_uint256",
        "encoding": "inplace",
        "label": "uint256[32]",
        "numberOfBytes": "1024"
      },
      "t_array(t_uint256)50_storage": {
        "base": "t_uint256",
        "encoding": "inplace",
        "label": "uint256[50]",
        "numberOfBytes": "1600"
      },
      "t_bool": {
        "encoding": "inplace",
        "label": "bool",
        "numberOfBytes": "1"
      },
      "t_contract(IRoles)20946": {
        "encoding": "inplace",
        "label": "contract IRoles",
        "numberOfBytes": "20"
      },
      "t_enum(Network)35318": {
        "encoding": "inplace",
        "label": "enum FilecoinType.Network",
        "numberOfBytes": "1"
      },
      "t_uint256": {
        "encoding": "inplace",
        "label": "uint256",
        "numberOfBytes": "32"
      },
      "t_uint8": {
        "encoding": "inplace",
        "label": "uint8",
        "numberOfBytes": "1"
      }
    }
  }
}