{
  "address": "0x0f206E654ccF4Fedbd62bcB6cc8F2ebD55DF0D77",
  "abi": [
    {
      "inputs": [
        {
          "internalType": "uint64",
          "name": "matchingId",
          "type": "uint64"
        },
        {
          "internalType": "enum MatchingType.State",
          "name": "expectedState",
          "type": "uint8"
        },
        {
          "internalType": "enum MatchingType.State",
          "name": "actualState",
          "type": "uint8"
        }
      ],
      "name": "InvalidMatchingState",
      "type": "error"
    },
    {
      "inputs": [
        {
          "internalType": "uint64",
          "name": "matchingId",
          "type": "uint64"
        },
        {
          "internalType": "address",
          "name": "winner",
          "type": "address"
        }
      ],
      "name": "NotCompliantRuleMatchingTargetMeetsFilPlusRequirements",
      "type": "error"
    },
    {
      "inputs": [
        {
          "internalType": "uint64",
          "name": "matchingId",
          "type": "uint64"
        },
        {
          "internalType": "address",
          "name": "expectedInitiator",
          "type": "address"
        },
        {
          "internalType": "address",
          "name": "actualInitiator",
          "type": "address"
        }
      ],
      "name": "NotMatchingInitiator",
      "type": "error"
    },
    {
      "anonymous": false,
      "inputs": [
        {
          "indexed": false,
          "internalType": "address",
          "name": "previousAdmin",
          "type": "address"
        },
        {
          "indexed": false,
          "internalType": "address",
          "name": "newAdmin",
          "type": "address"
        }
      ],
      "name": "AdminChanged",
      "type": "event"
    },
    {
      "anonymous": false,
      "inputs": [
        {
          "indexed": true,
          "internalType": "address",
          "name": "beacon",
          "type": "address"
        }
      ],
      "name": "BeaconUpgraded",
      "type": "event"
    },
    {
      "anonymous": false,
      "inputs": [
        {
          "indexed": false,
          "internalType": "uint8",
          "name": "version",
          "type": "uint8"
        }
      ],
      "name": "Initialized",
      "type": "event"
    },
    {
      "anonymous": false,
      "inputs": [
        {
          "indexed": true,
          "internalType": "uint64",
          "name": "_matchingId",
          "type": "uint64"
        },
        {
          "indexed": false,
          "internalType": "address",
          "name": "_bidder",
          "type": "address"
        },
        {
          "indexed": false,
          "internalType": "uint256",
          "name": "_amount",
          "type": "uint256"
        }
      ],
      "name": "MatchingBidPlaced",
      "type": "event"
    },
    {
      "anonymous": false,
      "inputs": [
        {
          "indexed": true,
          "internalType": "address",
          "name": "implementation",
          "type": "address"
        }
      ],
      "name": "Upgraded",
      "type": "event"
    },
    {
      "inputs": [
        {
          "internalType": "uint64",
          "name": "_matchingId",
          "type": "uint64"
        },
        {
          "internalType": "uint256",
          "name": "_amount",
          "type": "uint256"
        }
      ],
      "name": "bidding",
      "outputs": [],
      "stateMutability": "payable",
      "type": "function"
    },
    {
      "inputs": [
        {
          "internalType": "uint64",
          "name": "_matchingId",
          "type": "uint64"
        }
      ],
      "name": "cancelMatching",
      "outputs": [],
      "stateMutability": "nonpayable",
      "type": "function"
    },
    {
      "inputs": [
        {
          "internalType": "uint64",
          "name": "_matchingId",
          "type": "uint64"
        }
      ],
      "name": "closeMatching",
      "outputs": [],
      "stateMutability": "nonpayable",
      "type": "function"
    },
    {
      "inputs": [],
      "name": "datasets",
      "outputs": [
        {
          "internalType": "contract IDatasets",
          "name": "",
          "type": "address"
        }
      ],
      "stateMutability": "view",
      "type": "function"
    },
    {
      "inputs": [],
      "name": "datasetsProof",
      "outputs": [
        {
          "internalType": "contract IDatasetsProof",
          "name": "",
          "type": "address"
        }
      ],
      "stateMutability": "view",
      "type": "function"
    },
    {
      "inputs": [],
      "name": "datasetsRequirement",
      "outputs": [
        {
          "internalType": "contract IDatasetsRequirement",
          "name": "",
          "type": "address"
        }
      ],
      "stateMutability": "view",
      "type": "function"
    },
    {
      "inputs": [],
      "name": "escrow",
      "outputs": [
        {
          "internalType": "contract IEscrow",
          "name": "",
          "type": "address"
        }
      ],
      "stateMutability": "view",
      "type": "function"
    },
    {
      "inputs": [],
      "name": "getImplementation",
      "outputs": [
        {
          "internalType": "address",
          "name": "",
          "type": "address"
        }
      ],
      "stateMutability": "view",
      "type": "function"
    },
    {
      "inputs": [
        {
          "internalType": "uint64",
          "name": "_matchingId",
          "type": "uint64"
        },
        {
          "internalType": "address",
          "name": "_bidder",
          "type": "address"
        }
      ],
      "name": "getMatchingBidAmount",
      "outputs": [
        {
          "internalType": "uint256",
          "name": "",
          "type": "uint256"
        }
      ],
      "stateMutability": "view",
      "type": "function"
    },
    {
      "inputs": [
        {
          "internalType": "uint64",
          "name": "_matchingId",
          "type": "uint64"
        }
      ],
      "name": "getMatchingBids",
      "outputs": [
        {
          "internalType": "address[]",
          "name": "",
          "type": "address[]"
        },
        {
          "internalType": "uint256[]",
          "name": "",
          "type": "uint256[]"
        }
      ],
      "stateMutability": "view",
      "type": "function"
    },
    {
      "inputs": [
        {
          "internalType": "uint64",
          "name": "_matchingId",
          "type": "uint64"
        }
      ],
      "name": "getMatchingBidsCount",
      "outputs": [
        {
          "internalType": "uint64",
          "name": "",
          "type": "uint64"
        }
      ],
      "stateMutability": "view",
      "type": "function"
    },
    {
      "inputs": [
        {
          "internalType": "uint64",
          "name": "_matchingId",
          "type": "uint64"
        }
      ],
      "name": "getMatchingWinner",
      "outputs": [
        {
          "internalType": "address",
          "name": "",
          "type": "address"
        }
      ],
      "stateMutability": "view",
      "type": "function"
    },
    {
      "inputs": [
        {
          "internalType": "uint64[]",
          "name": "_matchingIds",
          "type": "uint64[]"
        }
      ],
      "name": "getMatchingWinners",
      "outputs": [
        {
          "internalType": "address[]",
          "name": "",
          "type": "address[]"
        }
      ],
      "stateMutability": "view",
      "type": "function"
    },
    {
      "inputs": [
        {
          "internalType": "uint64",
          "name": "_matchingId",
          "type": "uint64"
        },
        {
          "internalType": "address",
          "name": "_bidder",
          "type": "address"
        }
      ],
      "name": "hasMatchingBid",
      "outputs": [
        {
          "internalType": "bool",
          "name": "",
          "type": "bool"
        }
      ],
      "stateMutability": "view",
      "type": "function"
    },
    {
      "inputs": [
        {
          "internalType": "address",
          "name": "_matchings",
          "type": "address"
        },
        {
          "internalType": "address",
          "name": "_matchingsTarget",
          "type": "address"
        }
      ],
      "name": "initDependencies",
      "outputs": [],
      "stateMutability": "nonpayable",
      "type": "function"
    },
    {
      "inputs": [
        {
          "internalType": "address",
          "name": "_governanceAddress",
          "type": "address"
        },
        {
          "internalType": "address",
          "name": "_roles",
          "type": "address"
        },
        {
          "internalType": "address",
          "name": "_filplus",
          "type": "address"
        },
        {
          "internalType": "address",
          "name": "_carstore",
          "type": "address"
        },
        {
          "internalType": "address",
          "name": "_datasets",
          "type": "address"
        },
        {
          "internalType": "address",
          "name": "_datasetsRequirement",
          "type": "address"
        },
        {
          "internalType": "address",
          "name": "_datasetsProof",
          "type": "address"
        },
        {
          "internalType": "address",
          "name": "_escrow",
          "type": "address"
        }
      ],
      "name": "initialize",
      "outputs": [],
      "stateMutability": "nonpayable",
      "type": "function"
    },
    {
      "inputs": [],
      "name": "matchings",
      "outputs": [
        {
          "internalType": "contract IMatchings",
          "name": "",
          "type": "address"
        }
      ],
      "stateMutability": "view",
      "type": "function"
    },
    {
      "inputs": [],
      "name": "matchingsTarget",
      "outputs": [
        {
          "internalType": "contract IMatchingsTarget",
          "name": "",
          "type": "address"
        }
      ],
      "stateMutability": "view",
      "type": "function"
    },
    {
      "inputs": [],
      "name": "proxiableUUID",
      "outputs": [
        {
          "internalType": "bytes32",
          "name": "",
          "type": "bytes32"
        }
      ],
      "stateMutability": "view",
      "type": "function"
    },
    {
      "inputs": [
        {
          "internalType": "address",
          "name": "newImplementation",
          "type": "address"
        }
      ],
      "name": "upgradeTo",
      "outputs": [],
      "stateMutability": "nonpayable",
      "type": "function"
    },
    {
      "inputs": [
        {
          "internalType": "address",
          "name": "newImplementation",
          "type": "address"
        },
        {
          "internalType": "bytes",
          "name": "data",
          "type": "bytes"
        }
      ],
      "name": "upgradeToAndCall",
      "outputs": [],
      "stateMutability": "payable",
      "type": "function"
    }
  ],
  "numDeployments": 1,
  "solcInputHash": "9021cb8d818084f87f27b3e6df282435",
  "bytecode": "0x60a06040523060805234801561001457600080fd5b50608051613c2461004c60003960008181610b6701528181610ba701528181610c2f01528181610c6f0152610dd10152613c246000f3fe6080604052600436106100fa5760003560e01c8063050507a9146100ff57806306e726c01461012157806312c9618c146101585780632620333e146101785780633659cfe6146101a55780634f1ef286146101c55780634fc780e8146101d857806352d1902d1461020557806363976407146102275780636ad81d6214610254578063840febd9146102745780638a29e2de1461029457806396fd77b0146102b45780639a917558146102c75780639aa023d1146102f45780639cfa7d5514610314578063a2cda22e14610334578063aaf10f4214610361578063ab2d10f714610376578063bbf8367414610396578063e2fdcc17146103b6575b600080fd5b34801561010b57600080fd5b5061011f61011a3660046128f3565b6103d6565b005b34801561012d57600080fd5b5061014161013c3660046128f3565b6109bb565b60405161014f9291906129e7565b60405180910390f35b34801561016457600080fd5b5061011f6101733660046128f3565b6109eb565b34801561018457600080fd5b50606f54610198906001600160a01b031681565b60405161014f9190612a41565b3480156101b157600080fd5b5061011f6101c0366004612a63565b610b5d565b61011f6101d3366004612b89565b610c25565b3480156101e457600080fd5b506101f86101f3366004612c82565b610cde565b60405161014f9190612cbc565b34801561021157600080fd5b5061021a610dc4565b60405161014f9190612ccd565b34801561023357600080fd5b506102476102423660046128f3565b610e22565b60405161014f9190612cdb565b34801561026057600080fd5b50606d54610198906001600160a01b031681565b34801561028057600080fd5b50606e54610198906001600160a01b031681565b3480156102a057600080fd5b5061011f6102af366004612ce9565b610e49565b61011f6102c2366004612dad565b610fa1565b3480156102d357600080fd5b506102e76102e2366004612de0565b611587565b60405161014f9190612e1b565b34801561030057600080fd5b50606c54610198906001600160a01b031681565b34801561032057600080fd5b5061021a61032f366004612de0565b6115b3565b34801561034057600080fd5b5061035461034f3660046128f3565b6115d5565b60405161014f9190612e32565b34801561036d57600080fd5b506102476115f7565b34801561038257600080fd5b50606b54610198906001600160a01b031681565b3480156103a257600080fd5b5061011f6103b1366004612e40565b611606565b3480156103c257600080fd5b50606854610198906001600160a01b031681565b606e54604051631a569da560e11b81526002916001600160a01b0316906334ad3b4a90610407908590600401612e32565b602060405180830381865afa158015610424573d6000803e3d6000fd5b505050506040513d601f19601f820116820180604052508101906104489190612e90565b600781111561045957610459612e62565b036104de57606e54604051636bb0367b60e11b81526001600160a01b039091169063d7606cf69061048e908490600401612e32565b600060405180830381600087803b1580156104a857600080fd5b505af19250505080156104b9575060015b6104de5760405162461bcd60e51b81526004016104d590612ee0565b60405180910390fd5b606e54604051631a569da560e11b81526004916001600160a01b0316906334ad3b4a9061050e9085908501612e32565b602060405180830381865afa15801561052b573d6000803e3d6000fd5b505050506040513d601f19601f8201168201806040525081019061054f9190612e90565b600781111561056057610560612e62565b1461057d5760405162461bcd60e51b81526004016104d590612f14565b6001600160401b038116600090815260656020526040808220606e54915163b6c9178360e01b815290929161076a916001600160a01b039091169063b6c91783906105cc908790600401612e32565b602060405180830381865afa1580156105e9573d6000803e3d6000fd5b505050506040513d601f19601f8201168201806040525081019061060d9190612f3c565b606e546040516302de966b60e41b81526001600160a01b0390911690632de966b09061063d908890600401612e32565b602060405180830381865afa15801561065a573d6000803e3d6000fd5b505050506040513d601f19601f8201168201806040525081019061067e9190612f68565b606e54604051639e5a53e560e01b81526001600160a01b0390911690639e5a53e5906106ae908990600401612e32565b602060405180830381865afa1580156106cb573d6000803e3d6000fd5b505050506040513d601f19601f820116820180604052508101906106ef9190612f94565b606e54604051639f6c8a4760e01b81526001600160a01b0390911690639f6c8a479061071f908a90600401612e32565b602060405180830381865afa15801561073c573d6000803e3d6000fd5b505050506040513d601f19601f820116820180604052508101906107609190612f94565b86939291906116ca565b90506001600160a01b0381161561097d57606f546040516383587b9d60e01b81526001600160a01b03909116906383587b9d906107ad9086908590600401612fb5565b602060405180830381865afa1580156107ca573d6000803e3d6000fd5b505050506040513d601f19601f820116820180604052508101906107ee9190612fe3565b610819576107fc82826119c3565b8281604051632fa0b95d60e01b81526004016104d5929190612fb5565b61082283611a6e565b6001820180546001600160a01b0319166001600160a01b0383811691909117909155606854606e5460405163e19edda160e01b81529183169263d8ea185e926007928692899291169063e19edda19061087f908490600401612e32565b602060405180830381865afa15801561089c573d6000803e3d6000fd5b505050506040513d601f19601f820116820180604052508101906108c0919061300f565b60016040518663ffffffff1660e01b81526004016108e295949392919061308c565b600060405180830381600087803b1580156108fc57600080fd5b505af1158015610910573d6000803e3d6000fd5b5050606e54604051630731aebf60e11b81526001600160a01b039091169250630e635d7e91506109469086908590600401612fb5565b600060405180830381600087803b15801561096057600080fd5b505af1158015610974573d6000803e3d6000fd5b50505050505050565b61098683611b9b565b606e54604051639247e80f60e01b81526001600160a01b0390911690639247e80f90610946908690600401612e32565b505050565b6001600160401b038116600090815260656020526040902060609081906109e181611cc8565b9250925050915091565b606e5460405163e19edda160e01b81526001600160a01b03909116908290600090839063e19edda190610a22908590600401612e32565b602060405180830381865afa158015610a3f573d6000803e3d6000fd5b505050506040513d601f19601f82011682018060405250810190610a63919061300f565b90506001600160a01b0381163314610a945781813360405163bb5a686560e01b81526004016104d5939291906130ce565b610a9d84611b9b565b606e54604051632c7e9d9b60e21b81526001600160a01b039091169063b1fa766c90610acd908790600401612e32565b600060405180830381600087803b158015610ae757600080fd5b505af1925050508015610af8575060015b610b5757610b046130f6565b806308c379a003610b3d5750610b18613111565b80610b235750610b3f565b8060405162461bcd60e51b81526004016104d591906131ee565b505b60405162461bcd60e51b81526004016104d590613233565b50505050565b6001600160a01b037f0000000000000000000000000000000000000000000000000000000000000000163003610ba55760405162461bcd60e51b81526004016104d59061327d565b7f00000000000000000000000000000000000000000000000000000000000000006001600160a01b0316610bd7611e5e565b6001600160a01b031614610bfd5760405162461bcd60e51b81526004016104d5906132c4565b610c0681611e7a565b60408051600080825260208201909252610c2291839190611f0e565b50565b6001600160a01b037f0000000000000000000000000000000000000000000000000000000000000000163003610c6d5760405162461bcd60e51b81526004016104d59061327d565b7f00000000000000000000000000000000000000000000000000000000000000006001600160a01b0316610c9f611e5e565b6001600160a01b031614610cc55760405162461bcd60e51b81526004016104d5906132c4565b610cce82611e7a565b610cda82826001611f0e565b5050565b6060600080610ced8482611ff0565b915091506000826001600160401b03811115610d0b57610d0b612a8e565b604051908082528060200260200182016040528015610d34578160200160208202803683370190505b50905060005b83816001600160401b03161015610dbb57610d7683826001600160401b031681518110610d6957610d696132d4565b6020026020010151610e22565b82826001600160401b031681518110610d9157610d916132d4565b6001600160a01b039092166020928302919091019091015280610db381613300565b915050610d3a565b50949350505050565b6000306001600160a01b037f00000000000000000000000000000000000000000000000000000000000000001614610e0e5760405162461bcd60e51b81526004016104d59061337f565b50600080516020613ba88339815191525b90565b6001600160401b03166000908152606560205260409020600101546001600160a01b031690565b600054610100900460ff1615808015610e695750600054600160ff909116105b80610e8a5750610e7830612193565b158015610e8a575060005460ff166001145b610ea65760405162461bcd60e51b81526004016104d5906133da565b6000805460ff191660011790558015610ec9576000805461ff0019166101001790555b606680546001600160a01b03199081166001600160a01b038c8116919091179092556067805482168b84161790556068805482168584161790556069805482168a8416179055606a80548216898416179055606b80548216888416179055606c80548216878416179055606d8054909116918516919091179055610f4b6121a2565b8015610f96576000805461ff00191690556040517f7f26b83ff96e1f2b6a682f133852f6798a09c465da95921460cefb384740249890610f8d906001906133ff565b60405180910390a15b505050505050505050565b606754604051632474521560e21b81526001600160a01b03909116907fbef3bd11e82b4054dbbbfa191ade24a0f7f56837be03eaafd87d83dd8673ed669082906391d1485490610ff7908490339060040161340d565b602060405180830381865afa158015611014573d6000803e3d6000fd5b505050506040513d601f19601f820116820180604052508101906110389190612fe3565b6110545760405162461bcd60e51b81526004016104d59061344c565b606e54604051631a569da560e11b81526001600160a01b0390911690859060029060009084906334ad3b4a9061108e908690600401612e32565b602060405180830381865afa1580156110ab573d6000803e3d6000fd5b505050506040513d601f19601f820116820180604052508101906110cf9190612e90565b90508160078111156110e3576110e3612e62565b8160078111156110f5576110f5612e62565b14611119578282826040516399df707960e01b81526004016104d59392919061345c565b6001600160401b038816600090815260656020526040808220606e54915163b6c9178360e01b81529092916001600160a01b03169063b6c9178390611162908d90600401612e32565b602060405180830381865afa15801561117f573d6000803e3d6000fd5b505050506040513d601f19601f820116820180604052508101906111a39190612f3c565b90506111b08a8a836121cb565b606e546040516302de966b60e41b81526113369183916001600160a01b0390911690632de966b0906111e6908f90600401612e32565b602060405180830381865afa158015611203573d6000803e3d6000fd5b505050506040513d601f19601f820116820180604052508101906112279190612f68565b606e60009054906101000a90046001600160a01b03166001600160a01b0316639e5a53e58e6040518263ffffffff1660e01b81526004016112689190612e32565b602060405180830381865afa158015611285573d6000803e3d6000fd5b505050506040513d601f19601f820116820180604052508101906112a99190612f94565b606e60009054906101000a90046001600160a01b03166001600160a01b0316639f6c8a478f6040518263ffffffff1660e01b81526004016112ea9190612e32565b602060405180830381865afa158015611307573d6000803e3d6000fd5b505050506040513d601f19601f8201168201806040525081019061132b9190612f94565b86939291908e6122e8565b6000606c60009054906101000a90046001600160a01b03166001600160a01b031663146846a8606f60009054906101000a90046001600160a01b03166001600160a01b03166340f7f10b8e6040518263ffffffff1660e01b815260040161139d9190612e32565b602060405180830381865afa1580156113ba573d6000803e3d6000fd5b505050506040513d601f19601f820116820180604052508101906113de9190612f94565b606f60009054906101000a90046001600160a01b03166001600160a01b031663075717218f6040518263ffffffff1660e01b815260040161141f9190612e32565b602060405180830381865afa15801561143c573d6000803e3d6000fd5b505050506040513d601f19601f820116820180604052508101906114609190613499565b6040518363ffffffff1660e01b815260040161147d9291906134cd565b600060405180830381865afa15801561149a573d6000803e3d6000fd5b505050506040513d6000823e601f3d908101601f191682016040526114c291908101906135e9565b5050509150506000815111156114f8576114dc8133612500565b6114f85760405162461bcd60e51b81526004016104d5906136d9565b8a6001600160401b03167f2d59e8efadb0626949fe9770419e2db68557cae79e87826fea8478c843b2f066338c6040516115339291906136e9565b60405180910390a2600282600381111561154f5761154f612e62565b148061156c5750600382600381111561156a5761156a612e62565b145b1561157a5761157a8b6103d6565b5050505050505050505050565b6001600160401b03821660009081526065602052604081206115a98184612565565b9150505b92915050565b6001600160401b03821660009081526065602052604081206115a981846125d9565b6001600160401b038116600090815260656020526040812080545b9392505050565b6000611601611e5e565b905090565b606754604051632474521560e21b81526001600160a01b039091169060009082906391d148549061163d908490339060040161340d565b602060405180830381865afa15801561165a573d6000803e3d6000fd5b505050506040513d601f19601f8201168201806040525081019061167e9190612fe3565b61169a5760405162461bcd60e51b81526004016104d59061344c565b5050606e80546001600160a01b039384166001600160a01b031991821617909155606f8054929093169116179055565b600060028560038111156116e0576116e0612e62565b14806116fd575060038560038111156116fb576116fb612e62565b145b1561173057826001600160401b031643101561172b5760405162461bcd60e51b81526004016104d59061372c565b611759565b816001600160401b03164310156117595760405162461bcd60e51b81526004016104d59061376e565b836000805b88546001600160401b03821610156119b557600088600381111561178457611784612e62565b14806117a15750600288600381111561179f5761179f612e62565b145b1561188c578289600001826001600160401b0316815481106117c5576117c56132d4565b906000526020600020906003020160010154118015611815575088600001816001600160401b0316815481106117fd576117fd6132d4565b600091825260209091206002600390920201015460ff165b156118875788600001816001600160401b031681548110611838576118386132d4565b906000526020600020906003020160010154925088600001816001600160401b03168154811061186a5761186a6132d4565b60009182526020909120600390910201546001600160a01b031691505b6119a3565b60018860038111156118a0576118a0612e62565b14806118bd575060038860038111156118bb576118bb612e62565b145b156119a3578289600001826001600160401b0316815481106118e1576118e16132d4565b906000526020600020906003020160010154108015611931575088600001816001600160401b031681548110611919576119196132d4565b600091825260209091206002600390920201015460ff165b156119a35788600001816001600160401b031681548110611954576119546132d4565b906000526020600020906003020160010154925088600001816001600160401b031681548110611986576119866132d4565b60009182526020909120600390910201546001600160a01b031691505b806119ad81613300565b91505061175e565b509150505b95945050505050565b81546000906119d49060019061377e565b90505b82600001816001600160401b0316815481106119f5576119f56132d4565b60009182526020909120600390910201546001600160a01b0390811690831603611a5c57600083600001826001600160401b031681548110611a3957611a396132d4565b60009182526020909120600390910201600201805460ff19169115159190911790555b80611a6681613791565b9150506119d7565b606f546040516314bcfacf60e31b81526000916001600160a01b03169063a5e7d67890611a9f908590600401612e32565b600060405180830381865afa158015611abc573d6000803e3d6000fd5b505050506040513d6000823e601f3d908101601f19168201604052611ae49190810190613828565b905060005b8151816001600160401b031610156109b657606a5482516001600160a01b0390911690639528f0629084906001600160401b038516908110611b2d57611b2d6132d4565b60200260200101518560016040518463ffffffff1660e01b8152600401611b5693929190613862565b600060405180830381600087803b158015611b7057600080fd5b505af1158015611b84573d6000803e3d6000fd5b505050508080611b9390613300565b915050611ae9565b606f546040516314bcfacf60e31b81526000916001600160a01b03169063a5e7d67890611bcc908590600401612e32565b600060405180830381865afa158015611be9573d6000803e3d6000fd5b505050506040513d6000823e601f3d908101601f19168201604052611c119190810190613828565b905060005b8151816001600160401b031610156109b657606a5482516001600160a01b0390911690639528f0629084906001600160401b038516908110611c5a57611c5a6132d4565b60200260200101518560006040518463ffffffff1660e01b8152600401611c8393929190613862565b600060405180830381600087803b158015611c9d57600080fd5b505af1158015611cb1573d6000803e3d6000fd5b505050508080611cc090613300565b915050611c16565b805460609081906000906001600160401b03811115611ce957611ce9612a8e565b604051908082528060200260200182016040528015611d12578160200160208202803683370190505b5084549091506000906001600160401b03811115611d3257611d32612a8e565b604051908082528060200260200182016040528015611d5b578160200160208202803683370190505b50905060005b85546001600160401b0382161015611e535785600001816001600160401b031681548110611d9157611d916132d4565b600091825260209091206003909102015483516001600160a01b039091169084906001600160401b038416908110611dcb57611dcb6132d4565b60200260200101906001600160a01b031690816001600160a01b03168152505085600001816001600160401b031681548110611e0957611e096132d4565b90600052602060002090600302016001015482826001600160401b031681518110611e3657611e366132d4565b602090810291909101015280611e4b81613300565b915050611d61565b509094909350915050565b600080516020613ba8833981519152546001600160a01b031690565b606754604051632474521560e21b81526001600160a01b039091169060009082906391d1485490611eb1908490339060040161340d565b602060405180830381865afa158015611ece573d6000803e3d6000fd5b505050506040513d601f19601f82011682018060405250810190611ef29190612fe3565b6109b65760405162461bcd60e51b81526004016104d59061344c565b7f4910fdfa16fed3260ed0e7147f7cc6da11a60208b5b9406d12a635614ffd91435460ff1615611f41576109b68361267b565b826001600160a01b03166352d1902d6040518163ffffffff1660e01b8152600401602060405180830381865afa925050508015611f9b575060408051601f3d908101601f19168201909252611f9891810190612f68565b60015b611fb75760405162461bcd60e51b81526004016104d5906138d5565b600080516020613ba88339815191528114611fe45760405162461bcd60e51b81526004016104d59061392b565b506109b68383836126cf565b60006060600084516001600160401b0381111561200f5761200f612a8e565b604051908082528060200260200182016040528015612038578160200160208202803683370190505b5090506000805b86518110156120de57856001600160401b0316878281518110612064576120646132d4565b60200260200101516001600160401b0316146120cc5786818151811061208c5761208c6132d4565b60200260200101518383815181106120a6576120a66132d4565b6001600160401b0390921660209283029190910190910152816120c88161393b565b9250505b806120d68161393b565b91505061203f565b506000816001600160401b038111156120f9576120f9612a8e565b604051908082528060200260200182016040528015612122578160200160208202803683370190505b50905060005b8281101561218657838181518110612142576121426132d4565b602002602001015182828151811061215c5761215c6132d4565b6001600160401b03909216602092830291909101909101528061217e8161393b565b915050612128565b5090969095509350505050565b6001600160a01b03163b151590565b600054610100900460ff166121c95760405162461bcd60e51b81526004016104d590613996565b565b60008160038111156121df576121df612e62565b036109b65760685460405163938a6b0d60e01b81526000916001600160a01b03169063938a6b0d9061221a90600790339089906004016139a6565b602060405180830381865afa158015612237573d6000803e3d6000fd5b505050506040513d601f19601f8201168201806040525081019061225b9190612f68565b905080831161227c5760405162461bcd60e51b81526004016104d5906139f3565b6068546001600160a01b031663ea12c742346007338861229c878a61377e565b6040518663ffffffff1660e01b81526004016122bb9493929190613a03565b6000604051808303818588803b1580156122d457600080fd5b505af1158015610f96573d6000803e3d6000fd5b60008560038111156122fc576122fc612e62565b14806123195750600285600381111561231757612317612e62565b145b1561233e578381101561233e5760405162461bcd60e51b81526004016104d5906139f3565b600185600381111561235257612352612e62565b148061236f5750600385600381111561236d5761236d612e62565b145b1561239457838111156123945760405162461bcd60e51b81526004016104d5906139f3565b826001600160401b03164310156123bd5760405162461bcd60e51b81526004016104d590613a6c565b816001600160401b031643106123e55760405162461bcd60e51b81526004016104d590613aab565b6123ef8633612565565b1561248657600085600381111561240857612408612e62565b036124355761241786336125d9565b81116124355760405162461bcd60e51b81526004016104d5906139f3565b600185600381111561244957612449612e62565b036124765761245886336125d9565b81106124765760405162461bcd60e51b81526004016104d5906139f3565b6124818633836126f4565b6124f8565b60408051606081018252338152602080820184815260019383018481528a548086018c5560008c8152939093209351600390930290930180546001600160a01b0319166001600160a01b039093169290921782555192810192909255516002909101805460ff19169115159190911790555b505050505050565b6000805b835181101561255b57826001600160a01b0316848281518110612529576125296132d4565b60200260200101516001600160a01b0316036125495760019150506115ad565b806125538161393b565b915050612504565b5060009392505050565b6000805b83546001600160401b038216101561255b5783600001816001600160401b031681548110612599576125996132d4565b60009182526020909120600390910201546001600160a01b03908116908416036125c75760019150506115ad565b806125d181613300565b915050612569565b815460009081906125ec9060019061377e565b90505b83600001816001600160401b03168154811061260d5761260d6132d4565b60009182526020909120600390910201546001600160a01b03908116908416036126695783600001816001600160401b03168154811061264f5761264f6132d4565b9060005260206000209060030201600101549150506115ad565b8061267381613791565b9150506125ef565b61268481612193565b6126a05760405162461bcd60e51b81526004016104d590613b05565b600080516020613ba883398151915280546001600160a01b0319166001600160a01b0392909216919091179055565b6126d883612791565b6000825111806126e55750805b156109b657610b5783836127d1565b82546000906127059060019061377e565b90505b83600001816001600160401b031681548110612726576127266132d4565b60009182526020909120600390910201546001600160a01b039081169084160361277f578184600001826001600160401b031681548110612769576127696132d4565b9060005260206000209060030201600101819055505b8061278981613791565b915050612708565b61279a8161267b565b6040516001600160a01b038216907fbc7cd75a20ee27fd9adebab32041f755214dbc6bffa90cc0225b39da2e5c2d3b90600090a250565b60606115f08383604051806060016040528060278152602001613bc8602791396060600080856001600160a01b03168560405161280e9190613b37565b600060405180830381855af49150503d8060008114612849576040519150601f19603f3d011682016040523d82523d6000602084013e61284e565b606091505b509150915061285f86838387612869565b9695505050505050565b606083156128a657825160000361289f5761288385612193565b61289f5760405162461bcd60e51b81526004016104d590613b77565b50816128b0565b6128b083836128b8565b949350505050565b815115610b235781518083602001fd5b6001600160401b031690565b6128dd816128c8565b8114610c2257600080fd5b80356115ad816128d4565b60006020828403121561290857612908600080fd5b60006115a984846128e8565b6001600160a01b031690565b60006115ad82612914565b61293481612920565b82525050565b6000612946838361292b565b505060200190565b6000612958825190565b80845260209384019383018060005b8381101561298c57815161297b888261293a565b975060208301925050600101612967565b509495945050505050565b80612934565b60006129468383612997565b60006129b3825190565b80845260209384019383018060005b8381101561298c5781516129d6888261299d565b9750602083019250506001016129c2565b604080825281016129f8818561294e565b905081810360208301526128b081846129a9565b60006115ad612a1d610e1f84612914565b612914565b60006115ad82612a0c565b60006115ad82612a22565b61293481612a2d565b602081016115ad8284612a38565b6128dd81612920565b80356115ad81612a4f565b600060208284031215612a7857612a78600080fd5b60006115a98484612a58565b601f01601f191690565b634e487b7160e01b600052604160045260246000fd5b612aad82612a84565b81018181106001600160401b0382111715612aca57612aca612a8e565b6040525050565b6000612adc60405190565b9050612ae88282612aa4565b919050565b60006001600160401b03821115612b0657612b06612a8e565b612b0f82612a84565b60200192915050565b82818337506000910152565b6000612b37612b3284612aed565b612ad1565b905082815260208101848484011115612b5257612b52600080fd5b612b5d848285612b18565b509392505050565b600082601f830112612b7957612b79600080fd5b81356115a9848260208601612b24565b60008060408385031215612b9f57612b9f600080fd5b6000612bab8585612a58565b92505060208301356001600160401b03811115612bca57612bca600080fd5b612bd685828601612b65565b9150509250929050565b60006001600160401b03821115612bf957612bf9612a8e565b5060209081020190565b6000612c11612b3284612be0565b83815290506020808201908402830185811115612c3057612c30600080fd5b835b81811015612c545780612c4588826128e8565b84525060209283019201612c32565b5050509392505050565b600082601f830112612c7257612c72600080fd5b81356115a9848260208601612c03565b600060208284031215612c9757612c97600080fd5b81356001600160401b03811115612cb057612cb0600080fd5b6115a984828501612c5e565b602080825281016115f0818461294e565b602081016115ad8284612997565b602081016115ad828461292b565b600080600080600080600080610100898b031215612d0957612d09600080fd5b6000612d158b8b612a58565b9850506020612d268b828c01612a58565b9750506040612d378b828c01612a58565b9650506060612d488b828c01612a58565b9550506080612d598b828c01612a58565b94505060a0612d6a8b828c01612a58565b93505060c0612d7b8b828c01612a58565b92505060e0612d8c8b828c01612a58565b9150509295985092959890939650565b806128dd565b80356115ad81612d9c565b60008060408385031215612dc357612dc3600080fd5b6000612dcf85856128e8565b9250506020612bd685828601612da2565b60008060408385031215612df657612df6600080fd5b6000612e0285856128e8565b9250506020612bd685828601612a58565b801515612934565b602081016115ad8284612e13565b612934816128c8565b602081016115ad8284612e29565b60008060408385031215612e5657612e56600080fd5b6000612e028585612a58565b634e487b7160e01b600052602160045260246000fd5b60088110610c2257600080fd5b80516115ad81612e78565b600060208284031215612ea557612ea5600080fd5b60006115a98484612e85565b601581526000602082017418db1bdcd9481b585d18da1a5b99c819985a5b1959605a1b815291505b5060200190565b602080825281016115ad81612eb1565b600d81526000602082016c496e76616c696420737461746560981b81529150612ed9565b602080825281016115ad81612ef0565b60048110610c2257600080fd5b80516115ad81612f24565b600060208284031215612f5157612f51600080fd5b60006115a98484612f31565b80516115ad81612d9c565b600060208284031215612f7d57612f7d600080fd5b60006115a98484612f5d565b80516115ad816128d4565b600060208284031215612fa957612fa9600080fd5b60006115a98484612f89565b60408101612fc38285612e29565b6115f0602083018461292b565b8015156128dd565b80516115ad81612fd0565b600060208284031215612ff857612ff8600080fd5b60006115a98484612fd8565b80516115ad81612a4f565b60006020828403121561302457613024600080fd5b60006115a98484613004565b60088110610c2257610c22612e62565b80612ae881613030565b60006115ad82613040565b6129348161304a565b60038110610c2257610c22612e62565b80612ae88161305e565b60006115ad8261306e565b61293481613078565b60a0810161309a8288613055565b6130a7602083018761292b565b6130b46040830186612e29565b6130c1606083018561292b565b61285f6080830184613083565b606081016130dc8286612e29565b6130e9602083018561292b565b6128b0604083018461292b565b600060033d1115610e1f5760046000803e5060005160e01c90565b600060443d101561311f5790565b60405160043d036004823e80513d60248201116001600160401b038211171561314757505090565b80820180516001600160401b03811115613162575050505090565b80602083010160043d03850181111561317d57505050505090565b61318c82602001850186612aa4565b5090949350505050565b60005b838110156131b1578181015183820152602001613199565b50506000910152565b60006131c4825190565b8084526020840193506131db818560208601613196565b6131e481612a84565b9093019392505050565b602080825281016115f081846131ba565b601d81526000602082017f7265706f72742063616e63656c206d61746368696e67206661696c656400000081529150612ed9565b602080825281016115ad816131ff565b602c8152600060208201600080516020613b8883398151915281526b19195b1959d85d1958d85b1b60a21b602082015291505b5060400190565b602080825281016115ad81613243565b602c8152600060208201600080516020613b8883398151915281526b6163746976652070726f787960a01b60208201529150613276565b602080825281016115ad8161328d565b634e487b7160e01b600052603260045260246000fd5b634e487b7160e01b600052601160045260246000fd5b600061330b826128c8565b91506001600160401b038203613323576133236132ea565b5060010190565b603881526000602082017f555550535570677261646561626c653a206d757374206e6f742062652063616c8152771b1959081d1a1c9bdd59da0819195b1959d85d1958d85b1b60421b60208201529150613276565b602080825281016115ad8161332a565b602e81526000602082017f496e697469616c697a61626c653a20636f6e747261637420697320616c72656181526d191e481a5b9a5d1a585b1a5e995960921b60208201529150613276565b602080825281016115ad8161338f565b60ff1690565b6129348160006115ad826133ea565b602081016115ad82846133f0565b60408101612fc38285612997565b601a81526000602082017913db9b1e48185b1b1bddd959081c9bdb194818d85b8818d85b1b60321b81529150612ed9565b602080825281016115ad8161341b565b6060810161346a8286612e29565b6134776020830185613055565b6128b06040830184613055565b61ffff81166128dd565b80516115ad81613484565b6000602082840312156134ae576134ae600080fd5b60006115a9848461348e565b6129348160006115ad61ffff83166128c8565b604081016134db8285612e29565b6115f060208301846134ba565b60006134f6612b3284612be0565b8381529050602080820190840283018581111561351557613515600080fd5b835b81811015612c54578061352a8882613004565b84525060209283019201613517565b600082601f83011261354d5761354d600080fd5b81516115a98482602086016134e8565b63ffffffff81166128dd565b80516115ad8161355d565b6000613582612b3284612be0565b838152905060208082019084028301858111156135a1576135a1600080fd5b835b81811015612c5457806135b68882613569565b845250602092830192016135a3565b600082601f8301126135d9576135d9600080fd5b81516115a9848260208601613574565b600080600080600060a0868803121561360457613604600080fd5b85516001600160401b0381111561361d5761361d600080fd5b61362988828901613539565b95505060208601516001600160401b0381111561364857613648600080fd5b61365488828901613539565b94505060406136658882890161348e565b93505060606136768882890161348e565b92505060808601516001600160401b0381111561369557613695600080fd5b6136a1888289016135c5565b9150509295509295909350565b601481526000602082017324b73b30b634b21029a81039bab136b4ba3a32b960611b81529150612ed9565b602080825281016115ad816136ae565b604081016136f7828561292b565b6115f06020830184612997565b601181526000602082017042696464696e6720746f6f206561726c7960781b81529150612ed9565b602080825281016115ad81613704565b60208082527f42696464696e6720706572696f6420686173206e6f7420656e6465642079657491019081526000612ed9565b602080825281016115ad8161373c565b818103818111156115ad576115ad6132ea565b600061379c826128c8565b9150816137ab576137ab6132ea565b506000190190565b60006137c1612b3284612be0565b838152905060208082019084028301858111156137e0576137e0600080fd5b835b81811015612c5457806137f58882612f89565b845250602092830192016137e2565b600082601f83011261381857613818600080fd5b81516115a98482602086016137b3565b60006020828403121561383d5761383d600080fd5b81516001600160401b0381111561385657613856600080fd5b6115a984828501613804565b606081016138708286612e29565b61387d6020830185612e29565b6128b06040830184612e13565b602e81526000602082017f45524331393637557067726164653a206e657720696d706c656d656e7461746981526d6f6e206973206e6f74205555505360901b60208201529150613276565b602080825281016115ad8161388a565b602981526000602082017f45524331393637557067726164653a20756e737570706f727465642070726f788152681a58589b195555525160ba1b60208201529150613276565b602080825281016115ad816138e5565b60006000198203613323576133236132ea565b602b81526000602082017f496e697469616c697a61626c653a20636f6e7472616374206973206e6f74206981526a6e697469616c697a696e6760a81b60208201529150613276565b602080825281016115ad8161394e565b606081016139b48286613055565b6139c1602083018561292b565b6128b06040830184612e29565b600e81526000602082016d125b9d985b1a5908185b5bdd5b9d60921b81529150612ed9565b602080825281016115ad816139ce565b60808101613a118287613055565b613a1e602083018661292b565b613a2b6040830185612e29565b6119ba6060830184612997565b601e81526000602082017f4d61746368696e673a2042696464696e67206973206e6f74207374617274000081529150612ed9565b602080825281016115ad81613a38565b601881526000602082017713585d18da1a5b99ce88109a59191a5b99c81a5cc8195b9960421b81529150612ed9565b602080825281016115ad81613a7c565b602d81526000602082017f455243313936373a206e657720696d706c656d656e746174696f6e206973206e81526c1bdd08184818dbdb9d1c9858dd609a1b60208201529150613276565b602080825281016115ad81613abb565b6000613b1f825190565b613b2d818560208601613196565b9290920192915050565b60006115f08284613b15565b601d81526000602082017f416464726573733a2063616c6c20746f206e6f6e2d636f6e747261637400000081529150612ed9565b602080825281016115ad81613b4356fe46756e6374696f6e206d7573742062652063616c6c6564207468726f75676820360894a13ba1a3210667c828492db98dca3e2076cc3735a920a3ca505d382bbc416464726573733a206c6f772d6c6576656c2064656c65676174652063616c6c206661696c6564a26469706673582212200e50817c5bff85f7a4cd13c108e981315c17bf300156ccddebd28deb0820b5a164736f6c63430008150033",
  "devdoc": {
    "details": "This contract is intended to be inherited by specific matching-related contracts.",
    "events": {
      "AdminChanged(address,address)": {
        "details": "Emitted when the admin account has changed."
      },
      "BeaconUpgraded(address)": {
        "details": "Emitted when the beacon is changed."
      },
      "Initialized(uint8)": {
        "details": "Triggered when the contract has been initialized or reinitialized."
      },
      "Upgraded(address)": {
        "details": "Emitted when the implementation is upgraded."
      }
    },
    "kind": "dev",
    "methods": {
      "cancelMatching(uint64)": {
        "params": {
          "_matchingId": "The ID of the matching."
        }
      },
      "proxiableUUID()": {
        "details": "Implementation of the ERC1822 {proxiableUUID} function. This returns the storage slot used by the implementation. It is used to validate the implementation's compatibility when performing an upgrade. IMPORTANT: A proxy pointing at a proxiable contract should not be considered proxiable itself, because this risks bricking a proxy that upgrades to it, by delegating to itself until out of gas. Thus it is critical that this function revert if invoked through a proxy. This is guaranteed by the `notDelegated` modifier."
      },
      "upgradeTo(address)": {
        "custom:oz-upgrades-unsafe-allow-reachable": "delegatecall",
        "details": "Upgrade the implementation of the proxy to `newImplementation`. Calls {_authorizeUpgrade}. Emits an {Upgraded} event."
      },
      "upgradeToAndCall(address,bytes)": {
        "custom:oz-upgrades-unsafe-allow-reachable": "delegatecall",
        "details": "Upgrade the implementation of the proxy to `newImplementation`, and subsequently execute the function call encoded in `data`. Calls {_authorizeUpgrade}. Emits an {Upgraded} event."
      }
    },
    "stateVariables": {
      "__gap": {
        "details": "This empty reserved space is put in place to allow future versions to add new"
      }
    },
    "title": "Matchings Base Contract",
    "version": 1
  },
  "userdoc": {
    "errors": {
      "InvalidMatchingState(uint64,uint8,uint8)": [
        {
          "notice": "matching errors"
        }
      ]
    },
    "kind": "user",
    "methods": {
      "bidding(uint64,uint256)": {
        "notice": "Function for bidding on a matching"
      },
      "cancelMatching(uint64)": {
        "notice": "Function for canceling a matching"
      },
      "closeMatching(uint64)": {
        "notice": "Function for closing a matching and choosing a winner"
      },
      "getImplementation()": {
        "notice": "Returns the implementation contract"
      },
      "getMatchingBidAmount(uint64,address)": {
        "notice": "Function for getting bid amount of a bidder in a matching"
      },
      "getMatchingBids(uint64)": {
        "notice": "Function for getting bids in a matching"
      },
      "getMatchingBidsCount(uint64)": {
        "notice": "Function for getting the count of bids in a matching"
      },
      "getMatchingWinner(uint64)": {
        "notice": "Function for getting winner of a matching"
      },
      "getMatchingWinners(uint64[])": {
        "notice": "Function for getting winners of a matchings"
      },
      "hasMatchingBid(uint64,address)": {
        "notice": "Function for checking if a bidder has a bid in a matching"
      },
      "initDependencies(address,address)": {
        "notice": "Function for init matchings instance."
      },
      "initialize(address,address,address,address,address,address,address,address)": {
        "notice": "initialize function to initialize the contract and grant the default admin role to the deployer."
      }
    },
    "notice": "This contract serves as the base for managing matchings, their states, and associated actions.",
    "version": 1
  },
  "storageLayout": {
    "storage": [
      {
        "astId": 5186,
        "contract": "src/v0.8/module/matching/MatchingsBids.sol:MatchingsBids",
        "label": "_initialized",
        "offset": 0,
        "slot": "0",
        "type": "t_uint8"
      },
      {
        "astId": 5189,
        "contract": "src/v0.8/module/matching/MatchingsBids.sol:MatchingsBids",
        "label": "_initializing",
        "offset": 1,
        "slot": "0",
        "type": "t_bool"
      },
      {
        "astId": 5168,
        "contract": "src/v0.8/module/matching/MatchingsBids.sol:MatchingsBids",
        "label": "__gap",
        "offset": 0,
        "slot": "1",
        "type": "t_array(t_uint256)50_storage"
      },
      {
        "astId": 5483,
        "contract": "src/v0.8/module/matching/MatchingsBids.sol:MatchingsBids",
        "label": "__gap",
        "offset": 0,
        "slot": "51",
        "type": "t_array(t_uint256)50_storage"
      },
      {
        "astId": 37306,
        "contract": "src/v0.8/module/matching/MatchingsBids.sol:MatchingsBids",
        "label": "matchingBids",
        "offset": 0,
        "slot": "101",
        "type": "t_mapping(t_uint64,t_struct(MatchingBids)45194_storage)"
      },
      {
        "astId": 37308,
        "contract": "src/v0.8/module/matching/MatchingsBids.sol:MatchingsBids",
        "label": "governanceAddress",
        "offset": 0,
        "slot": "102",
        "type": "t_address"
      },
      {
        "astId": 37311,
        "contract": "src/v0.8/module/matching/MatchingsBids.sol:MatchingsBids",
        "label": "roles",
        "offset": 0,
        "slot": "103",
        "type": "t_contract(IRoles)29558"
      },
      {
        "astId": 37314,
        "contract": "src/v0.8/module/matching/MatchingsBids.sol:MatchingsBids",
        "label": "escrow",
        "offset": 0,
        "slot": "104",
        "type": "t_contract(IEscrow)29288"
      },
      {
        "astId": 37317,
        "contract": "src/v0.8/module/matching/MatchingsBids.sol:MatchingsBids",
        "label": "filplus",
        "offset": 0,
        "slot": "105",
        "type": "t_contract(IFilplus)29518"
      },
      {
        "astId": 37320,
        "contract": "src/v0.8/module/matching/MatchingsBids.sol:MatchingsBids",
        "label": "carstore",
        "offset": 0,
        "slot": "106",
        "type": "t_contract(ICarstore)29050"
      },
      {
        "astId": 37323,
        "contract": "src/v0.8/module/matching/MatchingsBids.sol:MatchingsBids",
        "label": "datasets",
        "offset": 0,
        "slot": "107",
        "type": "t_contract(IDatasets)29822"
      },
      {
        "astId": 37326,
        "contract": "src/v0.8/module/matching/MatchingsBids.sol:MatchingsBids",
        "label": "datasetsRequirement",
        "offset": 0,
        "slot": "108",
        "type": "t_contract(IDatasetsRequirement)30208"
      },
      {
        "astId": 37329,
        "contract": "src/v0.8/module/matching/MatchingsBids.sol:MatchingsBids",
        "label": "datasetsProof",
        "offset": 0,
        "slot": "109",
        "type": "t_contract(IDatasetsProof)30135"
      },
      {
        "astId": 37332,
        "contract": "src/v0.8/module/matching/MatchingsBids.sol:MatchingsBids",
        "label": "matchings",
        "offset": 0,
        "slot": "110",
        "type": "t_contract(IMatchings)30370"
      },
      {
        "astId": 37335,
        "contract": "src/v0.8/module/matching/MatchingsBids.sol:MatchingsBids",
        "label": "matchingsTarget",
        "offset": 0,
        "slot": "111",
        "type": "t_contract(IMatchingsTarget)30632"
      },
      {
        "astId": 37340,
        "contract": "src/v0.8/module/matching/MatchingsBids.sol:MatchingsBids",
        "label": "__gap",
        "offset": 0,
        "slot": "112",
        "type": "t_array(t_uint256)32_storage"
      }
    ],
    "types": {
      "t_address": {
        "encoding": "inplace",
        "label": "address",
        "numberOfBytes": "20"
      },
      "t_array(t_struct(Bid)45186_storage)dyn_storage": {
        "base": "t_struct(Bid)45186_storage",
        "encoding": "dynamic_array",
        "label": "struct MatchingType.Bid[]",
        "numberOfBytes": "32"
      },
      "t_array(t_uint256)32_storage": {
        "base": "t_uint256",
        "encoding": "inplace",
        "label": "uint256[32]",
        "numberOfBytes": "1024"
      },
      "t_array(t_uint256)50_storage": {
        "base": "t_uint256",
        "encoding": "inplace",
        "label": "uint256[50]",
        "numberOfBytes": "1600"
      },
      "t_bool": {
        "encoding": "inplace",
        "label": "bool",
        "numberOfBytes": "1"
      },
      "t_contract(ICarstore)29050": {
        "encoding": "inplace",
        "label": "contract ICarstore",
        "numberOfBytes": "20"
      },
      "t_contract(IDatasets)29822": {
        "encoding": "inplace",
        "label": "contract IDatasets",
        "numberOfBytes": "20"
      },
      "t_contract(IDatasetsProof)30135": {
        "encoding": "inplace",
        "label": "contract IDatasetsProof",
        "numberOfBytes": "20"
      },
      "t_contract(IDatasetsRequirement)30208": {
        "encoding": "inplace",
        "label": "contract IDatasetsRequirement",
        "numberOfBytes": "20"
      },
      "t_contract(IEscrow)29288": {
        "encoding": "inplace",
        "label": "contract IEscrow",
        "numberOfBytes": "20"
      },
      "t_contract(IFilplus)29518": {
        "encoding": "inplace",
        "label": "contract IFilplus",
        "numberOfBytes": "20"
      },
      "t_contract(IMatchings)30370": {
        "encoding": "inplace",
        "label": "contract IMatchings",
        "numberOfBytes": "20"
      },
      "t_contract(IMatchingsTarget)30632": {
        "encoding": "inplace",
        "label": "contract IMatchingsTarget",
        "numberOfBytes": "20"
      },
      "t_contract(IRoles)29558": {
        "encoding": "inplace",
        "label": "contract IRoles",
        "numberOfBytes": "20"
      },
      "t_mapping(t_uint64,t_struct(MatchingBids)45194_storage)": {
        "encoding": "mapping",
        "key": "t_uint64",
        "label": "mapping(uint64 => struct MatchingType.MatchingBids)",
        "numberOfBytes": "32",
        "value": "t_struct(MatchingBids)45194_storage"
      },
      "t_struct(Bid)45186_storage": {
        "encoding": "inplace",
        "label": "struct MatchingType.Bid",
        "members": [
          {
            "astId": 45181,
            "contract": "src/v0.8/module/matching/MatchingsBids.sol:MatchingsBids",
            "label": "bidder",
            "offset": 0,
            "slot": "0",
            "type": "t_address"
          },
          {
            "astId": 45183,
            "contract": "src/v0.8/module/matching/MatchingsBids.sol:MatchingsBids",
            "label": "bid",
            "offset": 0,
            "slot": "1",
            "type": "t_uint256"
          },
          {
            "astId": 45185,
            "contract": "src/v0.8/module/matching/MatchingsBids.sol:MatchingsBids",
            "label": "complyFilplusRule",
            "offset": 0,
            "slot": "2",
            "type": "t_bool"
          }
        ],
        "numberOfBytes": "96"
      },
      "t_struct(MatchingBids)45194_storage": {
        "encoding": "inplace",
        "label": "struct MatchingType.MatchingBids",
        "members": [
          {
            "astId": 45191,
            "contract": "src/v0.8/module/matching/MatchingsBids.sol:MatchingsBids",
            "label": "bids",
            "offset": 0,
            "slot": "0",
            "type": "t_array(t_struct(Bid)45186_storage)dyn_storage"
          },
          {
            "astId": 45193,
            "contract": "src/v0.8/module/matching/MatchingsBids.sol:MatchingsBids",
            "label": "winner",
            "offset": 0,
            "slot": "1",
            "type": "t_address"
          }
        ],
        "numberOfBytes": "64"
      },
      "t_uint256": {
        "encoding": "inplace",
        "label": "uint256",
        "numberOfBytes": "32"
      },
      "t_uint64": {
        "encoding": "inplace",
        "label": "uint64",
        "numberOfBytes": "8"
      },
      "t_uint8": {
        "encoding": "inplace",
        "label": "uint8",
        "numberOfBytes": "1"
      }
    }
  }
}