{
  "address": "0x70A0D52af56CFacD44008589513809e54CF740A9",
  "abi": [
    {
      "inputs": [
        {
          "internalType": "uint64",
          "name": "matchingId",
          "type": "uint64"
        },
        {
          "internalType": "address",
          "name": "expectedInitiator",
          "type": "address"
        },
        {
          "internalType": "address",
          "name": "actualInitiator",
          "type": "address"
        }
      ],
      "name": "NotMatchingInitiator",
      "type": "error"
    },
    {
      "anonymous": false,
      "inputs": [
        {
          "indexed": false,
          "internalType": "address",
          "name": "previousAdmin",
          "type": "address"
        },
        {
          "indexed": false,
          "internalType": "address",
          "name": "newAdmin",
          "type": "address"
        }
      ],
      "name": "AdminChanged",
      "type": "event"
    },
    {
      "anonymous": false,
      "inputs": [
        {
          "indexed": true,
          "internalType": "address",
          "name": "beacon",
          "type": "address"
        }
      ],
      "name": "BeaconUpgraded",
      "type": "event"
    },
    {
      "anonymous": false,
      "inputs": [
        {
          "indexed": false,
          "internalType": "uint8",
          "name": "version",
          "type": "uint8"
        }
      ],
      "name": "Initialized",
      "type": "event"
    },
    {
      "anonymous": false,
      "inputs": [
        {
          "indexed": true,
          "internalType": "uint64",
          "name": "matchingId",
          "type": "uint64"
        },
        {
          "indexed": true,
          "internalType": "address",
          "name": "initiator",
          "type": "address"
        }
      ],
      "name": "MatchingPublished",
      "type": "event"
    },
    {
      "anonymous": false,
      "inputs": [
        {
          "indexed": true,
          "internalType": "address",
          "name": "implementation",
          "type": "address"
        }
      ],
      "name": "Upgraded",
      "type": "event"
    },
    {
      "inputs": [
        {
          "internalType": "uint64",
          "name": "_matchingId",
          "type": "uint64"
        },
        {
          "internalType": "uint64",
          "name": "_datasetId",
          "type": "uint64"
        },
        {
          "internalType": "enum DatasetType.DataType",
          "name": "_dataType",
          "type": "uint8"
        },
        {
          "internalType": "uint64",
          "name": "_associatedMappingFilesMatchingID",
          "type": "uint64"
        },
        {
          "internalType": "uint16",
          "name": "_replicaIndex",
          "type": "uint16"
        }
      ],
      "name": "createTarget",
      "outputs": [],
      "stateMutability": "nonpayable",
      "type": "function"
    },
    {
      "inputs": [],
      "name": "datasets",
      "outputs": [
        {
          "internalType": "contract IDatasets",
          "name": "",
          "type": "address"
        }
      ],
      "stateMutability": "view",
      "type": "function"
    },
    {
      "inputs": [],
      "name": "datasetsProof",
      "outputs": [
        {
          "internalType": "contract IDatasetsProof",
          "name": "",
          "type": "address"
        }
      ],
      "stateMutability": "view",
      "type": "function"
    },
    {
      "inputs": [],
      "name": "datasetsRequirement",
      "outputs": [
        {
          "internalType": "contract IDatasetsRequirement",
          "name": "",
          "type": "address"
        }
      ],
      "stateMutability": "view",
      "type": "function"
    },
    {
      "inputs": [],
      "name": "escrow",
      "outputs": [
        {
          "internalType": "contract IEscrow",
          "name": "",
          "type": "address"
        }
      ],
      "stateMutability": "view",
      "type": "function"
    },
    {
      "inputs": [],
      "name": "getImplementation",
      "outputs": [
        {
          "internalType": "address",
          "name": "",
          "type": "address"
        }
      ],
      "stateMutability": "view",
      "type": "function"
    },
    {
      "inputs": [
        {
          "internalType": "uint64",
          "name": "_matchingId",
          "type": "uint64"
        }
      ],
      "name": "getMatchingCars",
      "outputs": [
        {
          "internalType": "uint64[]",
          "name": "",
          "type": "uint64[]"
        }
      ],
      "stateMutability": "view",
      "type": "function"
    },
    {
      "inputs": [
        {
          "internalType": "uint64",
          "name": "_matchingId",
          "type": "uint64"
        }
      ],
      "name": "getMatchingDatasetId",
      "outputs": [
        {
          "internalType": "uint64",
          "name": "",
          "type": "uint64"
        }
      ],
      "stateMutability": "view",
      "type": "function"
    },
    {
      "inputs": [
        {
          "internalType": "uint64",
          "name": "_matchingId",
          "type": "uint64"
        }
      ],
      "name": "getMatchingReplicaIndex",
      "outputs": [
        {
          "internalType": "uint16",
          "name": "",
          "type": "uint16"
        }
      ],
      "stateMutability": "view",
      "type": "function"
    },
    {
      "inputs": [
        {
          "internalType": "uint64",
          "name": "_matchingId",
          "type": "uint64"
        }
      ],
      "name": "getMatchingSize",
      "outputs": [
        {
          "internalType": "uint64",
          "name": "",
          "type": "uint64"
        }
      ],
      "stateMutability": "view",
      "type": "function"
    },
    {
      "inputs": [
        {
          "internalType": "uint64",
          "name": "_matchingId",
          "type": "uint64"
        }
      ],
      "name": "getMatchingSubsidy",
      "outputs": [
        {
          "internalType": "uint256",
          "name": "",
          "type": "uint256"
        }
      ],
      "stateMutability": "view",
      "type": "function"
    },
    {
      "inputs": [
        {
          "internalType": "uint64",
          "name": "_matchingId",
          "type": "uint64"
        }
      ],
      "name": "getMatchingTarget",
      "outputs": [
        {
          "internalType": "uint64",
          "name": "datasetID",
          "type": "uint64"
        },
        {
          "internalType": "uint64[]",
          "name": "cars",
          "type": "uint64[]"
        },
        {
          "internalType": "uint64",
          "name": "size",
          "type": "uint64"
        },
        {
          "internalType": "enum DatasetType.DataType",
          "name": "dataType",
          "type": "uint8"
        },
        {
          "internalType": "uint64",
          "name": "associatedMappingFilesMatchingID",
          "type": "uint64"
        }
      ],
      "stateMutability": "view",
      "type": "function"
    },
    {
      "inputs": [
        {
          "internalType": "address",
          "name": "_matchings",
          "type": "address"
        },
        {
          "internalType": "address",
          "name": "_matchingsBids",
          "type": "address"
        }
      ],
      "name": "initDependencies",
      "outputs": [],
      "stateMutability": "nonpayable",
      "type": "function"
    },
    {
      "inputs": [
        {
          "internalType": "address",
          "name": "_governanceAddress",
          "type": "address"
        },
        {
          "internalType": "address",
          "name": "_roles",
          "type": "address"
        },
        {
          "internalType": "address",
          "name": "_filplus",
          "type": "address"
        },
        {
          "internalType": "address",
          "name": "_carstore",
          "type": "address"
        },
        {
          "internalType": "address",
          "name": "_datasets",
          "type": "address"
        },
        {
          "internalType": "address",
          "name": "_datasetsRequirement",
          "type": "address"
        },
        {
          "internalType": "address",
          "name": "_datasetsProof",
          "type": "address"
        },
        {
          "internalType": "address",
          "name": "_escrow",
          "type": "address"
        }
      ],
      "name": "initialize",
      "outputs": [],
      "stateMutability": "nonpayable",
      "type": "function"
    },
    {
      "inputs": [
        {
          "internalType": "uint64",
          "name": "_matchingId",
          "type": "uint64"
        },
        {
          "internalType": "uint64",
          "name": "_cid",
          "type": "uint64"
        }
      ],
      "name": "isMatchingContainsCar",
      "outputs": [
        {
          "internalType": "bool",
          "name": "",
          "type": "bool"
        }
      ],
      "stateMutability": "view",
      "type": "function"
    },
    {
      "inputs": [
        {
          "internalType": "uint64",
          "name": "_matchingId",
          "type": "uint64"
        },
        {
          "internalType": "uint64[]",
          "name": "_cids",
          "type": "uint64[]"
        }
      ],
      "name": "isMatchingContainsCars",
      "outputs": [
        {
          "internalType": "bool",
          "name": "",
          "type": "bool"
        }
      ],
      "stateMutability": "view",
      "type": "function"
    },
    {
      "inputs": [
        {
          "internalType": "uint64",
          "name": "_matchingId",
          "type": "uint64"
        },
        {
          "internalType": "address",
          "name": "candidate",
          "type": "address"
        }
      ],
      "name": "isMatchingTargetMeetsFilPlusRequirements",
      "outputs": [
        {
          "internalType": "bool",
          "name": "",
          "type": "bool"
        }
      ],
      "stateMutability": "view",
      "type": "function"
    },
    {
      "inputs": [
        {
          "internalType": "uint64",
          "name": "_datasetId",
          "type": "uint64"
        },
        {
          "internalType": "uint64[]",
          "name": "_cars",
          "type": "uint64[]"
        },
        {
          "internalType": "uint64",
          "name": "_size",
          "type": "uint64"
        },
        {
          "internalType": "enum DatasetType.DataType",
          "name": "_dataType",
          "type": "uint8"
        },
        {
          "internalType": "uint64",
          "name": "_associatedMappingFilesMatchingID",
          "type": "uint64"
        }
      ],
      "name": "isMatchingTargetValid",
      "outputs": [
        {
          "internalType": "bool",
          "name": "",
          "type": "bool"
        }
      ],
      "stateMutability": "view",
      "type": "function"
    },
    {
      "inputs": [],
      "name": "matchings",
      "outputs": [
        {
          "internalType": "contract IMatchings",
          "name": "",
          "type": "address"
        }
      ],
      "stateMutability": "view",
      "type": "function"
    },
    {
      "inputs": [],
      "name": "matchingsBids",
      "outputs": [
        {
          "internalType": "contract IMatchingsBids",
          "name": "",
          "type": "address"
        }
      ],
      "stateMutability": "view",
      "type": "function"
    },
    {
      "inputs": [
        {
          "internalType": "uint64[]",
          "name": "_starts",
          "type": "uint64[]"
        },
        {
          "internalType": "uint64[]",
          "name": "_ends",
          "type": "uint64[]"
        }
      ],
      "name": "parseCars",
      "outputs": [
        {
          "internalType": "uint64[]",
          "name": "",
          "type": "uint64[]"
        }
      ],
      "stateMutability": "pure",
      "type": "function"
    },
    {
      "inputs": [],
      "name": "proxiableUUID",
      "outputs": [
        {
          "internalType": "bytes32",
          "name": "",
          "type": "bytes32"
        }
      ],
      "stateMutability": "view",
      "type": "function"
    },
    {
      "inputs": [
        {
          "internalType": "uint64",
          "name": "_matchingId",
          "type": "uint64"
        },
        {
          "internalType": "uint64",
          "name": "_datasetId",
          "type": "uint64"
        },
        {
          "internalType": "uint64[]",
          "name": "_carsStarts",
          "type": "uint64[]"
        },
        {
          "internalType": "uint64[]",
          "name": "_carsEnds",
          "type": "uint64[]"
        },
        {
          "internalType": "bool",
          "name": "complete",
          "type": "bool"
        }
      ],
      "name": "publishMatching",
      "outputs": [],
      "stateMutability": "nonpayable",
      "type": "function"
    },
    {
      "inputs": [
        {
          "internalType": "address",
          "name": "newImplementation",
          "type": "address"
        }
      ],
      "name": "upgradeTo",
      "outputs": [],
      "stateMutability": "nonpayable",
      "type": "function"
    },
    {
      "inputs": [
        {
          "internalType": "address",
          "name": "newImplementation",
          "type": "address"
        },
        {
          "internalType": "bytes",
          "name": "data",
          "type": "bytes"
        }
      ],
      "name": "upgradeToAndCall",
      "outputs": [],
      "stateMutability": "payable",
      "type": "function"
    }
  ],
  "numDeployments": 1,
  "solcInputHash": "9021cb8d818084f87f27b3e6df282435",
  "bytecode": "0x60a06040523060805234801561001457600080fd5b5060805161383261004c60003960008181610a1201528181610a5201528181610d7601528181610db60152610e3201526138326000f3fe6080604052600436106101265760003560e01c80630382f41d1461012b578063075717211461014d5780631fe162e5146101835780633659cfe6146101b057806340f7f10b146101d057806341558943146101fd5780634f1ef2861461022a57806352d1902d1461023d5780636ad81d621461025f5780637da15ea41461028c57806383587b9d146102ac578063840febd9146102cc5780638a29e2de146102ec5780638d4861fd1461030c5780639aa023d11461033d578063a5e7d6781461035d578063aaf10f421461037d578063ab2d10f71461039f578063b3c21e88146103bf578063bbf83674146103df578063c95d6fa9146103ff578063dd8fff971461041f578063e1da6fe61461043f578063e2fdcc171461045f578063f210e02b1461047f575b600080fd5b34801561013757600080fd5b5061014b610146366004612504565b61049f565b005b34801561015957600080fd5b5061016d6101683660046125b0565b61077b565b60405161017a91906125dd565b60405180910390f35b34801561018f57600080fd5b506101a361019e3660046125eb565b6107a4565b60405161017a91906126c1565b3480156101bc57600080fd5b5061014b6101cb3660046126fd565b610a08565b3480156101dc57600080fd5b506101f06101eb3660046125b0565b610ad0565b60405161017a919061271e565b34801561020957600080fd5b5061021d610218366004612744565b610b00565b60405161017a91906127d1565b61014b61023836600461286e565b610d6c565b34801561024957600080fd5b50610252610e25565b60405161017a91906128c1565b34801561026b57600080fd5b50606d5461027f906001600160a01b031681565b60405161017a9190612907565b34801561029857600080fd5b5061021d6102a7366004612915565b610e82565b3480156102b857600080fd5b5061021d6102c7366004612948565b610f08565b3480156102d857600080fd5b50606e5461027f906001600160a01b031681565b3480156102f857600080fd5b5061014b61030736600461297b565b611243565b34801561031857600080fd5b5061032c6103273660046125b0565b61139b565b60405161017a959493929190612a72565b34801561034957600080fd5b50606c5461027f906001600160a01b031681565b34801561036957600080fd5b506101a36103783660046125b0565b61147a565b34801561038957600080fd5b5061039261149e565b60405161017a9190612ac4565b3480156103ab57600080fd5b50606b5461027f906001600160a01b031681565b3480156103cb57600080fd5b506101f06103da3660046125b0565b6114ad565b3480156103eb57600080fd5b5061014b6103fa366004612ad2565b6114c5565b34801561040b57600080fd5b5061021d61041a366004612af4565b611589565b34801561042b57600080fd5b50606f5461027f906001600160a01b031681565b34801561044b57600080fd5b5061025261045a3660046125b0565b6115f5565b34801561046b57600080fd5b5060685461027f906001600160a01b031681565b34801561048b57600080fd5b5061014b61049a366004612b2b565b611617565b606754604051632474521560e21b81526001600160a01b03909116906000805160206137768339815191529082906391d14854906104e39084903390600401612b96565b602060405180830381865afa158015610500573d6000803e3d6000fd5b505050506040513d601f19601f820116820180604052508101906105249190612bbc565b6105495760405162461bcd60e51b815260040161054090612c11565b60405180910390fd5b606e5460405163e19edda160e01b81526001600160a01b03909116908890600090839063e19edda19061058090859060040161271e565b602060405180830381865afa15801561059d573d6000803e3d6000fd5b505050506040513d601f19601f820116820180604052508101906105c19190612c2c565b90506001600160a01b03811633146105f25781813360405163bb5a686560e01b815260040161054093929190612c4d565b6001600160401b038a166000908152606560205260408120906106158a8a6107a4565b606a5460405163309d8e3f60e21b81529192506000916001600160a01b039091169063c27638fc9061064b9085906004016126c1565b602060405180830381865afa925050508015610684575060408051601f3d908101601f1916820190925261068191810190612c80565b60015b6106a05760405162461bcd60e51b815260040161054090612ccc565b905082546001600160401b03908116908d16146106cf5760405162461bcd60e51b815260040161054090612d05565b6106da83838361183c565b6002830154610709908d9084908490600160401b810460ff1690600160481b90046001600160401b0316610b00565b6107255760405162461bcd60e51b815260040161054090612d3a565b881561076c576107358d8461191a565b60405133906001600160401b038f16907fc1ca89de71e6b0a8b9533756c5ce88f0c6980c359077c799b6e750c04a842c3590600090a35b50505050505050505050505050565b6001600160401b0316600090815260656020526040902060020154600160881b900461ffff1690565b606081518351146107c75760405162461bcd60e51b815260040161054090612d78565b6000805b8451816001600160401b031610156108cc5783816001600160401b0316815181106107f8576107f8612d88565b60200260200101516001600160401b031685826001600160401b03168151811061082457610824612d88565b60200260200101516001600160401b031611156108535760405162461bcd60e51b815260040161054090612dd2565b84816001600160401b03168151811061086e5761086e612d88565b602002602001015184826001600160401b03168151811061089157610891612d88565b60200260200101516108a39190612df8565b6108ae906001612e2b565b6108b89083612e2b565b9150806108c481612e5e565b9150506107cb565b50600080826001600160401b03166001600160401b038111156108f1576108f16123eb565b60405190808252806020026020018201604052801561091a578160200160208202803683370190505b50905060005b8651816001600160401b031610156109fc57600087826001600160401b03168151811061094f5761094f612d88565b602002602001015190505b86826001600160401b03168151811061097557610975612d88565b60200260200101516001600160401b0316816001600160401b0316116109e9578083856001600160401b0316815181106109b1576109b1612d88565b6001600160401b0390921660209283029190910190910152836109d381612e5e565b94505080806109e190612e5e565b91505061095a565b50806109f481612e5e565b915050610920565b50925050505b92915050565b6001600160a01b037f0000000000000000000000000000000000000000000000000000000000000000163003610a505760405162461bcd60e51b815260040161054090612ec2565b7f00000000000000000000000000000000000000000000000000000000000000006001600160a01b0316610a82611bd7565b6001600160a01b031614610aa85760405162461bcd60e51b815260040161054090612f09565b610ab181611bf3565b60408051600080825260208201909252610acd91839190611c8c565b50565b6001600160401b0381166000908152606560205260408120610af981546001600160401b031690565b9392505050565b60006006606b546040516315b536bd60e11b81526001600160a01b0390911690632b6a6d7a90610b34908a9060040161271e565b602060405180830381865afa158015610b51573d6000803e3d6000fd5b505050506040513d601f19601f82011682018060405250810190610b759190612f31565b6006811115610b8657610b86612a2e565b14610ba35760405162461bcd60e51b815260040161054090612f83565b606d54604051631026a71360e01b81526001600160a01b0390911690631026a71390610bd59089908990600401612f93565b602060405180830381865afa158015610bf2573d6000803e3d6000fd5b505050506040513d601f19601f82011682018060405250810190610c169190612bbc565b610c325760405162461bcd60e51b815260040161054090612fd7565b6000846001600160401b031611610c5b5760405162461bcd60e51b81526004016105409061300b565b6000836001811115610c6f57610c6f612a2e565b03610d5f576000610c7f8361139b565b50935060019250610c8e915050565b816001811115610ca057610ca0612a2e565b14610cbd5760405162461bcd60e51b81526004016105409061304c565b606e54604051631a569da560e11b81526005916001600160a01b0316906334ad3b4a90610cee90879060040161271e565b602060405180830381865afa158015610d0b573d6000803e3d6000fd5b505050506040513d601f19601f82011682018060405250810190610d2f9190613074565b6007811115610d4057610d40612a2e565b14610d5d5760405162461bcd60e51b8152600401610540906130c7565b505b5060015b95945050505050565b6001600160a01b037f0000000000000000000000000000000000000000000000000000000000000000163003610db45760405162461bcd60e51b815260040161054090612ec2565b7f00000000000000000000000000000000000000000000000000000000000000006001600160a01b0316610de6611bd7565b6001600160a01b031614610e0c5760405162461bcd60e51b815260040161054090612f09565b610e1582611bf3565b610e2182826001611c8c565b5050565b6000306001600160a01b037f00000000000000000000000000000000000000000000000000000000000000001614610e6f5760405162461bcd60e51b81526004016105409061312c565b506000805160206137b683398151915290565b600080610e8e8461147a565b905060005b8151816001600160401b03161015610efd5781816001600160401b031681518110610ec057610ec0612d88565b60200260200101516001600160401b0316846001600160401b031603610eeb57600192505050610a02565b80610ef581612e5e565b915050610e93565b506000949350505050565b6001600160401b038216600090815260656020526040812081610f2a8561147a565b606c5483546040516314a41d8560e01b81529293506000926001600160a01b03909216916314a41d8591610f6c916001600160401b039091169060040161271e565b602060405180830381865afa158015610f89573d6000803e3d6000fd5b505050506040513d601f19601f82011682018060405250810190610fad9190613147565b905060005b8251816001600160401b0316101561123657606f54606a5484516000926001600160a01b0390811692634fc780e89291169063310805429088906001600160401b03881690811061100557611005612d88565b60200260200101516040518263ffffffff1660e01b8152600401611029919061271e565b600060405180830381865afa158015611046573d6000803e3d6000fd5b505050506040513d6000823e601f3d908101601f1916820160405261106e91908101906131dd565b6040518263ffffffff1660e01b815260040161108a91906126c1565b600060405180830381865afa1580156110a7573d6000803e3d6000fd5b505050506040513d6000823e601f3d908101601f191682016040526110cf919081019061328c565b905060006110dd8289611d6e565b6069549091506001600160a01b031663037864d26110fc8360016132c6565b6040518263ffffffff1660e01b815260040161111891906125dd565b602060405180830381865afa158015611135573d6000803e3d6000fd5b505050506040513d601f19601f820116820180604052508101906111599190612bbc565b61116c5760009650505050505050610a02565b600061117783611dd6565b9050611183838a611f18565b156111965780611192816132d9565b9150505b6069548351604051632cccebc560e21b81526001600160a01b039092169163b333af14916111cb9189919086906004016132ec565b602060405180830381865afa1580156111e8573d6000803e3d6000fd5b505050506040513d601f19601f8201168201806040525081019061120c9190612bbc565b611220576000975050505050505050610a02565b505050808061122e90612e5e565b915050610fb2565b5060019695505050505050565b600054610100900460ff16158080156112635750600054600160ff909116105b80611284575061127230611f7d565b158015611284575060005460ff166001145b6112a05760405162461bcd60e51b81526004016105409061335f565b6000805460ff1916600117905580156112c3576000805461ff0019166101001790555b606680546001600160a01b03199081166001600160a01b038c8116919091179092556067805482168b84161790556068805482168584161790556069805482168a8416179055606a80548216898416179055606b80548216888416179055606c80548216878416179055606d8054909116918516919091179055611345611f8c565b8015611390576000805461ff00191690556040517f7f26b83ff96e1f2b6a682f133852f6798a09c465da95921460cefb38474024989061138790600190613383565b60405180910390a15b505050505050505050565b6001600160401b038082166000908152606560209081526040808320805460028201546001830180548551818802810188019096528086529697606097899788978897968416958085169460ff600160401b83041694600160481b909204169286919083018282801561145f57602002820191906000526020600020906000905b82829054906101000a90046001600160401b03166001600160401b03168152602001906008019060208260070104928301926001038202915080841161141c5790505b50505050509350955095509550955095505091939590929450565b6001600160401b0381166000908152606560205260409020606090610af981611fb5565b60006114a8611bd7565b905090565b6000806114b98361139b565b50909695505050505050565b606754604051632474521560e21b81526001600160a01b039091169060009082906391d14854906114fc9084903390600401612b96565b602060405180830381865afa158015611519573d6000803e3d6000fd5b505050506040513d601f19601f8201168201806040525081019061153d9190612bbc565b6115595760405162461bcd60e51b815260040161054090612c11565b5050606e80546001600160a01b039384166001600160a01b031991821617909155606f8054929093169116179055565b6000805b8251816001600160401b031610156115eb576115cb8484836001600160401b0316815181106115be576115be612d88565b6020026020010151610e82565b6115d9576000915050610a02565b806115e381612e5e565b91505061158d565b5060019392505050565b6001600160401b03811660009081526065602052604081206003810154610af9565b606754604051632474521560e21b81526001600160a01b03909116906000805160206137768339815191529082906391d148549061165b9084903390600401612b96565b602060405180830381865afa158015611678573d6000803e3d6000fd5b505050506040513d601f19601f8201168201806040525081019061169c9190612bbc565b6116b85760405162461bcd60e51b815260040161054090612c11565b606e5460405163e19edda160e01b81526001600160a01b03909116908890600090839063e19edda1906116ef90859060040161271e565b602060405180830381865afa15801561170c573d6000803e3d6000fd5b505050506040513d601f19601f820116820180604052508101906117309190612c2c565b90506001600160a01b03811633146117615781813360405163bb5a686560e01b815260040161054093929190612c4d565b6001600160401b038a8116600090815260656020908152604080832080546001600160401b031916948e1694909417845580519283529082019081905290516117ae9160018401916122e9565b506002810180546001600160401b0319811682558a91906001600160481b031916600160401b8360018111156117e6576117e6612a2e565b0217905550600201805461ffff909716600160881b0261ffff60881b196001600160401b03909916600160481b0298909816600160481b600160981b031990971696909617969096179094555050505050505050565b60005b8251816001600160401b031610156118d0576118be8484836001600160401b03168151811061187057611870612d88565b6020026020010151600191820180549283018155600090815260209020600483040180546001600160401b0392831660086003909516949094026101000a9384029290930219909216179055565b806118c881612e5e565b91505061183f565b506002830180548291906000906118f19084906001600160401b0316612e2b565b92506101000a8154816001600160401b0302191690836001600160401b03160217905550505050565b61192382612043565b606e546040516352ffae6b60e01b81526001600160a01b03909116906352ffae6b9061195390859060040161271e565b600060405180830381600087803b15801561196d57600080fd5b505af1158015611981573d6000803e3d6000fd5b5050606b5460405163293a9a8160e11b8152600093506001600160a01b0390911691506352753502906119b890869060040161271e565b602060405180830381865afa1580156119d5573d6000803e3d6000fd5b505050506040513d601f19601f820116820180604052508101906119f99190612c2c565b606e5460405163e19edda160e01b81529192506000916001600160a01b039091169063e19edda190611a2f90879060040161271e565b602060405180830381865afa158015611a4c573d6000803e3d6000fd5b505050506040513d601f19601f82011682018060405250810190611a709190612c2c565b606854604051636c750c2f60e11b81529192506001600160a01b03169063d8ea185e90611aab906005908690899087906002906004016133ed565b600060405180830381600087803b158015611ac557600080fd5b505af1158015611ad9573d6000803e3d6000fd5b5050606854604051630a22cd5960e31b8152600093506001600160a01b0390911691506351166ac890611b179060059087908a90889060040161342f565b60a060405180830381865afa158015611b34573d6000803e3d6000fd5b505050506040513d601f19601f82011682018060405250810190611b589190613475565b505050509050611b71818561211790919063ffffffff16565b606b546001600160a01b03166363d763ac86611b8c816114ad565b6040518363ffffffff1660e01b8152600401611ba99291906134e0565b600060405180830381600087803b158015611bc357600080fd5b505af1158015611390573d6000803e3d6000fd5b6000805160206137b6833981519152546001600160a01b031690565b606754604051632474521560e21b81526001600160a01b039091169060009082906391d1485490611c2a9084903390600401612b96565b602060405180830381865afa158015611c47573d6000803e3d6000fd5b505050506040513d601f19601f82011682018060405250810190611c6b9190612bbc565b611c875760405162461bcd60e51b815260040161054090612c11565b505050565b7f4910fdfa16fed3260ed0e7147f7cc6da11a60208b5b9406d12a635614ffd91435460ff1615611cbf57611c878361211f565b826001600160a01b03166352d1902d6040518163ffffffff1660e01b8152600401602060405180830381865afa925050508015611d19575060408051601f3d908101601f19168201909252611d16918101906134fb565b60015b611d355760405162461bcd60e51b815260040161054090613567565b6000805160206137b68339815191528114611d625760405162461bcd60e51b8152600401610540906135bd565b50611c87838383612173565b600080805b8451811015611dce57836001600160a01b0316858281518110611d9857611d98612d88565b60200260200101516001600160a01b031603611dbc5781611db8816132d9565b9250505b80611dc6816132d9565b915050611d73565b509392505050565b60008060009050600083516001600160401b03811115611df857611df86123eb565b604051908082528060200260200182016040528015611e21578160200160208202803683370190505b50905060005b8451811015611f0f57600160005b84811015611ea357838181518110611e4f57611e4f612d88565b60200260200101516001600160a01b0316878481518110611e7257611e72612d88565b60200260200101516001600160a01b031603611e915760009150611ea3565b80611e9b816132d9565b915050611e35565b508015611efc57858281518110611ebc57611ebc612d88565b6020026020010151838581518110611ed657611ed6612d88565b6001600160a01b039092166020928302919091019091015283611ef8816132d9565b9450505b5080611f07816132d9565b915050611e27565b50909392505050565b6000805b8351811015611f7357826001600160a01b0316848281518110611f4157611f41612d88565b60200260200101516001600160a01b031603611f61576001915050610a02565b80611f6b816132d9565b915050611f1c565b5060009392505050565b6001600160a01b03163b151590565b600054610100900460ff16611fb35760405162461bcd60e51b815260040161054090613615565b565b60608160010180548060200260200160405190810160405280929190818152602001828054801561203757602002820191906000526020600020906000905b82829054906101000a90046001600160401b03166001600160401b031681526020019060080190602082600701049283019260010382029150808411611ff45790505b50505050509050919050565b600061204e8261147a565b9050600061205b8361077b565b905060005b8251816001600160401b0316101561211157606a5483516001600160a01b03909116906313083f869085906001600160401b0385169081106120a4576120a4612d88565b602002602001015186856040518463ffffffff1660e01b81526004016120cc93929190613625565b600060405180830381600087803b1580156120e657600080fd5b505af11580156120fa573d6000803e3d6000fd5b50505050808061210990612e5e565b915050612060565b50505050565b600390910155565b61212881611f7d565b6121445760405162461bcd60e51b81526004016105409061368a565b6000805160206137b683398151915280546001600160a01b0319166001600160a01b0392909216919091179055565b61217c83612198565b6000825111806121895750805b15611c875761211183836121d8565b6121a18161211f565b6040516001600160a01b038216907fbc7cd75a20ee27fd9adebab32041f755214dbc6bffa90cc0225b39da2e5c2d3b90600090a250565b6060610af983836040518060600160405280602781526020016137d6602791396060600080856001600160a01b03168560405161221591906136e0565b600060405180830381855af49150503d8060008114612250576040519150601f19603f3d011682016040523d82523d6000602084013e612255565b606091505b509150915061226686838387612270565b9695505050505050565b606083156122ad5782516000036122a65761228a85611f7d565b6122a65760405162461bcd60e51b815260040161054090613720565b50816122b7565b6122b783836122bf565b949350505050565b8151156122cf5781518083602001fd5b8060405162461bcd60e51b81526004016105409190613764565b828054828255906000526020600020906003016004900481019282156123915791602002820160005b8382111561235c57835183826101000a8154816001600160401b0302191690836001600160401b031602179055509260200192600801602081600701049283019260010302612312565b801561238f5782816101000a8154906001600160401b03021916905560080160208160070104928301926001030261235c565b505b5061239d9291506123a1565b5090565b5b8082111561239d57600081556001016123a2565b6001600160401b031690565b6123cb816123b6565b8114610acd57600080fd5b8035610a02816123c2565b601f01601f191690565b634e487b7160e01b600052604160045260246000fd5b61240a826123e1565b81018181106001600160401b0382111715612427576124276123eb565b6040525050565b600061243960405190565b90506124458282612401565b919050565b60006001600160401b03821115612463576124636123eb565b5060209081020190565b600061248061247b8461244a565b61242e565b8381529050602080820190840283018581111561249f5761249f600080fd5b835b818110156124c357806124b488826123d6565b845250602092830192016124a1565b5050509392505050565b600082601f8301126124e1576124e1600080fd5b81356122b784826020860161246d565b8015156123cb565b8035610a02816124f1565b600080600080600060a0868803121561251f5761251f600080fd5b600061252b88886123d6565b955050602061253c888289016123d6565b94505060408601356001600160401b0381111561255b5761255b600080fd5b612567888289016124cd565b93505060608601356001600160401b0381111561258657612586600080fd5b612592888289016124cd565b92505060806125a3888289016124f9565b9150509295509295909350565b6000602082840312156125c5576125c5600080fd5b60006122b784846123d6565b61ffff81165b82525050565b60208101610a0282846125d1565b6000806040838503121561260157612601600080fd5b82356001600160401b0381111561261a5761261a600080fd5b612626858286016124cd565b92505060208301356001600160401b0381111561264557612645600080fd5b612651858286016124cd565b9150509250929050565b6125d7816123b6565b6000612670838361265b565b505060200190565b6000612682825190565b80845260209384019383018060005b838110156126b65781516126a58882612664565b975060208301925050600101612691565b509495945050505050565b60208082528101610af98184612678565b6001600160a01b031690565b6000610a02826126d2565b6123cb816126de565b8035610a02816126e9565b60006020828403121561271257612712600080fd5b60006122b784846126f2565b60208101610a02828461265b565b60028110610acd57600080fd5b8035610a028161272c565b600080600080600060a0868803121561275f5761275f600080fd5b600061276b88886123d6565b95505060208601356001600160401b0381111561278a5761278a600080fd5b612796888289016124cd565b94505060406127a7888289016123d6565b93505060606127b888828901612739565b92505060806125a3888289016123d6565b8015156125d7565b60208101610a0282846127c9565b60006001600160401b038211156127f8576127f86123eb565b612801826123e1565b60200192915050565b82818337506000910152565b600061282461247b846127df565b90508281526020810184848401111561283f5761283f600080fd5b611dce84828561280a565b600082601f83011261285e5761285e600080fd5b81356122b7848260208601612816565b6000806040838503121561288457612884600080fd5b600061289085856126f2565b92505060208301356001600160401b038111156128af576128af600080fd5b6126518582860161284a565b806125d7565b60208101610a0282846128bb565b6000610a026128e36128e0846126d2565b90565b6126d2565b6000610a02826128cf565b6000610a02826128e8565b6125d7816128f3565b60208101610a0282846128fe565b6000806040838503121561292b5761292b600080fd5b600061293785856123d6565b9250506020612651858286016123d6565b6000806040838503121561295e5761295e600080fd5b600061296a85856123d6565b9250506020612651858286016126f2565b600080600080600080600080610100898b03121561299b5761299b600080fd5b60006129a78b8b6126f2565b98505060206129b88b828c016126f2565b97505060406129c98b828c016126f2565b96505060606129da8b828c016126f2565b95505060806129eb8b828c016126f2565b94505060a06129fc8b828c016126f2565b93505060c0612a0d8b828c016126f2565b92505060e0612a1e8b828c016126f2565b9150509295985092959890939650565b634e487b7160e01b600052602160045260246000fd5b60028110610acd57610acd612a2e565b8061244581612a44565b6000610a0282612a54565b6125d781612a5e565b60a08101612a80828861265b565b8181036020830152612a928187612678565b9050612aa1604083018661265b565b612aae6060830185612a69565b612266608083018461265b565b6125d7816126de565b60208101610a028284612abb565b60008060408385031215612ae857612ae8600080fd5b600061296a85856126f2565b60008060408385031215612b0a57612b0a600080fd5b600061262685856123d6565b61ffff81166123cb565b8035610a0281612b16565b600080600080600060a08688031215612b4657612b46600080fd5b6000612b5288886123d6565b9550506020612b63888289016123d6565b9450506040612b7488828901612739565b9350506060612b85888289016123d6565b92505060806125a388828901612b20565b60408101612ba482856128bb565b610af96020830184612abb565b8051610a02816124f1565b600060208284031215612bd157612bd1600080fd5b60006122b78484612bb1565b601a81526000602082017913db9b1e48185b1b1bddd959081c9bdb194818d85b8818d85b1b60321b815291505b5060200190565b60208082528101610a0281612bdd565b8051610a02816126e9565b600060208284031215612c4157612c41600080fd5b60006122b78484612c21565b60608101612c5b828661265b565b612c686020830185612abb565b6122b76040830184612abb565b8051610a02816123c2565b600060208284031215612c9557612c95600080fd5b60006122b78484612c75565b601481526000602082017311d95d0818d85c9cc81cda5e994819985a5b195960621b81529150612c0a565b60208082528101610a0281612ca1565b60128152600060208201711a5b9d985b1a590819185d185cd95d081a5960721b81529150612c0a565b60208082528101610a0281612cdc565b600e81526000602082016d15185c99d95d081a5b9d985b1a5960921b81529150612c0a565b60208082528101610a0281612d15565b60178152600060208201760e6e8c2e4e840c2dcc840cadcc840dcdee840dac2e8c6d604b1b81529150612c0a565b60208082528101610a0281612d4a565b634e487b7160e01b600052603260045260246000fd5b601e81526000602082017f7374617274206d7573742062652067726561746572207468616e20656e64000081529150612c0a565b60208082528101610a0281612d9e565b634e487b7160e01b600052601160045260246000fd5b6000612e03826123b6565b9150612e0e836123b6565b9250508181036001600160401b03811115610a0257610a02612de2565b6000612e36826123b6565b9150612e41836123b6565b9250508082016001600160401b03811115610a0257610a02612de2565b6000612e69826123b6565b91506001600160401b038203612e8157612e81612de2565b5060010190565b602c815260006020820160008051602061379683398151915281526b19195b1959d85d1958d85b1b60a21b602082015291505b5060400190565b60208082528101610a0281612e88565b602c815260006020820160008051602061379683398151915281526b6163746976652070726f787960a01b60208201529150612ebb565b60208082528101610a0281612ed2565b60078110610acd57600080fd5b8051610a0281612f19565b600060208284031215612f4657612f46600080fd5b60006122b78484612f26565b601a815260006020820179646174617365744964206973206e6f7420617070726f7665642160301b81529150612c0a565b60208082528101610a0281612f52565b60408101612fa1828561265b565b81810360208301526122b78184612678565b600d81526000602082016c496e76616c696420636964732160981b81529150612c0a565b60208082528101610a0281612fb3565b600d81526000602082016c496e76616c69642073697a652160981b81529150612c0a565b60208082528101610a0281612fe7565b601a8152600060208201794e6565642061206173736f636961746564206d61746368696e6760301b81529150612c0a565b60208082528101610a028161301b565b60088110610acd57600080fd5b8051610a028161305c565b60006020828403121561308957613089600080fd5b60006122b78484613069565b601b81526000602082017a646174617365744964206973206e6f7420636f6d706c657465642160281b81529150612c0a565b60208082528101610a0281613095565b603881526000602082017f555550535570677261646561626c653a206d757374206e6f742062652063616c8152771b1959081d1a1c9bdd59da0819195b1959d85d1958d85b1b60421b60208201529150612ebb565b60208082528101610a02816130d7565b8051610a0281612b16565b60006020828403121561315c5761315c600080fd5b60006122b7848461313c565b600061317661247b8461244a565b8381529050602080820190840283018581111561319557613195600080fd5b835b818110156124c357806131aa8882612c75565b84525060209283019201613197565b600082601f8301126131cd576131cd600080fd5b81516122b7848260208601613168565b6000602082840312156131f2576131f2600080fd5b81516001600160401b0381111561320b5761320b600080fd5b6122b7848285016131b9565b600061322561247b8461244a565b8381529050602080820190840283018581111561324457613244600080fd5b835b818110156124c357806132598882612c21565b84525060209283019201613246565b600082601f83011261327c5761327c600080fd5b81516122b7848260208601613217565b6000602082840312156132a1576132a1600080fd5b81516001600160401b038111156132ba576132ba600080fd5b6122b784828501613268565b80820180821115610a0257610a02612de2565b60006000198203612e8157612e81612de2565b606081016132fa82866125d1565b61330760208301856125d1565b6122b760408301846125d1565b602e81526000602082017f496e697469616c697a61626c653a20636f6e747261637420697320616c72656181526d191e481a5b9a5d1a585b1a5e995960921b60208201529150612ebb565b60208082528101610a0281613314565b600060ff8216610a02565b6125d78161336f565b60208101610a02828461337a565b60088110610acd57610acd612a2e565b8061244581613391565b6000610a02826133a1565b6125d7816133ab565b60038110610acd57610acd612a2e565b80612445816133bf565b6000610a02826133cf565b6125d7816133d9565b60a081016133fb82886133b6565b6134086020830187612abb565b613415604083018661265b565b6134226060830185612abb565b61226660808301846133e4565b6080810161343d82876133b6565b61344a6020830186612abb565b613457604083018561265b565b610d636060830184612abb565b806123cb565b8051610a0281613464565b600080600080600060a0868803121561349057613490600080fd5b600061349c888861346a565b95505060206134ad8882890161346a565b94505060406134be8882890161346a565b93505060606134cf8882890161346a565b92505060806125a388828901612c75565b604081016134ee828561265b565b610af9602083018461265b565b60006020828403121561351057613510600080fd5b60006122b7848461346a565b602e81526000602082017f45524331393637557067726164653a206e657720696d706c656d656e7461746981526d6f6e206973206e6f74205555505360901b60208201529150612ebb565b60208082528101610a028161351c565b602981526000602082017f45524331393637557067726164653a20756e737570706f727465642070726f788152681a58589b195555525160ba1b60208201529150612ebb565b60208082528101610a0281613577565b602b81526000602082017f496e697469616c697a61626c653a20636f6e7472616374206973206e6f74206981526a6e697469616c697a696e6760a81b60208201529150612ebb565b60208082528101610a02816135cd565b60608101613633828661265b565b613307602083018561265b565b602d81526000602082017f455243313936373a206e657720696d706c656d656e746174696f6e206973206e81526c1bdd08184818dbdb9d1c9858dd609a1b60208201529150612ebb565b60208082528101610a0281613640565b60005b838110156136b557818101518382015260200161369d565b50506000910152565b60006136c8825190565b6136d681856020860161369a565b9290920192915050565b6000610af982846136be565b601d81526000602082017f416464726573733a2063616c6c20746f206e6f6e2d636f6e747261637400000081529150612c0a565b60208082528101610a02816136ec565b600061373a825190565b80845260208401935061375181856020860161369a565b61375a816123e1565b9093019392505050565b60208082528101610af9818461373056fe2e7a99dcc48463ba57667732f1d19d96afa51e11db099e5c9c708076a0a0804046756e6374696f6e206d7573742062652063616c6c6564207468726f75676820360894a13ba1a3210667c828492db98dca3e2076cc3735a920a3ca505d382bbc416464726573733a206c6f772d6c6576656c2064656c65676174652063616c6c206661696c6564a26469706673582212208ffc2dbb101457ba1d291a63fb80177a5bdde2eae416bca3a46ddf7784fddfbc64736f6c63430008150033",
  "devdoc": {
    "details": "This contract is intended to be inherited by specific matching-related contracts.",
    "events": {
      "AdminChanged(address,address)": {
        "details": "Emitted when the admin account has changed."
      },
      "BeaconUpgraded(address)": {
        "details": "Emitted when the beacon is changed."
      },
      "Initialized(uint8)": {
        "details": "Triggered when the contract has been initialized or reinitialized."
      },
      "Upgraded(address)": {
        "details": "Emitted when the implementation is upgraded."
      }
    },
    "kind": "dev",
    "methods": {
      "createTarget(uint64,uint64,uint8,uint64,uint16)": {
        "params": {
          "_associatedMappingFilesMatchingID": "The matching ID that associated with mapping files of dataset of _datasetId",
          "_dataType": "Identify the data type of \"cars\", which can be either \"Source\" or \"MappingFiles\".",
          "_datasetId": "The dataset id to create matching.",
          "_matchingId": "The matching id to publish cars.",
          "_replicaIndex": "The index of the replica in dataset."
        }
      },
      "getMatchingCars(uint64)": {
        "params": {
          "_matchingId": "The ID of the matching."
        },
        "returns": {
          "_0": "cars An array of CIDs representing the cars in the matching."
        }
      },
      "getMatchingDatasetId(uint64)": {
        "params": {
          "_matchingId": "The ID of the matching."
        },
        "returns": {
          "_0": "The ID of the matching's dataset."
        }
      },
      "getMatchingReplicaIndex(uint64)": {
        "params": {
          "_matchingId": "The ID of the matching."
        },
        "returns": {
          "_0": "index The index of the matching's replica."
        }
      },
      "getMatchingSize(uint64)": {
        "params": {
          "_matchingId": "The ID of the matching to check."
        },
        "returns": {
          "_0": "The size of the matching cars."
        }
      },
      "getMatchingTarget(uint64)": {
        "params": {
          "_matchingId": "The ID of the matching."
        },
        "returns": {
          "associatedMappingFilesMatchingID": "The ID of the associated mapping files matching.",
          "cars": "An array of CIDs representing the cars in the matching.",
          "dataType": "The data type of the matching.",
          "datasetID": "The ID of the associated dataset.",
          "size": "The size of the matching."
        }
      },
      "isMatchingContainsCar(uint64,uint64)": {
        "params": {
          "_cid": "The CID (Content Identifier) to check for.",
          "_matchingId": "The ID of the matching to check."
        },
        "returns": {
          "_0": "True if the matching contains the specified CID, otherwise false."
        }
      },
      "isMatchingContainsCars(uint64,uint64[])": {
        "params": {
          "_cids": "An array of CIDs (Content Identifiers) to check for.",
          "_matchingId": "The ID of the matching to check."
        },
        "returns": {
          "_0": "True if the matching contains all the specified CIDs, otherwise false."
        }
      },
      "parseCars(uint64[],uint64[])": {
        "params": {
          "_ends": "The ends of cars to publish.",
          "_starts": "The starts of cars to publish."
        },
        "returns": {
          "_0": "The cars of the indexes."
        }
      },
      "proxiableUUID()": {
        "details": "Implementation of the ERC1822 {proxiableUUID} function. This returns the storage slot used by the implementation. It is used to validate the implementation's compatibility when performing an upgrade. IMPORTANT: A proxy pointing at a proxiable contract should not be considered proxiable itself, because this risks bricking a proxy that upgrades to it, by delegating to itself until out of gas. Thus it is critical that this function revert if invoked through a proxy. This is guaranteed by the `notDelegated` modifier."
      },
      "publishMatching(uint64,uint64,uint64[],uint64[],bool)": {
        "params": {
          "_carsEnds": "The cars to publish.",
          "_carsStarts": "The cars to publish.",
          "_datasetId": "The dataset id of matching.",
          "_matchingId": "The matching id to publish cars.",
          "complete": "If the publish is complete."
        }
      },
      "upgradeTo(address)": {
        "custom:oz-upgrades-unsafe-allow-reachable": "delegatecall",
        "details": "Upgrade the implementation of the proxy to `newImplementation`. Calls {_authorizeUpgrade}. Emits an {Upgraded} event."
      },
      "upgradeToAndCall(address,bytes)": {
        "custom:oz-upgrades-unsafe-allow-reachable": "delegatecall",
        "details": "Upgrade the implementation of the proxy to `newImplementation`, and subsequently execute the function call encoded in `data`. Calls {_authorizeUpgrade}. Emits an {Upgraded} event."
      }
    },
    "stateVariables": {
      "__gap": {
        "details": "This empty reserved space is put in place to allow future versions to add new"
      }
    },
    "title": "Matchings Base Contract",
    "version": 1
  },
  "userdoc": {
    "events": {
      "MatchingPublished(uint64,address)": {
        "notice": "Declare events for external monitoring"
      }
    },
    "kind": "user",
    "methods": {
      "createTarget(uint64,uint64,uint8,uint64,uint16)": {
        "notice": "Function for create a new matching target."
      },
      "getImplementation()": {
        "notice": "Returns the implementation contract"
      },
      "getMatchingCars(uint64)": {
        "notice": "Get the cars of a matching."
      },
      "getMatchingDatasetId(uint64)": {
        "notice": "Function for getting the dataset id in a matching"
      },
      "getMatchingReplicaIndex(uint64)": {
        "notice": "Get the index of matching's replica."
      },
      "getMatchingSize(uint64)": {
        "notice": "Function for getting the total data size of bids in a matching"
      },
      "getMatchingSubsidy(uint64)": {
        "notice": "Function for getting subsidy amount in a matching"
      },
      "getMatchingTarget(uint64)": {
        "notice": "Get the target information of a matching."
      },
      "initDependencies(address,address)": {
        "notice": "Function for init matchings instance."
      },
      "initialize(address,address,address,address,address,address,address,address)": {
        "notice": "initialize function to initialize the contract and grant the default admin role to the deployer."
      },
      "isMatchingContainsCar(uint64,uint64)": {
        "notice": "Check if a matching with the given matching ID contains a specific CID."
      },
      "isMatchingContainsCars(uint64,uint64[])": {
        "notice": "Check if a matching with the given matching ID contains multiple CIDs."
      },
      "isMatchingTargetMeetsFilPlusRequirements(uint64,address)": {
        "notice": "Check if a matching meets the requirements of Fil+."
      },
      "isMatchingTargetValid(uint64,uint64[],uint64,uint8,uint64)": {
        "notice": "check is matching targe valid"
      },
      "parseCars(uint64[],uint64[])": {
        "notice": "Function for parse cars from indexes."
      },
      "publishMatching(uint64,uint64,uint64[],uint64[],bool)": {
        "notice": "Function for publishing a matching"
      }
    },
    "notice": "This contract serves as the base for managing matchings, their states, and associated actions.",
    "version": 1
  },
  "storageLayout": {
    "storage": [
      {
        "astId": 5186,
        "contract": "src/v0.8/module/matching/MatchingsTarget.sol:MatchingsTarget",
        "label": "_initialized",
        "offset": 0,
        "slot": "0",
        "type": "t_uint8"
      },
      {
        "astId": 5189,
        "contract": "src/v0.8/module/matching/MatchingsTarget.sol:MatchingsTarget",
        "label": "_initializing",
        "offset": 1,
        "slot": "0",
        "type": "t_bool"
      },
      {
        "astId": 5168,
        "contract": "src/v0.8/module/matching/MatchingsTarget.sol:MatchingsTarget",
        "label": "__gap",
        "offset": 0,
        "slot": "1",
        "type": "t_array(t_uint256)50_storage"
      },
      {
        "astId": 5483,
        "contract": "src/v0.8/module/matching/MatchingsTarget.sol:MatchingsTarget",
        "label": "__gap",
        "offset": 0,
        "slot": "51",
        "type": "t_array(t_uint256)50_storage"
      },
      {
        "astId": 38142,
        "contract": "src/v0.8/module/matching/MatchingsTarget.sol:MatchingsTarget",
        "label": "targets",
        "offset": 0,
        "slot": "101",
        "type": "t_mapping(t_uint64,t_struct(MatchingTarget)45178_storage)"
      },
      {
        "astId": 38144,
        "contract": "src/v0.8/module/matching/MatchingsTarget.sol:MatchingsTarget",
        "label": "governanceAddress",
        "offset": 0,
        "slot": "102",
        "type": "t_address"
      },
      {
        "astId": 38147,
        "contract": "src/v0.8/module/matching/MatchingsTarget.sol:MatchingsTarget",
        "label": "roles",
        "offset": 0,
        "slot": "103",
        "type": "t_contract(IRoles)29558"
      },
      {
        "astId": 38150,
        "contract": "src/v0.8/module/matching/MatchingsTarget.sol:MatchingsTarget",
        "label": "escrow",
        "offset": 0,
        "slot": "104",
        "type": "t_contract(IEscrow)29288"
      },
      {
        "astId": 38153,
        "contract": "src/v0.8/module/matching/MatchingsTarget.sol:MatchingsTarget",
        "label": "filplus",
        "offset": 0,
        "slot": "105",
        "type": "t_contract(IFilplus)29518"
      },
      {
        "astId": 38156,
        "contract": "src/v0.8/module/matching/MatchingsTarget.sol:MatchingsTarget",
        "label": "carstore",
        "offset": 0,
        "slot": "106",
        "type": "t_contract(ICarstore)29050"
      },
      {
        "astId": 38159,
        "contract": "src/v0.8/module/matching/MatchingsTarget.sol:MatchingsTarget",
        "label": "datasets",
        "offset": 0,
        "slot": "107",
        "type": "t_contract(IDatasets)29822"
      },
      {
        "astId": 38162,
        "contract": "src/v0.8/module/matching/MatchingsTarget.sol:MatchingsTarget",
        "label": "datasetsRequirement",
        "offset": 0,
        "slot": "108",
        "type": "t_contract(IDatasetsRequirement)30208"
      },
      {
        "astId": 38165,
        "contract": "src/v0.8/module/matching/MatchingsTarget.sol:MatchingsTarget",
        "label": "datasetsProof",
        "offset": 0,
        "slot": "109",
        "type": "t_contract(IDatasetsProof)30135"
      },
      {
        "astId": 38168,
        "contract": "src/v0.8/module/matching/MatchingsTarget.sol:MatchingsTarget",
        "label": "matchings",
        "offset": 0,
        "slot": "110",
        "type": "t_contract(IMatchings)30370"
      },
      {
        "astId": 38171,
        "contract": "src/v0.8/module/matching/MatchingsTarget.sol:MatchingsTarget",
        "label": "matchingsBids",
        "offset": 0,
        "slot": "111",
        "type": "t_contract(IMatchingsBids)30464"
      },
      {
        "astId": 38176,
        "contract": "src/v0.8/module/matching/MatchingsTarget.sol:MatchingsTarget",
        "label": "__gap",
        "offset": 0,
        "slot": "112",
        "type": "t_array(t_uint256)32_storage"
      }
    ],
    "types": {
      "t_address": {
        "encoding": "inplace",
        "label": "address",
        "numberOfBytes": "20"
      },
      "t_array(t_uint256)32_storage": {
        "base": "t_uint256",
        "encoding": "inplace",
        "label": "uint256[32]",
        "numberOfBytes": "1024"
      },
      "t_array(t_uint256)50_storage": {
        "base": "t_uint256",
        "encoding": "inplace",
        "label": "uint256[50]",
        "numberOfBytes": "1600"
      },
      "t_array(t_uint64)dyn_storage": {
        "base": "t_uint64",
        "encoding": "dynamic_array",
        "label": "uint64[]",
        "numberOfBytes": "32"
      },
      "t_bool": {
        "encoding": "inplace",
        "label": "bool",
        "numberOfBytes": "1"
      },
      "t_contract(ICarstore)29050": {
        "encoding": "inplace",
        "label": "contract ICarstore",
        "numberOfBytes": "20"
      },
      "t_contract(IDatasets)29822": {
        "encoding": "inplace",
        "label": "contract IDatasets",
        "numberOfBytes": "20"
      },
      "t_contract(IDatasetsProof)30135": {
        "encoding": "inplace",
        "label": "contract IDatasetsProof",
        "numberOfBytes": "20"
      },
      "t_contract(IDatasetsRequirement)30208": {
        "encoding": "inplace",
        "label": "contract IDatasetsRequirement",
        "numberOfBytes": "20"
      },
      "t_contract(IEscrow)29288": {
        "encoding": "inplace",
        "label": "contract IEscrow",
        "numberOfBytes": "20"
      },
      "t_contract(IFilplus)29518": {
        "encoding": "inplace",
        "label": "contract IFilplus",
        "numberOfBytes": "20"
      },
      "t_contract(IMatchings)30370": {
        "encoding": "inplace",
        "label": "contract IMatchings",
        "numberOfBytes": "20"
      },
      "t_contract(IMatchingsBids)30464": {
        "encoding": "inplace",
        "label": "contract IMatchingsBids",
        "numberOfBytes": "20"
      },
      "t_contract(IRoles)29558": {
        "encoding": "inplace",
        "label": "contract IRoles",
        "numberOfBytes": "20"
      },
      "t_enum(DataType)44913": {
        "encoding": "inplace",
        "label": "enum DatasetType.DataType",
        "numberOfBytes": "1"
      },
      "t_mapping(t_uint64,t_struct(MatchingTarget)45178_storage)": {
        "encoding": "mapping",
        "key": "t_uint64",
        "label": "mapping(uint64 => struct MatchingType.MatchingTarget)",
        "numberOfBytes": "32",
        "value": "t_struct(MatchingTarget)45178_storage"
      },
      "t_struct(MatchingTarget)45178_storage": {
        "encoding": "inplace",
        "label": "struct MatchingType.MatchingTarget",
        "members": [
          {
            "astId": 45163,
            "contract": "src/v0.8/module/matching/MatchingsTarget.sol:MatchingsTarget",
            "label": "datasetId",
            "offset": 0,
            "slot": "0",
            "type": "t_uint64"
          },
          {
            "astId": 45166,
            "contract": "src/v0.8/module/matching/MatchingsTarget.sol:MatchingsTarget",
            "label": "cars",
            "offset": 0,
            "slot": "1",
            "type": "t_array(t_uint64)dyn_storage"
          },
          {
            "astId": 45168,
            "contract": "src/v0.8/module/matching/MatchingsTarget.sol:MatchingsTarget",
            "label": "size",
            "offset": 0,
            "slot": "2",
            "type": "t_uint64"
          },
          {
            "astId": 45171,
            "contract": "src/v0.8/module/matching/MatchingsTarget.sol:MatchingsTarget",
            "label": "dataType",
            "offset": 8,
            "slot": "2",
            "type": "t_enum(DataType)44913"
          },
          {
            "astId": 45173,
            "contract": "src/v0.8/module/matching/MatchingsTarget.sol:MatchingsTarget",
            "label": "associatedMappingFilesMatchingID",
            "offset": 9,
            "slot": "2",
            "type": "t_uint64"
          },
          {
            "astId": 45175,
            "contract": "src/v0.8/module/matching/MatchingsTarget.sol:MatchingsTarget",
            "label": "replicaIndex",
            "offset": 17,
            "slot": "2",
            "type": "t_uint16"
          },
          {
            "astId": 45177,
            "contract": "src/v0.8/module/matching/MatchingsTarget.sol:MatchingsTarget",
            "label": "subsidy",
            "offset": 0,
            "slot": "3",
            "type": "t_uint256"
          }
        ],
        "numberOfBytes": "128"
      },
      "t_uint16": {
        "encoding": "inplace",
        "label": "uint16",
        "numberOfBytes": "2"
      },
      "t_uint256": {
        "encoding": "inplace",
        "label": "uint256",
        "numberOfBytes": "32"
      },
      "t_uint64": {
        "encoding": "inplace",
        "label": "uint64",
        "numberOfBytes": "8"
      },
      "t_uint8": {
        "encoding": "inplace",
        "label": "uint8",
        "numberOfBytes": "1"
      }
    }
  }
}