{
  "address": "0x634ABA17B025d360236452ac82c7dEfA44ee9495",
  "abi": [
    {
      "inputs": [
        {
          "internalType": "uint64",
          "name": "matchingId",
          "type": "uint64"
        },
        {
          "internalType": "address",
          "name": "expectedInitiator",
          "type": "address"
        },
        {
          "internalType": "address",
          "name": "actualInitiator",
          "type": "address"
        }
      ],
      "name": "NotMatchingInitiator",
      "type": "error"
    },
    {
      "anonymous": false,
      "inputs": [
        {
          "indexed": false,
          "internalType": "address",
          "name": "previousAdmin",
          "type": "address"
        },
        {
          "indexed": false,
          "internalType": "address",
          "name": "newAdmin",
          "type": "address"
        }
      ],
      "name": "AdminChanged",
      "type": "event"
    },
    {
      "anonymous": false,
      "inputs": [
        {
          "indexed": true,
          "internalType": "address",
          "name": "beacon",
          "type": "address"
        }
      ],
      "name": "BeaconUpgraded",
      "type": "event"
    },
    {
      "anonymous": false,
      "inputs": [
        {
          "indexed": false,
          "internalType": "uint8",
          "name": "version",
          "type": "uint8"
        }
      ],
      "name": "Initialized",
      "type": "event"
    },
    {
      "anonymous": false,
      "inputs": [
        {
          "indexed": true,
          "internalType": "uint64",
          "name": "matchingId",
          "type": "uint64"
        },
        {
          "indexed": true,
          "internalType": "address",
          "name": "initiator",
          "type": "address"
        }
      ],
      "name": "MatchingPublished",
      "type": "event"
    },
    {
      "anonymous": false,
      "inputs": [
        {
          "indexed": true,
          "internalType": "address",
          "name": "implementation",
          "type": "address"
        }
      ],
      "name": "Upgraded",
      "type": "event"
    },
    {
      "inputs": [
        {
          "internalType": "uint64",
          "name": "_matchingId",
          "type": "uint64"
        },
        {
          "internalType": "uint64",
          "name": "_datasetId",
          "type": "uint64"
        },
        {
          "internalType": "enum DatasetType.DataType",
          "name": "_dataType",
          "type": "uint8"
        },
        {
          "internalType": "uint64",
          "name": "_associatedMappingFilesMatchingID",
          "type": "uint64"
        },
        {
          "internalType": "uint16",
          "name": "_replicaIndex",
          "type": "uint16"
        }
      ],
      "name": "createTarget",
      "outputs": [],
      "stateMutability": "nonpayable",
      "type": "function"
    },
    {
      "inputs": [],
      "name": "datasets",
      "outputs": [
        {
          "internalType": "contract IDatasets",
          "name": "",
          "type": "address"
        }
      ],
      "stateMutability": "view",
      "type": "function"
    },
    {
      "inputs": [],
      "name": "datasetsProof",
      "outputs": [
        {
          "internalType": "contract IDatasetsProof",
          "name": "",
          "type": "address"
        }
      ],
      "stateMutability": "view",
      "type": "function"
    },
    {
      "inputs": [],
      "name": "datasetsRequirement",
      "outputs": [
        {
          "internalType": "contract IDatasetsRequirement",
          "name": "",
          "type": "address"
        }
      ],
      "stateMutability": "view",
      "type": "function"
    },
    {
      "inputs": [],
      "name": "getImplementation",
      "outputs": [
        {
          "internalType": "address",
          "name": "",
          "type": "address"
        }
      ],
      "stateMutability": "view",
      "type": "function"
    },
    {
      "inputs": [
        {
          "internalType": "uint64",
          "name": "_matchingId",
          "type": "uint64"
        }
      ],
      "name": "getMatchingCars",
      "outputs": [
        {
          "internalType": "uint64[]",
          "name": "",
          "type": "uint64[]"
        }
      ],
      "stateMutability": "view",
      "type": "function"
    },
    {
      "inputs": [
        {
          "internalType": "uint64",
          "name": "_matchingId",
          "type": "uint64"
        }
      ],
      "name": "getMatchingDatasetId",
      "outputs": [
        {
          "internalType": "uint64",
          "name": "",
          "type": "uint64"
        }
      ],
      "stateMutability": "view",
      "type": "function"
    },
    {
      "inputs": [
        {
          "internalType": "uint64",
          "name": "_matchingId",
          "type": "uint64"
        }
      ],
      "name": "getMatchingReplicaIndex",
      "outputs": [
        {
          "internalType": "uint16",
          "name": "",
          "type": "uint16"
        }
      ],
      "stateMutability": "view",
      "type": "function"
    },
    {
      "inputs": [
        {
          "internalType": "uint64",
          "name": "_matchingId",
          "type": "uint64"
        }
      ],
      "name": "getMatchingSize",
      "outputs": [
        {
          "internalType": "uint64",
          "name": "",
          "type": "uint64"
        }
      ],
      "stateMutability": "view",
      "type": "function"
    },
    {
      "inputs": [
        {
          "internalType": "uint64",
          "name": "_matchingId",
          "type": "uint64"
        }
      ],
      "name": "getMatchingTarget",
      "outputs": [
        {
          "internalType": "uint64",
          "name": "datasetID",
          "type": "uint64"
        },
        {
          "internalType": "uint64[]",
          "name": "cars",
          "type": "uint64[]"
        },
        {
          "internalType": "uint64",
          "name": "size",
          "type": "uint64"
        },
        {
          "internalType": "enum DatasetType.DataType",
          "name": "dataType",
          "type": "uint8"
        },
        {
          "internalType": "uint64",
          "name": "associatedMappingFilesMatchingID",
          "type": "uint64"
        }
      ],
      "stateMutability": "view",
      "type": "function"
    },
    {
      "inputs": [
        {
          "internalType": "address",
          "name": "_matchings",
          "type": "address"
        },
        {
          "internalType": "address",
          "name": "_matchingsBids",
          "type": "address"
        }
      ],
      "name": "initDependencies",
      "outputs": [],
      "stateMutability": "nonpayable",
      "type": "function"
    },
    {
      "inputs": [
        {
          "internalType": "address",
          "name": "_governanceAddress",
          "type": "address"
        },
        {
          "internalType": "address",
          "name": "_roles",
          "type": "address"
        },
        {
          "internalType": "address",
          "name": "_filplus",
          "type": "address"
        },
        {
          "internalType": "address",
          "name": "_carstore",
          "type": "address"
        },
        {
          "internalType": "address",
          "name": "_datasets",
          "type": "address"
        },
        {
          "internalType": "address",
          "name": "_datasetsRequirement",
          "type": "address"
        },
        {
          "internalType": "address",
          "name": "_datasetsProof",
          "type": "address"
        }
      ],
      "name": "initialize",
      "outputs": [],
      "stateMutability": "nonpayable",
      "type": "function"
    },
    {
      "inputs": [
        {
          "internalType": "uint64",
          "name": "_matchingId",
          "type": "uint64"
        },
        {
          "internalType": "uint64",
          "name": "_cid",
          "type": "uint64"
        }
      ],
      "name": "isMatchingContainsCar",
      "outputs": [
        {
          "internalType": "bool",
          "name": "",
          "type": "bool"
        }
      ],
      "stateMutability": "view",
      "type": "function"
    },
    {
      "inputs": [
        {
          "internalType": "uint64",
          "name": "_matchingId",
          "type": "uint64"
        },
        {
          "internalType": "uint64[]",
          "name": "_cids",
          "type": "uint64[]"
        }
      ],
      "name": "isMatchingContainsCars",
      "outputs": [
        {
          "internalType": "bool",
          "name": "",
          "type": "bool"
        }
      ],
      "stateMutability": "view",
      "type": "function"
    },
    {
      "inputs": [
        {
          "internalType": "uint64",
          "name": "_matchingId",
          "type": "uint64"
        },
        {
          "internalType": "address",
          "name": "candidate",
          "type": "address"
        }
      ],
      "name": "isMatchingTargetMeetsFilPlusRequirements",
      "outputs": [
        {
          "internalType": "bool",
          "name": "",
          "type": "bool"
        }
      ],
      "stateMutability": "view",
      "type": "function"
    },
    {
      "inputs": [
        {
          "internalType": "uint64",
          "name": "_datasetId",
          "type": "uint64"
        },
        {
          "internalType": "uint64[]",
          "name": "_cars",
          "type": "uint64[]"
        },
        {
          "internalType": "uint64",
          "name": "_size",
          "type": "uint64"
        },
        {
          "internalType": "enum DatasetType.DataType",
          "name": "_dataType",
          "type": "uint8"
        },
        {
          "internalType": "uint64",
          "name": "_associatedMappingFilesMatchingID",
          "type": "uint64"
        }
      ],
      "name": "isMatchingTargetValid",
      "outputs": [
        {
          "internalType": "bool",
          "name": "",
          "type": "bool"
        }
      ],
      "stateMutability": "view",
      "type": "function"
    },
    {
      "inputs": [],
      "name": "matchings",
      "outputs": [
        {
          "internalType": "contract IMatchings",
          "name": "",
          "type": "address"
        }
      ],
      "stateMutability": "view",
      "type": "function"
    },
    {
      "inputs": [],
      "name": "matchingsBids",
      "outputs": [
        {
          "internalType": "contract IMatchingsBids",
          "name": "",
          "type": "address"
        }
      ],
      "stateMutability": "view",
      "type": "function"
    },
    {
      "inputs": [
        {
          "internalType": "uint64[]",
          "name": "_starts",
          "type": "uint64[]"
        },
        {
          "internalType": "uint64[]",
          "name": "_ends",
          "type": "uint64[]"
        }
      ],
      "name": "parseCars",
      "outputs": [
        {
          "internalType": "uint64[]",
          "name": "",
          "type": "uint64[]"
        }
      ],
      "stateMutability": "pure",
      "type": "function"
    },
    {
      "inputs": [],
      "name": "proxiableUUID",
      "outputs": [
        {
          "internalType": "bytes32",
          "name": "",
          "type": "bytes32"
        }
      ],
      "stateMutability": "view",
      "type": "function"
    },
    {
      "inputs": [
        {
          "internalType": "uint64",
          "name": "_matchingId",
          "type": "uint64"
        },
        {
          "internalType": "uint64",
          "name": "_datasetId",
          "type": "uint64"
        },
        {
          "internalType": "uint64[]",
          "name": "_carsStarts",
          "type": "uint64[]"
        },
        {
          "internalType": "uint64[]",
          "name": "_carsEnds",
          "type": "uint64[]"
        },
        {
          "internalType": "bool",
          "name": "complete",
          "type": "bool"
        }
      ],
      "name": "publishMatching",
      "outputs": [],
      "stateMutability": "nonpayable",
      "type": "function"
    },
    {
      "inputs": [
        {
          "internalType": "address",
          "name": "newImplementation",
          "type": "address"
        }
      ],
      "name": "upgradeTo",
      "outputs": [],
      "stateMutability": "nonpayable",
      "type": "function"
    },
    {
      "inputs": [
        {
          "internalType": "address",
          "name": "newImplementation",
          "type": "address"
        },
        {
          "internalType": "bytes",
          "name": "data",
          "type": "bytes"
        }
      ],
      "name": "upgradeToAndCall",
      "outputs": [],
      "stateMutability": "payable",
      "type": "function"
    }
  ],
  "numDeployments": 1,
  "solcInputHash": "86ceebc14306f94d4b734206564c3c08",
  "bytecode": "0x60a06040523060805234801561001457600080fd5b506080516134d261004c60003960008181610b8301528181610bc301528181610f8101528181610fc1015261103d01526134d26000f3fe6080604052600436106101105760003560e01c80630382f41d1461011557806307571721146101375780631fe162e51461016d578063358764761461019a5780633659cfe6146101ba57806340f7f10b146101da57806341558943146102075780634f1ef2861461023457806352d1902d146102475780636ad81d62146102695780637da15ea41461029657806383587b9d146102b6578063840febd9146102d65780638d4861fd146102f65780639aa023d114610327578063a5e7d67814610347578063aaf10f4214610367578063ab2d10f714610389578063b3c21e88146103a9578063bbf83674146103c9578063c95d6fa9146103e9578063dd8fff9714610409578063f210e02b14610429575b600080fd5b34801561012157600080fd5b506101356101303660046122d0565b610449565b005b34801561014357600080fd5b5061015761015236600461237c565b6107a1565b60405161016491906123a9565b60405180910390f35b34801561017957600080fd5b5061018d6101883660046123b7565b6107ca565b604051610164919061248d565b3480156101a657600080fd5b506101356101b53660046124c9565b610a2e565b3480156101c657600080fd5b506101356101d5366004612568565b610b79565b3480156101e657600080fd5b506101fa6101f536600461237c565b610c41565b6040516101649190612589565b34801561021357600080fd5b506102276102223660046125af565b610c71565b604051610164919061263c565b6101356102423660046126d9565b610f77565b34801561025357600080fd5b5061025c611030565b604051610164919061272c565b34801561027557600080fd5b50606c54610289906001600160a01b031681565b6040516101649190612772565b3480156102a257600080fd5b506102276102b1366004612780565b61108d565b3480156102c257600080fd5b506102276102d13660046127b3565b611113565b3480156102e257600080fd5b50606d54610289906001600160a01b031681565b34801561030257600080fd5b5061031661031136600461237c565b61144e565b60405161016495949392919061282a565b34801561033357600080fd5b50606b54610289906001600160a01b031681565b34801561035357600080fd5b5061018d61036236600461237c565b61152d565b34801561037357600080fd5b5061037c611551565b604051610164919061287c565b34801561039557600080fd5b50606a54610289906001600160a01b031681565b3480156103b557600080fd5b506101fa6103c436600461237c565b611560565b3480156103d557600080fd5b506101356103e436600461288a565b611578565b3480156103f557600080fd5b506102276104043660046128ac565b61163c565b34801561041557600080fd5b50606e54610289906001600160a01b031681565b34801561043557600080fd5b506101356104443660046128e3565b6116a8565b606754604051632474521560e21b81526001600160a01b03909116906000805160206134168339815191529082906391d148549061048d908490339060040161294e565b602060405180830381865afa1580156104aa573d6000803e3d6000fd5b505050506040513d601f19601f820116820180604052508101906104ce9190612974565b6104f35760405162461bcd60e51b81526004016104ea906129c9565b60405180910390fd5b606d5460405163e19edda160e01b81526001600160a01b03909116908890600090839063e19edda19061052a908590600401612589565b602060405180830381865afa158015610547573d6000803e3d6000fd5b505050506040513d601f19601f8201168201806040525081019061056b91906129e4565b90506001600160a01b038116331461059c5781813360405163bb5a686560e01b81526004016104ea93929190612a05565b6001600160401b038a166000908152606560205260408120906105bf8a8a6107ca565b60695460405163309d8e3f60e21b81529192506000916001600160a01b039091169063c27638fc906105f590859060040161248d565b602060405180830381865afa92505050801561062e575060408051601f3d908101601f1916820190925261062b91810190612a38565b60015b61064a5760405162461bcd60e51b81526004016104ea90612a84565b905082546001600160401b03908116908d16146106795760405162461bcd60e51b81526004016104ea90612abd565b6106848383836118cd565b60028301546106b3908d9084908490600160401b810460ff1690600160481b90046001600160401b0316610c71565b6106cf5760405162461bcd60e51b81526004016104ea90612af2565b8815610792576106de8d6119ab565b606d60009054906101000a90046001600160a01b03166001600160a01b03166352ffae6b8e6040518263ffffffff1660e01b815260040161071f9190612589565b600060405180830381600087803b15801561073957600080fd5b505af115801561074d573d6000803e3d6000fd5b50505050336001600160a01b03168d6001600160401b03167fc1ca89de71e6b0a8b9533756c5ce88f0c6980c359077c799b6e750c04a842c3560405160405180910390a35b50505050505050505050505050565b6001600160401b0316600090815260656020526040902060020154600160881b900461ffff1690565b606081518351146107ed5760405162461bcd60e51b81526004016104ea90612b30565b6000805b8451816001600160401b031610156108f25783816001600160401b03168151811061081e5761081e612b40565b60200260200101516001600160401b031685826001600160401b03168151811061084a5761084a612b40565b60200260200101516001600160401b031611156108795760405162461bcd60e51b81526004016104ea90612b8a565b84816001600160401b03168151811061089457610894612b40565b602002602001015184826001600160401b0316815181106108b7576108b7612b40565b60200260200101516108c99190612bb0565b6108d4906001612be3565b6108de9083612be3565b9150806108ea81612c16565b9150506107f1565b50600080826001600160401b03166001600160401b03811115610917576109176121b7565b604051908082528060200260200182016040528015610940578160200160208202803683370190505b50905060005b8651816001600160401b03161015610a2257600087826001600160401b03168151811061097557610975612b40565b602002602001015190505b86826001600160401b03168151811061099b5761099b612b40565b60200260200101516001600160401b0316816001600160401b031611610a0f578083856001600160401b0316815181106109d7576109d7612b40565b6001600160401b0390921660209283029190910190910152836109f981612c16565b9450508080610a0790612c16565b915050610980565b5080610a1a81612c16565b915050610946565b50925050505b92915050565b600054610100900460ff1615808015610a4e5750600054600160ff909116105b80610a6f5750610a5d30611a7f565b158015610a6f575060005460ff166001145b610a8b5760405162461bcd60e51b81526004016104ea90612c8e565b6000805460ff191660011790558015610aae576000805461ff0019166101001790555b606680546001600160a01b03199081166001600160a01b038b8116919091179092556067805482168a8416179055606880548216898416179055606980548216888416179055606a80548216878416179055606b80548216868416179055606c8054909116918416919091179055610b24611a8e565b8015610b6f576000805461ff00191690556040517f7f26b83ff96e1f2b6a682f133852f6798a09c465da95921460cefb384740249890610b6690600190612cb2565b60405180910390a15b5050505050505050565b6001600160a01b037f0000000000000000000000000000000000000000000000000000000000000000163003610bc15760405162461bcd60e51b81526004016104ea90612cf7565b7f00000000000000000000000000000000000000000000000000000000000000006001600160a01b0316610bf3611ab7565b6001600160a01b031614610c195760405162461bcd60e51b81526004016104ea90612d3e565b610c2281611ad3565b60408051600080825260208201909252610c3e91839190611b6c565b50565b6001600160401b0381166000908152606560205260408120610c6a81546001600160401b031690565b9392505050565b60006006606a546040516315b536bd60e11b81526001600160a01b0390911690632b6a6d7a90610ca5908a90600401612589565b602060405180830381865afa158015610cc2573d6000803e3d6000fd5b505050506040513d601f19601f82011682018060405250810190610ce69190612d66565b6006811115610cf757610cf76127e6565b14610d145760405162461bcd60e51b81526004016104ea90612db8565b606c54604051631026a71360e01b81526001600160a01b0390911690631026a71390610d469089908990600401612dc8565b602060405180830381865afa158015610d63573d6000803e3d6000fd5b505050506040513d601f19601f82011682018060405250810190610d879190612974565b610da35760405162461bcd60e51b81526004016104ea90612e0c565b6000846001600160401b031611610dcc5760405162461bcd60e51b81526004016104ea90612e40565b6000836001811115610de057610de06127e6565b03610f6b57600080610df18461144e565b50935050925050600180811115610e0a57610e0a6127e6565b816001811115610e1c57610e1c6127e6565b14610e395760405162461bcd60e51b81526004016104ea90612e81565b606c54604051631026a71360e01b81526001600160a01b0390911690631026a71390610e6b908b908690600401612dc8565b602060405180830381865afa158015610e88573d6000803e3d6000fd5b505050506040513d601f19601f82011682018060405250810190610eac9190612974565b610ec85760405162461bcd60e51b81526004016104ea90612ec2565b606d54604051631a569da560e11b81526005916001600160a01b0316906334ad3b4a90610ef9908890600401612589565b602060405180830381865afa158015610f16573d6000803e3d6000fd5b505050506040513d601f19601f82011682018060405250810190610f3a9190612eea565b6007811115610f4b57610f4b6127e6565b14610f685760405162461bcd60e51b81526004016104ea90612f3d565b50505b50600195945050505050565b6001600160a01b037f0000000000000000000000000000000000000000000000000000000000000000163003610fbf5760405162461bcd60e51b81526004016104ea90612cf7565b7f00000000000000000000000000000000000000000000000000000000000000006001600160a01b0316610ff1611ab7565b6001600160a01b0316146110175760405162461bcd60e51b81526004016104ea90612d3e565b61102082611ad3565b61102c82826001611b6c565b5050565b6000306001600160a01b037f0000000000000000000000000000000000000000000000000000000000000000161461107a5760405162461bcd60e51b81526004016104ea90612fa2565b5060008051602061345683398151915290565b6000806110998461152d565b905060005b8151816001600160401b031610156111085781816001600160401b0316815181106110cb576110cb612b40565b60200260200101516001600160401b0316846001600160401b0316036110f657600192505050610a28565b8061110081612c16565b91505061109e565b506000949350505050565b6001600160401b0382166000908152606560205260408120816111358561152d565b606b5483546040516314a41d8560e01b81529293506000926001600160a01b03909216916314a41d8591611177916001600160401b0390911690600401612589565b602060405180830381865afa158015611194573d6000803e3d6000fd5b505050506040513d601f19601f820116820180604052508101906111b89190612fbd565b905060005b8251816001600160401b0316101561144157606e5460695484516000926001600160a01b0390811692634fc780e89291169063310805429088906001600160401b03881690811061121057611210612b40565b60200260200101516040518263ffffffff1660e01b81526004016112349190612589565b600060405180830381865afa158015611251573d6000803e3d6000fd5b505050506040513d6000823e601f3d908101601f191682016040526112799190810190613053565b6040518263ffffffff1660e01b8152600401611295919061248d565b600060405180830381865afa1580156112b2573d6000803e3d6000fd5b505050506040513d6000823e601f3d908101601f191682016040526112da9190810190613102565b905060006112e88289611c4e565b6068549091506001600160a01b031663037864d261130783600161313c565b6040518263ffffffff1660e01b815260040161132391906123a9565b602060405180830381865afa158015611340573d6000803e3d6000fd5b505050506040513d601f19601f820116820180604052508101906113649190612974565b6113775760009650505050505050610a28565b600061138283611cb6565b905061138e838a611df8565b156113a1578061139d8161314f565b9150505b6068548351604051632cccebc560e21b81526001600160a01b039092169163b333af14916113d6918991908690600401613162565b602060405180830381865afa1580156113f3573d6000803e3d6000fd5b505050506040513d601f19601f820116820180604052508101906114179190612974565b61142b576000975050505050505050610a28565b505050808061143990612c16565b9150506111bd565b5060019695505050505050565b6001600160401b038082166000908152606560209081526040808320805460028201546001830180548551818802810188019096528086529697606097899788978897968416958085169460ff600160401b83041694600160481b909204169286919083018282801561151257602002820191906000526020600020906000905b82829054906101000a90046001600160401b03166001600160401b0316815260200190600801906020826007010492830192600103820291508084116114cf5790505b50505050509350955095509550955095505091939590929450565b6001600160401b0381166000908152606560205260409020606090610c6a81611e5d565b600061155b611ab7565b905090565b60008061156c8361144e565b50909695505050505050565b606754604051632474521560e21b81526001600160a01b039091169060009082906391d14854906115af908490339060040161294e565b602060405180830381865afa1580156115cc573d6000803e3d6000fd5b505050506040513d601f19601f820116820180604052508101906115f09190612974565b61160c5760405162461bcd60e51b81526004016104ea906129c9565b5050606d80546001600160a01b039384166001600160a01b031991821617909155606e8054929093169116179055565b6000805b8251816001600160401b0316101561169e5761167e8484836001600160401b03168151811061167157611671612b40565b602002602001015161108d565b61168c576000915050610a28565b8061169681612c16565b915050611640565b5060019392505050565b606754604051632474521560e21b81526001600160a01b03909116906000805160206134168339815191529082906391d14854906116ec908490339060040161294e565b602060405180830381865afa158015611709573d6000803e3d6000fd5b505050506040513d601f19601f8201168201806040525081019061172d9190612974565b6117495760405162461bcd60e51b81526004016104ea906129c9565b606d5460405163e19edda160e01b81526001600160a01b03909116908890600090839063e19edda190611780908590600401612589565b602060405180830381865afa15801561179d573d6000803e3d6000fd5b505050506040513d601f19601f820116820180604052508101906117c191906129e4565b90506001600160a01b03811633146117f25781813360405163bb5a686560e01b81526004016104ea93929190612a05565b6001600160401b038a8116600090815260656020908152604080832080546001600160401b031916948e16949094178455805192835290820190819052905161183f9160018401916120b5565b506002810180546001600160401b0319811682558a91906001600160481b031916600160401b836001811115611877576118776127e6565b0217905550600201805461ffff909716600160881b0261ffff60881b196001600160401b03909916600160481b0298909816600160481b600160981b031990971696909617969096179094555050505050505050565b60005b8251816001600160401b031610156119615761194f8484836001600160401b03168151811061190157611901612b40565b6020026020010151600191820180549283018155600090815260209020600483040180546001600160401b0392831660086003909516949094026101000a9384029290930219909216179055565b8061195981612c16565b9150506118d0565b506002830180548291906000906119829084906001600160401b0316612be3565b92506101000a8154816001600160401b0302191690836001600160401b03160217905550505050565b60006119b68261152d565b905060006119c3836107a1565b905060005b8251816001600160401b03161015611a795760695483516001600160a01b03909116906313083f869085906001600160401b038516908110611a0c57611a0c612b40565b602002602001015186856040518463ffffffff1660e01b8152600401611a349392919061318a565b600060405180830381600087803b158015611a4e57600080fd5b505af1158015611a62573d6000803e3d6000fd5b505050508080611a7190612c16565b9150506119c8565b50505050565b6001600160a01b03163b151590565b600054610100900460ff16611ab55760405162461bcd60e51b81526004016104ea906131ed565b565b600080516020613456833981519152546001600160a01b031690565b606754604051632474521560e21b81526001600160a01b039091169060009082906391d1485490611b0a908490339060040161294e565b602060405180830381865afa158015611b27573d6000803e3d6000fd5b505050506040513d601f19601f82011682018060405250810190611b4b9190612974565b611b675760405162461bcd60e51b81526004016104ea906129c9565b505050565b7f4910fdfa16fed3260ed0e7147f7cc6da11a60208b5b9406d12a635614ffd91435460ff1615611b9f57611b6783611eeb565b826001600160a01b03166352d1902d6040518163ffffffff1660e01b8152600401602060405180830381865afa925050508015611bf9575060408051601f3d908101601f19168201909252611bf69181019061320e565b60015b611c155760405162461bcd60e51b81526004016104ea9061327a565b6000805160206134568339815191528114611c425760405162461bcd60e51b81526004016104ea906132d0565b50611b67838383611f3f565b600080805b8451811015611cae57836001600160a01b0316858281518110611c7857611c78612b40565b60200260200101516001600160a01b031603611c9c5781611c988161314f565b9250505b80611ca68161314f565b915050611c53565b509392505050565b60008060009050600083516001600160401b03811115611cd857611cd86121b7565b604051908082528060200260200182016040528015611d01578160200160208202803683370190505b50905060005b8451811015611def57600160005b84811015611d8357838181518110611d2f57611d2f612b40565b60200260200101516001600160a01b0316878481518110611d5257611d52612b40565b60200260200101516001600160a01b031603611d715760009150611d83565b80611d7b8161314f565b915050611d15565b508015611ddc57858281518110611d9c57611d9c612b40565b6020026020010151838581518110611db657611db6612b40565b6001600160a01b039092166020928302919091019091015283611dd88161314f565b9450505b5080611de78161314f565b915050611d07565b50909392505050565b6000805b8351811015611e5357826001600160a01b0316848281518110611e2157611e21612b40565b60200260200101516001600160a01b031603611e41576001915050610a28565b80611e4b8161314f565b915050611dfc565b5060009392505050565b606081600101805480602002602001604051908101604052809291908181526020018280548015611edf57602002820191906000526020600020906000905b82829054906101000a90046001600160401b03166001600160401b031681526020019060080190602082600701049283019260010382029150808411611e9c5790505b50505050509050919050565b611ef481611a7f565b611f105760405162461bcd60e51b81526004016104ea9061332a565b60008051602061345683398151915280546001600160a01b0319166001600160a01b0392909216919091179055565b611f4883611f64565b600082511180611f555750805b15611b6757611a798383611fa4565b611f6d81611eeb565b6040516001600160a01b038216907fbc7cd75a20ee27fd9adebab32041f755214dbc6bffa90cc0225b39da2e5c2d3b90600090a250565b6060610c6a8383604051806060016040528060278152602001613476602791396060600080856001600160a01b031685604051611fe19190613380565b600060405180830381855af49150503d806000811461201c576040519150601f19603f3d011682016040523d82523d6000602084013e612021565b606091505b50915091506120328683838761203c565b9695505050505050565b606083156120795782516000036120725761205685611a7f565b6120725760405162461bcd60e51b81526004016104ea906133c0565b5081612083565b612083838361208b565b949350505050565b81511561209b5781518083602001fd5b8060405162461bcd60e51b81526004016104ea9190613404565b8280548282559060005260206000209060030160049004810192821561215d5791602002820160005b8382111561212857835183826101000a8154816001600160401b0302191690836001600160401b0316021790555092602001926008016020816007010492830192600103026120de565b801561215b5782816101000a8154906001600160401b030219169055600801602081600701049283019260010302612128565b505b5061216992915061216d565b5090565b5b80821115612169576000815560010161216e565b6001600160401b031690565b61219781612182565b8114610c3e57600080fd5b8035610a288161218e565b601f01601f191690565b634e487b7160e01b600052604160045260246000fd5b6121d6826121ad565b81018181106001600160401b03821117156121f3576121f36121b7565b6040525050565b600061220560405190565b905061221182826121cd565b919050565b60006001600160401b0382111561222f5761222f6121b7565b5060209081020190565b600061224c61224784612216565b6121fa565b8381529050602080820190840283018581111561226b5761226b600080fd5b835b8181101561228f578061228088826121a2565b8452506020928301920161226d565b5050509392505050565b600082601f8301126122ad576122ad600080fd5b8135612083848260208601612239565b801515612197565b8035610a28816122bd565b600080600080600060a086880312156122eb576122eb600080fd5b60006122f788886121a2565b9550506020612308888289016121a2565b94505060408601356001600160401b0381111561232757612327600080fd5b61233388828901612299565b93505060608601356001600160401b0381111561235257612352600080fd5b61235e88828901612299565b925050608061236f888289016122c5565b9150509295509295909350565b60006020828403121561239157612391600080fd5b600061208384846121a2565b61ffff81165b82525050565b60208101610a28828461239d565b600080604083850312156123cd576123cd600080fd5b82356001600160401b038111156123e6576123e6600080fd5b6123f285828601612299565b92505060208301356001600160401b0381111561241157612411600080fd5b61241d85828601612299565b9150509250929050565b6123a381612182565b600061243c8383612427565b505060200190565b600061244e825190565b80845260209384019383018060005b838110156124825781516124718882612430565b97506020830192505060010161245d565b509495945050505050565b60208082528101610c6a8184612444565b6001600160a01b031690565b6000610a288261249e565b612197816124aa565b8035610a28816124b5565b600080600080600080600060e0888a0312156124e7576124e7600080fd5b60006124f38a8a6124be565b97505060206125048a828b016124be565b96505060406125158a828b016124be565b95505060606125268a828b016124be565b94505060806125378a828b016124be565b93505060a06125488a828b016124be565b92505060c06125598a828b016124be565b91505092959891949750929550565b60006020828403121561257d5761257d600080fd5b600061208384846124be565b60208101610a288284612427565b60028110610c3e57600080fd5b8035610a2881612597565b600080600080600060a086880312156125ca576125ca600080fd5b60006125d688886121a2565b95505060208601356001600160401b038111156125f5576125f5600080fd5b61260188828901612299565b9450506040612612888289016121a2565b9350506060612623888289016125a4565b925050608061236f888289016121a2565b8015156123a3565b60208101610a288284612634565b60006001600160401b03821115612663576126636121b7565b61266c826121ad565b60200192915050565b82818337506000910152565b600061268f6122478461264a565b9050828152602081018484840111156126aa576126aa600080fd5b611cae848285612675565b600082601f8301126126c9576126c9600080fd5b8135612083848260208601612681565b600080604083850312156126ef576126ef600080fd5b60006126fb85856124be565b92505060208301356001600160401b0381111561271a5761271a600080fd5b61241d858286016126b5565b806123a3565b60208101610a288284612726565b6000610a2861274e61274b8461249e565b90565b61249e565b6000610a288261273a565b6000610a2882612753565b6123a38161275e565b60208101610a288284612769565b6000806040838503121561279657612796600080fd5b60006127a285856121a2565b925050602061241d858286016121a2565b600080604083850312156127c9576127c9600080fd5b60006127d585856121a2565b925050602061241d858286016124be565b634e487b7160e01b600052602160045260246000fd5b60028110610c3e57610c3e6127e6565b80612211816127fc565b6000610a288261280c565b6123a381612816565b60a081016128388288612427565b818103602083015261284a8187612444565b90506128596040830186612427565b6128666060830185612821565b6120326080830184612427565b6123a3816124aa565b60208101610a288284612873565b600080604083850312156128a0576128a0600080fd5b60006127d585856124be565b600080604083850312156128c2576128c2600080fd5b60006123f285856121a2565b61ffff8116612197565b8035610a28816128ce565b600080600080600060a086880312156128fe576128fe600080fd5b600061290a88886121a2565b955050602061291b888289016121a2565b945050604061292c888289016125a4565b935050606061293d888289016121a2565b925050608061236f888289016128d8565b6040810161295c8285612726565b610c6a6020830184612873565b8051610a28816122bd565b60006020828403121561298957612989600080fd5b60006120838484612969565b601a81526000602082017913db9b1e48185b1b1bddd959081c9bdb194818d85b8818d85b1b60321b815291505b5060200190565b60208082528101610a2881612995565b8051610a28816124b5565b6000602082840312156129f9576129f9600080fd5b600061208384846129d9565b60608101612a138286612427565b612a206020830185612873565b6120836040830184612873565b8051610a288161218e565b600060208284031215612a4d57612a4d600080fd5b60006120838484612a2d565b601481526000602082017311d95d0818d85c9cc81cda5e994819985a5b195960621b815291506129c2565b60208082528101610a2881612a59565b60128152600060208201711a5b9d985b1a590819185d185cd95d081a5960721b815291506129c2565b60208082528101610a2881612a94565b600e81526000602082016d15185c99d95d081a5b9d985b1a5960921b815291506129c2565b60208082528101610a2881612acd565b60178152600060208201760e6e8c2e4e840c2dcc840cadcc840dcdee840dac2e8c6d604b1b815291506129c2565b60208082528101610a2881612b02565b634e487b7160e01b600052603260045260246000fd5b601e81526000602082017f7374617274206d7573742062652067726561746572207468616e20656e640000815291506129c2565b60208082528101610a2881612b56565b634e487b7160e01b600052601160045260246000fd5b6000612bbb82612182565b9150612bc683612182565b9250508181036001600160401b03811115610a2857610a28612b9a565b6000612bee82612182565b9150612bf983612182565b9250508082016001600160401b03811115610a2857610a28612b9a565b6000612c2182612182565b91506001600160401b038203612c3957612c39612b9a565b5060010190565b602e81526000602082017f496e697469616c697a61626c653a20636f6e747261637420697320616c72656181526d191e481a5b9a5d1a585b1a5e995960921b602082015291505b5060400190565b60208082528101610a2881612c40565b600060ff8216610a28565b6123a381612c9e565b60208101610a288284612ca9565b602c815260006020820160008051602061343683398151915281526b19195b1959d85d1958d85b1b60a21b60208201529150612c87565b60208082528101610a2881612cc0565b602c815260006020820160008051602061343683398151915281526b6163746976652070726f787960a01b60208201529150612c87565b60208082528101610a2881612d07565b60078110610c3e57600080fd5b8051610a2881612d4e565b600060208284031215612d7b57612d7b600080fd5b60006120838484612d5b565b601a815260006020820179646174617365744964206973206e6f7420617070726f7665642160301b815291506129c2565b60208082528101610a2881612d87565b60408101612dd68285612427565b81810360208301526120838184612444565b600d81526000602082016c496e76616c696420636964732160981b815291506129c2565b60208082528101610a2881612de8565b600d81526000602082016c496e76616c69642073697a652160981b815291506129c2565b60208082528101610a2881612e1c565b601a8152600060208201794e6565642061206173736f636961746564206d61746368696e6760301b815291506129c2565b60208082528101610a2881612e50565b601a815260006020820179496e76616c6964206d617070696e672066696c6573206361727360301b815291506129c2565b60208082528101610a2881612e91565b60088110610c3e57600080fd5b8051610a2881612ed2565b600060208284031215612eff57612eff600080fd5b60006120838484612edf565b601b81526000602082017a646174617365744964206973206e6f7420636f6d706c657465642160281b815291506129c2565b60208082528101610a2881612f0b565b603881526000602082017f555550535570677261646561626c653a206d757374206e6f742062652063616c8152771b1959081d1a1c9bdd59da0819195b1959d85d1958d85b1b60421b60208201529150612c87565b60208082528101610a2881612f4d565b8051610a28816128ce565b600060208284031215612fd257612fd2600080fd5b60006120838484612fb2565b6000612fec61224784612216565b8381529050602080820190840283018581111561300b5761300b600080fd5b835b8181101561228f57806130208882612a2d565b8452506020928301920161300d565b600082601f83011261304357613043600080fd5b8151612083848260208601612fde565b60006020828403121561306857613068600080fd5b81516001600160401b0381111561308157613081600080fd5b6120838482850161302f565b600061309b61224784612216565b838152905060208082019084028301858111156130ba576130ba600080fd5b835b8181101561228f57806130cf88826129d9565b845250602092830192016130bc565b600082601f8301126130f2576130f2600080fd5b815161208384826020860161308d565b60006020828403121561311757613117600080fd5b81516001600160401b0381111561313057613130600080fd5b612083848285016130de565b80820180821115610a2857610a28612b9a565b60006000198203612c3957612c39612b9a565b60608101613170828661239d565b61317d602083018561239d565b612083604083018461239d565b606081016131988286612427565b61317d6020830185612427565b602b81526000602082017f496e697469616c697a61626c653a20636f6e7472616374206973206e6f74206981526a6e697469616c697a696e6760a81b60208201529150612c87565b60208082528101610a28816131a5565b80612197565b8051610a28816131fd565b60006020828403121561322357613223600080fd5b60006120838484613203565b602e81526000602082017f45524331393637557067726164653a206e657720696d706c656d656e7461746981526d6f6e206973206e6f74205555505360901b60208201529150612c87565b60208082528101610a288161322f565b602981526000602082017f45524331393637557067726164653a20756e737570706f727465642070726f788152681a58589b195555525160ba1b60208201529150612c87565b60208082528101610a288161328a565b602d81526000602082017f455243313936373a206e657720696d706c656d656e746174696f6e206973206e81526c1bdd08184818dbdb9d1c9858dd609a1b60208201529150612c87565b60208082528101610a28816132e0565b60005b8381101561335557818101518382015260200161333d565b50506000910152565b6000613368825190565b61337681856020860161333a565b9290920192915050565b6000610c6a828461335e565b601d81526000602082017f416464726573733a2063616c6c20746f206e6f6e2d636f6e7472616374000000815291506129c2565b60208082528101610a288161338c565b60006133da825190565b8084526020840193506133f181856020860161333a565b6133fa816121ad565b9093019392505050565b60208082528101610c6a81846133d056fe2e7a99dcc48463ba57667732f1d19d96afa51e11db099e5c9c708076a0a0804046756e6374696f6e206d7573742062652063616c6c6564207468726f75676820360894a13ba1a3210667c828492db98dca3e2076cc3735a920a3ca505d382bbc416464726573733a206c6f772d6c6576656c2064656c65676174652063616c6c206661696c6564a2646970667358221220e3c0ecd3382cfde874bfaa7b51db2b029511ae83b0d268152344709c58a49fb264736f6c63430008150033",
  "devdoc": {
    "details": "This contract is intended to be inherited by specific matching-related contracts.      TODO: Missing fund proccess,need add later https://github.com/dataswap/core/issues/20            1 bidder(when bidding) and initiator(when publish) should transfer FIL to payable function            2 proccess the fund after matched            3 proccess the fund after matchedsotre,step by step",
    "events": {
      "AdminChanged(address,address)": {
        "details": "Emitted when the admin account has changed."
      },
      "BeaconUpgraded(address)": {
        "details": "Emitted when the beacon is changed."
      },
      "Initialized(uint8)": {
        "details": "Triggered when the contract has been initialized or reinitialized."
      },
      "Upgraded(address)": {
        "details": "Emitted when the implementation is upgraded."
      }
    },
    "kind": "dev",
    "methods": {
      "createTarget(uint64,uint64,uint8,uint64,uint16)": {
        "params": {
          "_associatedMappingFilesMatchingID": "The matching ID that associated with mapping files of dataset of _datasetId",
          "_dataType": "Identify the data type of \"cars\", which can be either \"Source\" or \"MappingFiles\".",
          "_datasetId": "The dataset id to create matching.",
          "_matchingId": "The matching id to publish cars.",
          "_replicaIndex": "The index of the replica in dataset."
        }
      },
      "getMatchingCars(uint64)": {
        "params": {
          "_matchingId": "The ID of the matching."
        },
        "returns": {
          "_0": "cars An array of CIDs representing the cars in the matching."
        }
      },
      "getMatchingDatasetId(uint64)": {
        "params": {
          "_matchingId": "The ID of the matching."
        },
        "returns": {
          "_0": "The ID of the matching's dataset."
        }
      },
      "getMatchingReplicaIndex(uint64)": {
        "params": {
          "_matchingId": "The ID of the matching."
        },
        "returns": {
          "_0": "index The index of the matching's replica."
        }
      },
      "getMatchingSize(uint64)": {
        "params": {
          "_matchingId": "The ID of the matching to check."
        },
        "returns": {
          "_0": "The size of the matching cars."
        }
      },
      "getMatchingTarget(uint64)": {
        "params": {
          "_matchingId": "The ID of the matching."
        },
        "returns": {
          "associatedMappingFilesMatchingID": "The ID of the associated mapping files matching.",
          "cars": "An array of CIDs representing the cars in the matching.",
          "dataType": "The data type of the matching.",
          "datasetID": "The ID of the associated dataset.",
          "size": "The size of the matching."
        }
      },
      "isMatchingContainsCar(uint64,uint64)": {
        "params": {
          "_cid": "The CID (Content Identifier) to check for.",
          "_matchingId": "The ID of the matching to check."
        },
        "returns": {
          "_0": "True if the matching contains the specified CID, otherwise false."
        }
      },
      "isMatchingContainsCars(uint64,uint64[])": {
        "params": {
          "_cids": "An array of CIDs (Content Identifiers) to check for.",
          "_matchingId": "The ID of the matching to check."
        },
        "returns": {
          "_0": "True if the matching contains all the specified CIDs, otherwise false."
        }
      },
      "parseCars(uint64[],uint64[])": {
        "params": {
          "_ends": "The ends of cars to publish.",
          "_starts": "The starts of cars to publish."
        },
        "returns": {
          "_0": "The cars of the indexes."
        }
      },
      "proxiableUUID()": {
        "details": "Implementation of the ERC1822 {proxiableUUID} function. This returns the storage slot used by the implementation. It is used to validate the implementation's compatibility when performing an upgrade. IMPORTANT: A proxy pointing at a proxiable contract should not be considered proxiable itself, because this risks bricking a proxy that upgrades to it, by delegating to itself until out of gas. Thus it is critical that this function revert if invoked through a proxy. This is guaranteed by the `notDelegated` modifier."
      },
      "publishMatching(uint64,uint64,uint64[],uint64[],bool)": {
        "params": {
          "_carsEnds": "The cars to publish.",
          "_carsStarts": "The cars to publish.",
          "_datasetId": "The dataset id of matching.",
          "_matchingId": "The matching id to publish cars.",
          "complete": "If the publish is complete."
        }
      },
      "upgradeTo(address)": {
        "custom:oz-upgrades-unsafe-allow-reachable": "delegatecall",
        "details": "Upgrade the implementation of the proxy to `newImplementation`. Calls {_authorizeUpgrade}. Emits an {Upgraded} event."
      },
      "upgradeToAndCall(address,bytes)": {
        "custom:oz-upgrades-unsafe-allow-reachable": "delegatecall",
        "details": "Upgrade the implementation of the proxy to `newImplementation`, and subsequently execute the function call encoded in `data`. Calls {_authorizeUpgrade}. Emits an {Upgraded} event."
      }
    },
    "stateVariables": {
      "__gap": {
        "details": "This empty reserved space is put in place to allow future versions to add new"
      }
    },
    "title": "Matchings Base Contract",
    "version": 1
  },
  "userdoc": {
    "events": {
      "MatchingPublished(uint64,address)": {
        "notice": "Declare events for external monitoring"
      }
    },
    "kind": "user",
    "methods": {
      "createTarget(uint64,uint64,uint8,uint64,uint16)": {
        "notice": "Function for create a new matching target."
      },
      "getImplementation()": {
        "notice": "Returns the implementation contract"
      },
      "getMatchingCars(uint64)": {
        "notice": "Get the cars of a matching."
      },
      "getMatchingDatasetId(uint64)": {
        "notice": "Function for getting the dataset id in a matching"
      },
      "getMatchingReplicaIndex(uint64)": {
        "notice": "Get the index of matching's replica."
      },
      "getMatchingSize(uint64)": {
        "notice": "Function for getting the total data size of bids in a matching"
      },
      "getMatchingTarget(uint64)": {
        "notice": "Get the target information of a matching."
      },
      "initDependencies(address,address)": {
        "notice": "The function to init the dependencies of a matchingsTarget."
      },
      "initialize(address,address,address,address,address,address,address)": {
        "notice": "initialize function to initialize the contract and grant the default admin role to the deployer."
      },
      "isMatchingContainsCar(uint64,uint64)": {
        "notice": "Check if a matching with the given matching ID contains a specific CID."
      },
      "isMatchingContainsCars(uint64,uint64[])": {
        "notice": "Check if a matching with the given matching ID contains multiple CIDs."
      },
      "isMatchingTargetMeetsFilPlusRequirements(uint64,address)": {
        "notice": "Check if a matching meets the requirements of Fil+."
      },
      "isMatchingTargetValid(uint64,uint64[],uint64,uint8,uint64)": {
        "notice": "check is matching targe valid"
      },
      "parseCars(uint64[],uint64[])": {
        "notice": "Function for parse cars from indexes."
      },
      "publishMatching(uint64,uint64,uint64[],uint64[],bool)": {
        "notice": "Function for publishing a matching"
      }
    },
    "notice": "This contract serves as the base for managing matchings, their states, and associated actions.",
    "version": 1
  },
  "storageLayout": {
    "storage": [
      {
        "astId": 5186,
        "contract": "src/v0.8/module/matching/MatchingsTarget.sol:MatchingsTarget",
        "label": "_initialized",
        "offset": 0,
        "slot": "0",
        "type": "t_uint8"
      },
      {
        "astId": 5189,
        "contract": "src/v0.8/module/matching/MatchingsTarget.sol:MatchingsTarget",
        "label": "_initializing",
        "offset": 1,
        "slot": "0",
        "type": "t_bool"
      },
      {
        "astId": 5168,
        "contract": "src/v0.8/module/matching/MatchingsTarget.sol:MatchingsTarget",
        "label": "__gap",
        "offset": 0,
        "slot": "1",
        "type": "t_array(t_uint256)50_storage"
      },
      {
        "astId": 5483,
        "contract": "src/v0.8/module/matching/MatchingsTarget.sol:MatchingsTarget",
        "label": "__gap",
        "offset": 0,
        "slot": "51",
        "type": "t_array(t_uint256)50_storage"
      },
      {
        "astId": 28813,
        "contract": "src/v0.8/module/matching/MatchingsTarget.sol:MatchingsTarget",
        "label": "targets",
        "offset": 0,
        "slot": "101",
        "type": "t_mapping(t_uint64,t_struct(MatchingTarget)35400_storage)"
      },
      {
        "astId": 28815,
        "contract": "src/v0.8/module/matching/MatchingsTarget.sol:MatchingsTarget",
        "label": "governanceAddress",
        "offset": 0,
        "slot": "102",
        "type": "t_address"
      },
      {
        "astId": 28818,
        "contract": "src/v0.8/module/matching/MatchingsTarget.sol:MatchingsTarget",
        "label": "roles",
        "offset": 0,
        "slot": "103",
        "type": "t_contract(IRoles)20939"
      },
      {
        "astId": 28821,
        "contract": "src/v0.8/module/matching/MatchingsTarget.sol:MatchingsTarget",
        "label": "filplus",
        "offset": 0,
        "slot": "104",
        "type": "t_contract(IFilplus)20899"
      },
      {
        "astId": 28824,
        "contract": "src/v0.8/module/matching/MatchingsTarget.sol:MatchingsTarget",
        "label": "carstore",
        "offset": 0,
        "slot": "105",
        "type": "t_contract(ICarstore)20452"
      },
      {
        "astId": 28827,
        "contract": "src/v0.8/module/matching/MatchingsTarget.sol:MatchingsTarget",
        "label": "datasets",
        "offset": 0,
        "slot": "106",
        "type": "t_contract(IDatasets)21171"
      },
      {
        "astId": 28830,
        "contract": "src/v0.8/module/matching/MatchingsTarget.sol:MatchingsTarget",
        "label": "datasetsRequirement",
        "offset": 0,
        "slot": "107",
        "type": "t_contract(IDatasetsRequirement)21507"
      },
      {
        "astId": 28833,
        "contract": "src/v0.8/module/matching/MatchingsTarget.sol:MatchingsTarget",
        "label": "datasetsProof",
        "offset": 0,
        "slot": "108",
        "type": "t_contract(IDatasetsProof)21436"
      },
      {
        "astId": 28836,
        "contract": "src/v0.8/module/matching/MatchingsTarget.sol:MatchingsTarget",
        "label": "matchings",
        "offset": 0,
        "slot": "109",
        "type": "t_contract(IMatchings)21653"
      },
      {
        "astId": 28839,
        "contract": "src/v0.8/module/matching/MatchingsTarget.sol:MatchingsTarget",
        "label": "matchingsBids",
        "offset": 0,
        "slot": "110",
        "type": "t_contract(IMatchingsBids)21747"
      },
      {
        "astId": 28844,
        "contract": "src/v0.8/module/matching/MatchingsTarget.sol:MatchingsTarget",
        "label": "__gap",
        "offset": 0,
        "slot": "111",
        "type": "t_array(t_uint256)32_storage"
      }
    ],
    "types": {
      "t_address": {
        "encoding": "inplace",
        "label": "address",
        "numberOfBytes": "20"
      },
      "t_array(t_uint256)32_storage": {
        "base": "t_uint256",
        "encoding": "inplace",
        "label": "uint256[32]",
        "numberOfBytes": "1024"
      },
      "t_array(t_uint256)50_storage": {
        "base": "t_uint256",
        "encoding": "inplace",
        "label": "uint256[50]",
        "numberOfBytes": "1600"
      },
      "t_array(t_uint64)dyn_storage": {
        "base": "t_uint64",
        "encoding": "dynamic_array",
        "label": "uint64[]",
        "numberOfBytes": "32"
      },
      "t_bool": {
        "encoding": "inplace",
        "label": "bool",
        "numberOfBytes": "1"
      },
      "t_contract(ICarstore)20452": {
        "encoding": "inplace",
        "label": "contract ICarstore",
        "numberOfBytes": "20"
      },
      "t_contract(IDatasets)21171": {
        "encoding": "inplace",
        "label": "contract IDatasets",
        "numberOfBytes": "20"
      },
      "t_contract(IDatasetsProof)21436": {
        "encoding": "inplace",
        "label": "contract IDatasetsProof",
        "numberOfBytes": "20"
      },
      "t_contract(IDatasetsRequirement)21507": {
        "encoding": "inplace",
        "label": "contract IDatasetsRequirement",
        "numberOfBytes": "20"
      },
      "t_contract(IFilplus)20899": {
        "encoding": "inplace",
        "label": "contract IFilplus",
        "numberOfBytes": "20"
      },
      "t_contract(IMatchings)21653": {
        "encoding": "inplace",
        "label": "contract IMatchings",
        "numberOfBytes": "20"
      },
      "t_contract(IMatchingsBids)21747": {
        "encoding": "inplace",
        "label": "contract IMatchingsBids",
        "numberOfBytes": "20"
      },
      "t_contract(IRoles)20939": {
        "encoding": "inplace",
        "label": "contract IRoles",
        "numberOfBytes": "20"
      },
      "t_enum(DataType)35138": {
        "encoding": "inplace",
        "label": "enum DatasetType.DataType",
        "numberOfBytes": "1"
      },
      "t_mapping(t_uint64,t_struct(MatchingTarget)35400_storage)": {
        "encoding": "mapping",
        "key": "t_uint64",
        "label": "mapping(uint64 => struct MatchingType.MatchingTarget)",
        "numberOfBytes": "32",
        "value": "t_struct(MatchingTarget)35400_storage"
      },
      "t_struct(MatchingTarget)35400_storage": {
        "encoding": "inplace",
        "label": "struct MatchingType.MatchingTarget",
        "members": [
          {
            "astId": 35387,
            "contract": "src/v0.8/module/matching/MatchingsTarget.sol:MatchingsTarget",
            "label": "datasetId",
            "offset": 0,
            "slot": "0",
            "type": "t_uint64"
          },
          {
            "astId": 35390,
            "contract": "src/v0.8/module/matching/MatchingsTarget.sol:MatchingsTarget",
            "label": "cars",
            "offset": 0,
            "slot": "1",
            "type": "t_array(t_uint64)dyn_storage"
          },
          {
            "astId": 35392,
            "contract": "src/v0.8/module/matching/MatchingsTarget.sol:MatchingsTarget",
            "label": "size",
            "offset": 0,
            "slot": "2",
            "type": "t_uint64"
          },
          {
            "astId": 35395,
            "contract": "src/v0.8/module/matching/MatchingsTarget.sol:MatchingsTarget",
            "label": "dataType",
            "offset": 8,
            "slot": "2",
            "type": "t_enum(DataType)35138"
          },
          {
            "astId": 35397,
            "contract": "src/v0.8/module/matching/MatchingsTarget.sol:MatchingsTarget",
            "label": "associatedMappingFilesMatchingID",
            "offset": 9,
            "slot": "2",
            "type": "t_uint64"
          },
          {
            "astId": 35399,
            "contract": "src/v0.8/module/matching/MatchingsTarget.sol:MatchingsTarget",
            "label": "replicaIndex",
            "offset": 17,
            "slot": "2",
            "type": "t_uint16"
          }
        ],
        "numberOfBytes": "96"
      },
      "t_uint16": {
        "encoding": "inplace",
        "label": "uint16",
        "numberOfBytes": "2"
      },
      "t_uint256": {
        "encoding": "inplace",
        "label": "uint256",
        "numberOfBytes": "32"
      },
      "t_uint64": {
        "encoding": "inplace",
        "label": "uint64",
        "numberOfBytes": "8"
      },
      "t_uint8": {
        "encoding": "inplace",
        "label": "uint8",
        "numberOfBytes": "1"
      }
    }
  }
}