{
  "address": "0xDe62c79224EAC688E93806D91b4DBba3d4708078",
  "abi": [
    {
      "inputs": [
        {
          "internalType": "uint256",
          "name": "_expectedLength",
          "type": "uint256"
        },
        {
          "internalType": "uint256",
          "name": "_actualLength",
          "type": "uint256"
        }
      ],
      "name": "ParamLengthMismatch",
      "type": "error"
    },
    {
      "inputs": [
        {
          "internalType": "uint64",
          "name": "_id",
          "type": "uint64"
        },
        {
          "internalType": "uint64",
          "name": "_matchingId",
          "type": "uint64"
        }
      ],
      "name": "ReplicaFilecoinClaimIdExists",
      "type": "error"
    },
    {
      "anonymous": false,
      "inputs": [
        {
          "indexed": false,
          "internalType": "address",
          "name": "previousAdmin",
          "type": "address"
        },
        {
          "indexed": false,
          "internalType": "address",
          "name": "newAdmin",
          "type": "address"
        }
      ],
      "name": "AdminChanged",
      "type": "event"
    },
    {
      "anonymous": false,
      "inputs": [
        {
          "indexed": true,
          "internalType": "address",
          "name": "beacon",
          "type": "address"
        }
      ],
      "name": "BeaconUpgraded",
      "type": "event"
    },
    {
      "anonymous": false,
      "inputs": [
        {
          "indexed": false,
          "internalType": "uint8",
          "name": "version",
          "type": "uint8"
        }
      ],
      "name": "Initialized",
      "type": "event"
    },
    {
      "anonymous": false,
      "inputs": [
        {
          "indexed": true,
          "internalType": "uint64",
          "name": "_matchingId",
          "type": "uint64"
        },
        {
          "indexed": true,
          "internalType": "uint64",
          "name": "_id",
          "type": "uint64"
        },
        {
          "indexed": false,
          "internalType": "uint64",
          "name": "_claimId",
          "type": "uint64"
        }
      ],
      "name": "StorageClaimIdSubmitted",
      "type": "event"
    },
    {
      "anonymous": false,
      "inputs": [
        {
          "indexed": true,
          "internalType": "address",
          "name": "implementation",
          "type": "address"
        }
      ],
      "name": "Upgraded",
      "type": "event"
    },
    {
      "inputs": [],
      "name": "getImplementation",
      "outputs": [
        {
          "internalType": "address",
          "name": "",
          "type": "address"
        }
      ],
      "stateMutability": "view",
      "type": "function"
    },
    {
      "inputs": [
        {
          "internalType": "uint64",
          "name": "_matchingId",
          "type": "uint64"
        }
      ],
      "name": "getStoredCarCount",
      "outputs": [
        {
          "internalType": "uint64",
          "name": "",
          "type": "uint64"
        }
      ],
      "stateMutability": "view",
      "type": "function"
    },
    {
      "inputs": [
        {
          "internalType": "uint64",
          "name": "_matchingId",
          "type": "uint64"
        },
        {
          "internalType": "uint64",
          "name": "_id",
          "type": "uint64"
        }
      ],
      "name": "getStoredCarSize",
      "outputs": [
        {
          "internalType": "uint64",
          "name": "",
          "type": "uint64"
        }
      ],
      "stateMutability": "view",
      "type": "function"
    },
    {
      "inputs": [
        {
          "internalType": "uint64",
          "name": "_matchingId",
          "type": "uint64"
        }
      ],
      "name": "getStoredCars",
      "outputs": [
        {
          "internalType": "uint64[]",
          "name": "",
          "type": "uint64[]"
        }
      ],
      "stateMutability": "view",
      "type": "function"
    },
    {
      "inputs": [
        {
          "internalType": "uint64",
          "name": "_matchingId",
          "type": "uint64"
        }
      ],
      "name": "getTotalStoredSize",
      "outputs": [
        {
          "internalType": "uint64",
          "name": "",
          "type": "uint64"
        }
      ],
      "stateMutability": "view",
      "type": "function"
    },
    {
      "inputs": [
        {
          "internalType": "address",
          "name": "_governanceAddress",
          "type": "address"
        },
        {
          "internalType": "address",
          "name": "_roles",
          "type": "address"
        },
        {
          "internalType": "address",
          "name": "_filplus",
          "type": "address"
        },
        {
          "internalType": "address",
          "name": "_filecoin",
          "type": "address"
        },
        {
          "internalType": "address",
          "name": "_carstore",
          "type": "address"
        },
        {
          "internalType": "address",
          "name": "_matchings",
          "type": "address"
        },
        {
          "internalType": "address",
          "name": "_matchingsTarget",
          "type": "address"
        },
        {
          "internalType": "address",
          "name": "_matchingsBids",
          "type": "address"
        }
      ],
      "name": "initialize",
      "outputs": [],
      "stateMutability": "nonpayable",
      "type": "function"
    },
    {
      "inputs": [
        {
          "internalType": "uint64",
          "name": "_matchingId",
          "type": "uint64"
        }
      ],
      "name": "isAllStoredDone",
      "outputs": [
        {
          "internalType": "bool",
          "name": "",
          "type": "bool"
        }
      ],
      "stateMutability": "view",
      "type": "function"
    },
    {
      "inputs": [],
      "name": "matchings",
      "outputs": [
        {
          "internalType": "contract IMatchings",
          "name": "",
          "type": "address"
        }
      ],
      "stateMutability": "view",
      "type": "function"
    },
    {
      "inputs": [],
      "name": "matchingsBids",
      "outputs": [
        {
          "internalType": "contract IMatchingsBids",
          "name": "",
          "type": "address"
        }
      ],
      "stateMutability": "view",
      "type": "function"
    },
    {
      "inputs": [],
      "name": "matchingsTarget",
      "outputs": [
        {
          "internalType": "contract IMatchingsTarget",
          "name": "",
          "type": "address"
        }
      ],
      "stateMutability": "view",
      "type": "function"
    },
    {
      "inputs": [],
      "name": "proxiableUUID",
      "outputs": [
        {
          "internalType": "bytes32",
          "name": "",
          "type": "bytes32"
        }
      ],
      "stateMutability": "view",
      "type": "function"
    },
    {
      "inputs": [
        {
          "internalType": "uint64",
          "name": "_matchingId",
          "type": "uint64"
        },
        {
          "internalType": "uint64",
          "name": "_provider",
          "type": "uint64"
        },
        {
          "internalType": "uint64",
          "name": "_id",
          "type": "uint64"
        },
        {
          "internalType": "uint64",
          "name": "_claimId",
          "type": "uint64"
        }
      ],
      "name": "submitStorageClaimId",
      "outputs": [],
      "stateMutability": "nonpayable",
      "type": "function"
    },
    {
      "inputs": [
        {
          "internalType": "uint64",
          "name": "_matchingId",
          "type": "uint64"
        },
        {
          "internalType": "uint64",
          "name": "_provider",
          "type": "uint64"
        },
        {
          "internalType": "uint64[]",
          "name": "_ids",
          "type": "uint64[]"
        },
        {
          "internalType": "uint64[]",
          "name": "_claimIds",
          "type": "uint64[]"
        }
      ],
      "name": "submitStorageClaimIds",
      "outputs": [],
      "stateMutability": "nonpayable",
      "type": "function"
    },
    {
      "inputs": [
        {
          "internalType": "address",
          "name": "newImplementation",
          "type": "address"
        }
      ],
      "name": "upgradeTo",
      "outputs": [],
      "stateMutability": "nonpayable",
      "type": "function"
    },
    {
      "inputs": [
        {
          "internalType": "address",
          "name": "newImplementation",
          "type": "address"
        },
        {
          "internalType": "bytes",
          "name": "data",
          "type": "bytes"
        }
      ],
      "name": "upgradeToAndCall",
      "outputs": [],
      "stateMutability": "payable",
      "type": "function"
    }
  ],
  "numDeployments": 1,
  "solcInputHash": "86ceebc14306f94d4b734206564c3c08",
  "bytecode": "0x60a06040523060805234801561001457600080fd5b506080516122ef61004c600039600081816102f30152818161033c01528181610467015281816104a7015261052301526122ef6000f3fe6080604052600436106100b85760003560e01c80632620333e146100bd5780633659cfe6146100f35780634b06f57b146101155780634f1ef2861461014257806352d1902d14610155578063840febd9146101775780638a29e2de14610197578063aaf10f42146101b7578063af9863b3146101d9578063b83ab4f91461021c578063cff371ce14610249578063dd8fff9714610269578063e525feea14610289578063e9eade6f146102a9578063ead549eb146102c9575b600080fd5b3480156100c957600080fd5b50606c546100dd906001600160a01b031681565b6040516100ea91906114c1565b60405180910390f35b3480156100ff57600080fd5b5061011361010e3660046114f9565b6102e9565b005b34801561012157600080fd5b5061013561013036600461153a565b6103ba565b6040516100ea91906115c1565b6101136101503660046116cf565b61045d565b34801561016157600080fd5b5061016a610516565b6040516100ea919061172c565b34801561018357600080fd5b50606b546100dd906001600160a01b031681565b3480156101a357600080fd5b506101136101b236600461173a565b610573565b3480156101c357600080fd5b506101cc6106cb565b6040516100ea91906117f6565b3480156101e557600080fd5b5061020f6101f436600461153a565b6001600160401b031660009081526065602052604090205490565b6040516100ea9190611804565b34801561022857600080fd5b5061023c61023736600461153a565b6106da565b6040516100ea919061181a565b34801561025557600080fd5b50610113610264366004611828565b610771565b34801561027557600080fd5b50606d546100dd906001600160a01b031681565b34801561029557600080fd5b5061020f6102a436600461188c565b610bbc565b3480156102b557600080fd5b5061020f6102c436600461153a565b610cd5565b3480156102d557600080fd5b506101136102e4366004611961565b610de0565b6001600160a01b037f000000000000000000000000000000000000000000000000000000000000000016300361033a5760405162461bcd60e51b815260040161033190611a27565b60405180910390fd5b7f00000000000000000000000000000000000000000000000000000000000000006001600160a01b031661036c610e86565b6001600160a01b0316146103925760405162461bcd60e51b815260040161033190611a6e565b61039b81610ea2565b604080516000808252602082019092526103b791839190610f3b565b50565b6001600160401b0381166000908152606560209081526040918290208054835181840281018401909452808452606093919283919083018282801561045057602002820191906000526020600020906000905b82829054906101000a90046001600160401b03166001600160401b03168152602001906008019060208260070104928301926001038202915080841161040d5790505b5050505050915050919050565b6001600160a01b037f00000000000000000000000000000000000000000000000000000000000000001630036104a55760405162461bcd60e51b815260040161033190611a27565b7f00000000000000000000000000000000000000000000000000000000000000006001600160a01b03166104d7610e86565b6001600160a01b0316146104fd5760405162461bcd60e51b815260040161033190611a6e565b61050682610ea2565b61051282826001610f3b565b5050565b6000306001600160a01b037f000000000000000000000000000000000000000000000000000000000000000016146105605760405162461bcd60e51b815260040161033190611ad3565b5060008051602061227383398151915290565b600054610100900460ff16158080156105935750600054600160ff909116105b806105b457506105a23061101d565b1580156105b4575060005460ff166001145b6105d05760405162461bcd60e51b815260040161033190611b2e565b6000805460ff1916600117905580156105f3576000805461ff0019166101001790555b606680546001600160a01b03199081166001600160a01b038c8116919091179092556067805482168b84161790556068805482168a8416179055606980548216898416179055606a80548216888416179055606b80548216878416179055606c80548216868416179055606d805490911691841691909117905561067561102c565b80156106c0576000805461ff00191690556040517f7f26b83ff96e1f2b6a682f133852f6798a09c465da95921460cefb3847402498906106b790600190611b52565b60405180910390a15b505050505050505050565b60006106d5610e86565b905090565b6001600160401b038116600090815260656020526040808220606c5491516314bcfacf60e31b815290916001600160a01b03169063a5e7d67890610722908690600401611804565b600060405180830381865afa15801561073f573d6000803e3d6000fd5b505050506040513d6000823e601f3d908101601f191682016040526107679190810190611be0565b5190541492915050565b606d54604051636397640760e01b81526001600160a01b03909116906363976407906107a1908790600401611804565b602060405180830381865afa1580156107be573d6000803e3d6000fd5b505050506040513d601f19601f820116820180604052508101906107e29190611c25565b336001600160a01b0382161461080a5760405162461bcd60e51b815260040161033190611c7d565b606a546040516357e926df60e01b81526001600160a01b03909116908490879083906357e926df906108429085908590600401611c8d565b602060405180830381865afa15801561085f573d6000803e3d6000fd5b505050506040513d601f19601f820116820180604052508101906108839190611ca8565b6001600160401b0316156108ae578181604051637f579cdf60e01b8152600401610331929190611c8d565b606a54604051635ca64ded60e01b81526001600160a01b0390911690635ca64ded906108e09089908c90600401611c8d565b602060405180830381865afa1580156108fd573d6000803e3d6000fd5b505050506040513d601f19601f820116820180604052508101906109219190611ce1565b600581111561093257610932611d02565b6001146109515760405162461bcd60e51b815260040161033190611d44565b6001600160401b038816600090815260656020526040808220606954915163ceb1a8cb60e01b81529092916001600160a01b03169063ceb1a8cb9061099c908c908b90600401611c8d565b6000604051808303816000875af11580156109bb573d6000803e3d6000fd5b505050506040513d6000823e601f3d908101601f191682016040526109e39190810190611dd0565b606a546040516326ca5a7160e01b81529192506000916001600160a01b03909116906326ca5a7190610a19908c90600401611804565b602060405180830381865afa158015610a36573d6000803e3d6000fd5b505050506040513d601f19601f82011682018060405250810190610a5a9190611e1b565b90506000610a6782611055565b90508080519060200120838051906020012014610a965760405162461bcd60e51b815260040161033190611e5f565b836000018a90806001815401808255809150506001900390600052602060002090600491828204019190066008029091909190916101000a8154816001600160401b0302191690836001600160401b03160217905550606a60009054906101000a90046001600160a01b03166001600160a01b03166391e3ce748b8e8c6040518463ffffffff1660e01b8152600401610b3193929190611e6f565b600060405180830381600087803b158015610b4b57600080fd5b505af1158015610b5f573d6000803e3d6000fd5b50505050896001600160401b03168c6001600160401b03167fa6c04d0af3a021b71a35f71b64f305d03cfdbb8e1c7de1d8f7ddb3020839c9c78b604051610ba69190611804565b60405180910390a3505050505050505050505050565b6001600160401b0382166000908152606560205260408120815b81546001600160401b0382161015610cc857836001600160401b031682600001826001600160401b031681548110610c1057610c10611e97565b6000918252602090912060048204015460039091166008026101000a90046001600160401b031603610cb657606a5460405163cf24e53b60e01b81526001600160a01b039091169063cf24e53b90610c6c908790600401611804565b602060405180830381865afa158015610c89573d6000803e3d6000fd5b505050506040513d601f19601f82011682018060405250810190610cad9190611ca8565b92505050610ccf565b80610cc081611ec3565b915050610bd6565b5060009150505b92915050565b6001600160401b038116600090815260656020526040812081805b82546001600160401b0382161015610dd857606a5483546001600160a01b039091169063cf24e53b9085906001600160401b038516908110610d3457610d34611e97565b90600052602060002090600491828204019190066008029054906101000a90046001600160401b03166040518263ffffffff1660e01b8152600401610d799190611804565b602060405180830381865afa158015610d96573d6000803e3d6000fd5b505050506040513d601f19601f82011682018060405250810190610dba9190611ca8565b610dc49083611eed565b915080610dd081611ec3565b915050610cf0565b509392505050565b8051825114610e0857815181516040516379ef9bd560e01b8152600401610331929190611f20565b60005b8251816001600160401b03161015610e7f57610e6d858585846001600160401b031681518110610e3d57610e3d611e97565b602002602001015185856001600160401b031681518110610e6057610e60611e97565b6020026020010151610771565b80610e7781611ec3565b915050610e0b565b5050505050565b600080516020612273833981519152546001600160a01b031690565b606754604051632474521560e21b81526001600160a01b039091169060009082906391d1485490610ed99084903390600401611f3b565b602060405180830381865afa158015610ef6573d6000803e3d6000fd5b505050506040513d601f19601f82011682018060405250810190610f1a9190611f69565b610f365760405162461bcd60e51b815260040161033190611fbb565b505050565b7f4910fdfa16fed3260ed0e7147f7cc6da11a60208b5b9406d12a635614ffd91435460ff1615610f6e57610f368361111c565b826001600160a01b03166352d1902d6040518163ffffffff1660e01b8152600401602060405180830381865afa925050508015610fc8575060408051601f3d908101601f19168201909252610fc591810190611e1b565b60015b610fe45760405162461bcd60e51b815260040161033190612016565b60008051602061227383398151915281146110115760405162461bcd60e51b81526004016103319061206c565b50610f36838383611170565b6001600160a01b03163b151590565b600054610100900460ff166110535760405162461bcd60e51b8152600401610331906120c4565b565b606061f1016110126000611069600161119b565b6110728461119b565b6040516020016110839291906120f6565b6040516020818303038152906040529050600061109f8361119b565b6110a9602061119b565b6040516020016110ba9291906120f6565b604051602081830303815290604052905080866040516020016110de92919061210e565b604051602081830303815290604052905081816040516020016111029291906120f6565b604051602081830303815290604052945050505050919050565b6111258161101d565b6111415760405162461bcd60e51b81526004016103319061217a565b60008051602061227383398151915280546001600160a01b0319166001600160a01b0392909216919091179055565b6111798361131a565b6000825111806111865750805b15610f3657611195838361135a565b50505050565b60408051600a8082526101608201909252606091600091829160208201610140803683370190505090505b6080846001600160401b0316106112275783608017818360ff16815181106111f0576111f0611e97565b602002602001019060ff16908160ff16815250506007846001600160401b0316901c9350818061121f9061218a565b9250506111c6565b83818360ff168151811061123d5761123d611e97565b60ff90921660209283029190910190910152600061125c8360016121a0565b60ff166001600160401b03811115611276576112766115dc565b6040519080825280601f01601f1916602001820160405280156112a0576020820181803683370190505b50905060005b8360ff168160ff161161131157828160ff16815181106112c8576112c8611e97565b602002602001015160f81b828260ff16815181106112e8576112e8611e97565b60200101906001600160f81b031916908160001a905350806113098161218a565b9150506112a6565b50949350505050565b6113238161111c565b6040516001600160a01b038216907fbc7cd75a20ee27fd9adebab32041f755214dbc6bffa90cc0225b39da2e5c2d3b90600090a250565b606061137f838360405180606001604052806027815260200161229360279139611386565b9392505050565b6060600080856001600160a01b0316856040516113a391906121bd565b600060405180830381855af49150503d80600081146113de576040519150601f19603f3d011682016040523d82523d6000602084013e6113e3565b606091505b50915091506113f4868383876113fe565b9695505050505050565b6060831561143b578251600003611434576114188561101d565b6114345760405162461bcd60e51b8152600401610331906121fd565b5081611445565b611445838361144d565b949350505050565b81511561145d5781518083602001fd5b8060405162461bcd60e51b81526004016103319190612241565b6001600160a01b031690565b6000610ccf61149761149484611477565b90565b611477565b6000610ccf82611483565b6000610ccf8261149c565b6114bb816114a7565b82525050565b60208101610ccf82846114b2565b6000610ccf82611477565b6114e3816114cf565b81146103b757600080fd5b8035610ccf816114da565b60006020828403121561150e5761150e600080fd5b600061144584846114ee565b6001600160401b031690565b6114e38161151a565b8035610ccf81611526565b60006020828403121561154f5761154f600080fd5b6000611445848461152f565b6114bb8161151a565b6000611570838361155b565b505060200190565b6000611582825190565b80845260209384019383018060005b838110156115b65781516115a58882611564565b975060208301925050600101611591565b509495945050505050565b6020808252810161137f8184611578565b601f01601f191690565b634e487b7160e01b600052604160045260246000fd5b6115fb826115d2565b81018181106001600160401b0382111715611618576116186115dc565b6040525050565b600061162a60405190565b905061163682826115f2565b919050565b60006001600160401b03821115611654576116546115dc565b61165d826115d2565b60200192915050565b82818337506000910152565b60006116856116808461163b565b61161f565b9050828152602081018484840111156116a0576116a0600080fd5b610dd8848285611666565b600082601f8301126116bf576116bf600080fd5b8135611445848260208601611672565b600080604083850312156116e5576116e5600080fd5b60006116f185856114ee565b92505060208301356001600160401b0381111561171057611710600080fd5b61171c858286016116ab565b9150509250929050565b806114bb565b60208101610ccf8284611726565b600080600080600080600080610100898b03121561175a5761175a600080fd5b60006117668b8b6114ee565b98505060206117778b828c016114ee565b97505060406117888b828c016114ee565b96505060606117998b828c016114ee565b95505060806117aa8b828c016114ee565b94505060a06117bb8b828c016114ee565b93505060c06117cc8b828c016114ee565b92505060e06117dd8b828c016114ee565b9150509295985092959890939650565b6114bb816114cf565b60208101610ccf82846117ed565b60208101610ccf828461155b565b8015156114bb565b60208101610ccf8284611812565b6000806000806080858703121561184157611841600080fd5b600061184d878761152f565b945050602061185e8782880161152f565b935050604061186f8782880161152f565b92505060606118808782880161152f565b91505092959194509250565b600080604083850312156118a2576118a2600080fd5b60006118ae858561152f565b925050602061171c8582860161152f565b60006001600160401b038211156118d8576118d86115dc565b5060209081020190565b60006118f0611680846118bf565b8381529050602080820190840283018581111561190f5761190f600080fd5b835b818110156119335780611924888261152f565b84525060209283019201611911565b5050509392505050565b600082601f83011261195157611951600080fd5b81356114458482602086016118e2565b6000806000806080858703121561197a5761197a600080fd5b6000611986878761152f565b94505060206119978782880161152f565b93505060408501356001600160401b038111156119b6576119b6600080fd5b6119c28782880161193d565b92505060608501356001600160401b038111156119e1576119e1600080fd5b6118808782880161193d565b602c815260006020820160008051602061225383398151915281526b19195b1959d85d1958d85b1b60a21b602082015291505b5060400190565b60208082528101610ccf816119ed565b602c815260006020820160008051602061225383398151915281526b6163746976652070726f787960a01b60208201529150611a20565b60208082528101610ccf81611a37565b603881526000602082017f555550535570677261646561626c653a206d757374206e6f742062652063616c8152771b1959081d1a1c9bdd59da0819195b1959d85d1958d85b1b60421b60208201529150611a20565b60208082528101610ccf81611a7e565b602e81526000602082017f496e697469616c697a61626c653a20636f6e747261637420697320616c72656181526d191e481a5b9a5d1a585b1a5e995960921b60208201529150611a20565b60208082528101610ccf81611ae3565b600060ff8216610ccf565b6114bb81611b3e565b60208101610ccf8284611b49565b8051610ccf81611526565b6000611b79611680846118bf565b83815290506020808201908402830185811115611b9857611b98600080fd5b835b818110156119335780611bad8882611b60565b84525060209283019201611b9a565b600082601f830112611bd057611bd0600080fd5b8151611445848260208601611b6b565b600060208284031215611bf557611bf5600080fd5b81516001600160401b03811115611c0e57611c0e600080fd5b61144584828501611bbc565b8051610ccf816114da565b600060208284031215611c3a57611c3a600080fd5b60006114458484611c1a565b601d81526000602082017f4f6e6c7920616c6c6f77656420616464726573732063616e2063616c6c000000815291505b5060200190565b60208082528101610ccf81611c46565b60408101611c9b828561155b565b61137f602083018461155b565b600060208284031215611cbd57611cbd600080fd5b60006114458484611b60565b600681106103b757600080fd5b8051610ccf81611cc9565b600060208284031215611cf657611cf6600080fd5b60006114458484611cd6565b634e487b7160e01b600052602160045260246000fd5b6015815260006020820174496e76616c6964205265706c69636120537461746560581b81529150611c76565b60208082528101610ccf81611d18565b60005b83811015611d6f578181015183820152602001611d57565b50506000910152565b6000611d866116808461163b565b905082815260208101848484011115611da157611da1600080fd5b610dd8848285611d54565b600082601f830112611dc057611dc0600080fd5b8151611445848260208601611d78565b600060208284031215611de557611de5600080fd5b81516001600160401b03811115611dfe57611dfe600080fd5b61144584828501611dac565b806114e3565b8051610ccf81611e0a565b600060208284031215611e3057611e30600080fd5b60006114458484611e10565b600c81526000602082016b0c6d2c840dad2e6dac2e8c6d60a31b81529150611c76565b60208082528101610ccf81611e3c565b60608101611e7d828661155b565b611e8a602083018561155b565b611445604083018461155b565b634e487b7160e01b600052603260045260246000fd5b634e487b7160e01b600052601160045260246000fd5b6000611ece8261151a565b91506001600160401b038203611ee657611ee6611ead565b5060010190565b6000611ef88261151a565b9150611f038361151a565b9250508082016001600160401b03811115610ccf57610ccf611ead565b60408101611f2e8285611726565b61137f6020830184611726565b60408101611f498285611726565b61137f60208301846117ed565b8015156114e3565b8051610ccf81611f56565b600060208284031215611f7e57611f7e600080fd5b60006114458484611f5e565b601a81526000602082017913db9b1e48185b1b1bddd959081c9bdb194818d85b8818d85b1b60321b81529150611c76565b60208082528101610ccf81611f8a565b602e81526000602082017f45524331393637557067726164653a206e657720696d706c656d656e7461746981526d6f6e206973206e6f74205555505360901b60208201529150611a20565b60208082528101610ccf81611fcb565b602981526000602082017f45524331393637557067726164653a20756e737570706f727465642070726f788152681a58589b195555525160ba1b60208201529150611a20565b60208082528101610ccf81612026565b602b81526000602082017f496e697469616c697a61626c653a20636f6e7472616374206973206e6f74206981526a6e697469616c697a696e6760a81b60208201529150611a20565b60208082528101610ccf8161207c565b60006120de825190565b6120ec818560208601611d54565b9290920192915050565b600061210282856120d4565b915061144582846120d4565b600061211a82856120d4565b91506121268284611726565b5060200192915050565b602d81526000602082017f455243313936373a206e657720696d706c656d656e746174696f6e206973206e81526c1bdd08184818dbdb9d1c9858dd609a1b60208201529150611a20565b60208082528101610ccf81612130565b60ff16600060fe198201611ee657611ee6611ead565b60ff918216919081169082820190811115610ccf57610ccf611ead565b600061137f82846120d4565b601d81526000602082017f416464726573733a2063616c6c20746f206e6f6e2d636f6e747261637400000081529150611c76565b60208082528101610ccf816121c9565b6000612217825190565b80845260208401935061222e818560208601611d54565b612237816115d2565b9093019392505050565b6020808252810161137f818461220d56fe46756e6374696f6e206d7573742062652063616c6c6564207468726f75676820360894a13ba1a3210667c828492db98dca3e2076cc3735a920a3ca505d382bbc416464726573733a206c6f772d6c6576656c2064656c65676174652063616c6c206661696c6564a2646970667358221220be848e75ac144c711c67a93469d5bec4e14cae07b79b95fa7a99af559ead163364736f6c63430008150033",
  "devdoc": {
    "details": "Manages the storage of matched data after successful matching with Filecoin storage deals.",
    "events": {
      "AdminChanged(address,address)": {
        "details": "Emitted when the admin account has changed."
      },
      "BeaconUpgraded(address)": {
        "details": "Emitted when the beacon is changed."
      },
      "Initialized(uint8)": {
        "details": "Triggered when the contract has been initialized or reinitialized."
      },
      "StorageClaimIdSubmitted(uint64,uint64,uint64)": {
        "details": "Submits a Filecoin claim ID for a matched store after successful matching.",
        "params": {
          "_claimId": "The Filecoin claim ID.",
          "_id": "The ID of the file.",
          "_matchingId": "The ID of the matching store."
        }
      },
      "Upgraded(address)": {
        "details": "Emitted when the implementation is upgraded."
      }
    },
    "kind": "dev",
    "methods": {
      "getStoredCarCount(uint64)": {
        "details": "Gets the count of done cars in the matchedstore."
      },
      "getStoredCarSize(uint64,uint64)": {
        "details": "Gets the car size in the matchedstore."
      },
      "getStoredCars(uint64)": {
        "details": "Gets the list of done cars in the matchedstore."
      },
      "getTotalStoredSize(uint64)": {
        "details": "Gets the stored size in the matchedstore."
      },
      "isAllStoredDone(uint64)": {
        "details": "Checks if all cars are done in the matchedstore."
      },
      "proxiableUUID()": {
        "details": "Implementation of the ERC1822 {proxiableUUID} function. This returns the storage slot used by the implementation. It is used to validate the implementation's compatibility when performing an upgrade. IMPORTANT: A proxy pointing at a proxiable contract should not be considered proxiable itself, because this risks bricking a proxy that upgrades to it, by delegating to itself until out of gas. Thus it is critical that this function revert if invoked through a proxy. This is guaranteed by the `notDelegated` modifier."
      },
      "submitStorageClaimId(uint64,uint64,uint64,uint64)": {
        "details": "Submits a Filecoin claim Id for a matchedstore after successful matching.",
        "params": {
          "_claimId": "The ID of the successful Filecoin storage deal.",
          "_id": "The content identifier of the matched data.",
          "_matchingId": "The ID of the matching.",
          "_provider": "A provider of storage provider of matching."
        }
      },
      "submitStorageClaimIds(uint64,uint64,uint64[],uint64[])": {
        "details": "Submits multiple Filecoin claim Ids for a matchedstore after successful matching.",
        "params": {
          "_claimIds": "An array of IDs of successful Filecoin storage deals.",
          "_ids": "An array of content identifiers of the matched data.",
          "_matchingId": "The ID of the matching.",
          "_provider": "A provider of storage provider of matching."
        }
      },
      "upgradeTo(address)": {
        "custom:oz-upgrades-unsafe-allow-reachable": "delegatecall",
        "details": "Upgrade the implementation of the proxy to `newImplementation`. Calls {_authorizeUpgrade}. Emits an {Upgraded} event."
      },
      "upgradeToAndCall(address,bytes)": {
        "custom:oz-upgrades-unsafe-allow-reachable": "delegatecall",
        "details": "Upgrade the implementation of the proxy to `newImplementation`, and subsequently execute the function call encoded in `data`. Calls {_authorizeUpgrade}. Emits an {Upgraded} event."
      }
    },
    "stateVariables": {
      "__gap": {
        "details": "This empty reserved space is put in place to allow future versions to add new"
      }
    },
    "title": "storages",
    "version": 1
  },
  "userdoc": {
    "errors": {
      "ParamLengthMismatch(uint256,uint256)": [
        {
          "notice": "commmon errors"
        }
      ]
    },
    "kind": "user",
    "methods": {
      "getImplementation()": {
        "notice": "Returns the implementation contract"
      },
      "initialize(address,address,address,address,address,address,address,address)": {
        "notice": "initialize function to initialize the contract and grant the default admin role to the deployer."
      },
      "matchings()": {
        "notice": "get matchings instance"
      },
      "matchingsBids()": {
        "notice": "get matchingsBids instance"
      },
      "matchingsTarget()": {
        "notice": "get matchingsTarget instance"
      }
    },
    "version": 1
  },
  "storageLayout": {
    "storage": [
      {
        "astId": 5186,
        "contract": "src/v0.8/module/storage/Storages.sol:Storages",
        "label": "_initialized",
        "offset": 0,
        "slot": "0",
        "type": "t_uint8"
      },
      {
        "astId": 5189,
        "contract": "src/v0.8/module/storage/Storages.sol:Storages",
        "label": "_initializing",
        "offset": 1,
        "slot": "0",
        "type": "t_bool"
      },
      {
        "astId": 5168,
        "contract": "src/v0.8/module/storage/Storages.sol:Storages",
        "label": "__gap",
        "offset": 0,
        "slot": "1",
        "type": "t_array(t_uint256)50_storage"
      },
      {
        "astId": 5483,
        "contract": "src/v0.8/module/storage/Storages.sol:Storages",
        "label": "__gap",
        "offset": 0,
        "slot": "51",
        "type": "t_array(t_uint256)50_storage"
      },
      {
        "astId": 31059,
        "contract": "src/v0.8/module/storage/Storages.sol:Storages",
        "label": "storages",
        "offset": 0,
        "slot": "101",
        "type": "t_mapping(t_uint64,t_struct(Storage)35487_storage)"
      },
      {
        "astId": 31061,
        "contract": "src/v0.8/module/storage/Storages.sol:Storages",
        "label": "governanceAddress",
        "offset": 0,
        "slot": "102",
        "type": "t_address"
      },
      {
        "astId": 31064,
        "contract": "src/v0.8/module/storage/Storages.sol:Storages",
        "label": "roles",
        "offset": 0,
        "slot": "103",
        "type": "t_contract(IRoles)20939"
      },
      {
        "astId": 31067,
        "contract": "src/v0.8/module/storage/Storages.sol:Storages",
        "label": "filplus",
        "offset": 0,
        "slot": "104",
        "type": "t_contract(IFilplus)20899"
      },
      {
        "astId": 31070,
        "contract": "src/v0.8/module/storage/Storages.sol:Storages",
        "label": "filecoin",
        "offset": 0,
        "slot": "105",
        "type": "t_contract(IFilecoin)20711"
      },
      {
        "astId": 31073,
        "contract": "src/v0.8/module/storage/Storages.sol:Storages",
        "label": "carstore",
        "offset": 0,
        "slot": "106",
        "type": "t_contract(ICarstore)20452"
      },
      {
        "astId": 31076,
        "contract": "src/v0.8/module/storage/Storages.sol:Storages",
        "label": "matchings",
        "offset": 0,
        "slot": "107",
        "type": "t_contract(IMatchings)21653"
      },
      {
        "astId": 31079,
        "contract": "src/v0.8/module/storage/Storages.sol:Storages",
        "label": "matchingsTarget",
        "offset": 0,
        "slot": "108",
        "type": "t_contract(IMatchingsTarget)21907"
      },
      {
        "astId": 31082,
        "contract": "src/v0.8/module/storage/Storages.sol:Storages",
        "label": "matchingsBids",
        "offset": 0,
        "slot": "109",
        "type": "t_contract(IMatchingsBids)21747"
      },
      {
        "astId": 31087,
        "contract": "src/v0.8/module/storage/Storages.sol:Storages",
        "label": "__gap",
        "offset": 0,
        "slot": "110",
        "type": "t_array(t_uint256)32_storage"
      }
    ],
    "types": {
      "t_address": {
        "encoding": "inplace",
        "label": "address",
        "numberOfBytes": "20"
      },
      "t_array(t_uint256)32_storage": {
        "base": "t_uint256",
        "encoding": "inplace",
        "label": "uint256[32]",
        "numberOfBytes": "1024"
      },
      "t_array(t_uint256)50_storage": {
        "base": "t_uint256",
        "encoding": "inplace",
        "label": "uint256[50]",
        "numberOfBytes": "1600"
      },
      "t_array(t_uint64)dyn_storage": {
        "base": "t_uint64",
        "encoding": "dynamic_array",
        "label": "uint64[]",
        "numberOfBytes": "32"
      },
      "t_bool": {
        "encoding": "inplace",
        "label": "bool",
        "numberOfBytes": "1"
      },
      "t_contract(ICarstore)20452": {
        "encoding": "inplace",
        "label": "contract ICarstore",
        "numberOfBytes": "20"
      },
      "t_contract(IFilecoin)20711": {
        "encoding": "inplace",
        "label": "contract IFilecoin",
        "numberOfBytes": "20"
      },
      "t_contract(IFilplus)20899": {
        "encoding": "inplace",
        "label": "contract IFilplus",
        "numberOfBytes": "20"
      },
      "t_contract(IMatchings)21653": {
        "encoding": "inplace",
        "label": "contract IMatchings",
        "numberOfBytes": "20"
      },
      "t_contract(IMatchingsBids)21747": {
        "encoding": "inplace",
        "label": "contract IMatchingsBids",
        "numberOfBytes": "20"
      },
      "t_contract(IMatchingsTarget)21907": {
        "encoding": "inplace",
        "label": "contract IMatchingsTarget",
        "numberOfBytes": "20"
      },
      "t_contract(IRoles)20939": {
        "encoding": "inplace",
        "label": "contract IRoles",
        "numberOfBytes": "20"
      },
      "t_mapping(t_uint64,t_struct(Storage)35487_storage)": {
        "encoding": "mapping",
        "key": "t_uint64",
        "label": "mapping(uint64 => struct StorageType.Storage)",
        "numberOfBytes": "32",
        "value": "t_struct(Storage)35487_storage"
      },
      "t_struct(Storage)35487_storage": {
        "encoding": "inplace",
        "label": "struct StorageType.Storage",
        "members": [
          {
            "astId": 35486,
            "contract": "src/v0.8/module/storage/Storages.sol:Storages",
            "label": "doneCars",
            "offset": 0,
            "slot": "0",
            "type": "t_array(t_uint64)dyn_storage"
          }
        ],
        "numberOfBytes": "32"
      },
      "t_uint256": {
        "encoding": "inplace",
        "label": "uint256",
        "numberOfBytes": "32"
      },
      "t_uint64": {
        "encoding": "inplace",
        "label": "uint64",
        "numberOfBytes": "8"
      },
      "t_uint8": {
        "encoding": "inplace",
        "label": "uint8",
        "numberOfBytes": "1"
      }
    }
  }
}