{
  "address": "0x8efF37d5712Efd3A02f8b0e518579388Bf43921a",
  "abi": [
    {
      "inputs": [
        {
          "internalType": "uint256",
          "name": "_expectedLength",
          "type": "uint256"
        },
        {
          "internalType": "uint256",
          "name": "_actualLength",
          "type": "uint256"
        }
      ],
      "name": "ParamLengthMismatch",
      "type": "error"
    },
    {
      "inputs": [
        {
          "internalType": "uint64",
          "name": "_id",
          "type": "uint64"
        },
        {
          "internalType": "uint64",
          "name": "_matchingId",
          "type": "uint64"
        }
      ],
      "name": "ReplicaFilecoinClaimIdExists",
      "type": "error"
    },
    {
      "anonymous": false,
      "inputs": [
        {
          "indexed": false,
          "internalType": "address",
          "name": "previousAdmin",
          "type": "address"
        },
        {
          "indexed": false,
          "internalType": "address",
          "name": "newAdmin",
          "type": "address"
        }
      ],
      "name": "AdminChanged",
      "type": "event"
    },
    {
      "anonymous": false,
      "inputs": [
        {
          "indexed": true,
          "internalType": "address",
          "name": "beacon",
          "type": "address"
        }
      ],
      "name": "BeaconUpgraded",
      "type": "event"
    },
    {
      "anonymous": false,
      "inputs": [
        {
          "indexed": false,
          "internalType": "uint8",
          "name": "version",
          "type": "uint8"
        }
      ],
      "name": "Initialized",
      "type": "event"
    },
    {
      "anonymous": false,
      "inputs": [
        {
          "indexed": true,
          "internalType": "uint64",
          "name": "_matchingId",
          "type": "uint64"
        },
        {
          "indexed": true,
          "internalType": "uint64",
          "name": "_id",
          "type": "uint64"
        },
        {
          "indexed": false,
          "internalType": "uint64",
          "name": "_claimId",
          "type": "uint64"
        }
      ],
      "name": "StorageClaimIdSubmitted",
      "type": "event"
    },
    {
      "anonymous": false,
      "inputs": [
        {
          "indexed": true,
          "internalType": "address",
          "name": "implementation",
          "type": "address"
        }
      ],
      "name": "Upgraded",
      "type": "event"
    },
    {
      "inputs": [],
      "name": "datasets",
      "outputs": [
        {
          "internalType": "contract IDatasets",
          "name": "",
          "type": "address"
        }
      ],
      "stateMutability": "view",
      "type": "function"
    },
    {
      "inputs": [
        {
          "internalType": "uint64",
          "name": "_matchingId",
          "type": "uint64"
        }
      ],
      "name": "getClientLockPayment",
      "outputs": [
        {
          "internalType": "uint256",
          "name": "",
          "type": "uint256"
        }
      ],
      "stateMutability": "view",
      "type": "function"
    },
    {
      "inputs": [],
      "name": "getImplementation",
      "outputs": [
        {
          "internalType": "address",
          "name": "",
          "type": "address"
        }
      ],
      "stateMutability": "view",
      "type": "function"
    },
    {
      "inputs": [
        {
          "internalType": "uint64",
          "name": "_matchingId",
          "type": "uint64"
        }
      ],
      "name": "getProviderLockPayment",
      "outputs": [
        {
          "internalType": "uint256",
          "name": "",
          "type": "uint256"
        }
      ],
      "stateMutability": "view",
      "type": "function"
    },
    {
      "inputs": [
        {
          "internalType": "uint64",
          "name": "_matchingId",
          "type": "uint64"
        }
      ],
      "name": "getStoredCarCount",
      "outputs": [
        {
          "internalType": "uint64",
          "name": "",
          "type": "uint64"
        }
      ],
      "stateMutability": "view",
      "type": "function"
    },
    {
      "inputs": [
        {
          "internalType": "uint64",
          "name": "_matchingId",
          "type": "uint64"
        },
        {
          "internalType": "uint64",
          "name": "_id",
          "type": "uint64"
        }
      ],
      "name": "getStoredCarSize",
      "outputs": [
        {
          "internalType": "uint64",
          "name": "",
          "type": "uint64"
        }
      ],
      "stateMutability": "view",
      "type": "function"
    },
    {
      "inputs": [
        {
          "internalType": "uint64",
          "name": "_matchingId",
          "type": "uint64"
        }
      ],
      "name": "getStoredCars",
      "outputs": [
        {
          "internalType": "uint64[]",
          "name": "",
          "type": "uint64[]"
        }
      ],
      "stateMutability": "view",
      "type": "function"
    },
    {
      "inputs": [
        {
          "internalType": "uint64",
          "name": "_matchingId",
          "type": "uint64"
        }
      ],
      "name": "getTotalStoredSize",
      "outputs": [
        {
          "internalType": "uint64",
          "name": "",
          "type": "uint64"
        }
      ],
      "stateMutability": "view",
      "type": "function"
    },
    {
      "inputs": [
        {
          "internalType": "address",
          "name": "_governanceAddress",
          "type": "address"
        },
        {
          "internalType": "address",
          "name": "_roles",
          "type": "address"
        },
        {
          "internalType": "address",
          "name": "_filplus",
          "type": "address"
        },
        {
          "internalType": "address",
          "name": "_filecoin",
          "type": "address"
        },
        {
          "internalType": "address",
          "name": "_carstore",
          "type": "address"
        },
        {
          "internalType": "address",
          "name": "_matchings",
          "type": "address"
        },
        {
          "internalType": "address",
          "name": "_matchingsTarget",
          "type": "address"
        },
        {
          "internalType": "address",
          "name": "_matchingsBids",
          "type": "address"
        },
        {
          "internalType": "address",
          "name": "_escrow",
          "type": "address"
        },
        {
          "internalType": "address",
          "name": "_datasets",
          "type": "address"
        }
      ],
      "name": "initialize",
      "outputs": [],
      "stateMutability": "nonpayable",
      "type": "function"
    },
    {
      "inputs": [
        {
          "internalType": "uint64",
          "name": "_matchingId",
          "type": "uint64"
        }
      ],
      "name": "isAllStoredDone",
      "outputs": [
        {
          "internalType": "bool",
          "name": "",
          "type": "bool"
        }
      ],
      "stateMutability": "view",
      "type": "function"
    },
    {
      "inputs": [
        {
          "internalType": "uint64",
          "name": "_matchingId",
          "type": "uint64"
        }
      ],
      "name": "isStorageExpiration",
      "outputs": [
        {
          "internalType": "bool",
          "name": "",
          "type": "bool"
        }
      ],
      "stateMutability": "view",
      "type": "function"
    },
    {
      "inputs": [],
      "name": "matchings",
      "outputs": [
        {
          "internalType": "contract IMatchings",
          "name": "",
          "type": "address"
        }
      ],
      "stateMutability": "view",
      "type": "function"
    },
    {
      "inputs": [],
      "name": "matchingsBids",
      "outputs": [
        {
          "internalType": "contract IMatchingsBids",
          "name": "",
          "type": "address"
        }
      ],
      "stateMutability": "view",
      "type": "function"
    },
    {
      "inputs": [],
      "name": "matchingsTarget",
      "outputs": [
        {
          "internalType": "contract IMatchingsTarget",
          "name": "",
          "type": "address"
        }
      ],
      "stateMutability": "view",
      "type": "function"
    },
    {
      "inputs": [],
      "name": "proxiableUUID",
      "outputs": [
        {
          "internalType": "bytes32",
          "name": "",
          "type": "bytes32"
        }
      ],
      "stateMutability": "view",
      "type": "function"
    },
    {
      "inputs": [
        {
          "internalType": "uint64",
          "name": "_matchingId",
          "type": "uint64"
        },
        {
          "internalType": "uint64",
          "name": "_provider",
          "type": "uint64"
        },
        {
          "internalType": "uint64[]",
          "name": "_ids",
          "type": "uint64[]"
        },
        {
          "internalType": "uint64[]",
          "name": "_claimIds",
          "type": "uint64[]"
        }
      ],
      "name": "submitStorageClaimIds",
      "outputs": [],
      "stateMutability": "nonpayable",
      "type": "function"
    },
    {
      "inputs": [
        {
          "internalType": "address",
          "name": "newImplementation",
          "type": "address"
        }
      ],
      "name": "upgradeTo",
      "outputs": [],
      "stateMutability": "nonpayable",
      "type": "function"
    },
    {
      "inputs": [
        {
          "internalType": "address",
          "name": "newImplementation",
          "type": "address"
        },
        {
          "internalType": "bytes",
          "name": "data",
          "type": "bytes"
        }
      ],
      "name": "upgradeToAndCall",
      "outputs": [],
      "stateMutability": "payable",
      "type": "function"
    }
  ],
  "numDeployments": 1,
  "solcInputHash": "9021cb8d818084f87f27b3e6df282435",
  "bytecode": "0x60a06040523060805234801561001457600080fd5b50608051612c0261004c60003960008181610374015281816103bd0152818161068d015281816106cd01526107490152612c026000f3fe6080604052600436106100d95760003560e01c80632620333e146100de5780633659cfe6146101145780633ca30a0c146101365780634b06f57b146101635780634f1ef2861461019057806352d1902d146101a3578063840febd9146101b8578063aaf10f42146101d8578063ab2d10f7146101fa578063af9863b31461021a578063b46251e51461025d578063b83ab4f91461028a578063c306b378146102aa578063c3690e63146102ca578063dd8fff97146102ea578063e525feea1461030a578063e9eade6f1461032a578063ead549eb1461034a575b600080fd5b3480156100ea57600080fd5b50606e546100fe906001600160a01b031681565b60405161010b9190611bfd565b60405180910390f35b34801561012057600080fd5b5061013461012f366004611c35565b61036a565b005b34801561014257600080fd5b50610156610151366004611c76565b61043b565b60405161010b9190611c9d565b34801561016f57600080fd5b5061018361017e366004611c76565b6105e0565b60405161010b9190611d11565b61013461019e366004611e1a565b610683565b3480156101af57600080fd5b5061015661073c565b3480156101c457600080fd5b50606d546100fe906001600160a01b031681565b3480156101e457600080fd5b506101ed610799565b60405161010b9190611e7a565b34801561020657600080fd5b50606b546100fe906001600160a01b031681565b34801561022657600080fd5b50610250610235366004611c76565b6001600160401b031660009081526065602052604090205490565b60405161010b9190611e88565b34801561026957600080fd5b5061027d610278366004611c76565b6107a8565b60405161010b9190611e9e565b34801561029657600080fd5b5061027d6102a5366004611c76565b6108ba565b3480156102b657600080fd5b506101346102c5366004611eac565b610951565b3480156102d657600080fd5b506101566102e5366004611c76565b610ac3565b3480156102f657600080fd5b50606f546100fe906001600160a01b031681565b34801561031657600080fd5b50610250610325366004611f88565b610b82565b34801561033657600080fd5b50610250610345366004611c76565b610c9b565b34801561035657600080fd5b5061013461036536600461205d565b610da6565b6001600160a01b037f00000000000000000000000000000000000000000000000000000000000000001630036103bb5760405162461bcd60e51b81526004016103b29061212f565b60405180910390fd5b7f00000000000000000000000000000000000000000000000000000000000000006001600160a01b03166103ed611177565b6001600160a01b0316146104135760405162461bcd60e51b81526004016103b290612176565b61041c81611193565b604080516000808252602082019092526104389183919061122c565b50565b60008061044783610c9b565b606e54604051638d4861fd60e01b81529192506000916001600160a01b0390911690638d4861fd9061047d908790600401611e88565b600060405180830381865afa15801561049a573d6000803e3d6000fd5b505050506040513d6000823e601f3d908101601f191682016040526104c2919081019061221e565b5050606f54604051636397640760e01b8152919450600093506001600160a01b03169150639cfa7d559087908390636397640790610504908490600401611e88565b602060405180830381865afa158015610521573d6000803e3d6000fd5b505050506040513d601f19601f8201168201806040525081019061054591906122bb565b6040518363ffffffff1660e01b81526004016105629291906122dc565b602060405180830381865afa15801561057f573d6000803e3d6000fd5b505050506040513d601f19601f820116820180604052508101906105a39190612308565b90506105af838361233f565b6001600160401b0316826001600160401b0316826105cd9190612388565b6105d7919061239c565b95945050505050565b6001600160401b0381166000908152606560209081526040918290208054835181840281018401909452808452606093919283919083018282801561067657602002820191906000526020600020906000905b82829054906101000a90046001600160401b03166001600160401b0316815260200190600801906020826007010492830192600103820291508084116106335790505b5050505050915050919050565b6001600160a01b037f00000000000000000000000000000000000000000000000000000000000000001630036106cb5760405162461bcd60e51b81526004016103b29061212f565b7f00000000000000000000000000000000000000000000000000000000000000006001600160a01b03166106fd611177565b6001600160a01b0316146107235760405162461bcd60e51b81526004016103b290612176565b61072c82611193565b6107388282600161122c565b5050565b6000306001600160a01b037f000000000000000000000000000000000000000000000000000000000000000016146107865760405162461bcd60e51b81526004016103b290612410565b50600080516020612b8683398151915290565b60006107a3611177565b905090565b606d546040516330e3dd2560e01b81526000916001600160a01b0316906330e3dd25906107d9908590600401611e88565b602060405180830381865afa1580156107f6573d6000803e3d6000fd5b505050506040513d601f19601f8201168201806040525081019061081a9190612420565b606d5460405163083e1d7760e31b81526001600160a01b03909116906341f0ebb89061084a908690600401611e88565b602060405180830381865afa158015610867573d6000803e3d6000fd5b505050506040513d601f19601f8201168201806040525081019061088b9190612420565b6108959190612441565b6001600160401b03164311156108ad57506001919050565b506000919050565b919050565b6001600160401b038116600090815260656020526040808220606e5491516314bcfacf60e31b815290916001600160a01b03169063a5e7d67890610902908690600401611e88565b600060405180830381865afa15801561091f573d6000803e3d6000fd5b505050506040513d6000823e601f3d908101601f191682016040526109479190810190612474565b5190541492915050565b600054610100900460ff16158080156109715750600054600160ff909116105b8061099257506109803061130e565b158015610992575060005460ff166001145b6109ae5760405162461bcd60e51b81526004016103b2906124f9565b6000805460ff1916600117905580156109d1576000805461ff0019166101001790555b606680546001600160a01b03199081166001600160a01b038e8116919091179092556067805482168d84161790556068805482168684161790556069805482168c8416179055606a805482168b8416179055606b80548216858416179055606c805482168a8416179055606d80548216898416179055606e80548216888416179055606f8054909116918616919091179055610a6b61131d565b8015610ab6576000805461ff00191690556040517f7f26b83ff96e1f2b6a682f133852f6798a09c465da95921460cefb384740249890610aad9060019061251d565b60405180910390a15b5050505050505050505050565b600080610acf83610c9b565b606e54604051638d4861fd60e01b81529192506000916001600160a01b0390911690638d4861fd90610b05908790600401611e88565b600060405180830381865afa158015610b22573d6000803e3d6000fd5b505050506040513d6000823e601f3d908101601f19168201604052610b4a919081019061221e565b5050606e546040516370ed37f360e11b8152919450600093506001600160a01b0316915063e1da6fe690610562908890600401611e88565b6001600160401b0382166000908152606560205260408120815b81546001600160401b0382161015610c8e57836001600160401b031682600001826001600160401b031681548110610bd657610bd661252b565b6000918252602090912060048204015460039091166008026101000a90046001600160401b031603610c7c57606c5460405163cf24e53b60e01b81526001600160a01b039091169063cf24e53b90610c32908790600401611e88565b602060405180830381865afa158015610c4f573d6000803e3d6000fd5b505050506040513d601f19601f82011682018060405250810190610c739190612420565b92505050610c95565b80610c8681612541565b915050610b9c565b5060009150505b92915050565b6001600160401b038116600090815260656020526040812081805b82546001600160401b0382161015610d9e57606c5483546001600160a01b039091169063cf24e53b9085906001600160401b038516908110610cfa57610cfa61252b565b90600052602060002090600491828204019190066008029054906101000a90046001600160401b03166040518263ffffffff1660e01b8152600401610d3f9190611e88565b602060405180830381865afa158015610d5c573d6000803e3d6000fd5b505050506040513d601f19601f82011682018060405250810190610d809190612420565b610d8a9083612441565b915080610d9681612541565b915050610cb6565b509392505050565b610daf846107a8565b1515600103610dd05760405162461bcd60e51b81526004016103b290612597565b8051825114610df857815181516040516379ef9bd560e01b81526004016103b29291906125a7565b60005b8251816001600160401b03161015610e6f57610e5d858585846001600160401b031681518110610e2d57610e2d61252b565b602002602001015185856001600160401b031681518110610e5057610e5061252b565b6020026020010151611346565b80610e6781612541565b915050610dfb565b50606854606f54604051636397640760e01b81526001600160a01b039283169263d8ea185e92600792911690636397640790610eaf908a90600401611e88565b602060405180830381865afa158015610ecc573d6000803e3d6000fd5b505050506040513d601f19601f82011682018060405250810190610ef091906122bb565b606d5460405163e19edda160e01b815289916001600160a01b03169063e19edda190610f20908490600401611e88565b602060405180830381865afa158015610f3d573d6000803e3d6000fd5b505050506040513d601f19601f82011682018060405250810190610f6191906122bb565b60006040518663ffffffff1660e01b8152600401610f83959493929190612634565b600060405180830381600087803b158015610f9d57600080fd5b505af1158015610fb1573d6000803e3d6000fd5b5050606e546040516340f7f10b60e01b8152600093506001600160a01b0390911691506340f7f10b90610fe8908890600401611e88565b602060405180830381865afa158015611005573d6000803e3d6000fd5b505050506040513d601f19601f820116820180604052508101906110299190612420565b606854606b5460405163293a9a8160e11b81529293506001600160a01b039182169263d8ea185e92600692169063527535029061106a908790600401611e88565b602060405180830381865afa158015611087573d6000803e3d6000fd5b505050506040513d601f19601f820116820180604052508101906110ab91906122bb565b606d5460405163e19edda160e01b81528a916001600160a01b03169063e19edda1906110db908490600401611e88565b602060405180830381865afa1580156110f8573d6000803e3d6000fd5b505050506040513d601f19601f8201168201806040525081019061111c91906122bb565b60006040518663ffffffff1660e01b815260040161113e959493929190612634565b600060405180830381600087803b15801561115857600080fd5b505af115801561116c573d6000803e3d6000fd5b505050505050505050565b600080516020612b86833981519152546001600160a01b031690565b606754604051632474521560e21b81526001600160a01b039091169060009082906391d14854906111ca9084903390600401612676565b602060405180830381865afa1580156111e7573d6000803e3d6000fd5b505050506040513d601f19601f8201168201806040525081019061120b9190612697565b6112275760405162461bcd60e51b81526004016103b2906126e9565b505050565b7f4910fdfa16fed3260ed0e7147f7cc6da11a60208b5b9406d12a635614ffd91435460ff161561125f5761122783611791565b826001600160a01b03166352d1902d6040518163ffffffff1660e01b8152600401602060405180830381865afa9250505080156112b9575060408051601f3d908101601f191682019092526112b691810190612308565b60015b6112d55760405162461bcd60e51b81526004016103b290612744565b600080516020612b8683398151915281146113025760405162461bcd60e51b81526004016103b29061279a565b506112278383836117e5565b6001600160a01b03163b151590565b600054610100900460ff166113445760405162461bcd60e51b81526004016103b2906127f2565b565b606f54604051636397640760e01b81526001600160a01b0390911690636397640790611376908790600401611e88565b602060405180830381865afa158015611393573d6000803e3d6000fd5b505050506040513d601f19601f820116820180604052508101906113b791906122bb565b336001600160a01b038216146113df5760405162461bcd60e51b81526004016103b290612836565b606c546040516357e926df60e01b81526001600160a01b03909116908490879083906357e926df906114179085908590600401612846565b602060405180830381865afa158015611434573d6000803e3d6000fd5b505050506040513d601f19601f820116820180604052508101906114589190612420565b6001600160401b031615611483578181604051637f579cdf60e01b81526004016103b2929190612846565b606c54604051635ca64ded60e01b81526001600160a01b0390911690635ca64ded906114b59089908c90600401612846565b602060405180830381865afa1580156114d2573d6000803e3d6000fd5b505050506040513d601f19601f820116820180604052508101906114f69190612879565b6005811115611507576115076125c2565b6001146115265760405162461bcd60e51b81526004016103b2906128c6565b6001600160401b038816600090815260656020526040808220606a54915163ceb1a8cb60e01b81529092916001600160a01b03169063ceb1a8cb90611571908c908b90600401612846565b6000604051808303816000875af1158015611590573d6000803e3d6000fd5b505050506040513d6000823e601f3d908101601f191682016040526115b89190810190612952565b606c546040516326ca5a7160e01b81529192506000916001600160a01b03909116906326ca5a71906115ee908c90600401611e88565b602060405180830381865afa15801561160b573d6000803e3d6000fd5b505050506040513d601f19601f8201168201806040525081019061162f9190612308565b9050600061163c82611810565b9050808051906020012083805190602001201461166b5760405162461bcd60e51b81526004016103b2906129af565b836000018a90806001815401808255809150506001900390600052602060002090600491828204019190066008029091909190916101000a8154816001600160401b0302191690836001600160401b03160217905550606c60009054906101000a90046001600160a01b03166001600160a01b03166391e3ce748b8e8c6040518463ffffffff1660e01b8152600401611706939291906129bf565b600060405180830381600087803b15801561172057600080fd5b505af1158015611734573d6000803e3d6000fd5b50505050896001600160401b03168c6001600160401b03167fa6c04d0af3a021b71a35f71b64f305d03cfdbb8e1c7de1d8f7ddb3020839c9c78b60405161177b9190611e88565b60405180910390a3505050505050505050505050565b61179a8161130e565b6117b65760405162461bcd60e51b81526004016103b290612a31565b600080516020612b8683398151915280546001600160a01b0319166001600160a01b0392909216919091179055565b6117ee836118d7565b6000825111806117fb5750805b156112275761180a8383611917565b50505050565b606061f10161101260006118246001611943565b61182d84611943565b60405160200161183e929190612a63565b6040516020818303038152906040529050600061185a83611943565b6118646020611943565b604051602001611875929190612a63565b60405160208183030381529060405290508086604051602001611899929190612a7b565b604051602081830303815290604052905081816040516020016118bd929190612a63565b604051602081830303815290604052945050505050919050565b6118e081611791565b6040516001600160a01b038216907fbc7cd75a20ee27fd9adebab32041f755214dbc6bffa90cc0225b39da2e5c2d3b90600090a250565b606061193c8383604051806060016040528060278152602001612ba660279139611ac2565b9392505050565b60408051600a8082526101608201909252606091600091829160208201610140803683370190505090505b6080846001600160401b0316106119cf5783608017818360ff16815181106119985761199861252b565b602002602001019060ff16908160ff16815250506007846001600160401b0316901c935081806119c790612a9d565b92505061196e565b83818360ff16815181106119e5576119e561252b565b60ff909216602092830291909101909101526000611a04836001612ab3565b60ff166001600160401b03811115611a1e57611a1e611d2c565b6040519080825280601f01601f191660200182016040528015611a48576020820181803683370190505b50905060005b8360ff168160ff1611611ab957828160ff1681518110611a7057611a7061252b565b602002602001015160f81b828260ff1681518110611a9057611a9061252b565b60200101906001600160f81b031916908160001a90535080611ab181612a9d565b915050611a4e565b50949350505050565b6060600080856001600160a01b031685604051611adf9190612ad0565b600060405180830381855af49150503d8060008114611b1a576040519150601f19603f3d011682016040523d82523d6000602084013e611b1f565b606091505b5091509150611b3086838387611b3a565b9695505050505050565b60608315611b77578251600003611b7057611b548561130e565b611b705760405162461bcd60e51b81526004016103b290612b10565b5081611b81565b611b818383611b89565b949350505050565b815115611b995781518083602001fd5b8060405162461bcd60e51b81526004016103b29190612b54565b6001600160a01b031690565b6000610c95611bd3611bd084611bb3565b90565b611bb3565b6000610c9582611bbf565b6000610c9582611bd8565b611bf781611be3565b82525050565b60208101610c958284611bee565b6000610c9582611bb3565b611c1f81611c0b565b811461043857600080fd5b8035610c9581611c16565b600060208284031215611c4a57611c4a600080fd5b6000611b818484611c2a565b6001600160401b031690565b611c1f81611c56565b8035610c9581611c62565b600060208284031215611c8b57611c8b600080fd5b6000611b818484611c6b565b80611bf7565b60208101610c958284611c97565b611bf781611c56565b6000611cc08383611cab565b505060200190565b6000611cd2825190565b80845260209384019383018060005b83811015611d06578151611cf58882611cb4565b975060208301925050600101611ce1565b509495945050505050565b6020808252810161193c8184611cc8565b601f01601f191690565b634e487b7160e01b600052604160045260246000fd5b611d4b82611d22565b81018181106001600160401b0382111715611d6857611d68611d2c565b6040525050565b6000611d7a60405190565b90506108b58282611d42565b60006001600160401b03821115611d9f57611d9f611d2c565b611da882611d22565b60200192915050565b82818337506000910152565b6000611dd0611dcb84611d86565b611d6f565b905082815260208101848484011115611deb57611deb600080fd5b610d9e848285611db1565b600082601f830112611e0a57611e0a600080fd5b8135611b81848260208601611dbd565b60008060408385031215611e3057611e30600080fd5b6000611e3c8585611c2a565b92505060208301356001600160401b03811115611e5b57611e5b600080fd5b611e6785828601611df6565b9150509250929050565b611bf781611c0b565b60208101610c958284611e71565b60208101610c958284611cab565b801515611bf7565b60208101610c958284611e96565b6000806000806000806000806000806101408b8d031215611ecf57611ecf600080fd5b6000611edb8d8d611c2a565b9a50506020611eec8d828e01611c2a565b9950506040611efd8d828e01611c2a565b9850506060611f0e8d828e01611c2a565b9750506080611f1f8d828e01611c2a565b96505060a0611f308d828e01611c2a565b95505060c0611f418d828e01611c2a565b94505060e0611f528d828e01611c2a565b935050610100611f648d828e01611c2a565b925050610120611f768d828e01611c2a565b9150509295989b9194979a5092959850565b60008060408385031215611f9e57611f9e600080fd5b6000611faa8585611c6b565b9250506020611e6785828601611c6b565b60006001600160401b03821115611fd457611fd4611d2c565b5060209081020190565b6000611fec611dcb84611fbb565b8381529050602080820190840283018581111561200b5761200b600080fd5b835b8181101561202f57806120208882611c6b565b8452506020928301920161200d565b5050509392505050565b600082601f83011261204d5761204d600080fd5b8135611b81848260208601611fde565b6000806000806080858703121561207657612076600080fd5b60006120828787611c6b565b945050602061209387828801611c6b565b93505060408501356001600160401b038111156120b2576120b2600080fd5b6120be87828801612039565b92505060608501356001600160401b038111156120dd576120dd600080fd5b6120e987828801612039565b91505092959194509250565b602c8152600060208201600080516020612b6683398151915281526b19195b1959d85d1958d85b1b60a21b602082015291505b5060400190565b60208082528101610c95816120f5565b602c8152600060208201600080516020612b6683398151915281526b6163746976652070726f787960a01b60208201529150612128565b60208082528101610c958161213f565b8051610c9581611c62565b600061219f611dcb84611fbb565b838152905060208082019084028301858111156121be576121be600080fd5b835b8181101561202f57806121d38882612186565b845250602092830192016121c0565b600082601f8301126121f6576121f6600080fd5b8151611b81848260208601612191565b6002811061043857600080fd5b8051610c9581612206565b600080600080600060a0868803121561223957612239600080fd5b60006122458888612186565b95505060208601516001600160401b0381111561226457612264600080fd5b612270888289016121e2565b945050604061228188828901612186565b935050606061229288828901612213565b92505060806122a388828901612186565b9150509295509295909350565b8051610c9581611c16565b6000602082840312156122d0576122d0600080fd5b6000611b8184846122b0565b604081016122ea8285611cab565b61193c6020830184611e71565b80611c1f565b8051610c95816122f7565b60006020828403121561231d5761231d600080fd5b6000611b8184846122fd565b634e487b7160e01b600052601160045260246000fd5b600061234a82611c56565b915061235583611c56565b9250508181036001600160401b03811115610c9557610c95612329565b634e487b7160e01b600052601260045260246000fd5b60008261239757612397612372565b500490565b8181028082158382048514176123b4576123b4612329565b5092915050565b603881526000602082017f555550535570677261646561626c653a206d757374206e6f742062652063616c8152771b1959081d1a1c9bdd59da0819195b1959d85d1958d85b1b60421b60208201529150612128565b60208082528101610c95816123bb565b60006020828403121561243557612435600080fd5b6000611b818484612186565b600061244c82611c56565b915061245783611c56565b9250508082016001600160401b03811115610c9557610c95612329565b60006020828403121561248957612489600080fd5b81516001600160401b038111156124a2576124a2600080fd5b611b81848285016121e2565b602e81526000602082017f496e697469616c697a61626c653a20636f6e747261637420697320616c72656181526d191e481a5b9a5d1a585b1a5e995960921b60208201529150612128565b60208082528101610c95816124ae565b600060ff8216610c95565b611bf781612509565b60208101610c958284612514565b634e487b7160e01b600052603260045260246000fd5b600061254c82611c56565b91506001600160401b03820361256457612564612329565b5060010190565b601281526000602082017129ba37b930b3b29032bc3834b930ba34b7b760711b815291505b5060200190565b60208082528101610c958161256b565b604081016125b58285611c97565b61193c6020830184611c97565b634e487b7160e01b600052602160045260246000fd5b60088110610438576104386125c2565b806108b5816125d8565b6000610c95826125e8565b611bf7816125f2565b60038110610438576104386125c2565b806108b581612606565b6000610c9582612616565b611bf781612620565b60a0810161264282886125fd565b61264f6020830187611e71565b61265c6040830186611cab565b6126696060830185611e71565b611b30608083018461262b565b604081016122ea8285611c97565b801515611c1f565b8051610c9581612684565b6000602082840312156126ac576126ac600080fd5b6000611b81848461268c565b601a81526000602082017913db9b1e48185b1b1bddd959081c9bdb194818d85b8818d85b1b60321b81529150612590565b60208082528101610c95816126b8565b602e81526000602082017f45524331393637557067726164653a206e657720696d706c656d656e7461746981526d6f6e206973206e6f74205555505360901b60208201529150612128565b60208082528101610c95816126f9565b602981526000602082017f45524331393637557067726164653a20756e737570706f727465642070726f788152681a58589b195555525160ba1b60208201529150612128565b60208082528101610c9581612754565b602b81526000602082017f496e697469616c697a61626c653a20636f6e7472616374206973206e6f74206981526a6e697469616c697a696e6760a81b60208201529150612128565b60208082528101610c95816127aa565b601d81526000602082017f4f6e6c7920616c6c6f77656420616464726573732063616e2063616c6c00000081529150612590565b60208082528101610c9581612802565b604081016128548285611cab565b61193c6020830184611cab565b6006811061043857600080fd5b8051610c9581612861565b60006020828403121561288e5761288e600080fd5b6000611b81848461286e565b6015815260006020820174496e76616c6964205265706c69636120537461746560581b81529150612590565b60208082528101610c958161289a565b60005b838110156128f15781810151838201526020016128d9565b50506000910152565b6000612908611dcb84611d86565b90508281526020810184848401111561292357612923600080fd5b610d9e8482856128d6565b600082601f83011261294257612942600080fd5b8151611b818482602086016128fa565b60006020828403121561296757612967600080fd5b81516001600160401b0381111561298057612980600080fd5b611b818482850161292e565b600c81526000602082016b0c6d2c840dad2e6dac2e8c6d60a31b81529150612590565b60208082528101610c958161298c565b606081016129cd8286611cab565b6129da6020830185611cab565b611b816040830184611cab565b602d81526000602082017f455243313936373a206e657720696d706c656d656e746174696f6e206973206e81526c1bdd08184818dbdb9d1c9858dd609a1b60208201529150612128565b60208082528101610c95816129e7565b6000612a4b825190565b612a598185602086016128d6565b9290920192915050565b6000612a6f8285612a41565b9150611b818284612a41565b6000612a878285612a41565b9150612a938284611c97565b5060200192915050565b60ff16600060fe19820161256457612564612329565b60ff918216919081169082820190811115610c9557610c95612329565b600061193c8284612a41565b601d81526000602082017f416464726573733a2063616c6c20746f206e6f6e2d636f6e747261637400000081529150612590565b60208082528101610c9581612adc565b6000612b2a825190565b808452602084019350612b418185602086016128d6565b612b4a81611d22565b9093019392505050565b6020808252810161193c8184612b2056fe46756e6374696f6e206d7573742062652063616c6c6564207468726f75676820360894a13ba1a3210667c828492db98dca3e2076cc3735a920a3ca505d382bbc416464726573733a206c6f772d6c6576656c2064656c65676174652063616c6c206661696c6564a2646970667358221220b95396a86159e21fd2974bdad00ab65739ffe951c876234fa0e9904a20dc237e64736f6c63430008150033",
  "devdoc": {
    "details": "Manages the storage of matched data after successful matching with Filecoin storage deals.",
    "events": {
      "AdminChanged(address,address)": {
        "details": "Emitted when the admin account has changed."
      },
      "BeaconUpgraded(address)": {
        "details": "Emitted when the beacon is changed."
      },
      "Initialized(uint8)": {
        "details": "Triggered when the contract has been initialized or reinitialized."
      },
      "StorageClaimIdSubmitted(uint64,uint64,uint64)": {
        "details": "Submits a Filecoin claim ID for a matched store after successful matching.",
        "params": {
          "_claimId": "The Filecoin claim ID.",
          "_id": "The ID of the file.",
          "_matchingId": "The ID of the matching store."
        }
      },
      "Upgraded(address)": {
        "details": "Emitted when the implementation is upgraded."
      }
    },
    "kind": "dev",
    "methods": {
      "getClientLockPayment(uint64)": {
        "details": "Get the client allow payment amount"
      },
      "getProviderLockPayment(uint64)": {
        "details": "Get the provider allow payment amount"
      },
      "getStoredCarCount(uint64)": {
        "details": "Gets the count of done cars in the matchedstore."
      },
      "getStoredCarSize(uint64,uint64)": {
        "details": "Gets the car size in the matchedstore."
      },
      "getStoredCars(uint64)": {
        "details": "Gets the list of done cars in the matchedstore."
      },
      "getTotalStoredSize(uint64)": {
        "details": "Gets the stored size in the matchedstore."
      },
      "isAllStoredDone(uint64)": {
        "details": "Checks if all cars are done in the matchedstore."
      },
      "isStorageExpiration(uint64)": {
        "details": "Checks if store expiration in the matchedstore."
      },
      "proxiableUUID()": {
        "details": "Implementation of the ERC1822 {proxiableUUID} function. This returns the storage slot used by the implementation. It is used to validate the implementation's compatibility when performing an upgrade. IMPORTANT: A proxy pointing at a proxiable contract should not be considered proxiable itself, because this risks bricking a proxy that upgrades to it, by delegating to itself until out of gas. Thus it is critical that this function revert if invoked through a proxy. This is guaranteed by the `notDelegated` modifier."
      },
      "submitStorageClaimIds(uint64,uint64,uint64[],uint64[])": {
        "details": "Submits multiple Filecoin claim Ids for a matchedstore after successful matching.",
        "params": {
          "_claimIds": "An array of IDs of successful Filecoin storage deals.",
          "_ids": "An array of content identifiers of the matched data.",
          "_matchingId": "The ID of the matching.",
          "_provider": "A provider of storage provider of matching."
        }
      },
      "upgradeTo(address)": {
        "custom:oz-upgrades-unsafe-allow-reachable": "delegatecall",
        "details": "Upgrade the implementation of the proxy to `newImplementation`. Calls {_authorizeUpgrade}. Emits an {Upgraded} event."
      },
      "upgradeToAndCall(address,bytes)": {
        "custom:oz-upgrades-unsafe-allow-reachable": "delegatecall",
        "details": "Upgrade the implementation of the proxy to `newImplementation`, and subsequently execute the function call encoded in `data`. Calls {_authorizeUpgrade}. Emits an {Upgraded} event."
      }
    },
    "stateVariables": {
      "__gap": {
        "details": "This empty reserved space is put in place to allow future versions to add new"
      }
    },
    "title": "storages",
    "version": 1
  },
  "userdoc": {
    "errors": {
      "ParamLengthMismatch(uint256,uint256)": [
        {
          "notice": "commmon errors"
        }
      ]
    },
    "kind": "user",
    "methods": {
      "datasets()": {
        "notice": "get datasets instance"
      },
      "getImplementation()": {
        "notice": "Returns the implementation contract"
      },
      "initialize(address,address,address,address,address,address,address,address,address,address)": {
        "notice": "initialize function to initialize the contract and grant the default admin role to the deployer."
      },
      "matchings()": {
        "notice": "get matchings instance"
      },
      "matchingsBids()": {
        "notice": "get matchingsBids instance"
      },
      "matchingsTarget()": {
        "notice": "get matchingsTarget instance"
      }
    },
    "version": 1
  },
  "storageLayout": {
    "storage": [
      {
        "astId": 5186,
        "contract": "src/v0.8/module/storage/Storages.sol:Storages",
        "label": "_initialized",
        "offset": 0,
        "slot": "0",
        "type": "t_uint8"
      },
      {
        "astId": 5189,
        "contract": "src/v0.8/module/storage/Storages.sol:Storages",
        "label": "_initializing",
        "offset": 1,
        "slot": "0",
        "type": "t_bool"
      },
      {
        "astId": 5168,
        "contract": "src/v0.8/module/storage/Storages.sol:Storages",
        "label": "__gap",
        "offset": 0,
        "slot": "1",
        "type": "t_array(t_uint256)50_storage"
      },
      {
        "astId": 5483,
        "contract": "src/v0.8/module/storage/Storages.sol:Storages",
        "label": "__gap",
        "offset": 0,
        "slot": "51",
        "type": "t_array(t_uint256)50_storage"
      },
      {
        "astId": 40578,
        "contract": "src/v0.8/module/storage/Storages.sol:Storages",
        "label": "storages",
        "offset": 0,
        "slot": "101",
        "type": "t_mapping(t_uint64,t_struct(Storage)45265_storage)"
      },
      {
        "astId": 40580,
        "contract": "src/v0.8/module/storage/Storages.sol:Storages",
        "label": "governanceAddress",
        "offset": 0,
        "slot": "102",
        "type": "t_address"
      },
      {
        "astId": 40583,
        "contract": "src/v0.8/module/storage/Storages.sol:Storages",
        "label": "roles",
        "offset": 0,
        "slot": "103",
        "type": "t_contract(IRoles)29558"
      },
      {
        "astId": 40586,
        "contract": "src/v0.8/module/storage/Storages.sol:Storages",
        "label": "escrow",
        "offset": 0,
        "slot": "104",
        "type": "t_contract(IEscrow)29288"
      },
      {
        "astId": 40589,
        "contract": "src/v0.8/module/storage/Storages.sol:Storages",
        "label": "filplus",
        "offset": 0,
        "slot": "105",
        "type": "t_contract(IFilplus)29518"
      },
      {
        "astId": 40592,
        "contract": "src/v0.8/module/storage/Storages.sol:Storages",
        "label": "filecoin",
        "offset": 0,
        "slot": "106",
        "type": "t_contract(IFilecoin)29330"
      },
      {
        "astId": 40595,
        "contract": "src/v0.8/module/storage/Storages.sol:Storages",
        "label": "datasets",
        "offset": 0,
        "slot": "107",
        "type": "t_contract(IDatasets)29822"
      },
      {
        "astId": 40598,
        "contract": "src/v0.8/module/storage/Storages.sol:Storages",
        "label": "carstore",
        "offset": 0,
        "slot": "108",
        "type": "t_contract(ICarstore)29050"
      },
      {
        "astId": 40601,
        "contract": "src/v0.8/module/storage/Storages.sol:Storages",
        "label": "matchings",
        "offset": 0,
        "slot": "109",
        "type": "t_contract(IMatchings)30370"
      },
      {
        "astId": 40604,
        "contract": "src/v0.8/module/storage/Storages.sol:Storages",
        "label": "matchingsTarget",
        "offset": 0,
        "slot": "110",
        "type": "t_contract(IMatchingsTarget)30632"
      },
      {
        "astId": 40607,
        "contract": "src/v0.8/module/storage/Storages.sol:Storages",
        "label": "matchingsBids",
        "offset": 0,
        "slot": "111",
        "type": "t_contract(IMatchingsBids)30464"
      },
      {
        "astId": 40612,
        "contract": "src/v0.8/module/storage/Storages.sol:Storages",
        "label": "__gap",
        "offset": 0,
        "slot": "112",
        "type": "t_array(t_uint256)32_storage"
      }
    ],
    "types": {
      "t_address": {
        "encoding": "inplace",
        "label": "address",
        "numberOfBytes": "20"
      },
      "t_array(t_uint256)32_storage": {
        "base": "t_uint256",
        "encoding": "inplace",
        "label": "uint256[32]",
        "numberOfBytes": "1024"
      },
      "t_array(t_uint256)50_storage": {
        "base": "t_uint256",
        "encoding": "inplace",
        "label": "uint256[50]",
        "numberOfBytes": "1600"
      },
      "t_array(t_uint64)dyn_storage": {
        "base": "t_uint64",
        "encoding": "dynamic_array",
        "label": "uint64[]",
        "numberOfBytes": "32"
      },
      "t_bool": {
        "encoding": "inplace",
        "label": "bool",
        "numberOfBytes": "1"
      },
      "t_contract(ICarstore)29050": {
        "encoding": "inplace",
        "label": "contract ICarstore",
        "numberOfBytes": "20"
      },
      "t_contract(IDatasets)29822": {
        "encoding": "inplace",
        "label": "contract IDatasets",
        "numberOfBytes": "20"
      },
      "t_contract(IEscrow)29288": {
        "encoding": "inplace",
        "label": "contract IEscrow",
        "numberOfBytes": "20"
      },
      "t_contract(IFilecoin)29330": {
        "encoding": "inplace",
        "label": "contract IFilecoin",
        "numberOfBytes": "20"
      },
      "t_contract(IFilplus)29518": {
        "encoding": "inplace",
        "label": "contract IFilplus",
        "numberOfBytes": "20"
      },
      "t_contract(IMatchings)30370": {
        "encoding": "inplace",
        "label": "contract IMatchings",
        "numberOfBytes": "20"
      },
      "t_contract(IMatchingsBids)30464": {
        "encoding": "inplace",
        "label": "contract IMatchingsBids",
        "numberOfBytes": "20"
      },
      "t_contract(IMatchingsTarget)30632": {
        "encoding": "inplace",
        "label": "contract IMatchingsTarget",
        "numberOfBytes": "20"
      },
      "t_contract(IRoles)29558": {
        "encoding": "inplace",
        "label": "contract IRoles",
        "numberOfBytes": "20"
      },
      "t_mapping(t_uint64,t_struct(Storage)45265_storage)": {
        "encoding": "mapping",
        "key": "t_uint64",
        "label": "mapping(uint64 => struct StorageType.Storage)",
        "numberOfBytes": "32",
        "value": "t_struct(Storage)45265_storage"
      },
      "t_struct(Storage)45265_storage": {
        "encoding": "inplace",
        "label": "struct StorageType.Storage",
        "members": [
          {
            "astId": 45264,
            "contract": "src/v0.8/module/storage/Storages.sol:Storages",
            "label": "doneCars",
            "offset": 0,
            "slot": "0",
            "type": "t_array(t_uint64)dyn_storage"
          }
        ],
        "numberOfBytes": "32"
      },
      "t_uint256": {
        "encoding": "inplace",
        "label": "uint256",
        "numberOfBytes": "32"
      },
      "t_uint64": {
        "encoding": "inplace",
        "label": "uint64",
        "numberOfBytes": "8"
      },
      "t_uint8": {
        "encoding": "inplace",
        "label": "uint8",
        "numberOfBytes": "1"
      }
    }
  }
}